{"contracts/PledgeVault.sol":{"PledgeVault":{"abi":[{"inputs":[{"internalType":"address","name":"_poolContract","type":"address"},{"internalType":"address","name":"_bankAddress","type":"address"},{"internalType":"address","name":"_admin","type":"address"}],"stateMutability":"nonpayable","type":"constructor"},{"inputs":[],"name":"AccessControlBadConfirmation","type":"error"},{"inputs":[{"internalType":"address","name":"account","type":"address"},{"internalType":"bytes32","name":"neededRole","type":"bytes32"}],"name":"AccessControlUnauthorizedAccount","type":"error"},{"anonymous":false,"inputs":[{"indexed":true,"internalType":"address","name":"deedContract","type":"address"},{"indexed":true,"internalType":"uint256","name":"tokenId","type":"uint256"},{"indexed":true,"internalType":"address","name":"from","type":"address"}],"name":"DeedDeposited","type":"event"},{"anonymous":false,"inputs":[{"indexed":true,"internalType":"address","name":"deedContract","type":"address"},{"indexed":true,"internalType":"uint256","name":"tokenId","type":"uint256"},{"indexed":true,"internalType":"address","name":"to","type":"address"}],"name":"DeedReleased","type":"event"},{"anonymous":false,"inputs":[{"indexed":true,"internalType":"bytes32","name":"role","type":"bytes32"},{"indexed":true,"internalType":"bytes32","name":"previousAdminRole","type":"bytes32"},{"indexed":true,"internalType":"bytes32","name":"newAdminRole","type":"bytes32"}],"name":"RoleAdminChanged","type":"event"},{"anonymous":false,"inputs":[{"indexed":true,"internalType":"bytes32","name":"role","type":"bytes32"},{"indexed":true,"internalType":"address","name":"account","type":"address"},{"indexed":true,"internalType":"address","name":"sender","type":"address"}],"name":"RoleGranted","type":"event"},{"anonymous":false,"inputs":[{"indexed":true,"internalType":"bytes32","name":"role","type":"bytes32"},{"indexed":true,"internalType":"address","name":"account","type":"address"},{"indexed":true,"internalType":"address","name":"sender","type":"address"}],"name":"RoleRevoked","type":"event"},{"inputs":[],"name":"DEFAULT_ADMIN_ROLE","outputs":[{"internalType":"bytes32","name":"","type":"bytes32"}],"stateMutability":"view","type":"function"},{"inputs":[],"name":"POOL_CONTRACT_ROLE","outputs":[{"internalType":"bytes32","name":"","type":"bytes32"}],"stateMutability":"view","type":"function"},{"inputs":[],"name":"bankAddress","outputs":[{"internalType":"address","name":"","type":"address"}],"stateMutability":"view","type":"function"},{"inputs":[],"name":"deedNFTContract","outputs":[{"internalType":"address","name":"","type":"address"}],"stateMutability":"view","type":"function"},{"inputs":[{"internalType":"bytes32","name":"role","type":"bytes32"}],"name":"getRoleAdmin","outputs":[{"internalType":"bytes32","name":"","type":"bytes32"}],"stateMutability":"view","type":"function"},{"inputs":[{"internalType":"bytes32","name":"role","type":"bytes32"},{"internalType":"address","name":"account","type":"address"}],"name":"grantRole","outputs":[],"stateMutability":"nonpayable","type":"function"},{"inputs":[{"internalType":"bytes32","name":"role","type":"bytes32"},{"internalType":"address","name":"account","type":"address"}],"name":"hasRole","outputs":[{"internalType":"bool","name":"","type":"bool"}],"stateMutability":"view","type":"function"},{"inputs":[],"name":"heldTokenId","outputs":[{"internalType":"uint256","name":"","type":"uint256"}],"stateMutability":"view","type":"function"},{"inputs":[],"name":"isDeedHeld","outputs":[{"internalType":"bool","name":"","type":"bool"}],"stateMutability":"view","type":"function"},{"inputs":[],"name":"nftDeposited","outputs":[{"internalType":"bool","name":"","type":"bool"}],"stateMutability":"view","type":"function"},{"inputs":[],"name":"nftReleased","outputs":[{"internalType":"bool","name":"","type":"bool"}],"stateMutability":"view","type":"function"},{"inputs":[{"internalType":"address","name":"","type":"address"},{"internalType":"address","name":"from","type":"address"},{"internalType":"uint256","name":"tokenId","type":"uint256"},{"internalType":"bytes","name":"","type":"bytes"}],"name":"onERC721Received","outputs":[{"internalType":"bytes4","name":"","type":"bytes4"}],"stateMutability":"nonpayable","type":"function"},{"inputs":[],"name":"poolContract","outputs":[{"internalType":"address","name":"","type":"address"}],"stateMutability":"view","type":"function"},{"inputs":[],"name":"releaseDeed","outputs":[],"stateMutability":"nonpayable","type":"function"},{"inputs":[{"internalType":"bytes32","name":"role","type":"bytes32"},{"internalType":"address","name":"callerConfirmation","type":"address"}],"name":"renounceRole","outputs":[],"stateMutability":"nonpayable","type":"function"},{"inputs":[{"internalType":"bytes32","name":"role","type":"bytes32"},{"internalType":"address","name":"account","type":"address"}],"name":"revokeRole","outputs":[],"stateMutability":"nonpayable","type":"function"},{"inputs":[{"internalType":"bytes4","name":"interfaceId","type":"bytes4"}],"name":"supportsInterface","outputs":[{"internalType":"bool","name":"","type":"bool"}],"stateMutability":"view","type":"function"}],"evm":{"bytecode":{"linkReferences":{},"object":"6080346100c557601f610a8b38819003918201601f19168301916001600160401b038311848410176100c9578084926060946040528339810103126100c557806100af61004e6100b5936100dd565b916100676040610060602084016100dd565b92016100dd565b600180546001600160a01b0319166001600160a01b0386161790556004805462010000600160b01b03191660109390931b62010000600160b01b0316929092179091556100f1565b5061015d565b5060405161084f90816101fc8239f35b5f80fd5b634e487b7160e01b5f52604160045260245ffd5b51906001600160a01b03821682036100c557565b6001600160a01b03165f8181525f80516020610a6b833981519152602052604090205460ff16610158575f8181525f80516020610a6b83398151915260205260408120805460ff191660011790553391905f80516020610a4b8339815191528180a4600190565b505f90565b6001600160a01b03165f8181527fd439bc0518d0a531d536f3ed9c15db9487aefbc8051a48ec78dcddffd7bd3a6360205260409020547f9c81408027135c0110a5451971bdd98dbf60c57e65d8cd78b7e1c47105a3ee35919060ff166101f557815f525f60205260405f20815f5260205260405f20600160ff1982541617905533915f80516020610a4b8339815191525f80a4600190565b50505f9056fe60806040818152600480361015610014575f80fd5b5f925f3560e01c9081629597e01461069e5750806301ffc9a71461064c578063150b7a021461052e578063248a9ca3146105045780632f2ff15d146104ca57806336568abe146104835780633ca61eba1461046157806341aa82ac146104395780634593eaf3146102525780636f6b8fa3146102335780637822ed491461020857806388d52ef7146101df57806391d148541461019d578063a217fddf1461017e578063cbbb2a2b14610155578063d547741f146101175763f626ae60146100da575f80fd5b3461011357826003193601126101135760209250549060ff82169182610104575b50519015158152f35b60081c60ff161591505f6100fb565b8280fd5b509034610113578060031936011261011357610151913561014c600161013b6106d6565b9383875286602052862001546106ec565b6107a7565b5080f35b50913461017b578060031936011261017b575060ff6020925460081c1690519015158152f35b80fd5b50503461019957816003193601126101995751908152602090f35b5080fd5b5034610113578160031936011261011357816020936101ba6106d6565b92358152808552209060018060a01b03165f52825260ff815f20541690519015158152f35b50503461019957816003193601126101995760015490516001600160a01b039091168152602090f35b503461011357826003193601126101135754905160109190911c6001600160a01b0316815260209150f35b5050346101995781600319360112610199576020906003549051908152f35b503461038a575f36600319011261038a577f9c81408027135c0110a5451971bdd98dbf60c57e65d8cd78b7e1c47105a3ee35805f525f602052825f20335f5260205260ff835f2054161561041e5750805460ff8116156103db5760ff8160081c1661038e5761ff001916610100178082556002546003546001600160a01b039490929091851690813b1561038a57606486915f809486519788958694632142170760e11b8652308c87015260101c16602485015260448401525af1801561038057610350575b5050600254600354915460101c831692167fe8383670d8496f6387cd90d87d2c260167c678257468a7230d4f233196f3d7e78480a480f35b9091935067ffffffffffffffff821161036d57525f915f80610318565b604184634e487b7160e01b5f525260245ffd5b50513d5f823e3d90fd5b5f80fd5b506020608492519162461bcd60e51b8352820152602160248201527f506c656467655661756c743a204e465420616c72656164792072656c656173656044820152601960fa1b6064820152fd5b506020606492519162461bcd60e51b8352820152601860248201527f506c656467655661756c743a206e6f204e46542068656c6400000000000000006044820152fd5b604492519163e2517d3f60e01b835233908301526024820152fd5b823461038a575f36600319011261038a5760025490516001600160a01b039091168152602090f35b50903461038a575f36600319011261038a5760ff602092541690519015158152f35b50903461038a578060031936011261038a5761049d6106d6565b90336001600160a01b038316036104bb57506104b991356107a7565b005b5163334bd91960e11b81529050fd5b50903461038a578060031936011261038a576104b991356104ff60016104ee6106d6565b93835f525f6020525f2001546106ec565b61072b565b50903461038a57602036600319011261038a57602091355f525f82526001815f2001549051908152f35b503461038a57608036600319011261038a576001600160a01b039080358281160361038a5761055b6106d6565b916044359160643567ffffffffffffffff80821161038a573660238301121561038a578183013590811161038a573691016024011161038a57805460ff81166105fe5790600160209692336bffffffffffffffffffffffff60a01b60025416176002558560035560ff191617905551921690337f4feceff3a7e7d9bce7f166031aa6add71dd3c8e6e8d1e673057155b253b90f7d5f80a4630a85bd0160e11b8152f35b855162461bcd60e51b8152602081840152602260248201527f506c656467655661756c743a204e465420616c7265616479206465706f736974604482015261195960f21b6064820152608490fd5b503461038a57602036600319011261038a573563ffffffff60e01b811680910361038a57602091637965db0b60e01b821491821561068d5750519015158152f35b6301ffc9a760e01b149150836100fb565b3461038a575f36600319011261038a57807f9c81408027135c0110a5451971bdd98dbf60c57e65d8cd78b7e1c47105a3ee3560209252f35b602435906001600160a01b038216820361038a57565b805f525f60205260405f20335f5260205260ff60405f2054161561070d5750565b6044906040519063e2517d3f60e01b82523360048301526024820152fd5b90815f525f60205260405f209060018060a01b031690815f5260205260ff60405f205416155f146107a157815f525f60205260405f20815f5260205260405f20600160ff1982541617905533917f2f8788117e7eff1d82e926ec794901d17c78024a50270940304540a733656f0d5f80a4600190565b50505f90565b90815f525f60205260405f209060018060a01b031690815f5260205260ff60405f2054165f146107a157815f525f60205260405f20815f5260205260405f2060ff19815416905533917ff6391f5c32d9c69d2a47ea670b442974b53935d1edc7fd64eb21e047a839171b5f80a460019056fea2646970667358221220320242e4bf3b4f9992a14fb700b2cc4a21d30243d565a8b86b4f0288b8bc2c7a64736f6c634300081900332f8788117e7eff1d82e926ec794901d17c78024a50270940304540a733656f0dad3228b676f7d3cd4284a5443f17f1962b36e491b30a40b2405849e597ba5fb5","opcodes":"PUSH1 0x80 CALLVALUE PUSH2 0xC5 JUMPI PUSH1 0x1F PUSH2 0xA8B CODESIZE DUP2 SWAP1 SUB SWAP2 DUP3 ADD PUSH1 0x1F NOT AND DUP4 ADD SWAP2 PUSH1 0x1 PUSH1 0x1 PUSH1 0x40 SHL SUB DUP4 GT DUP5 DUP5 LT OR PUSH2 0xC9 JUMPI DUP1 DUP5 SWAP3 PUSH1 0x60 SWAP5 PUSH1 0x40 MSTORE DUP4 CODECOPY DUP2 ADD SUB SLT PUSH2 0xC5 JUMPI DUP1 PUSH2 0xAF PUSH2 0x4E PUSH2 0xB5 SWAP4 PUSH2 0xDD JUMP JUMPDEST SWAP2 PUSH2 0x67 PUSH1 0x40 PUSH2 0x60 PUSH1 0x20 DUP5 ADD PUSH2 0xDD JUMP JUMPDEST SWAP3 ADD PUSH2 0xDD JUMP JUMPDEST PUSH1 0x1 DUP1 SLOAD PUSH1 0x1 PUSH1 0x1 PUSH1 0xA0 SHL SUB NOT AND PUSH1 0x1 PUSH1 0x1 PUSH1 0xA0 SHL SUB DUP7 AND OR SWAP1 SSTORE PUSH1 0x4 DUP1 SLOAD PUSH3 0x10000 PUSH1 0x1 PUSH1 0xB0 SHL SUB NOT AND PUSH1 0x10 SWAP4 SWAP1 SWAP4 SHL PUSH3 0x10000 PUSH1 0x1 PUSH1 0xB0 SHL SUB AND SWAP3 SWAP1 SWAP3 OR SWAP1 SWAP2 SSTORE PUSH2 0xF1 JUMP JUMPDEST POP PUSH2 0x15D JUMP JUMPDEST POP PUSH1 0x40 MLOAD PUSH2 0x84F SWAP1 DUP2 PUSH2 0x1FC DUP3 CODECOPY RETURN JUMPDEST PUSH0 DUP1 REVERT JUMPDEST PUSH4 0x4E487B71 PUSH1 0xE0 SHL PUSH0 MSTORE PUSH1 0x41 PUSH1 0x4 MSTORE PUSH1 0x24 PUSH0 REVERT JUMPDEST MLOAD SWAP1 PUSH1 0x1 PUSH1 0x1 PUSH1 0xA0 SHL SUB DUP3 AND DUP3 SUB PUSH2 0xC5 JUMPI JUMP JUMPDEST PUSH1 0x1 PUSH1 0x1 PUSH1 0xA0 SHL SUB AND PUSH0 DUP2 DUP2 MSTORE PUSH0 DUP1 MLOAD PUSH1 0x20 PUSH2 0xA6B DUP4 CODECOPY DUP2 MLOAD SWAP2 MSTORE PUSH1 0x20 MSTORE PUSH1 0x40 SWAP1 KECCAK256 SLOAD PUSH1 0xFF AND PUSH2 0x158 JUMPI PUSH0 DUP2 DUP2 MSTORE PUSH0 DUP1 MLOAD PUSH1 0x20 PUSH2 0xA6B DUP4 CODECOPY DUP2 MLOAD SWAP2 MSTORE PUSH1 0x20 MSTORE PUSH1 0x40 DUP2 KECCAK256 DUP1 SLOAD PUSH1 0xFF NOT AND PUSH1 0x1 OR SWAP1 SSTORE CALLER SWAP2 SWAP1 PUSH0 DUP1 MLOAD PUSH1 0x20 PUSH2 0xA4B DUP4 CODECOPY DUP2 MLOAD SWAP2 MSTORE DUP2 DUP1 LOG4 PUSH1 0x1 SWAP1 JUMP JUMPDEST POP PUSH0 SWAP1 JUMP JUMPDEST PUSH1 0x1 PUSH1 0x1 PUSH1 0xA0 SHL SUB AND PUSH0 DUP2 DUP2 MSTORE PUSH32 0xD439BC0518D0A531D536F3ED9C15DB9487AEFBC8051A48EC78DCDDFFD7BD3A63 PUSH1 0x20 MSTORE PUSH1 0x40 SWAP1 KECCAK256 SLOAD PUSH32 0x9C81408027135C0110A5451971BDD98DBF60C57E65D8CD78B7E1C47105A3EE35 SWAP2 SWAP1 PUSH1 0xFF AND PUSH2 0x1F5 JUMPI DUP2 PUSH0 MSTORE PUSH0 PUSH1 0x20 MSTORE PUSH1 0x40 PUSH0 KECCAK256 DUP2 PUSH0 MSTORE PUSH1 0x20 MSTORE PUSH1 0x40 PUSH0 KECCAK256 PUSH1 0x1 PUSH1 0xFF NOT DUP3 SLOAD AND OR SWAP1 SSTORE CALLER SWAP2 PUSH0 DUP1 MLOAD PUSH1 0x20 PUSH2 0xA4B DUP4 CODECOPY DUP2 MLOAD SWAP2 MSTORE PUSH0 DUP1 LOG4 PUSH1 0x1 SWAP1 JUMP JUMPDEST POP POP PUSH0 SWAP1 JUMP INVALID PUSH1 0x80 PUSH1 0x40 DUP2 DUP2 MSTORE PUSH1 0x4 DUP1 CALLDATASIZE LT ISZERO PUSH2 0x14 JUMPI PUSH0 DUP1 REVERT JUMPDEST PUSH0 SWAP3 PUSH0 CALLDATALOAD PUSH1 0xE0 SHR SWAP1 DUP2 PUSH3 0x9597E0 EQ PUSH2 0x69E JUMPI POP DUP1 PUSH4 0x1FFC9A7 EQ PUSH2 0x64C JUMPI DUP1 PUSH4 0x150B7A02 EQ PUSH2 0x52E JUMPI DUP1 PUSH4 0x248A9CA3 EQ PUSH2 0x504 JUMPI DUP1 PUSH4 0x2F2FF15D EQ PUSH2 0x4CA JUMPI DUP1 PUSH4 0x36568ABE EQ PUSH2 0x483 JUMPI DUP1 PUSH4 0x3CA61EBA EQ PUSH2 0x461 JUMPI DUP1 PUSH4 0x41AA82AC EQ PUSH2 0x439 JUMPI DUP1 PUSH4 0x4593EAF3 EQ PUSH2 0x252 JUMPI DUP1 PUSH4 0x6F6B8FA3 EQ PUSH2 0x233 JUMPI DUP1 PUSH4 0x7822ED49 EQ PUSH2 0x208 JUMPI DUP1 PUSH4 0x88D52EF7 EQ PUSH2 0x1DF JUMPI DUP1 PUSH4 0x91D14854 EQ PUSH2 0x19D JUMPI DUP1 PUSH4 0xA217FDDF EQ PUSH2 0x17E JUMPI DUP1 PUSH4 0xCBBB2A2B EQ PUSH2 0x155 JUMPI DUP1 PUSH4 0xD547741F EQ PUSH2 0x117 JUMPI PUSH4 0xF626AE60 EQ PUSH2 0xDA JUMPI PUSH0 DUP1 REVERT JUMPDEST CALLVALUE PUSH2 0x113 JUMPI DUP3 PUSH1 0x3 NOT CALLDATASIZE ADD SLT PUSH2 0x113 JUMPI PUSH1 0x20 SWAP3 POP SLOAD SWAP1 PUSH1 0xFF DUP3 AND SWAP2 DUP3 PUSH2 0x104 JUMPI JUMPDEST POP MLOAD SWAP1 ISZERO ISZERO DUP2 MSTORE RETURN JUMPDEST PUSH1 0x8 SHR PUSH1 0xFF AND ISZERO SWAP2 POP PUSH0 PUSH2 0xFB JUMP JUMPDEST DUP3 DUP1 REVERT JUMPDEST POP SWAP1 CALLVALUE PUSH2 0x113 JUMPI DUP1 PUSH1 0x3 NOT CALLDATASIZE ADD SLT PUSH2 0x113 JUMPI PUSH2 0x151 SWAP2 CALLDATALOAD PUSH2 0x14C PUSH1 0x1 PUSH2 0x13B PUSH2 0x6D6 JUMP JUMPDEST SWAP4 DUP4 DUP8 MSTORE DUP7 PUSH1 0x20 MSTORE DUP7 KECCAK256 ADD SLOAD PUSH2 0x6EC JUMP JUMPDEST PUSH2 0x7A7 JUMP JUMPDEST POP DUP1 RETURN JUMPDEST POP SWAP2 CALLVALUE PUSH2 0x17B JUMPI DUP1 PUSH1 0x3 NOT CALLDATASIZE ADD SLT PUSH2 0x17B JUMPI POP PUSH1 0xFF PUSH1 0x20 SWAP3 SLOAD PUSH1 0x8 SHR AND SWAP1 MLOAD SWAP1 ISZERO ISZERO DUP2 MSTORE RETURN JUMPDEST DUP1 REVERT JUMPDEST POP POP CALLVALUE PUSH2 0x199 JUMPI DUP2 PUSH1 0x3 NOT CALLDATASIZE ADD SLT PUSH2 0x199 JUMPI MLOAD SWAP1 DUP2 MSTORE PUSH1 0x20 SWAP1 RETURN JUMPDEST POP DUP1 REVERT JUMPDEST POP CALLVALUE PUSH2 0x113 JUMPI DUP2 PUSH1 0x3 NOT CALLDATASIZE ADD SLT PUSH2 0x113 JUMPI DUP2 PUSH1 0x20 SWAP4 PUSH2 0x1BA PUSH2 0x6D6 JUMP JUMPDEST SWAP3 CALLDATALOAD DUP2 MSTORE DUP1 DUP6 MSTORE KECCAK256 SWAP1 PUSH1 0x1 DUP1 PUSH1 0xA0 SHL SUB AND PUSH0 MSTORE DUP3 MSTORE PUSH1 0xFF DUP2 PUSH0 KECCAK256 SLOAD AND SWAP1 MLOAD SWAP1 ISZERO ISZERO DUP2 MSTORE RETURN JUMPDEST POP POP CALLVALUE PUSH2 0x199 JUMPI DUP2 PUSH1 0x3 NOT CALLDATASIZE ADD SLT PUSH2 0x199 JUMPI PUSH1 0x1 SLOAD SWAP1 MLOAD PUSH1 0x1 PUSH1 0x1 PUSH1 0xA0 SHL SUB SWAP1 SWAP2 AND DUP2 MSTORE PUSH1 0x20 SWAP1 RETURN JUMPDEST POP CALLVALUE PUSH2 0x113 JUMPI DUP3 PUSH1 0x3 NOT CALLDATASIZE ADD SLT PUSH2 0x113 JUMPI SLOAD SWAP1 MLOAD PUSH1 0x10 SWAP2 SWAP1 SWAP2 SHR PUSH1 0x1 PUSH1 0x1 PUSH1 0xA0 SHL SUB AND DUP2 MSTORE PUSH1 0x20 SWAP2 POP RETURN JUMPDEST POP POP CALLVALUE PUSH2 0x199 JUMPI DUP2 PUSH1 0x3 NOT CALLDATASIZE ADD SLT PUSH2 0x199 JUMPI PUSH1 0x20 SWAP1 PUSH1 0x3 SLOAD SWAP1 MLOAD SWAP1 DUP2 MSTORE RETURN JUMPDEST POP CALLVALUE PUSH2 0x38A JUMPI PUSH0 CALLDATASIZE PUSH1 0x3 NOT ADD SLT PUSH2 0x38A JUMPI PUSH32 0x9C81408027135C0110A5451971BDD98DBF60C57E65D8CD78B7E1C47105A3EE35 DUP1 PUSH0 MSTORE PUSH0 PUSH1 0x20 MSTORE DUP3 PUSH0 KECCAK256 CALLER PUSH0 MSTORE PUSH1 0x20 MSTORE PUSH1 0xFF DUP4 PUSH0 KECCAK256 SLOAD AND ISZERO PUSH2 0x41E JUMPI POP DUP1 SLOAD PUSH1 0xFF DUP2 AND ISZERO PUSH2 0x3DB JUMPI PUSH1 0xFF DUP2 PUSH1 0x8 SHR AND PUSH2 0x38E JUMPI PUSH2 0xFF00 NOT AND PUSH2 0x100 OR DUP1 DUP3 SSTORE PUSH1 0x2 SLOAD PUSH1 0x3 SLOAD PUSH1 0x1 PUSH1 0x1 PUSH1 0xA0 SHL SUB SWAP5 SWAP1 SWAP3 SWAP1 SWAP2 DUP6 AND SWAP1 DUP2 EXTCODESIZE ISZERO PUSH2 0x38A JUMPI PUSH1 0x64 DUP7 SWAP2 PUSH0 DUP1 SWAP5 DUP7 MLOAD SWAP8 DUP9 SWAP6 DUP7 SWAP5 PUSH4 0x21421707 PUSH1 0xE1 SHL DUP7 MSTORE ADDRESS DUP13 DUP8 ADD MSTORE PUSH1 0x10 SHR AND PUSH1 0x24 DUP6 ADD MSTORE PUSH1 0x44 DUP5 ADD MSTORE GAS CALL DUP1 ISZERO PUSH2 0x380 JUMPI PUSH2 0x350 JUMPI JUMPDEST POP POP PUSH1 0x2 SLOAD PUSH1 0x3 SLOAD SWAP2 SLOAD PUSH1 0x10 SHR DUP4 AND SWAP3 AND PUSH32 0xE8383670D8496F6387CD90D87D2C260167C678257468A7230D4F233196F3D7E7 DUP5 DUP1 LOG4 DUP1 RETURN JUMPDEST SWAP1 SWAP2 SWAP4 POP PUSH8 0xFFFFFFFFFFFFFFFF DUP3 GT PUSH2 0x36D JUMPI MSTORE PUSH0 SWAP2 PUSH0 DUP1 PUSH2 0x318 JUMP JUMPDEST PUSH1 0x41 DUP5 PUSH4 0x4E487B71 PUSH1 0xE0 SHL PUSH0 MSTORE MSTORE PUSH1 0x24 PUSH0 REVERT JUMPDEST POP MLOAD RETURNDATASIZE PUSH0 DUP3 RETURNDATACOPY RETURNDATASIZE SWAP1 REVERT JUMPDEST PUSH0 DUP1 REVERT JUMPDEST POP PUSH1 0x20 PUSH1 0x84 SWAP3 MLOAD SWAP2 PUSH3 0x461BCD PUSH1 0xE5 SHL DUP4 MSTORE DUP3 ADD MSTORE PUSH1 0x21 PUSH1 0x24 DUP3 ADD MSTORE PUSH32 0x506C656467655661756C743A204E465420616C72656164792072656C65617365 PUSH1 0x44 DUP3 ADD MSTORE PUSH1 0x19 PUSH1 0xFA SHL PUSH1 0x64 DUP3 ADD MSTORE REVERT JUMPDEST POP PUSH1 0x20 PUSH1 0x64 SWAP3 MLOAD SWAP2 PUSH3 0x461BCD PUSH1 0xE5 SHL DUP4 MSTORE DUP3 ADD MSTORE PUSH1 0x18 PUSH1 0x24 DUP3 ADD MSTORE PUSH32 0x506C656467655661756C743A206E6F204E46542068656C640000000000000000 PUSH1 0x44 DUP3 ADD MSTORE REVERT JUMPDEST PUSH1 0x44 SWAP3 MLOAD SWAP2 PUSH4 0xE2517D3F PUSH1 0xE0 SHL DUP4 MSTORE CALLER SWAP1 DUP4 ADD MSTORE PUSH1 0x24 DUP3 ADD MSTORE REVERT JUMPDEST DUP3 CALLVALUE PUSH2 0x38A JUMPI PUSH0 CALLDATASIZE PUSH1 0x3 NOT ADD SLT PUSH2 0x38A JUMPI PUSH1 0x2 SLOAD SWAP1 MLOAD PUSH1 0x1 PUSH1 0x1 PUSH1 0xA0 SHL SUB SWAP1 SWAP2 AND DUP2 MSTORE PUSH1 0x20 SWAP1 RETURN JUMPDEST POP SWAP1 CALLVALUE PUSH2 0x38A JUMPI PUSH0 CALLDATASIZE PUSH1 0x3 NOT ADD SLT PUSH2 0x38A JUMPI PUSH1 0xFF PUSH1 0x20 SWAP3 SLOAD AND SWAP1 MLOAD SWAP1 ISZERO ISZERO DUP2 MSTORE RETURN JUMPDEST POP SWAP1 CALLVALUE PUSH2 0x38A JUMPI DUP1 PUSH1 0x3 NOT CALLDATASIZE ADD SLT PUSH2 0x38A JUMPI PUSH2 0x49D PUSH2 0x6D6 JUMP JUMPDEST SWAP1 CALLER PUSH1 0x1 PUSH1 0x1 PUSH1 0xA0 SHL SUB DUP4 AND SUB PUSH2 0x4BB JUMPI POP PUSH2 0x4B9 SWAP2 CALLDATALOAD PUSH2 0x7A7 JUMP JUMPDEST STOP JUMPDEST MLOAD PUSH4 0x334BD919 PUSH1 0xE1 SHL DUP2 MSTORE SWAP1 POP REVERT JUMPDEST POP SWAP1 CALLVALUE PUSH2 0x38A JUMPI DUP1 PUSH1 0x3 NOT CALLDATASIZE ADD SLT PUSH2 0x38A JUMPI PUSH2 0x4B9 SWAP2 CALLDATALOAD PUSH2 0x4FF PUSH1 0x1 PUSH2 0x4EE PUSH2 0x6D6 JUMP JUMPDEST SWAP4 DUP4 PUSH0 MSTORE PUSH0 PUSH1 0x20 MSTORE PUSH0 KECCAK256 ADD SLOAD PUSH2 0x6EC JUMP JUMPDEST PUSH2 0x72B JUMP JUMPDEST POP SWAP1 CALLVALUE PUSH2 0x38A JUMPI PUSH1 0x20 CALLDATASIZE PUSH1 0x3 NOT ADD SLT PUSH2 0x38A JUMPI PUSH1 0x20 SWAP2 CALLDATALOAD PUSH0 MSTORE PUSH0 DUP3 MSTORE PUSH1 0x1 DUP2 PUSH0 KECCAK256 ADD SLOAD SWAP1 MLOAD SWAP1 DUP2 MSTORE RETURN JUMPDEST POP CALLVALUE PUSH2 0x38A JUMPI PUSH1 0x80 CALLDATASIZE PUSH1 0x3 NOT ADD SLT PUSH2 0x38A JUMPI PUSH1 0x1 PUSH1 0x1 PUSH1 0xA0 SHL SUB SWAP1 DUP1 CALLDATALOAD DUP3 DUP2 AND SUB PUSH2 0x38A JUMPI PUSH2 0x55B PUSH2 0x6D6 JUMP JUMPDEST SWAP2 PUSH1 0x44 CALLDATALOAD SWAP2 PUSH1 0x64 CALLDATALOAD PUSH8 0xFFFFFFFFFFFFFFFF DUP1 DUP3 GT PUSH2 0x38A JUMPI CALLDATASIZE PUSH1 0x23 DUP4 ADD SLT ISZERO PUSH2 0x38A JUMPI DUP2 DUP4 ADD CALLDATALOAD SWAP1 DUP2 GT PUSH2 0x38A JUMPI CALLDATASIZE SWAP2 ADD PUSH1 0x24 ADD GT PUSH2 0x38A JUMPI DUP1 SLOAD PUSH1 0xFF DUP2 AND PUSH2 0x5FE JUMPI SWAP1 PUSH1 0x1 PUSH1 0x20 SWAP7 SWAP3 CALLER PUSH12 0xFFFFFFFFFFFFFFFFFFFFFFFF PUSH1 0xA0 SHL PUSH1 0x2 SLOAD AND OR PUSH1 0x2 SSTORE DUP6 PUSH1 0x3 SSTORE PUSH1 0xFF NOT AND OR SWAP1 SSTORE MLOAD SWAP3 AND SWAP1 CALLER PUSH32 0x4FECEFF3A7E7D9BCE7F166031AA6ADD71DD3C8E6E8D1E673057155B253B90F7D PUSH0 DUP1 LOG4 PUSH4 0xA85BD01 PUSH1 0xE1 SHL DUP2 MSTORE RETURN JUMPDEST DUP6 MLOAD PUSH3 0x461BCD PUSH1 0xE5 SHL DUP2 MSTORE PUSH1 0x20 DUP2 DUP5 ADD MSTORE PUSH1 0x22 PUSH1 0x24 DUP3 ADD MSTORE PUSH32 0x506C656467655661756C743A204E465420616C7265616479206465706F736974 PUSH1 0x44 DUP3 ADD MSTORE PUSH2 0x1959 PUSH1 0xF2 SHL PUSH1 0x64 DUP3 ADD MSTORE PUSH1 0x84 SWAP1 REVERT JUMPDEST POP CALLVALUE PUSH2 0x38A JUMPI PUSH1 0x20 CALLDATASIZE PUSH1 0x3 NOT ADD SLT PUSH2 0x38A JUMPI CALLDATALOAD PUSH4 0xFFFFFFFF PUSH1 0xE0 SHL DUP2 AND DUP1 SWAP2 SUB PUSH2 0x38A JUMPI PUSH1 0x20 SWAP2 PUSH4 0x7965DB0B PUSH1 0xE0 SHL DUP3 EQ SWAP2 DUP3 ISZERO PUSH2 0x68D JUMPI POP MLOAD SWAP1 ISZERO ISZERO DUP2 MSTORE RETURN JUMPDEST PUSH4 0x1FFC9A7 PUSH1 0xE0 SHL EQ SWAP2 POP DUP4 PUSH2 0xFB JUMP JUMPDEST CALLVALUE PUSH2 0x38A JUMPI PUSH0 CALLDATASIZE PUSH1 0x3 NOT ADD SLT PUSH2 0x38A JUMPI DUP1 PUSH32 0x9C81408027135C0110A5451971BDD98DBF60C57E65D8CD78B7E1C47105A3EE35 PUSH1 0x20 SWAP3 MSTORE RETURN JUMPDEST PUSH1 0x24 CALLDATALOAD SWAP1 PUSH1 0x1 PUSH1 0x1 PUSH1 0xA0 SHL SUB DUP3 AND DUP3 SUB PUSH2 0x38A JUMPI JUMP JUMPDEST DUP1 PUSH0 MSTORE PUSH0 PUSH1 0x20 MSTORE PUSH1 0x40 PUSH0 KECCAK256 CALLER PUSH0 MSTORE PUSH1 0x20 MSTORE PUSH1 0xFF PUSH1 0x40 PUSH0 KECCAK256 SLOAD AND ISZERO PUSH2 0x70D JUMPI POP JUMP JUMPDEST PUSH1 0x44 SWAP1 PUSH1 0x40 MLOAD SWAP1 PUSH4 0xE2517D3F PUSH1 0xE0 SHL DUP3 MSTORE CALLER PUSH1 0x4 DUP4 ADD MSTORE PUSH1 0x24 DUP3 ADD MSTORE REVERT JUMPDEST SWAP1 DUP2 PUSH0 MSTORE PUSH0 PUSH1 0x20 MSTORE PUSH1 0x40 PUSH0 KECCAK256 SWAP1 PUSH1 0x1 DUP1 PUSH1 0xA0 SHL SUB AND SWAP1 DUP2 PUSH0 MSTORE PUSH1 0x20 MSTORE PUSH1 0xFF PUSH1 0x40 PUSH0 KECCAK256 SLOAD AND ISZERO PUSH0 EQ PUSH2 0x7A1 JUMPI DUP2 PUSH0 MSTORE PUSH0 PUSH1 0x20 MSTORE PUSH1 0x40 PUSH0 KECCAK256 DUP2 PUSH0 MSTORE PUSH1 0x20 MSTORE PUSH1 0x40 PUSH0 KECCAK256 PUSH1 0x1 PUSH1 0xFF NOT DUP3 SLOAD AND OR SWAP1 SSTORE CALLER SWAP2 PUSH32 0x2F8788117E7EFF1D82E926EC794901D17C78024A50270940304540A733656F0D PUSH0 DUP1 LOG4 PUSH1 0x1 SWAP1 JUMP JUMPDEST POP POP PUSH0 SWAP1 JUMP JUMPDEST SWAP1 DUP2 PUSH0 MSTORE PUSH0 PUSH1 0x20 MSTORE PUSH1 0x40 PUSH0 KECCAK256 SWAP1 PUSH1 0x1 DUP1 PUSH1 0xA0 SHL SUB AND SWAP1 DUP2 PUSH0 MSTORE PUSH1 0x20 MSTORE PUSH1 0xFF PUSH1 0x40 PUSH0 KECCAK256 SLOAD AND PUSH0 EQ PUSH2 0x7A1 JUMPI DUP2 PUSH0 MSTORE PUSH0 PUSH1 0x20 MSTORE PUSH1 0x40 PUSH0 KECCAK256 DUP2 PUSH0 MSTORE PUSH1 0x20 MSTORE PUSH1 0x40 PUSH0 KECCAK256 PUSH1 0xFF NOT DUP2 SLOAD AND SWAP1 SSTORE CALLER SWAP2 PUSH32 0xF6391F5C32D9C69D2A47EA670B442974B53935D1EDC7FD64EB21E047A839171B PUSH0 DUP1 LOG4 PUSH1 0x1 SWAP1 JUMP INVALID LOG2 PUSH5 0x6970667358 0x22 SLT KECCAK256 ORIGIN MUL TIMESTAMP 0xE4 0xBF EXTCODESIZE 0x4F SWAP10 SWAP3 LOG1 0x4F 0xB7 STOP 0xB2 0xCC BLOBBASEFEE 0x21 0xD3 MUL NUMBER 0xD5 PUSH6 0xA8B86B4F0288 0xB8 0xBC 0x2C PUSH27 0x64736F6C634300081900332F8788117E7EFF1D82E926EC794901D1 PUSH29 0x78024A50270940304540A733656F0DAD3228B676F7D3CD4284A5443F17 CALL SWAP7 0x2B CALLDATASIZE 0xE4 SWAP2 0xB3 EXP BLOCKHASH 0xB2 BLOCKHASH PC BLOBHASH 0xE5 SWAP8 0xBA PUSH0 0xB5 "},"methodIdentifiers":{"DEFAULT_ADMIN_ROLE()":"a217fddf","POOL_CONTRACT_ROLE()":"009597e0","bankAddress()":"7822ed49","deedNFTContract()":"41aa82ac","getRoleAdmin(bytes32)":"248a9ca3","grantRole(bytes32,address)":"2f2ff15d","hasRole(bytes32,address)":"91d14854","heldTokenId()":"6f6b8fa3","isDeedHeld()":"f626ae60","nftDeposited()":"3ca61eba","nftReleased()":"cbbb2a2b","onERC721Received(address,address,uint256,bytes)":"150b7a02","poolContract()":"88d52ef7","releaseDeed()":"4593eaf3","renounceRole(bytes32,address)":"36568abe","revokeRole(bytes32,address)":"d547741f","supportsInterface(bytes4)":"01ffc9a7"}}}}}