{"contracts/DeedNFT.sol":{"DeedNFT":{"abi":[{"inputs":[{"internalType":"address","name":"_admin","type":"address"}],"stateMutability":"nonpayable","type":"constructor"},{"inputs":[],"name":"AccessControlBadConfirmation","type":"error"},{"inputs":[{"internalType":"address","name":"account","type":"address"},{"internalType":"bytes32","name":"neededRole","type":"bytes32"}],"name":"AccessControlUnauthorizedAccount","type":"error"},{"inputs":[{"internalType":"address","name":"sender","type":"address"},{"internalType":"uint256","name":"tokenId","type":"uint256"},{"internalType":"address","name":"owner","type":"address"}],"name":"ERC721IncorrectOwner","type":"error"},{"inputs":[{"internalType":"address","name":"operator","type":"address"},{"internalType":"uint256","name":"tokenId","type":"uint256"}],"name":"ERC721InsufficientApproval","type":"error"},{"inputs":[{"internalType":"address","name":"approver","type":"address"}],"name":"ERC721InvalidApprover","type":"error"},{"inputs":[{"internalType":"address","name":"operator","type":"address"}],"name":"ERC721InvalidOperator","type":"error"},{"inputs":[{"internalType":"address","name":"owner","type":"address"}],"name":"ERC721InvalidOwner","type":"error"},{"inputs":[{"internalType":"address","name":"receiver","type":"address"}],"name":"ERC721InvalidReceiver","type":"error"},{"inputs":[{"internalType":"address","name":"sender","type":"address"}],"name":"ERC721InvalidSender","type":"error"},{"inputs":[{"internalType":"uint256","name":"tokenId","type":"uint256"}],"name":"ERC721NonexistentToken","type":"error"},{"anonymous":false,"inputs":[{"indexed":true,"internalType":"address","name":"owner","type":"address"},{"indexed":true,"internalType":"address","name":"approved","type":"address"},{"indexed":true,"internalType":"uint256","name":"tokenId","type":"uint256"}],"name":"Approval","type":"event"},{"anonymous":false,"inputs":[{"indexed":true,"internalType":"address","name":"owner","type":"address"},{"indexed":true,"internalType":"address","name":"operator","type":"address"},{"indexed":false,"internalType":"bool","name":"approved","type":"bool"}],"name":"ApprovalForAll","type":"event"},{"anonymous":false,"inputs":[{"indexed":false,"internalType":"uint256","name":"_fromTokenId","type":"uint256"},{"indexed":false,"internalType":"uint256","name":"_toTokenId","type":"uint256"}],"name":"BatchMetadataUpdate","type":"event"},{"anonymous":false,"inputs":[{"indexed":true,"internalType":"uint256","name":"tokenId","type":"uint256"},{"indexed":true,"internalType":"address","name":"poolContract","type":"address"},{"indexed":false,"internalType":"string","name":"poolName","type":"string"}],"name":"DeedMinted","type":"event"},{"anonymous":false,"inputs":[{"indexed":true,"internalType":"uint256","name":"tokenId","type":"uint256"},{"indexed":true,"internalType":"address","name":"recipient","type":"address"}],"name":"DeedReleased","type":"event"},{"anonymous":false,"inputs":[{"indexed":false,"internalType":"uint256","name":"_tokenId","type":"uint256"}],"name":"MetadataUpdate","type":"event"},{"anonymous":false,"inputs":[{"indexed":true,"internalType":"bytes32","name":"role","type":"bytes32"},{"indexed":true,"internalType":"bytes32","name":"previousAdminRole","type":"bytes32"},{"indexed":true,"internalType":"bytes32","name":"newAdminRole","type":"bytes32"}],"name":"RoleAdminChanged","type":"event"},{"anonymous":false,"inputs":[{"indexed":true,"internalType":"bytes32","name":"role","type":"bytes32"},{"indexed":true,"internalType":"address","name":"account","type":"address"},{"indexed":true,"internalType":"address","name":"sender","type":"address"}],"name":"RoleGranted","type":"event"},{"anonymous":false,"inputs":[{"indexed":true,"internalType":"bytes32","name":"role","type":"bytes32"},{"indexed":true,"internalType":"address","name":"account","type":"address"},{"indexed":true,"internalType":"address","name":"sender","type":"address"}],"name":"RoleRevoked","type":"event"},{"anonymous":false,"inputs":[{"indexed":true,"internalType":"address","name":"from","type":"address"},{"indexed":true,"internalType":"address","name":"to","type":"address"},{"indexed":true,"internalType":"uint256","name":"tokenId","type":"uint256"}],"name":"Transfer","type":"event"},{"inputs":[],"name":"DEFAULT_ADMIN_ROLE","outputs":[{"internalType":"bytes32","name":"","type":"bytes32"}],"stateMutability":"view","type":"function"},{"inputs":[],"name":"MINTER_ROLE","outputs":[{"internalType":"bytes32","name":"","type":"bytes32"}],"stateMutability":"view","type":"function"},{"inputs":[{"internalType":"address","name":"to","type":"address"},{"internalType":"uint256","name":"tokenId","type":"uint256"}],"name":"approve","outputs":[],"stateMutability":"nonpayable","type":"function"},{"inputs":[{"internalType":"address","name":"owner","type":"address"}],"name":"balanceOf","outputs":[{"internalType":"uint256","name":"","type":"uint256"}],"stateMutability":"view","type":"function"},{"inputs":[{"internalType":"uint256","name":"","type":"uint256"}],"name":"deedMetadata","outputs":[{"internalType":"address","name":"poolContract","type":"address"},{"internalType":"string","name":"poolName","type":"string"},{"internalType":"uint256","name":"principalAmount","type":"uint256"},{"internalType":"uint256","name":"collateralValue","type":"uint256"},{"internalType":"uint256","name":"ltvBasisPoints","type":"uint256"},{"internalType":"uint256","name":"activationTimestamp","type":"uint256"},{"internalType":"bool","name":"released","type":"bool"}],"stateMutability":"view","type":"function"},{"inputs":[{"internalType":"uint256","name":"tokenId","type":"uint256"}],"name":"getApproved","outputs":[{"internalType":"address","name":"","type":"address"}],"stateMutability":"view","type":"function"},{"inputs":[{"internalType":"bytes32","name":"role","type":"bytes32"}],"name":"getRoleAdmin","outputs":[{"internalType":"bytes32","name":"","type":"bytes32"}],"stateMutability":"view","type":"function"},{"inputs":[{"internalType":"bytes32","name":"role","type":"bytes32"},{"internalType":"address","name":"account","type":"address"}],"name":"grantRole","outputs":[],"stateMutability":"nonpayable","type":"function"},{"inputs":[{"internalType":"bytes32","name":"role","type":"bytes32"},{"internalType":"address","name":"account","type":"address"}],"name":"hasRole","outputs":[{"internalType":"bool","name":"","type":"bool"}],"stateMutability":"view","type":"function"},{"inputs":[{"internalType":"address","name":"owner","type":"address"},{"internalType":"address","name":"operator","type":"address"}],"name":"isApprovedForAll","outputs":[{"internalType":"bool","name":"","type":"bool"}],"stateMutability":"view","type":"function"},{"inputs":[{"internalType":"uint256","name":"tokenId","type":"uint256"}],"name":"markReleased","outputs":[],"stateMutability":"nonpayable","type":"function"},{"inputs":[{"internalType":"address","name":"to","type":"address"},{"internalType":"address","name":"poolContract","type":"address"},{"internalType":"string","name":"poolName","type":"string"},{"internalType":"uint256","name":"principalAmount","type":"uint256"},{"internalType":"uint256","name":"collateralValue","type":"uint256"},{"internalType":"uint256","name":"ltvBasisPoints","type":"uint256"},{"internalType":"string","name":"metadataURI","type":"string"}],"name":"mintDeed","outputs":[{"internalType":"uint256","name":"tokenId","type":"uint256"}],"stateMutability":"nonpayable","type":"function"},{"inputs":[],"name":"name","outputs":[{"internalType":"string","name":"","type":"string"}],"stateMutability":"view","type":"function"},{"inputs":[{"internalType":"uint256","name":"tokenId","type":"uint256"}],"name":"ownerOf","outputs":[{"internalType":"address","name":"","type":"address"}],"stateMutability":"view","type":"function"},{"inputs":[{"internalType":"bytes32","name":"role","type":"bytes32"},{"internalType":"address","name":"callerConfirmation","type":"address"}],"name":"renounceRole","outputs":[],"stateMutability":"nonpayable","type":"function"},{"inputs":[{"internalType":"bytes32","name":"role","type":"bytes32"},{"internalType":"address","name":"account","type":"address"}],"name":"revokeRole","outputs":[],"stateMutability":"nonpayable","type":"function"},{"inputs":[{"internalType":"address","name":"from","type":"address"},{"internalType":"address","name":"to","type":"address"},{"internalType":"uint256","name":"tokenId","type":"uint256"}],"name":"safeTransferFrom","outputs":[],"stateMutability":"nonpayable","type":"function"},{"inputs":[{"internalType":"address","name":"from","type":"address"},{"internalType":"address","name":"to","type":"address"},{"internalType":"uint256","name":"tokenId","type":"uint256"},{"internalType":"bytes","name":"data","type":"bytes"}],"name":"safeTransferFrom","outputs":[],"stateMutability":"nonpayable","type":"function"},{"inputs":[{"internalType":"address","name":"operator","type":"address"},{"internalType":"bool","name":"approved","type":"bool"}],"name":"setApprovalForAll","outputs":[],"stateMutability":"nonpayable","type":"function"},{"inputs":[{"internalType":"bytes4","name":"interfaceId","type":"bytes4"}],"name":"supportsInterface","outputs":[{"internalType":"bool","name":"","type":"bool"}],"stateMutability":"view","type":"function"},{"inputs":[],"name":"symbol","outputs":[{"internalType":"string","name":"","type":"string"}],"stateMutability":"view","type":"function"},{"inputs":[{"internalType":"uint256","name":"tokenId","type":"uint256"}],"name":"tokenURI","outputs":[{"internalType":"string","name":"","type":"string"}],"stateMutability":"view","type":"function"},{"inputs":[{"internalType":"address","name":"from","type":"address"},{"internalType":"address","name":"to","type":"address"},{"internalType":"uint256","name":"tokenId","type":"uint256"}],"name":"transferFrom","outputs":[],"stateMutability":"nonpayable","type":"function"}],"evm":{"bytecode":{"linkReferences":{},"object":"6080346102fc57601f1990601f906001600160401b03611cb038819003848101861684018381118582101761022a578492829160405283396020938491810103126102fc5751926001600160a01b03841684036102fc5761005e610300565b92600f84526e135a541bdbdb081119595908139195608a1b81850152610082610300565b9060048252631111515160e21b81830152845184811161022a575f546001968782811c921680156102f2575b8483101461020c5781868493116102a4575b508390868311600114610249575f9261023e575b50505f19600383901b1c191690861b175f555b815193841161022a5784548581811c91168015610220575b8282101461020c578381116101c9575b5080928411600114610167575061014c95505f91908361015c575b50505f19600383901b1c191690821b1790555b6101468161031f565b5061038b565b50604051611845908161042b8239f35b015190505f8061012a565b5f85815281812094978816915b8282106101b2575050918493918761014c98941061019a575b505050811b01905561013d565b01515f1960f88460031b161c191690555f808061018d565b808786978294978701518155019601940190610174565b855f52815f208480870160051c820192848810610203575b0160051c019086905b8281106101f857505061010f565b5f81550186906101ea565b925081926101e1565b634e487b7160e01b5f52602260045260245ffd5b90607f16906100ff565b634e487b7160e01b5f52604160045260245ffd5b015190505f806100d4565b908a899416915f8052855f20925f5b8782821061028e5750508411610276575b505050811b015f556100e7565b01515f1960f88460031b161c191690555f8080610269565b8385015186558c97909501949384019301610258565b9091505f8052835f208680850160051c8201928686106102e9575b918a91869594930160051c01915b8281106102db5750506100c0565b5f81558594508a91016102cd565b925081926102bf565b91607f16916100ae565b5f80fd5b60408051919082016001600160401b0381118382101761022a57604052565b6001600160a01b03165f8181525f80516020611c90833981519152602052604090205460ff16610386575f8181525f80516020611c9083398151915260205260408120805460ff191660011790553391905f80516020611c708339815191528180a4600190565b505f90565b6001600160a01b03165f8181527fa4bfd7afe708e2e87e7f0e2ad9b4d545417e0f795f57b5c5ab5d799c565a04f460205260409020547f9f2df0fed2c77648de5860a4cc508cd0818c85b8b8a1ab4ceeef8d981c8956a6919060ff1661042457815f52600760205260405f20815f5260205260405f20600160ff1982541617905533915f80516020611c708339815191525f80a4600190565b50505f9056fe6080806040526004361015610012575f80fd5b5f3560e01c90816301ffc9a7146110125750806306fdde0314610f6b578063081812fc14610f2f578063095ea7b314610e4e57806323b872dd14610e37578063248a9ca314610e0a5780632f2ff15d14610dcd57806336568abe14610d8657806342842e0e14610d595780636352211e14610d2957806370a0823114610cd357806391d1485414610c8a5780639272f82514610bf657806395d89b4114610b1857806395f104ec14610a4c578063a217fddf14610a32578063a22cb4651461096a578063a9cc7d0b1461028b578063b88d4fde1461021f578063c87b56dd146101e8578063d5391393146101ae578063d547741f1461016f5763e985e9c514610119575f80fd5b3461016b57604036600319011261016b576101326110d5565b61013a6110eb565b9060018060a01b038091165f52600560205260405f2091165f52602052602060ff60405f2054166040519015158152f35b5f80fd5b3461016b57604036600319011261016b576101ac60043561018e6110eb565b90805f5260076020526101a7600160405f2001546115b1565b611651565b005b3461016b575f36600319011261016b5760206040517f9f2df0fed2c77648de5860a4cc508cd0818c85b8b8a1ab4ceeef8d981c8956a68152f35b3461016b57602036600319011261016b5761021b610207600435611451565b6040519182916020835260208301906110b1565b0390f35b3461016b57608036600319011261016b576102386110d5565b6102406110eb565b906044356064359267ffffffffffffffff841161016b573660238501121561016b576102796101ac943690602481600401359101611298565b926102858383836112ce565b336116c5565b3461016b5760e036600319011261016b576102a46110d5565b6102ac6110eb565b60443567ffffffffffffffff811161016b576102cc90369060040161124e565b60c43567ffffffffffffffff811161016b576102ec90369060040161124e565b92906102f6611538565b600854935f19851461095657600185016008556040516103158161116e565b5f81526001600160a01b0388161561093e575f868152600260205260409020546001600160a01b03168015159087908261090b575b6001600160a01b038b165f818152600360209081526040808320805460010190558583526002909152812080546001600160a01b031916831790559091907fddf252ad1be2c89b69c2b068fc378daa952ba7f163c4a11628f55a4df523b3ef9080a46108f357873b6107a6575b506103c89293949596503691611298565b835f52600660205260405f209080519067ffffffffffffffff82116106d25781906103f38454611136565b601f8111610759575b50602090601f83116001146106f1575f926106e6575b50508160011b915f199060031b1c19161790555b7ff8e1a15aba9398e019f0b49df1a4fde98ee17ae345cb5f6b5e2c27f5033e8ce76020604051858152a160405160e0810181811067ffffffffffffffff8211176106d2576040526001600160a01b0385168152610484368484611298565b60208201526064356040820152608435606082015260a43560808201524260a08201525f60c0820152835f52600960205260405f209060018060a01b038151166bffffffffffffffffffffffff60a01b835416178255602081015180519067ffffffffffffffff82116106d2576104fe6001850154611136565b601f811161068e575b509285926020989288958a90601f83116001146105ef5760c060409694846105ad957fe2060a2b05d7d04dd71fd94c654bec73ff52f4606f54f55bb0ec7d8866849db49b9c98956006955f926105e4575b50508160011b915f199060031b1c19161760018501555b878101516002850155606081015160038501556080810151600485015560a081015160058501550151151591019060ff801983541691151516179055565b82519384928a8452818b850152848401375f8288018401526001600160a01b031695601f01601f19168101030190a3604051908152f35b015190505f80610558565b90600185015f528b5f20915f5b601f19851681106106715750604096946001857fe2060a2b05d7d04dd71fd94c654bec73ff52f4606f54f55bb0ec7d8866849db49b9c989560069560c0956105ad99601f19811610610659575b505050811b01600185015561056f565b01515f1960f88460031b161c191690555f8080610649565b8282015184558c99508b9850600190930192918d01918d016105fc565b600185015f5260205f20601f840160051c8101602085106106cb575b601f830160051c820181106106c0575050610507565b5f81556001016106aa565b50806106aa565b634e487b7160e01b5f52604160045260245ffd5b015190508780610412565b9250835f5260205f20905f935b601f198416851061073e576001945083601f19811610610726575b505050811b019055610426565b01515f1960f88460031b161c19169055878080610719565b818101518355602094850194600190930192909101906106fe565b909150835f5260205f20601f840160051c81016020851061079f575b90849392915b601f830160051c820181106107915750506103fc565b5f815585945060010161077b565b5080610775565b60206107e09160405180938192630a85bd0160e11b83523360048401525f60248401528a60448401526080606484015260848301906110b1565b03815f6001600160a01b038d165af15f91816108ae575b5061085e57873d15610856573d9061080e8261127c565b9161081c604051938461118a565b82523d5f602084013e5b8151918261084f57604051633250574960e11b81526001600160a01b0383166004820152602490fd5b6020915001fd5b606090610826565b630a85bd0160e198929394959697981b9063ffffffff60e01b160361088c57508594939291906103c86103b7565b604051633250574960e11b81526001600160a01b039091166004820152602490fd5b9091506020813d6020116108eb575b816108ca6020938361118a565b8101031261016b57516001600160e01b03198116810361016b5790896107f7565b3d91506108bd565b6040516339e3563760e11b81525f6004820152602490fd5b5f82815260046020526040902080546001600160a01b0319169055805f52600360205260405f205f19815401905561034a565b604051633250574960e11b81525f6004820152602490fd5b634e487b7160e01b5f52601160045260245ffd5b3461016b57604036600319011261016b576109836110d5565b602435908115159081830361016b573315610a1a576001600160a01b0316918215610a01576109d390335f52600560205260405f20845f5260205260405f209060ff801983541691151516179055565b6040519081527f17307eab39ab6107e8899845ad3d59bd9653f200f220920489ca2b5937696c3160203392a3005b604051630b61174360e31b815260048101849052602490fd5b60405163a9fbf51f60e01b81525f6004820152602490fd5b3461016b575f36600319011261016b5760206040515f8152f35b3461016b57602036600319011261016b57600435610a68611538565b805f52600960205260ff600660405f20015416610ad3575f818152600960205260409020600601805460ff191660011790556001600160a01b03610aab826114fe565b16907f643fd83f31a35a9385de02e8d489f50aaad48205627a37cc3e20d42e7e67fd615f80a3005b60405162461bcd60e51b815260206004820152601960248201527f446565644e46543a20616c72656164792072656c6561736564000000000000006044820152606490fd5b3461016b575f36600319011261016b576040515f60018260015492610b3c84611136565b92838352602094856001821691825f14610bd6575050600114610b7b575b50610b679250038361118a565b61021b6040519282849384528301906110b1565b84915060015f527fb10e2d527612073b26eecdfd717e6a320cf44b4afac2b0732d9fcbe2b7fa0cf6905f915b858310610bbe575050610b67935082010185610b5a565b80548389018501528794508693909201918101610ba7565b60ff191685820152610b6795151560051b8501019250879150610b5a9050565b3461016b57602036600319011261016b576004355f90815260096020526040902080546001600160a01b0316610c2e600183016111ac565b91600281015490600381015490600481015460ff600660058401549301541692610c6a604051978897885260e0602089015260e08801906110b1565b9460408701526060860152608085015260a0840152151560c08301520390f35b3461016b57604036600319011261016b57610ca36110eb565b6004355f52600760205260405f209060018060a01b03165f52602052602060ff60405f2054166040519015158152f35b3461016b57602036600319011261016b576001600160a01b03610cf46110d5565b168015610d11575f526003602052602060405f2054604051908152f35b6040516322718ad960e21b81525f6004820152602490fd5b3461016b57602036600319011261016b576020610d476004356114fe565b6040516001600160a01b039091168152f35b3461016b576101ac610d6a36611101565b9060405192610d788461116e565b5f84526102858383836112ce565b3461016b57604036600319011261016b57610d9f6110eb565b336001600160a01b03821603610dbb576101ac90600435611651565b60405163334bd91960e11b8152600490fd5b3461016b57604036600319011261016b576101ac600435610dec6110eb565b90805f526007602052610e05600160405f2001546115b1565b6115d3565b3461016b57602036600319011261016b576004355f5260076020526020600160405f200154604051908152f35b3461016b576101ac610e4836611101565b916112ce565b3461016b57604036600319011261016b57610e676110d5565b602435610e73816114fe565b33151580610f1c575b80610ef3575b610edb576001600160a01b039283169282918491167f8c5be1e5ebec7d5bd14f71427d1e84f3dd0314c0f7b2291e5b200ac8c7c3b9255f80a45f90815260046020526040902080546001600160a01b0319169091179055005b60405163a9fbf51f60e01b8152336004820152602490fd5b5060018060a01b0381165f52600560205260405f20335f5260205260ff60405f20541615610e82565b506001600160a01b038116331415610e7c565b3461016b57602036600319011261016b57600435610f4c816114fe565b505f526004602052602060018060a01b0360405f205416604051908152f35b3461016b575f36600319011261016b576040515f80549082610f8c83611136565b91828252602093600190856001821691825f14610bd6575050600114610fb95750610b679250038361118a565b5f808052859250907f290decd9548b62a8d60345a988386fc84ba6bc95484008f6362f93160ef3e5635b858310610ffa575050610b67935082010185610b5a565b80548389018501528794508693909201918101610fe3565b3461016b57602036600319011261016b576004359063ffffffff60e01b821680920361016b57602091637965db0b60e01b8114908115611054575b5015158152f35b632483248360e11b81149150811561106e575b508361104d565b6380ac58cd60e01b8114915081156110a0575b811561108f575b5083611067565b6301ffc9a760e01b14905083611088565b635b5e139f60e01b81149150611081565b805180835260209291819084018484015e5f828201840152601f01601f1916010190565b600435906001600160a01b038216820361016b57565b602435906001600160a01b038216820361016b57565b606090600319011261016b576001600160a01b0390600435828116810361016b5791602435908116810361016b579060443590565b90600182811c92168015611164575b602083101461115057565b634e487b7160e01b5f52602260045260245ffd5b91607f1691611145565b6020810190811067ffffffffffffffff8211176106d257604052565b90601f8019910116810190811067ffffffffffffffff8211176106d257604052565b9060405191825f82546111be81611136565b908184526020946001916001811690815f1461122c57506001146111ee575b5050506111ec9250038361118a565b565b5f90815285812095935091905b8183106112145750506111ec93508201015f80806111dd565b855488840185015294850194879450918301916111fb565b925050506111ec94925060ff191682840152151560051b8201015f80806111dd565b9181601f8401121561016b5782359167ffffffffffffffff831161016b576020838186019501011161016b57565b67ffffffffffffffff81116106d257601f01601f191660200190565b9291926112a48261127c565b916112b2604051938461118a565b82948184528183011161016b578281602093845f960137010152565b6001600160a01b03918216929091831561093e57815f52602092600284528260409583875f20541695331515806113bf575b506002908761138e575b825f5260038152885f2060018154019055835f5252865f20816bffffffffffffffffffffffff60a01b825416179055857fddf252ad1be2c89b69c2b068fc378daa952ba7f163c4a11628f55a4df523b3ef5f80a4169283830361136d5750505050565b6064945051926364283d7b60e01b8452600484015260248301526044820152fd5b5f84815260046020526040812080546001600160a01b03191690558881526003825289902080545f1901905561130a565b9192509080611410575b156113d7579084915f611300565b8685876113f4576024915190637e27328960e01b82526004820152fd5b604491519063177e802f60e01b82523360048301526024820152fd5b503386148015611435575b806113c95750845f52600481523384885f205416146113c9565b50855f5260058152865f20335f52815260ff875f20541661141b565b61145a816114fe565b50604051906114688261116e565b5f8252805f5260206006815261148060405f206111ac565b92805180156114f75784516114bd5750505061149c91506114fe565b505f6040516114aa8161116e565b526040516114b78161116e565b5f815290565b6114f493508294818492604051978895018486015e8301908282015f8152815193849201905e015f8382015203808452018261118a565b90565b5050505090565b5f818152600260205260409020546001600160a01b0316908115611520575090565b60249060405190637e27328960e01b82526004820152fd5b335f9081527fa4bfd7afe708e2e87e7f0e2ad9b4d545417e0f795f57b5c5ab5d799c565a04f460205260409020547f9f2df0fed2c77648de5860a4cc508cd0818c85b8b8a1ab4ceeef8d981c8956a69060ff16156115935750565b6044906040519063e2517d3f60e01b82523360048301526024820152fd5b805f52600760205260405f20335f5260205260ff60405f205416156115935750565b90815f52600760205260405f209060018060a01b031690815f5260205260ff60405f205416155f1461164b57815f52600760205260405f20815f5260205260405f20600160ff1982541617905533917f2f8788117e7eff1d82e926ec794901d17c78024a50270940304540a733656f0d5f80a4600190565b50505f90565b90815f52600760205260405f209060018060a01b031690815f5260205260ff60405f2054165f1461164b57815f52600760205260405f20815f5260205260405f2060ff19815416905533917ff6391f5c32d9c69d2a47ea670b442974b53935d1edc7fd64eb21e047a839171b5f80a4600190565b9293909193843b6116d8575b5050505050565b604051630a85bd0160e11b8082526001600160a01b03958616600483015293851660248201526044810191909152608060648201526020959490931693929085908290819061172b9060848301906110b1565b03815f885af15f91816117cf575b50611798575050503d5f14611790573d916117538361127c565b92611761604051948561118a565b83523d5f8285013e5b8251928361178b57604051633250574960e11b815260048101849052602490fd5b019050fd5b60609161176a565b9193506001600160e01b0319909116036117b757505f808080806116d1565b60249060405190633250574960e11b82526004820152fd5b9091508581813d8311611808575b6117e7818361118a565b8101031261016b57516001600160e01b03198116810361016b57905f611739565b503d6117dd56fea2646970667358221220107a866a91e87bd593f26bbc16689b78bacc1a4cacd61ff2fe41d950581aa5f764736f6c634300081900332f8788117e7eff1d82e926ec794901d17c78024a50270940304540a733656f0d6d5257204ebe7d88fd91ae87941cb2dd9d8062b64ae5a2bd2d28ec40b9fbf6df","opcodes":"PUSH1 0x80 CALLVALUE PUSH2 0x2FC JUMPI PUSH1 0x1F NOT SWAP1 PUSH1 0x1F SWAP1 PUSH1 0x1 PUSH1 0x1 PUSH1 0x40 SHL SUB PUSH2 0x1CB0 CODESIZE DUP2 SWAP1 SUB DUP5 DUP2 ADD DUP7 AND DUP5 ADD DUP4 DUP2 GT DUP6 DUP3 LT OR PUSH2 0x22A JUMPI DUP5 SWAP3 DUP3 SWAP2 PUSH1 0x40 MSTORE DUP4 CODECOPY PUSH1 0x20 SWAP4 DUP5 SWAP2 DUP2 ADD SUB SLT PUSH2 0x2FC JUMPI MLOAD SWAP3 PUSH1 0x1 PUSH1 0x1 PUSH1 0xA0 SHL SUB DUP5 AND DUP5 SUB PUSH2 0x2FC JUMPI PUSH2 0x5E PUSH2 0x300 JUMP JUMPDEST SWAP3 PUSH1 0xF DUP5 MSTORE PUSH15 0x135A541BDBDB081119595908139195 PUSH1 0x8A SHL DUP2 DUP6 ADD MSTORE PUSH2 0x82 PUSH2 0x300 JUMP JUMPDEST SWAP1 PUSH1 0x4 DUP3 MSTORE PUSH4 0x11115151 PUSH1 0xE2 SHL DUP2 DUP4 ADD MSTORE DUP5 MLOAD DUP5 DUP2 GT PUSH2 0x22A JUMPI PUSH0 SLOAD PUSH1 0x1 SWAP7 DUP8 DUP3 DUP2 SHR SWAP3 AND DUP1 ISZERO PUSH2 0x2F2 JUMPI JUMPDEST DUP5 DUP4 LT EQ PUSH2 0x20C JUMPI DUP2 DUP7 DUP5 SWAP4 GT PUSH2 0x2A4 JUMPI JUMPDEST POP DUP4 SWAP1 DUP7 DUP4 GT PUSH1 0x1 EQ PUSH2 0x249 JUMPI PUSH0 SWAP3 PUSH2 0x23E JUMPI JUMPDEST POP POP PUSH0 NOT PUSH1 0x3 DUP4 SWAP1 SHL SHR NOT AND SWAP1 DUP7 SHL OR PUSH0 SSTORE JUMPDEST DUP2 MLOAD SWAP4 DUP5 GT PUSH2 0x22A JUMPI DUP5 SLOAD DUP6 DUP2 DUP2 SHR SWAP2 AND DUP1 ISZERO PUSH2 0x220 JUMPI JUMPDEST DUP3 DUP3 LT EQ PUSH2 0x20C JUMPI DUP4 DUP2 GT PUSH2 0x1C9 JUMPI JUMPDEST POP DUP1 SWAP3 DUP5 GT PUSH1 0x1 EQ PUSH2 0x167 JUMPI POP PUSH2 0x14C SWAP6 POP PUSH0 SWAP2 SWAP1 DUP4 PUSH2 0x15C JUMPI JUMPDEST POP POP PUSH0 NOT PUSH1 0x3 DUP4 SWAP1 SHL SHR NOT AND SWAP1 DUP3 SHL OR SWAP1 SSTORE JUMPDEST PUSH2 0x146 DUP2 PUSH2 0x31F JUMP JUMPDEST POP PUSH2 0x38B JUMP JUMPDEST POP PUSH1 0x40 MLOAD PUSH2 0x1845 SWAP1 DUP2 PUSH2 0x42B DUP3 CODECOPY RETURN JUMPDEST ADD MLOAD SWAP1 POP PUSH0 DUP1 PUSH2 0x12A JUMP JUMPDEST PUSH0 DUP6 DUP2 MSTORE DUP2 DUP2 KECCAK256 SWAP5 SWAP8 DUP9 AND SWAP2 JUMPDEST DUP3 DUP3 LT PUSH2 0x1B2 JUMPI POP POP SWAP2 DUP5 SWAP4 SWAP2 DUP8 PUSH2 0x14C SWAP9 SWAP5 LT PUSH2 0x19A JUMPI JUMPDEST POP POP POP DUP2 SHL ADD SWAP1 SSTORE PUSH2 0x13D JUMP JUMPDEST ADD MLOAD PUSH0 NOT PUSH1 0xF8 DUP5 PUSH1 0x3 SHL AND SHR NOT AND SWAP1 SSTORE PUSH0 DUP1 DUP1 PUSH2 0x18D JUMP JUMPDEST DUP1 DUP8 DUP7 SWAP8 DUP3 SWAP5 SWAP8 DUP8 ADD MLOAD DUP2 SSTORE ADD SWAP7 ADD SWAP5 ADD SWAP1 PUSH2 0x174 JUMP JUMPDEST DUP6 PUSH0 MSTORE DUP2 PUSH0 KECCAK256 DUP5 DUP1 DUP8 ADD PUSH1 0x5 SHR DUP3 ADD SWAP3 DUP5 DUP9 LT PUSH2 0x203 JUMPI JUMPDEST ADD PUSH1 0x5 SHR ADD SWAP1 DUP7 SWAP1 JUMPDEST DUP3 DUP2 LT PUSH2 0x1F8 JUMPI POP POP PUSH2 0x10F JUMP JUMPDEST PUSH0 DUP2 SSTORE ADD DUP7 SWAP1 PUSH2 0x1EA JUMP JUMPDEST SWAP3 POP DUP2 SWAP3 PUSH2 0x1E1 JUMP JUMPDEST PUSH4 0x4E487B71 PUSH1 0xE0 SHL PUSH0 MSTORE PUSH1 0x22 PUSH1 0x4 MSTORE PUSH1 0x24 PUSH0 REVERT JUMPDEST SWAP1 PUSH1 0x7F AND SWAP1 PUSH2 0xFF JUMP JUMPDEST PUSH4 0x4E487B71 PUSH1 0xE0 SHL PUSH0 MSTORE PUSH1 0x41 PUSH1 0x4 MSTORE PUSH1 0x24 PUSH0 REVERT JUMPDEST ADD MLOAD SWAP1 POP PUSH0 DUP1 PUSH2 0xD4 JUMP JUMPDEST SWAP1 DUP11 DUP10 SWAP5 AND SWAP2 PUSH0 DUP1 MSTORE DUP6 PUSH0 KECCAK256 SWAP3 PUSH0 JUMPDEST DUP8 DUP3 DUP3 LT PUSH2 0x28E JUMPI POP POP DUP5 GT PUSH2 0x276 JUMPI JUMPDEST POP POP POP DUP2 SHL ADD PUSH0 SSTORE PUSH2 0xE7 JUMP JUMPDEST ADD MLOAD PUSH0 NOT PUSH1 0xF8 DUP5 PUSH1 0x3 SHL AND SHR NOT AND SWAP1 SSTORE PUSH0 DUP1 DUP1 PUSH2 0x269 JUMP JUMPDEST DUP4 DUP6 ADD MLOAD DUP7 SSTORE DUP13 SWAP8 SWAP1 SWAP6 ADD SWAP5 SWAP4 DUP5 ADD SWAP4 ADD PUSH2 0x258 JUMP JUMPDEST SWAP1 SWAP2 POP PUSH0 DUP1 MSTORE DUP4 PUSH0 KECCAK256 DUP7 DUP1 DUP6 ADD PUSH1 0x5 SHR DUP3 ADD SWAP3 DUP7 DUP7 LT PUSH2 0x2E9 JUMPI JUMPDEST SWAP2 DUP11 SWAP2 DUP7 SWAP6 SWAP5 SWAP4 ADD PUSH1 0x5 SHR ADD SWAP2 JUMPDEST DUP3 DUP2 LT PUSH2 0x2DB JUMPI POP POP PUSH2 0xC0 JUMP JUMPDEST PUSH0 DUP2 SSTORE DUP6 SWAP5 POP DUP11 SWAP2 ADD PUSH2 0x2CD JUMP JUMPDEST SWAP3 POP DUP2 SWAP3 PUSH2 0x2BF JUMP JUMPDEST SWAP2 PUSH1 0x7F AND SWAP2 PUSH2 0xAE JUMP JUMPDEST PUSH0 DUP1 REVERT JUMPDEST PUSH1 0x40 DUP1 MLOAD SWAP2 SWAP1 DUP3 ADD PUSH1 0x1 PUSH1 0x1 PUSH1 0x40 SHL SUB DUP2 GT DUP4 DUP3 LT OR PUSH2 0x22A JUMPI PUSH1 0x40 MSTORE JUMP JUMPDEST PUSH1 0x1 PUSH1 0x1 PUSH1 0xA0 SHL SUB AND PUSH0 DUP2 DUP2 MSTORE PUSH0 DUP1 MLOAD PUSH1 0x20 PUSH2 0x1C90 DUP4 CODECOPY DUP2 MLOAD SWAP2 MSTORE PUSH1 0x20 MSTORE PUSH1 0x40 SWAP1 KECCAK256 SLOAD PUSH1 0xFF AND PUSH2 0x386 JUMPI PUSH0 DUP2 DUP2 MSTORE PUSH0 DUP1 MLOAD PUSH1 0x20 PUSH2 0x1C90 DUP4 CODECOPY DUP2 MLOAD SWAP2 MSTORE PUSH1 0x20 MSTORE PUSH1 0x40 DUP2 KECCAK256 DUP1 SLOAD PUSH1 0xFF NOT AND PUSH1 0x1 OR SWAP1 SSTORE CALLER SWAP2 SWAP1 PUSH0 DUP1 MLOAD PUSH1 0x20 PUSH2 0x1C70 DUP4 CODECOPY DUP2 MLOAD SWAP2 MSTORE DUP2 DUP1 LOG4 PUSH1 0x1 SWAP1 JUMP JUMPDEST POP PUSH0 SWAP1 JUMP JUMPDEST PUSH1 0x1 PUSH1 0x1 PUSH1 0xA0 SHL SUB AND PUSH0 DUP2 DUP2 MSTORE PUSH32 0xA4BFD7AFE708E2E87E7F0E2AD9B4D545417E0F795F57B5C5AB5D799C565A04F4 PUSH1 0x20 MSTORE PUSH1 0x40 SWAP1 KECCAK256 SLOAD PUSH32 0x9F2DF0FED2C77648DE5860A4CC508CD0818C85B8B8A1AB4CEEEF8D981C8956A6 SWAP2 SWAP1 PUSH1 0xFF AND PUSH2 0x424 JUMPI DUP2 PUSH0 MSTORE PUSH1 0x7 PUSH1 0x20 MSTORE PUSH1 0x40 PUSH0 KECCAK256 DUP2 PUSH0 MSTORE PUSH1 0x20 MSTORE PUSH1 0x40 PUSH0 KECCAK256 PUSH1 0x1 PUSH1 0xFF NOT DUP3 SLOAD AND OR SWAP1 SSTORE CALLER SWAP2 PUSH0 DUP1 MLOAD PUSH1 0x20 PUSH2 0x1C70 DUP4 CODECOPY DUP2 MLOAD SWAP2 MSTORE PUSH0 DUP1 LOG4 PUSH1 0x1 SWAP1 JUMP JUMPDEST POP POP PUSH0 SWAP1 JUMP INVALID PUSH1 0x80 DUP1 PUSH1 0x40 MSTORE PUSH1 0x4 CALLDATASIZE LT ISZERO PUSH2 0x12 JUMPI PUSH0 DUP1 REVERT JUMPDEST PUSH0 CALLDATALOAD PUSH1 0xE0 SHR SWAP1 DUP2 PUSH4 0x1FFC9A7 EQ PUSH2 0x1012 JUMPI POP DUP1 PUSH4 0x6FDDE03 EQ PUSH2 0xF6B JUMPI DUP1 PUSH4 0x81812FC EQ PUSH2 0xF2F JUMPI DUP1 PUSH4 0x95EA7B3 EQ PUSH2 0xE4E JUMPI DUP1 PUSH4 0x23B872DD EQ PUSH2 0xE37 JUMPI DUP1 PUSH4 0x248A9CA3 EQ PUSH2 0xE0A JUMPI DUP1 PUSH4 0x2F2FF15D EQ PUSH2 0xDCD JUMPI DUP1 PUSH4 0x36568ABE EQ PUSH2 0xD86 JUMPI DUP1 PUSH4 0x42842E0E EQ PUSH2 0xD59 JUMPI DUP1 PUSH4 0x6352211E EQ PUSH2 0xD29 JUMPI DUP1 PUSH4 0x70A08231 EQ PUSH2 0xCD3 JUMPI DUP1 PUSH4 0x91D14854 EQ PUSH2 0xC8A JUMPI DUP1 PUSH4 0x9272F825 EQ PUSH2 0xBF6 JUMPI DUP1 PUSH4 0x95D89B41 EQ PUSH2 0xB18 JUMPI DUP1 PUSH4 0x95F104EC EQ PUSH2 0xA4C JUMPI DUP1 PUSH4 0xA217FDDF EQ PUSH2 0xA32 JUMPI DUP1 PUSH4 0xA22CB465 EQ PUSH2 0x96A JUMPI DUP1 PUSH4 0xA9CC7D0B EQ PUSH2 0x28B JUMPI DUP1 PUSH4 0xB88D4FDE EQ PUSH2 0x21F JUMPI DUP1 PUSH4 0xC87B56DD EQ PUSH2 0x1E8 JUMPI DUP1 PUSH4 0xD5391393 EQ PUSH2 0x1AE JUMPI DUP1 PUSH4 0xD547741F EQ PUSH2 0x16F JUMPI PUSH4 0xE985E9C5 EQ PUSH2 0x119 JUMPI PUSH0 DUP1 REVERT JUMPDEST CALLVALUE PUSH2 0x16B JUMPI PUSH1 0x40 CALLDATASIZE PUSH1 0x3 NOT ADD SLT PUSH2 0x16B JUMPI PUSH2 0x132 PUSH2 0x10D5 JUMP JUMPDEST PUSH2 0x13A PUSH2 0x10EB JUMP JUMPDEST SWAP1 PUSH1 0x1 DUP1 PUSH1 0xA0 SHL SUB DUP1 SWAP2 AND PUSH0 MSTORE PUSH1 0x5 PUSH1 0x20 MSTORE PUSH1 0x40 PUSH0 KECCAK256 SWAP2 AND PUSH0 MSTORE PUSH1 0x20 MSTORE PUSH1 0x20 PUSH1 0xFF PUSH1 0x40 PUSH0 KECCAK256 SLOAD AND PUSH1 0x40 MLOAD SWAP1 ISZERO ISZERO DUP2 MSTORE RETURN JUMPDEST PUSH0 DUP1 REVERT JUMPDEST CALLVALUE PUSH2 0x16B JUMPI PUSH1 0x40 CALLDATASIZE PUSH1 0x3 NOT ADD SLT PUSH2 0x16B JUMPI PUSH2 0x1AC PUSH1 0x4 CALLDATALOAD PUSH2 0x18E PUSH2 0x10EB JUMP JUMPDEST SWAP1 DUP1 PUSH0 MSTORE PUSH1 0x7 PUSH1 0x20 MSTORE PUSH2 0x1A7 PUSH1 0x1 PUSH1 0x40 PUSH0 KECCAK256 ADD SLOAD PUSH2 0x15B1 JUMP JUMPDEST PUSH2 0x1651 JUMP JUMPDEST STOP JUMPDEST CALLVALUE PUSH2 0x16B JUMPI PUSH0 CALLDATASIZE PUSH1 0x3 NOT ADD SLT PUSH2 0x16B JUMPI PUSH1 0x20 PUSH1 0x40 MLOAD PUSH32 0x9F2DF0FED2C77648DE5860A4CC508CD0818C85B8B8A1AB4CEEEF8D981C8956A6 DUP2 MSTORE RETURN JUMPDEST CALLVALUE PUSH2 0x16B JUMPI PUSH1 0x20 CALLDATASIZE PUSH1 0x3 NOT ADD SLT PUSH2 0x16B JUMPI PUSH2 0x21B PUSH2 0x207 PUSH1 0x4 CALLDATALOAD PUSH2 0x1451 JUMP JUMPDEST PUSH1 0x40 MLOAD SWAP2 DUP3 SWAP2 PUSH1 0x20 DUP4 MSTORE PUSH1 0x20 DUP4 ADD SWAP1 PUSH2 0x10B1 JUMP JUMPDEST SUB SWAP1 RETURN JUMPDEST CALLVALUE PUSH2 0x16B JUMPI PUSH1 0x80 CALLDATASIZE PUSH1 0x3 NOT ADD SLT PUSH2 0x16B JUMPI PUSH2 0x238 PUSH2 0x10D5 JUMP JUMPDEST PUSH2 0x240 PUSH2 0x10EB JUMP JUMPDEST SWAP1 PUSH1 0x44 CALLDATALOAD PUSH1 0x64 CALLDATALOAD SWAP3 PUSH8 0xFFFFFFFFFFFFFFFF DUP5 GT PUSH2 0x16B JUMPI CALLDATASIZE PUSH1 0x23 DUP6 ADD SLT ISZERO PUSH2 0x16B JUMPI PUSH2 0x279 PUSH2 0x1AC SWAP5 CALLDATASIZE SWAP1 PUSH1 0x24 DUP2 PUSH1 0x4 ADD CALLDATALOAD SWAP2 ADD PUSH2 0x1298 JUMP JUMPDEST SWAP3 PUSH2 0x285 DUP4 DUP4 DUP4 PUSH2 0x12CE JUMP JUMPDEST CALLER PUSH2 0x16C5 JUMP JUMPDEST CALLVALUE PUSH2 0x16B JUMPI PUSH1 0xE0 CALLDATASIZE PUSH1 0x3 NOT ADD SLT PUSH2 0x16B JUMPI PUSH2 0x2A4 PUSH2 0x10D5 JUMP JUMPDEST PUSH2 0x2AC PUSH2 0x10EB JUMP JUMPDEST PUSH1 0x44 CALLDATALOAD PUSH8 0xFFFFFFFFFFFFFFFF DUP2 GT PUSH2 0x16B JUMPI PUSH2 0x2CC SWAP1 CALLDATASIZE SWAP1 PUSH1 0x4 ADD PUSH2 0x124E JUMP JUMPDEST PUSH1 0xC4 CALLDATALOAD PUSH8 0xFFFFFFFFFFFFFFFF DUP2 GT PUSH2 0x16B JUMPI PUSH2 0x2EC SWAP1 CALLDATASIZE SWAP1 PUSH1 0x4 ADD PUSH2 0x124E JUMP JUMPDEST SWAP3 SWAP1 PUSH2 0x2F6 PUSH2 0x1538 JUMP JUMPDEST PUSH1 0x8 SLOAD SWAP4 PUSH0 NOT DUP6 EQ PUSH2 0x956 JUMPI PUSH1 0x1 DUP6 ADD PUSH1 0x8 SSTORE PUSH1 0x40 MLOAD PUSH2 0x315 DUP2 PUSH2 0x116E JUMP JUMPDEST PUSH0 DUP2 MSTORE PUSH1 0x1 PUSH1 0x1 PUSH1 0xA0 SHL SUB DUP9 AND ISZERO PUSH2 0x93E JUMPI PUSH0 DUP7 DUP2 MSTORE PUSH1 0x2 PUSH1 0x20 MSTORE PUSH1 0x40 SWAP1 KECCAK256 SLOAD PUSH1 0x1 PUSH1 0x1 PUSH1 0xA0 SHL SUB AND DUP1 ISZERO ISZERO SWAP1 DUP8 SWAP1 DUP3 PUSH2 0x90B JUMPI JUMPDEST PUSH1 0x1 PUSH1 0x1 PUSH1 0xA0 SHL SUB DUP12 AND PUSH0 DUP2 DUP2 MSTORE PUSH1 0x3 PUSH1 0x20 SWAP1 DUP2 MSTORE PUSH1 0x40 DUP1 DUP4 KECCAK256 DUP1 SLOAD PUSH1 0x1 ADD SWAP1 SSTORE DUP6 DUP4 MSTORE PUSH1 0x2 SWAP1 SWAP2 MSTORE DUP2 KECCAK256 DUP1 SLOAD PUSH1 0x1 PUSH1 0x1 PUSH1 0xA0 SHL SUB NOT AND DUP4 OR SWAP1 SSTORE SWAP1 SWAP2 SWAP1 PUSH32 0xDDF252AD1BE2C89B69C2B068FC378DAA952BA7F163C4A11628F55A4DF523B3EF SWAP1 DUP1 LOG4 PUSH2 0x8F3 JUMPI DUP8 EXTCODESIZE PUSH2 0x7A6 JUMPI JUMPDEST POP PUSH2 0x3C8 SWAP3 SWAP4 SWAP5 SWAP6 SWAP7 POP CALLDATASIZE SWAP2 PUSH2 0x1298 JUMP JUMPDEST DUP4 PUSH0 MSTORE PUSH1 0x6 PUSH1 0x20 MSTORE PUSH1 0x40 PUSH0 KECCAK256 SWAP1 DUP1 MLOAD SWAP1 PUSH8 0xFFFFFFFFFFFFFFFF DUP3 GT PUSH2 0x6D2 JUMPI DUP2 SWAP1 PUSH2 0x3F3 DUP5 SLOAD PUSH2 0x1136 JUMP JUMPDEST PUSH1 0x1F DUP2 GT PUSH2 0x759 JUMPI JUMPDEST POP PUSH1 0x20 SWAP1 PUSH1 0x1F DUP4 GT PUSH1 0x1 EQ PUSH2 0x6F1 JUMPI PUSH0 SWAP3 PUSH2 0x6E6 JUMPI JUMPDEST POP POP DUP2 PUSH1 0x1 SHL SWAP2 PUSH0 NOT SWAP1 PUSH1 0x3 SHL SHR NOT AND OR SWAP1 SSTORE JUMPDEST PUSH32 0xF8E1A15ABA9398E019F0B49DF1A4FDE98EE17AE345CB5F6B5E2C27F5033E8CE7 PUSH1 0x20 PUSH1 0x40 MLOAD DUP6 DUP2 MSTORE LOG1 PUSH1 0x40 MLOAD PUSH1 0xE0 DUP2 ADD DUP2 DUP2 LT PUSH8 0xFFFFFFFFFFFFFFFF DUP3 GT OR PUSH2 0x6D2 JUMPI PUSH1 0x40 MSTORE PUSH1 0x1 PUSH1 0x1 PUSH1 0xA0 SHL SUB DUP6 AND DUP2 MSTORE PUSH2 0x484 CALLDATASIZE DUP5 DUP5 PUSH2 0x1298 JUMP JUMPDEST PUSH1 0x20 DUP3 ADD MSTORE PUSH1 0x64 CALLDATALOAD PUSH1 0x40 DUP3 ADD MSTORE PUSH1 0x84 CALLDATALOAD PUSH1 0x60 DUP3 ADD MSTORE PUSH1 0xA4 CALLDATALOAD PUSH1 0x80 DUP3 ADD MSTORE TIMESTAMP PUSH1 0xA0 DUP3 ADD MSTORE PUSH0 PUSH1 0xC0 DUP3 ADD MSTORE DUP4 PUSH0 MSTORE PUSH1 0x9 PUSH1 0x20 MSTORE PUSH1 0x40 PUSH0 KECCAK256 SWAP1 PUSH1 0x1 DUP1 PUSH1 0xA0 SHL SUB DUP2 MLOAD AND PUSH12 0xFFFFFFFFFFFFFFFFFFFFFFFF PUSH1 0xA0 SHL DUP4 SLOAD AND OR DUP3 SSTORE PUSH1 0x20 DUP2 ADD MLOAD DUP1 MLOAD SWAP1 PUSH8 0xFFFFFFFFFFFFFFFF DUP3 GT PUSH2 0x6D2 JUMPI PUSH2 0x4FE PUSH1 0x1 DUP6 ADD SLOAD PUSH2 0x1136 JUMP JUMPDEST PUSH1 0x1F DUP2 GT PUSH2 0x68E JUMPI JUMPDEST POP SWAP3 DUP6 SWAP3 PUSH1 0x20 SWAP9 SWAP3 DUP9 SWAP6 DUP11 SWAP1 PUSH1 0x1F DUP4 GT PUSH1 0x1 EQ PUSH2 0x5EF JUMPI PUSH1 0xC0 PUSH1 0x40 SWAP7 SWAP5 DUP5 PUSH2 0x5AD SWAP6 PUSH32 0xE2060A2B05D7D04DD71FD94C654BEC73FF52F4606F54F55BB0EC7D8866849DB4 SWAP12 SWAP13 SWAP9 SWAP6 PUSH1 0x6 SWAP6 PUSH0 SWAP3 PUSH2 0x5E4 JUMPI JUMPDEST POP POP DUP2 PUSH1 0x1 SHL SWAP2 PUSH0 NOT SWAP1 PUSH1 0x3 SHL SHR NOT AND OR PUSH1 0x1 DUP6 ADD SSTORE JUMPDEST DUP8 DUP2 ADD MLOAD PUSH1 0x2 DUP6 ADD SSTORE PUSH1 0x60 DUP2 ADD MLOAD PUSH1 0x3 DUP6 ADD SSTORE PUSH1 0x80 DUP2 ADD MLOAD PUSH1 0x4 DUP6 ADD SSTORE PUSH1 0xA0 DUP2 ADD MLOAD PUSH1 0x5 DUP6 ADD SSTORE ADD MLOAD ISZERO ISZERO SWAP2 ADD SWAP1 PUSH1 0xFF DUP1 NOT DUP4 SLOAD AND SWAP2 ISZERO ISZERO AND OR SWAP1 SSTORE JUMP JUMPDEST DUP3 MLOAD SWAP4 DUP5 SWAP3 DUP11 DUP5 MSTORE DUP2 DUP12 DUP6 ADD MSTORE DUP5 DUP5 ADD CALLDATACOPY PUSH0 DUP3 DUP9 ADD DUP5 ADD MSTORE PUSH1 0x1 PUSH1 0x1 PUSH1 0xA0 SHL SUB AND SWAP6 PUSH1 0x1F ADD PUSH1 0x1F NOT AND DUP2 ADD SUB ADD SWAP1 LOG3 PUSH1 0x40 MLOAD SWAP1 DUP2 MSTORE RETURN JUMPDEST ADD MLOAD SWAP1 POP PUSH0 DUP1 PUSH2 0x558 JUMP JUMPDEST SWAP1 PUSH1 0x1 DUP6 ADD PUSH0 MSTORE DUP12 PUSH0 KECCAK256 SWAP2 PUSH0 JUMPDEST PUSH1 0x1F NOT DUP6 AND DUP2 LT PUSH2 0x671 JUMPI POP PUSH1 0x40 SWAP7 SWAP5 PUSH1 0x1 DUP6 PUSH32 0xE2060A2B05D7D04DD71FD94C654BEC73FF52F4606F54F55BB0EC7D8866849DB4 SWAP12 SWAP13 SWAP9 SWAP6 PUSH1 0x6 SWAP6 PUSH1 0xC0 SWAP6 PUSH2 0x5AD SWAP10 PUSH1 0x1F NOT DUP2 AND LT PUSH2 0x659 JUMPI JUMPDEST POP POP POP DUP2 SHL ADD PUSH1 0x1 DUP6 ADD SSTORE PUSH2 0x56F JUMP JUMPDEST ADD MLOAD PUSH0 NOT PUSH1 0xF8 DUP5 PUSH1 0x3 SHL AND SHR NOT AND SWAP1 SSTORE PUSH0 DUP1 DUP1 PUSH2 0x649 JUMP JUMPDEST DUP3 DUP3 ADD MLOAD DUP5 SSTORE DUP13 SWAP10 POP DUP12 SWAP9 POP PUSH1 0x1 SWAP1 SWAP4 ADD SWAP3 SWAP2 DUP14 ADD SWAP2 DUP14 ADD PUSH2 0x5FC JUMP JUMPDEST PUSH1 0x1 DUP6 ADD PUSH0 MSTORE PUSH1 0x20 PUSH0 KECCAK256 PUSH1 0x1F DUP5 ADD PUSH1 0x5 SHR DUP2 ADD PUSH1 0x20 DUP6 LT PUSH2 0x6CB JUMPI JUMPDEST PUSH1 0x1F DUP4 ADD PUSH1 0x5 SHR DUP3 ADD DUP2 LT PUSH2 0x6C0 JUMPI POP POP PUSH2 0x507 JUMP JUMPDEST PUSH0 DUP2 SSTORE PUSH1 0x1 ADD PUSH2 0x6AA JUMP JUMPDEST POP DUP1 PUSH2 0x6AA JUMP JUMPDEST PUSH4 0x4E487B71 PUSH1 0xE0 SHL PUSH0 MSTORE PUSH1 0x41 PUSH1 0x4 MSTORE PUSH1 0x24 PUSH0 REVERT JUMPDEST ADD MLOAD SWAP1 POP DUP8 DUP1 PUSH2 0x412 JUMP JUMPDEST SWAP3 POP DUP4 PUSH0 MSTORE PUSH1 0x20 PUSH0 KECCAK256 SWAP1 PUSH0 SWAP4 JUMPDEST PUSH1 0x1F NOT DUP5 AND DUP6 LT PUSH2 0x73E JUMPI PUSH1 0x1 SWAP5 POP DUP4 PUSH1 0x1F NOT DUP2 AND LT PUSH2 0x726 JUMPI JUMPDEST POP POP POP DUP2 SHL ADD SWAP1 SSTORE PUSH2 0x426 JUMP JUMPDEST ADD MLOAD PUSH0 NOT PUSH1 0xF8 DUP5 PUSH1 0x3 SHL AND SHR NOT AND SWAP1 SSTORE DUP8 DUP1 DUP1 PUSH2 0x719 JUMP JUMPDEST DUP2 DUP2 ADD MLOAD DUP4 SSTORE PUSH1 0x20 SWAP5 DUP6 ADD SWAP5 PUSH1 0x1 SWAP1 SWAP4 ADD SWAP3 SWAP1 SWAP2 ADD SWAP1 PUSH2 0x6FE JUMP JUMPDEST SWAP1 SWAP2 POP DUP4 PUSH0 MSTORE PUSH1 0x20 PUSH0 KECCAK256 PUSH1 0x1F DUP5 ADD PUSH1 0x5 SHR DUP2 ADD PUSH1 0x20 DUP6 LT PUSH2 0x79F JUMPI JUMPDEST SWAP1 DUP5 SWAP4 SWAP3 SWAP2 JUMPDEST PUSH1 0x1F DUP4 ADD PUSH1 0x5 SHR DUP3 ADD DUP2 LT PUSH2 0x791 JUMPI POP POP PUSH2 0x3FC JUMP JUMPDEST PUSH0 DUP2 SSTORE DUP6 SWAP5 POP PUSH1 0x1 ADD PUSH2 0x77B JUMP JUMPDEST POP DUP1 PUSH2 0x775 JUMP JUMPDEST PUSH1 0x20 PUSH2 0x7E0 SWAP2 PUSH1 0x40 MLOAD DUP1 SWAP4 DUP2 SWAP3 PUSH4 0xA85BD01 PUSH1 0xE1 SHL DUP4 MSTORE CALLER PUSH1 0x4 DUP5 ADD MSTORE PUSH0 PUSH1 0x24 DUP5 ADD MSTORE DUP11 PUSH1 0x44 DUP5 ADD MSTORE PUSH1 0x80 PUSH1 0x64 DUP5 ADD MSTORE PUSH1 0x84 DUP4 ADD SWAP1 PUSH2 0x10B1 JUMP JUMPDEST SUB DUP2 PUSH0 PUSH1 0x1 PUSH1 0x1 PUSH1 0xA0 SHL SUB DUP14 AND GAS CALL PUSH0 SWAP2 DUP2 PUSH2 0x8AE JUMPI JUMPDEST POP PUSH2 0x85E JUMPI DUP8 RETURNDATASIZE ISZERO PUSH2 0x856 JUMPI RETURNDATASIZE SWAP1 PUSH2 0x80E DUP3 PUSH2 0x127C JUMP JUMPDEST SWAP2 PUSH2 0x81C PUSH1 0x40 MLOAD SWAP4 DUP5 PUSH2 0x118A JUMP JUMPDEST DUP3 MSTORE RETURNDATASIZE PUSH0 PUSH1 0x20 DUP5 ADD RETURNDATACOPY JUMPDEST DUP2 MLOAD SWAP2 DUP3 PUSH2 0x84F JUMPI PUSH1 0x40 MLOAD PUSH4 0x32505749 PUSH1 0xE1 SHL DUP2 MSTORE PUSH1 0x1 PUSH1 0x1 PUSH1 0xA0 SHL SUB DUP4 AND PUSH1 0x4 DUP3 ADD MSTORE PUSH1 0x24 SWAP1 REVERT JUMPDEST PUSH1 0x20 SWAP2 POP ADD REVERT JUMPDEST PUSH1 0x60 SWAP1 PUSH2 0x826 JUMP JUMPDEST PUSH4 0xA85BD01 PUSH1 0xE1 SWAP9 SWAP3 SWAP4 SWAP5 SWAP6 SWAP7 SWAP8 SWAP9 SHL SWAP1 PUSH4 0xFFFFFFFF PUSH1 0xE0 SHL AND SUB PUSH2 0x88C JUMPI POP DUP6 SWAP5 SWAP4 SWAP3 SWAP2 SWAP1 PUSH2 0x3C8 PUSH2 0x3B7 JUMP JUMPDEST PUSH1 0x40 MLOAD PUSH4 0x32505749 PUSH1 0xE1 SHL DUP2 MSTORE PUSH1 0x1 PUSH1 0x1 PUSH1 0xA0 SHL SUB SWAP1 SWAP2 AND PUSH1 0x4 DUP3 ADD MSTORE PUSH1 0x24 SWAP1 REVERT JUMPDEST SWAP1 SWAP2 POP PUSH1 0x20 DUP2 RETURNDATASIZE PUSH1 0x20 GT PUSH2 0x8EB JUMPI JUMPDEST DUP2 PUSH2 0x8CA PUSH1 0x20 SWAP4 DUP4 PUSH2 0x118A JUMP JUMPDEST DUP2 ADD SUB SLT PUSH2 0x16B JUMPI MLOAD PUSH1 0x1 PUSH1 0x1 PUSH1 0xE0 SHL SUB NOT DUP2 AND DUP2 SUB PUSH2 0x16B JUMPI SWAP1 DUP10 PUSH2 0x7F7 JUMP JUMPDEST RETURNDATASIZE SWAP2 POP PUSH2 0x8BD JUMP JUMPDEST PUSH1 0x40 MLOAD PUSH4 0x39E35637 PUSH1 0xE1 SHL DUP2 MSTORE PUSH0 PUSH1 0x4 DUP3 ADD MSTORE PUSH1 0x24 SWAP1 REVERT JUMPDEST PUSH0 DUP3 DUP2 MSTORE PUSH1 0x4 PUSH1 0x20 MSTORE PUSH1 0x40 SWAP1 KECCAK256 DUP1 SLOAD PUSH1 0x1 PUSH1 0x1 PUSH1 0xA0 SHL SUB NOT AND SWAP1 SSTORE DUP1 PUSH0 MSTORE PUSH1 0x3 PUSH1 0x20 MSTORE PUSH1 0x40 PUSH0 KECCAK256 PUSH0 NOT DUP2 SLOAD ADD SWAP1 SSTORE PUSH2 0x34A JUMP JUMPDEST PUSH1 0x40 MLOAD PUSH4 0x32505749 PUSH1 0xE1 SHL DUP2 MSTORE PUSH0 PUSH1 0x4 DUP3 ADD MSTORE PUSH1 0x24 SWAP1 REVERT JUMPDEST PUSH4 0x4E487B71 PUSH1 0xE0 SHL PUSH0 MSTORE PUSH1 0x11 PUSH1 0x4 MSTORE PUSH1 0x24 PUSH0 REVERT JUMPDEST CALLVALUE PUSH2 0x16B JUMPI PUSH1 0x40 CALLDATASIZE PUSH1 0x3 NOT ADD SLT PUSH2 0x16B JUMPI PUSH2 0x983 PUSH2 0x10D5 JUMP JUMPDEST PUSH1 0x24 CALLDATALOAD SWAP1 DUP2 ISZERO ISZERO SWAP1 DUP2 DUP4 SUB PUSH2 0x16B JUMPI CALLER ISZERO PUSH2 0xA1A JUMPI PUSH1 0x1 PUSH1 0x1 PUSH1 0xA0 SHL SUB AND SWAP2 DUP3 ISZERO PUSH2 0xA01 JUMPI PUSH2 0x9D3 SWAP1 CALLER PUSH0 MSTORE PUSH1 0x5 PUSH1 0x20 MSTORE PUSH1 0x40 PUSH0 KECCAK256 DUP5 PUSH0 MSTORE PUSH1 0x20 MSTORE PUSH1 0x40 PUSH0 KECCAK256 SWAP1 PUSH1 0xFF DUP1 NOT DUP4 SLOAD AND SWAP2 ISZERO ISZERO AND OR SWAP1 SSTORE JUMP JUMPDEST PUSH1 0x40 MLOAD SWAP1 DUP2 MSTORE PUSH32 0x17307EAB39AB6107E8899845AD3D59BD9653F200F220920489CA2B5937696C31 PUSH1 0x20 CALLER SWAP3 LOG3 STOP JUMPDEST PUSH1 0x40 MLOAD PUSH4 0xB611743 PUSH1 0xE3 SHL DUP2 MSTORE PUSH1 0x4 DUP2 ADD DUP5 SWAP1 MSTORE PUSH1 0x24 SWAP1 REVERT JUMPDEST PUSH1 0x40 MLOAD PUSH4 0xA9FBF51F PUSH1 0xE0 SHL DUP2 MSTORE PUSH0 PUSH1 0x4 DUP3 ADD MSTORE PUSH1 0x24 SWAP1 REVERT JUMPDEST CALLVALUE PUSH2 0x16B JUMPI PUSH0 CALLDATASIZE PUSH1 0x3 NOT ADD SLT PUSH2 0x16B JUMPI PUSH1 0x20 PUSH1 0x40 MLOAD PUSH0 DUP2 MSTORE RETURN JUMPDEST CALLVALUE PUSH2 0x16B JUMPI PUSH1 0x20 CALLDATASIZE PUSH1 0x3 NOT ADD SLT PUSH2 0x16B JUMPI PUSH1 0x4 CALLDATALOAD PUSH2 0xA68 PUSH2 0x1538 JUMP JUMPDEST DUP1 PUSH0 MSTORE PUSH1 0x9 PUSH1 0x20 MSTORE PUSH1 0xFF PUSH1 0x6 PUSH1 0x40 PUSH0 KECCAK256 ADD SLOAD AND PUSH2 0xAD3 JUMPI PUSH0 DUP2 DUP2 MSTORE PUSH1 0x9 PUSH1 0x20 MSTORE PUSH1 0x40 SWAP1 KECCAK256 PUSH1 0x6 ADD DUP1 SLOAD PUSH1 0xFF NOT AND PUSH1 0x1 OR SWAP1 SSTORE PUSH1 0x1 PUSH1 0x1 PUSH1 0xA0 SHL SUB PUSH2 0xAAB DUP3 PUSH2 0x14FE JUMP JUMPDEST AND SWAP1 PUSH32 0x643FD83F31A35A9385DE02E8D489F50AAAD48205627A37CC3E20D42E7E67FD61 PUSH0 DUP1 LOG3 STOP JUMPDEST PUSH1 0x40 MLOAD PUSH3 0x461BCD PUSH1 0xE5 SHL DUP2 MSTORE PUSH1 0x20 PUSH1 0x4 DUP3 ADD MSTORE PUSH1 0x19 PUSH1 0x24 DUP3 ADD MSTORE PUSH32 0x446565644E46543A20616C72656164792072656C656173656400000000000000 PUSH1 0x44 DUP3 ADD MSTORE PUSH1 0x64 SWAP1 REVERT JUMPDEST CALLVALUE PUSH2 0x16B JUMPI PUSH0 CALLDATASIZE PUSH1 0x3 NOT ADD SLT PUSH2 0x16B JUMPI PUSH1 0x40 MLOAD PUSH0 PUSH1 0x1 DUP3 PUSH1 0x1 SLOAD SWAP3 PUSH2 0xB3C DUP5 PUSH2 0x1136 JUMP JUMPDEST SWAP3 DUP4 DUP4 MSTORE PUSH1 0x20 SWAP5 DUP6 PUSH1 0x1 DUP3 AND SWAP2 DUP3 PUSH0 EQ PUSH2 0xBD6 JUMPI POP POP PUSH1 0x1 EQ PUSH2 0xB7B JUMPI JUMPDEST POP PUSH2 0xB67 SWAP3 POP SUB DUP4 PUSH2 0x118A JUMP JUMPDEST PUSH2 0x21B PUSH1 0x40 MLOAD SWAP3 DUP3 DUP5 SWAP4 DUP5 MSTORE DUP4 ADD SWAP1 PUSH2 0x10B1 JUMP JUMPDEST DUP5 SWAP2 POP PUSH1 0x1 PUSH0 MSTORE PUSH32 0xB10E2D527612073B26EECDFD717E6A320CF44B4AFAC2B0732D9FCBE2B7FA0CF6 SWAP1 PUSH0 SWAP2 JUMPDEST DUP6 DUP4 LT PUSH2 0xBBE JUMPI POP POP PUSH2 0xB67 SWAP4 POP DUP3 ADD ADD DUP6 PUSH2 0xB5A JUMP JUMPDEST DUP1 SLOAD DUP4 DUP10 ADD DUP6 ADD MSTORE DUP8 SWAP5 POP DUP7 SWAP4 SWAP1 SWAP3 ADD SWAP2 DUP2 ADD PUSH2 0xBA7 JUMP JUMPDEST PUSH1 0xFF NOT AND DUP6 DUP3 ADD MSTORE PUSH2 0xB67 SWAP6 ISZERO ISZERO PUSH1 0x5 SHL DUP6 ADD ADD SWAP3 POP DUP8 SWAP2 POP PUSH2 0xB5A SWAP1 POP JUMP JUMPDEST CALLVALUE PUSH2 0x16B JUMPI PUSH1 0x20 CALLDATASIZE PUSH1 0x3 NOT ADD SLT PUSH2 0x16B JUMPI PUSH1 0x4 CALLDATALOAD PUSH0 SWAP1 DUP2 MSTORE PUSH1 0x9 PUSH1 0x20 MSTORE PUSH1 0x40 SWAP1 KECCAK256 DUP1 SLOAD PUSH1 0x1 PUSH1 0x1 PUSH1 0xA0 SHL SUB AND PUSH2 0xC2E PUSH1 0x1 DUP4 ADD PUSH2 0x11AC JUMP JUMPDEST SWAP2 PUSH1 0x2 DUP2 ADD SLOAD SWAP1 PUSH1 0x3 DUP2 ADD SLOAD SWAP1 PUSH1 0x4 DUP2 ADD SLOAD PUSH1 0xFF PUSH1 0x6 PUSH1 0x5 DUP5 ADD SLOAD SWAP4 ADD SLOAD AND SWAP3 PUSH2 0xC6A PUSH1 0x40 MLOAD SWAP8 DUP9 SWAP8 DUP9 MSTORE PUSH1 0xE0 PUSH1 0x20 DUP10 ADD MSTORE PUSH1 0xE0 DUP9 ADD SWAP1 PUSH2 0x10B1 JUMP JUMPDEST SWAP5 PUSH1 0x40 DUP8 ADD MSTORE PUSH1 0x60 DUP7 ADD MSTORE PUSH1 0x80 DUP6 ADD MSTORE PUSH1 0xA0 DUP5 ADD MSTORE ISZERO ISZERO PUSH1 0xC0 DUP4 ADD MSTORE SUB SWAP1 RETURN JUMPDEST CALLVALUE PUSH2 0x16B JUMPI PUSH1 0x40 CALLDATASIZE PUSH1 0x3 NOT ADD SLT PUSH2 0x16B JUMPI PUSH2 0xCA3 PUSH2 0x10EB JUMP JUMPDEST PUSH1 0x4 CALLDATALOAD PUSH0 MSTORE PUSH1 0x7 PUSH1 0x20 MSTORE PUSH1 0x40 PUSH0 KECCAK256 SWAP1 PUSH1 0x1 DUP1 PUSH1 0xA0 SHL SUB AND PUSH0 MSTORE PUSH1 0x20 MSTORE PUSH1 0x20 PUSH1 0xFF PUSH1 0x40 PUSH0 KECCAK256 SLOAD AND PUSH1 0x40 MLOAD SWAP1 ISZERO ISZERO DUP2 MSTORE RETURN JUMPDEST CALLVALUE PUSH2 0x16B JUMPI PUSH1 0x20 CALLDATASIZE PUSH1 0x3 NOT ADD SLT PUSH2 0x16B JUMPI PUSH1 0x1 PUSH1 0x1 PUSH1 0xA0 SHL SUB PUSH2 0xCF4 PUSH2 0x10D5 JUMP JUMPDEST AND DUP1 ISZERO PUSH2 0xD11 JUMPI PUSH0 MSTORE PUSH1 0x3 PUSH1 0x20 MSTORE PUSH1 0x20 PUSH1 0x40 PUSH0 KECCAK256 SLOAD PUSH1 0x40 MLOAD SWAP1 DUP2 MSTORE RETURN JUMPDEST PUSH1 0x40 MLOAD PUSH4 0x22718AD9 PUSH1 0xE2 SHL DUP2 MSTORE PUSH0 PUSH1 0x4 DUP3 ADD MSTORE PUSH1 0x24 SWAP1 REVERT JUMPDEST CALLVALUE PUSH2 0x16B JUMPI PUSH1 0x20 CALLDATASIZE PUSH1 0x3 NOT ADD SLT PUSH2 0x16B JUMPI PUSH1 0x20 PUSH2 0xD47 PUSH1 0x4 CALLDATALOAD PUSH2 0x14FE JUMP JUMPDEST PUSH1 0x40 MLOAD PUSH1 0x1 PUSH1 0x1 PUSH1 0xA0 SHL SUB SWAP1 SWAP2 AND DUP2 MSTORE RETURN JUMPDEST CALLVALUE PUSH2 0x16B JUMPI PUSH2 0x1AC PUSH2 0xD6A CALLDATASIZE PUSH2 0x1101 JUMP JUMPDEST SWAP1 PUSH1 0x40 MLOAD SWAP3 PUSH2 0xD78 DUP5 PUSH2 0x116E JUMP JUMPDEST PUSH0 DUP5 MSTORE PUSH2 0x285 DUP4 DUP4 DUP4 PUSH2 0x12CE JUMP JUMPDEST CALLVALUE PUSH2 0x16B JUMPI PUSH1 0x40 CALLDATASIZE PUSH1 0x3 NOT ADD SLT PUSH2 0x16B JUMPI PUSH2 0xD9F PUSH2 0x10EB JUMP JUMPDEST CALLER PUSH1 0x1 PUSH1 0x1 PUSH1 0xA0 SHL SUB DUP3 AND SUB PUSH2 0xDBB JUMPI PUSH2 0x1AC SWAP1 PUSH1 0x4 CALLDATALOAD PUSH2 0x1651 JUMP JUMPDEST PUSH1 0x40 MLOAD PUSH4 0x334BD919 PUSH1 0xE1 SHL DUP2 MSTORE PUSH1 0x4 SWAP1 REVERT JUMPDEST CALLVALUE PUSH2 0x16B JUMPI PUSH1 0x40 CALLDATASIZE PUSH1 0x3 NOT ADD SLT PUSH2 0x16B JUMPI PUSH2 0x1AC PUSH1 0x4 CALLDATALOAD PUSH2 0xDEC PUSH2 0x10EB JUMP JUMPDEST SWAP1 DUP1 PUSH0 MSTORE PUSH1 0x7 PUSH1 0x20 MSTORE PUSH2 0xE05 PUSH1 0x1 PUSH1 0x40 PUSH0 KECCAK256 ADD SLOAD PUSH2 0x15B1 JUMP JUMPDEST PUSH2 0x15D3 JUMP JUMPDEST CALLVALUE PUSH2 0x16B JUMPI PUSH1 0x20 CALLDATASIZE PUSH1 0x3 NOT ADD SLT PUSH2 0x16B JUMPI PUSH1 0x4 CALLDATALOAD PUSH0 MSTORE PUSH1 0x7 PUSH1 0x20 MSTORE PUSH1 0x20 PUSH1 0x1 PUSH1 0x40 PUSH0 KECCAK256 ADD SLOAD PUSH1 0x40 MLOAD SWAP1 DUP2 MSTORE RETURN JUMPDEST CALLVALUE PUSH2 0x16B JUMPI PUSH2 0x1AC PUSH2 0xE48 CALLDATASIZE PUSH2 0x1101 JUMP JUMPDEST SWAP2 PUSH2 0x12CE JUMP JUMPDEST CALLVALUE PUSH2 0x16B JUMPI PUSH1 0x40 CALLDATASIZE PUSH1 0x3 NOT ADD SLT PUSH2 0x16B JUMPI PUSH2 0xE67 PUSH2 0x10D5 JUMP JUMPDEST PUSH1 0x24 CALLDATALOAD PUSH2 0xE73 DUP2 PUSH2 0x14FE JUMP JUMPDEST CALLER ISZERO ISZERO DUP1 PUSH2 0xF1C JUMPI JUMPDEST DUP1 PUSH2 0xEF3 JUMPI JUMPDEST PUSH2 0xEDB JUMPI PUSH1 0x1 PUSH1 0x1 PUSH1 0xA0 SHL SUB SWAP3 DUP4 AND SWAP3 DUP3 SWAP2 DUP5 SWAP2 AND PUSH32 0x8C5BE1E5EBEC7D5BD14F71427D1E84F3DD0314C0F7B2291E5B200AC8C7C3B925 PUSH0 DUP1 LOG4 PUSH0 SWAP1 DUP2 MSTORE PUSH1 0x4 PUSH1 0x20 MSTORE PUSH1 0x40 SWAP1 KECCAK256 DUP1 SLOAD PUSH1 0x1 PUSH1 0x1 PUSH1 0xA0 SHL SUB NOT AND SWAP1 SWAP2 OR SWAP1 SSTORE STOP JUMPDEST PUSH1 0x40 MLOAD PUSH4 0xA9FBF51F PUSH1 0xE0 SHL DUP2 MSTORE CALLER PUSH1 0x4 DUP3 ADD MSTORE PUSH1 0x24 SWAP1 REVERT JUMPDEST POP PUSH1 0x1 DUP1 PUSH1 0xA0 SHL SUB DUP2 AND PUSH0 MSTORE PUSH1 0x5 PUSH1 0x20 MSTORE PUSH1 0x40 PUSH0 KECCAK256 CALLER PUSH0 MSTORE PUSH1 0x20 MSTORE PUSH1 0xFF PUSH1 0x40 PUSH0 KECCAK256 SLOAD AND ISZERO PUSH2 0xE82 JUMP JUMPDEST POP PUSH1 0x1 PUSH1 0x1 PUSH1 0xA0 SHL SUB DUP2 AND CALLER EQ ISZERO PUSH2 0xE7C JUMP JUMPDEST CALLVALUE PUSH2 0x16B JUMPI PUSH1 0x20 CALLDATASIZE PUSH1 0x3 NOT ADD SLT PUSH2 0x16B JUMPI PUSH1 0x4 CALLDATALOAD PUSH2 0xF4C DUP2 PUSH2 0x14FE JUMP JUMPDEST POP PUSH0 MSTORE PUSH1 0x4 PUSH1 0x20 MSTORE PUSH1 0x20 PUSH1 0x1 DUP1 PUSH1 0xA0 SHL SUB PUSH1 0x40 PUSH0 KECCAK256 SLOAD AND PUSH1 0x40 MLOAD SWAP1 DUP2 MSTORE RETURN JUMPDEST CALLVALUE PUSH2 0x16B JUMPI PUSH0 CALLDATASIZE PUSH1 0x3 NOT ADD SLT PUSH2 0x16B JUMPI PUSH1 0x40 MLOAD PUSH0 DUP1 SLOAD SWAP1 DUP3 PUSH2 0xF8C DUP4 PUSH2 0x1136 JUMP JUMPDEST SWAP2 DUP3 DUP3 MSTORE PUSH1 0x20 SWAP4 PUSH1 0x1 SWAP1 DUP6 PUSH1 0x1 DUP3 AND SWAP2 DUP3 PUSH0 EQ PUSH2 0xBD6 JUMPI POP POP PUSH1 0x1 EQ PUSH2 0xFB9 JUMPI POP PUSH2 0xB67 SWAP3 POP SUB DUP4 PUSH2 0x118A JUMP JUMPDEST PUSH0 DUP1 DUP1 MSTORE DUP6 SWAP3 POP SWAP1 PUSH32 0x290DECD9548B62A8D60345A988386FC84BA6BC95484008F6362F93160EF3E563 JUMPDEST DUP6 DUP4 LT PUSH2 0xFFA JUMPI POP POP PUSH2 0xB67 SWAP4 POP DUP3 ADD ADD DUP6 PUSH2 0xB5A JUMP JUMPDEST DUP1 SLOAD DUP4 DUP10 ADD DUP6 ADD MSTORE DUP8 SWAP5 POP DUP7 SWAP4 SWAP1 SWAP3 ADD SWAP2 DUP2 ADD PUSH2 0xFE3 JUMP JUMPDEST CALLVALUE PUSH2 0x16B JUMPI PUSH1 0x20 CALLDATASIZE PUSH1 0x3 NOT ADD SLT PUSH2 0x16B JUMPI PUSH1 0x4 CALLDATALOAD SWAP1 PUSH4 0xFFFFFFFF PUSH1 0xE0 SHL DUP3 AND DUP1 SWAP3 SUB PUSH2 0x16B JUMPI PUSH1 0x20 SWAP2 PUSH4 0x7965DB0B PUSH1 0xE0 SHL DUP2 EQ SWAP1 DUP2 ISZERO PUSH2 0x1054 JUMPI JUMPDEST POP ISZERO ISZERO DUP2 MSTORE RETURN JUMPDEST PUSH4 0x24832483 PUSH1 0xE1 SHL DUP2 EQ SWAP2 POP DUP2 ISZERO PUSH2 0x106E JUMPI JUMPDEST POP DUP4 PUSH2 0x104D JUMP JUMPDEST PUSH4 0x80AC58CD PUSH1 0xE0 SHL DUP2 EQ SWAP2 POP DUP2 ISZERO PUSH2 0x10A0 JUMPI JUMPDEST DUP2 ISZERO PUSH2 0x108F JUMPI JUMPDEST POP DUP4 PUSH2 0x1067 JUMP JUMPDEST PUSH4 0x1FFC9A7 PUSH1 0xE0 SHL EQ SWAP1 POP DUP4 PUSH2 0x1088 JUMP JUMPDEST PUSH4 0x5B5E139F PUSH1 0xE0 SHL DUP2 EQ SWAP2 POP PUSH2 0x1081 JUMP JUMPDEST DUP1 MLOAD DUP1 DUP4 MSTORE PUSH1 0x20 SWAP3 SWAP2 DUP2 SWAP1 DUP5 ADD DUP5 DUP5 ADD MCOPY PUSH0 DUP3 DUP3 ADD DUP5 ADD MSTORE PUSH1 0x1F ADD PUSH1 0x1F NOT AND ADD ADD SWAP1 JUMP JUMPDEST PUSH1 0x4 CALLDATALOAD SWAP1 PUSH1 0x1 PUSH1 0x1 PUSH1 0xA0 SHL SUB DUP3 AND DUP3 SUB PUSH2 0x16B JUMPI JUMP JUMPDEST PUSH1 0x24 CALLDATALOAD SWAP1 PUSH1 0x1 PUSH1 0x1 PUSH1 0xA0 SHL SUB DUP3 AND DUP3 SUB PUSH2 0x16B JUMPI JUMP JUMPDEST PUSH1 0x60 SWAP1 PUSH1 0x3 NOT ADD SLT PUSH2 0x16B JUMPI PUSH1 0x1 PUSH1 0x1 PUSH1 0xA0 SHL SUB SWAP1 PUSH1 0x4 CALLDATALOAD DUP3 DUP2 AND DUP2 SUB PUSH2 0x16B JUMPI SWAP2 PUSH1 0x24 CALLDATALOAD SWAP1 DUP2 AND DUP2 SUB PUSH2 0x16B JUMPI SWAP1 PUSH1 0x44 CALLDATALOAD SWAP1 JUMP JUMPDEST SWAP1 PUSH1 0x1 DUP3 DUP2 SHR SWAP3 AND DUP1 ISZERO PUSH2 0x1164 JUMPI JUMPDEST PUSH1 0x20 DUP4 LT EQ PUSH2 0x1150 JUMPI JUMP JUMPDEST PUSH4 0x4E487B71 PUSH1 0xE0 SHL PUSH0 MSTORE PUSH1 0x22 PUSH1 0x4 MSTORE PUSH1 0x24 PUSH0 REVERT JUMPDEST SWAP2 PUSH1 0x7F AND SWAP2 PUSH2 0x1145 JUMP JUMPDEST PUSH1 0x20 DUP2 ADD SWAP1 DUP2 LT PUSH8 0xFFFFFFFFFFFFFFFF DUP3 GT OR PUSH2 0x6D2 JUMPI PUSH1 0x40 MSTORE JUMP JUMPDEST SWAP1 PUSH1 0x1F DUP1 NOT SWAP2 ADD AND DUP2 ADD SWAP1 DUP2 LT PUSH8 0xFFFFFFFFFFFFFFFF DUP3 GT OR PUSH2 0x6D2 JUMPI PUSH1 0x40 MSTORE JUMP JUMPDEST SWAP1 PUSH1 0x40 MLOAD SWAP2 DUP3 PUSH0 DUP3 SLOAD PUSH2 0x11BE DUP2 PUSH2 0x1136 JUMP JUMPDEST SWAP1 DUP2 DUP5 MSTORE PUSH1 0x20 SWAP5 PUSH1 0x1 SWAP2 PUSH1 0x1 DUP2 AND SWAP1 DUP2 PUSH0 EQ PUSH2 0x122C JUMPI POP PUSH1 0x1 EQ PUSH2 0x11EE JUMPI JUMPDEST POP POP POP PUSH2 0x11EC SWAP3 POP SUB DUP4 PUSH2 0x118A JUMP JUMPDEST JUMP JUMPDEST PUSH0 SWAP1 DUP2 MSTORE DUP6 DUP2 KECCAK256 SWAP6 SWAP4 POP SWAP2 SWAP1 JUMPDEST DUP2 DUP4 LT PUSH2 0x1214 JUMPI POP POP PUSH2 0x11EC SWAP4 POP DUP3 ADD ADD PUSH0 DUP1 DUP1 PUSH2 0x11DD JUMP JUMPDEST DUP6 SLOAD DUP9 DUP5 ADD DUP6 ADD MSTORE SWAP5 DUP6 ADD SWAP5 DUP8 SWAP5 POP SWAP2 DUP4 ADD SWAP2 PUSH2 0x11FB JUMP JUMPDEST SWAP3 POP POP POP PUSH2 0x11EC SWAP5 SWAP3 POP PUSH1 0xFF NOT AND DUP3 DUP5 ADD MSTORE ISZERO ISZERO PUSH1 0x5 SHL DUP3 ADD ADD PUSH0 DUP1 DUP1 PUSH2 0x11DD JUMP JUMPDEST SWAP2 DUP2 PUSH1 0x1F DUP5 ADD SLT ISZERO PUSH2 0x16B JUMPI DUP3 CALLDATALOAD SWAP2 PUSH8 0xFFFFFFFFFFFFFFFF DUP4 GT PUSH2 0x16B JUMPI PUSH1 0x20 DUP4 DUP2 DUP7 ADD SWAP6 ADD ADD GT PUSH2 0x16B JUMPI JUMP JUMPDEST PUSH8 0xFFFFFFFFFFFFFFFF DUP2 GT PUSH2 0x6D2 JUMPI PUSH1 0x1F ADD PUSH1 0x1F NOT AND PUSH1 0x20 ADD SWAP1 JUMP JUMPDEST SWAP3 SWAP2 SWAP3 PUSH2 0x12A4 DUP3 PUSH2 0x127C JUMP JUMPDEST SWAP2 PUSH2 0x12B2 PUSH1 0x40 MLOAD SWAP4 DUP5 PUSH2 0x118A JUMP JUMPDEST DUP3 SWAP5 DUP2 DUP5 MSTORE DUP2 DUP4 ADD GT PUSH2 0x16B JUMPI DUP3 DUP2 PUSH1 0x20 SWAP4 DUP5 PUSH0 SWAP7 ADD CALLDATACOPY ADD ADD MSTORE JUMP JUMPDEST PUSH1 0x1 PUSH1 0x1 PUSH1 0xA0 SHL SUB SWAP2 DUP3 AND SWAP3 SWAP1 SWAP2 DUP4 ISZERO PUSH2 0x93E JUMPI DUP2 PUSH0 MSTORE PUSH1 0x20 SWAP3 PUSH1 0x2 DUP5 MSTORE DUP3 PUSH1 0x40 SWAP6 DUP4 DUP8 PUSH0 KECCAK256 SLOAD AND SWAP6 CALLER ISZERO ISZERO DUP1 PUSH2 0x13BF JUMPI JUMPDEST POP PUSH1 0x2 SWAP1 DUP8 PUSH2 0x138E JUMPI JUMPDEST DUP3 PUSH0 MSTORE PUSH1 0x3 DUP2 MSTORE DUP9 PUSH0 KECCAK256 PUSH1 0x1 DUP2 SLOAD ADD SWAP1 SSTORE DUP4 PUSH0 MSTORE MSTORE DUP7 PUSH0 KECCAK256 DUP2 PUSH12 0xFFFFFFFFFFFFFFFFFFFFFFFF PUSH1 0xA0 SHL DUP3 SLOAD AND OR SWAP1 SSTORE DUP6 PUSH32 0xDDF252AD1BE2C89B69C2B068FC378DAA952BA7F163C4A11628F55A4DF523B3EF PUSH0 DUP1 LOG4 AND SWAP3 DUP4 DUP4 SUB PUSH2 0x136D JUMPI POP POP POP POP JUMP JUMPDEST PUSH1 0x64 SWAP5 POP MLOAD SWAP3 PUSH4 0x64283D7B PUSH1 0xE0 SHL DUP5 MSTORE PUSH1 0x4 DUP5 ADD MSTORE PUSH1 0x24 DUP4 ADD MSTORE PUSH1 0x44 DUP3 ADD MSTORE REVERT JUMPDEST PUSH0 DUP5 DUP2 MSTORE PUSH1 0x4 PUSH1 0x20 MSTORE PUSH1 0x40 DUP2 KECCAK256 DUP1 SLOAD PUSH1 0x1 PUSH1 0x1 PUSH1 0xA0 SHL SUB NOT AND SWAP1 SSTORE DUP9 DUP2 MSTORE PUSH1 0x3 DUP3 MSTORE DUP10 SWAP1 KECCAK256 DUP1 SLOAD PUSH0 NOT ADD SWAP1 SSTORE PUSH2 0x130A JUMP JUMPDEST SWAP2 SWAP3 POP SWAP1 DUP1 PUSH2 0x1410 JUMPI JUMPDEST ISZERO PUSH2 0x13D7 JUMPI SWAP1 DUP5 SWAP2 PUSH0 PUSH2 0x1300 JUMP JUMPDEST DUP7 DUP6 DUP8 PUSH2 0x13F4 JUMPI PUSH1 0x24 SWAP2 MLOAD SWAP1 PUSH4 0x7E273289 PUSH1 0xE0 SHL DUP3 MSTORE PUSH1 0x4 DUP3 ADD MSTORE REVERT JUMPDEST PUSH1 0x44 SWAP2 MLOAD SWAP1 PUSH4 0x177E802F PUSH1 0xE0 SHL DUP3 MSTORE CALLER PUSH1 0x4 DUP4 ADD MSTORE PUSH1 0x24 DUP3 ADD MSTORE REVERT JUMPDEST POP CALLER DUP7 EQ DUP1 ISZERO PUSH2 0x1435 JUMPI JUMPDEST DUP1 PUSH2 0x13C9 JUMPI POP DUP5 PUSH0 MSTORE PUSH1 0x4 DUP2 MSTORE CALLER DUP5 DUP9 PUSH0 KECCAK256 SLOAD AND EQ PUSH2 0x13C9 JUMP JUMPDEST POP DUP6 PUSH0 MSTORE PUSH1 0x5 DUP2 MSTORE DUP7 PUSH0 KECCAK256 CALLER PUSH0 MSTORE DUP2 MSTORE PUSH1 0xFF DUP8 PUSH0 KECCAK256 SLOAD AND PUSH2 0x141B JUMP JUMPDEST PUSH2 0x145A DUP2 PUSH2 0x14FE JUMP JUMPDEST POP PUSH1 0x40 MLOAD SWAP1 PUSH2 0x1468 DUP3 PUSH2 0x116E JUMP JUMPDEST PUSH0 DUP3 MSTORE DUP1 PUSH0 MSTORE PUSH1 0x20 PUSH1 0x6 DUP2 MSTORE PUSH2 0x1480 PUSH1 0x40 PUSH0 KECCAK256 PUSH2 0x11AC JUMP JUMPDEST SWAP3 DUP1 MLOAD DUP1 ISZERO PUSH2 0x14F7 JUMPI DUP5 MLOAD PUSH2 0x14BD JUMPI POP POP POP PUSH2 0x149C SWAP2 POP PUSH2 0x14FE JUMP JUMPDEST POP PUSH0 PUSH1 0x40 MLOAD PUSH2 0x14AA DUP2 PUSH2 0x116E JUMP JUMPDEST MSTORE PUSH1 0x40 MLOAD PUSH2 0x14B7 DUP2 PUSH2 0x116E JUMP JUMPDEST PUSH0 DUP2 MSTORE SWAP1 JUMP JUMPDEST PUSH2 0x14F4 SWAP4 POP DUP3 SWAP5 DUP2 DUP5 SWAP3 PUSH1 0x40 MLOAD SWAP8 DUP9 SWAP6 ADD DUP5 DUP7 ADD MCOPY DUP4 ADD SWAP1 DUP3 DUP3 ADD PUSH0 DUP2 MSTORE DUP2 MLOAD SWAP4 DUP5 SWAP3 ADD SWAP1 MCOPY ADD PUSH0 DUP4 DUP3 ADD MSTORE SUB DUP1 DUP5 MSTORE ADD DUP3 PUSH2 0x118A JUMP JUMPDEST SWAP1 JUMP JUMPDEST POP POP POP POP SWAP1 JUMP JUMPDEST PUSH0 DUP2 DUP2 MSTORE PUSH1 0x2 PUSH1 0x20 MSTORE PUSH1 0x40 SWAP1 KECCAK256 SLOAD PUSH1 0x1 PUSH1 0x1 PUSH1 0xA0 SHL SUB AND SWAP1 DUP2 ISZERO PUSH2 0x1520 JUMPI POP SWAP1 JUMP JUMPDEST PUSH1 0x24 SWAP1 PUSH1 0x40 MLOAD SWAP1 PUSH4 0x7E273289 PUSH1 0xE0 SHL DUP3 MSTORE PUSH1 0x4 DUP3 ADD MSTORE REVERT JUMPDEST CALLER PUSH0 SWAP1 DUP2 MSTORE PUSH32 0xA4BFD7AFE708E2E87E7F0E2AD9B4D545417E0F795F57B5C5AB5D799C565A04F4 PUSH1 0x20 MSTORE PUSH1 0x40 SWAP1 KECCAK256 SLOAD PUSH32 0x9F2DF0FED2C77648DE5860A4CC508CD0818C85B8B8A1AB4CEEEF8D981C8956A6 SWAP1 PUSH1 0xFF AND ISZERO PUSH2 0x1593 JUMPI POP JUMP JUMPDEST PUSH1 0x44 SWAP1 PUSH1 0x40 MLOAD SWAP1 PUSH4 0xE2517D3F PUSH1 0xE0 SHL DUP3 MSTORE CALLER PUSH1 0x4 DUP4 ADD MSTORE PUSH1 0x24 DUP3 ADD MSTORE REVERT JUMPDEST DUP1 PUSH0 MSTORE PUSH1 0x7 PUSH1 0x20 MSTORE PUSH1 0x40 PUSH0 KECCAK256 CALLER PUSH0 MSTORE PUSH1 0x20 MSTORE PUSH1 0xFF PUSH1 0x40 PUSH0 KECCAK256 SLOAD AND ISZERO PUSH2 0x1593 JUMPI POP JUMP JUMPDEST SWAP1 DUP2 PUSH0 MSTORE PUSH1 0x7 PUSH1 0x20 MSTORE PUSH1 0x40 PUSH0 KECCAK256 SWAP1 PUSH1 0x1 DUP1 PUSH1 0xA0 SHL SUB AND SWAP1 DUP2 PUSH0 MSTORE PUSH1 0x20 MSTORE PUSH1 0xFF PUSH1 0x40 PUSH0 KECCAK256 SLOAD AND ISZERO PUSH0 EQ PUSH2 0x164B JUMPI DUP2 PUSH0 MSTORE PUSH1 0x7 PUSH1 0x20 MSTORE PUSH1 0x40 PUSH0 KECCAK256 DUP2 PUSH0 MSTORE PUSH1 0x20 MSTORE PUSH1 0x40 PUSH0 KECCAK256 PUSH1 0x1 PUSH1 0xFF NOT DUP3 SLOAD AND OR SWAP1 SSTORE CALLER SWAP2 PUSH32 0x2F8788117E7EFF1D82E926EC794901D17C78024A50270940304540A733656F0D PUSH0 DUP1 LOG4 PUSH1 0x1 SWAP1 JUMP JUMPDEST POP POP PUSH0 SWAP1 JUMP JUMPDEST SWAP1 DUP2 PUSH0 MSTORE PUSH1 0x7 PUSH1 0x20 MSTORE PUSH1 0x40 PUSH0 KECCAK256 SWAP1 PUSH1 0x1 DUP1 PUSH1 0xA0 SHL SUB AND SWAP1 DUP2 PUSH0 MSTORE PUSH1 0x20 MSTORE PUSH1 0xFF PUSH1 0x40 PUSH0 KECCAK256 SLOAD AND PUSH0 EQ PUSH2 0x164B JUMPI DUP2 PUSH0 MSTORE PUSH1 0x7 PUSH1 0x20 MSTORE PUSH1 0x40 PUSH0 KECCAK256 DUP2 PUSH0 MSTORE PUSH1 0x20 MSTORE PUSH1 0x40 PUSH0 KECCAK256 PUSH1 0xFF NOT DUP2 SLOAD AND SWAP1 SSTORE CALLER SWAP2 PUSH32 0xF6391F5C32D9C69D2A47EA670B442974B53935D1EDC7FD64EB21E047A839171B PUSH0 DUP1 LOG4 PUSH1 0x1 SWAP1 JUMP JUMPDEST SWAP3 SWAP4 SWAP1 SWAP2 SWAP4 DUP5 EXTCODESIZE PUSH2 0x16D8 JUMPI JUMPDEST POP POP POP POP POP JUMP JUMPDEST PUSH1 0x40 MLOAD PUSH4 0xA85BD01 PUSH1 0xE1 SHL DUP1 DUP3 MSTORE PUSH1 0x1 PUSH1 0x1 PUSH1 0xA0 SHL SUB SWAP6 DUP7 AND PUSH1 0x4 DUP4 ADD MSTORE SWAP4 DUP6 AND PUSH1 0x24 DUP3 ADD MSTORE PUSH1 0x44 DUP2 ADD SWAP2 SWAP1 SWAP2 MSTORE PUSH1 0x80 PUSH1 0x64 DUP3 ADD MSTORE PUSH1 0x20 SWAP6 SWAP5 SWAP1 SWAP4 AND SWAP4 SWAP3 SWAP1 DUP6 SWAP1 DUP3 SWAP1 DUP2 SWAP1 PUSH2 0x172B SWAP1 PUSH1 0x84 DUP4 ADD SWAP1 PUSH2 0x10B1 JUMP JUMPDEST SUB DUP2 PUSH0 DUP9 GAS CALL PUSH0 SWAP2 DUP2 PUSH2 0x17CF JUMPI JUMPDEST POP PUSH2 0x1798 JUMPI POP POP POP RETURNDATASIZE PUSH0 EQ PUSH2 0x1790 JUMPI RETURNDATASIZE SWAP2 PUSH2 0x1753 DUP4 PUSH2 0x127C JUMP JUMPDEST SWAP3 PUSH2 0x1761 PUSH1 0x40 MLOAD SWAP5 DUP6 PUSH2 0x118A JUMP JUMPDEST DUP4 MSTORE RETURNDATASIZE PUSH0 DUP3 DUP6 ADD RETURNDATACOPY JUMPDEST DUP3 MLOAD SWAP3 DUP4 PUSH2 0x178B JUMPI PUSH1 0x40 MLOAD PUSH4 0x32505749 PUSH1 0xE1 SHL DUP2 MSTORE PUSH1 0x4 DUP2 ADD DUP5 SWAP1 MSTORE PUSH1 0x24 SWAP1 REVERT JUMPDEST ADD SWAP1 POP REVERT JUMPDEST PUSH1 0x60 SWAP2 PUSH2 0x176A JUMP JUMPDEST SWAP2 SWAP4 POP PUSH1 0x1 PUSH1 0x1 PUSH1 0xE0 SHL SUB NOT SWAP1 SWAP2 AND SUB PUSH2 0x17B7 JUMPI POP PUSH0 DUP1 DUP1 DUP1 DUP1 PUSH2 0x16D1 JUMP JUMPDEST PUSH1 0x24 SWAP1 PUSH1 0x40 MLOAD SWAP1 PUSH4 0x32505749 PUSH1 0xE1 SHL DUP3 MSTORE PUSH1 0x4 DUP3 ADD MSTORE REVERT JUMPDEST SWAP1 SWAP2 POP DUP6 DUP2 DUP2 RETURNDATASIZE DUP4 GT PUSH2 0x1808 JUMPI JUMPDEST PUSH2 0x17E7 DUP2 DUP4 PUSH2 0x118A JUMP JUMPDEST DUP2 ADD SUB SLT PUSH2 0x16B JUMPI MLOAD PUSH1 0x1 PUSH1 0x1 PUSH1 0xE0 SHL SUB NOT DUP2 AND DUP2 SUB PUSH2 0x16B JUMPI SWAP1 PUSH0 PUSH2 0x1739 JUMP JUMPDEST POP RETURNDATASIZE PUSH2 0x17DD JUMP INVALID LOG2 PUSH5 0x6970667358 0x22 SLT KECCAK256 LT PUSH27 0x866A91E87BD593F26BBC16689B78BACC1A4CACD61FF2FE41D95058 BYTE 0xA5 0xF7 PUSH5 0x736F6C6343 STOP ADDMOD NOT STOP CALLER 0x2F DUP8 DUP9 GT PUSH31 0x7EFF1D82E926EC794901D17C78024A50270940304540A733656F0D6D525720 0x4E 0xBE PUSH30 0x88FD91AE87941CB2DD9D8062B64AE5A2BD2D28EC40B9FBF6DF0000000000 "},"methodIdentifiers":{"DEFAULT_ADMIN_ROLE()":"a217fddf","MINTER_ROLE()":"d5391393","approve(address,uint256)":"095ea7b3","balanceOf(address)":"70a08231","deedMetadata(uint256)":"9272f825","getApproved(uint256)":"081812fc","getRoleAdmin(bytes32)":"248a9ca3","grantRole(bytes32,address)":"2f2ff15d","hasRole(bytes32,address)":"91d14854","isApprovedForAll(address,address)":"e985e9c5","markReleased(uint256)":"95f104ec","mintDeed(address,address,string,uint256,uint256,uint256,string)":"a9cc7d0b","name()":"06fdde03","ownerOf(uint256)":"6352211e","renounceRole(bytes32,address)":"36568abe","revokeRole(bytes32,address)":"d547741f","safeTransferFrom(address,address,uint256)":"42842e0e","safeTransferFrom(address,address,uint256,bytes)":"b88d4fde","setApprovalForAll(address,bool)":"a22cb465","supportsInterface(bytes4)":"01ffc9a7","symbol()":"95d89b41","tokenURI(uint256)":"c87b56dd","transferFrom(address,address,uint256)":"23b872dd"}}}}}