{"contracts/PoolContract.sol":{"PoolContract":{"abi":[{"inputs":[{"internalType":"address","name":"_usdc","type":"address"},{"internalType":"address","name":"_bank","type":"address"},{"internalType":"address","name":"_issuancePartner","type":"address"},{"internalType":"address","name":"_admin","type":"address"},{"internalType":"string","name":"_poolName","type":"string"},{"internalType":"uint256","name":"_principalAmount","type":"uint256"},{"internalType":"uint256","name":"_interestRateBps","type":"uint256"},{"internalType":"uint256","name":"_termMonths","type":"uint256"},{"internalType":"uint256","name":"_collateralValue","type":"uint256"},{"internalType":"uint256","name":"_protocolFeeBps","type":"uint256"},{"internalType":"string[]","name":"_documentCIDs","type":"string[]"}],"stateMutability":"nonpayable","type":"constructor"},{"inputs":[],"name":"AccessControlBadConfirmation","type":"error"},{"inputs":[{"internalType":"address","name":"account","type":"address"},{"internalType":"bytes32","name":"neededRole","type":"bytes32"}],"name":"AccessControlUnauthorizedAccount","type":"error"},{"inputs":[],"name":"ReentrancyGuardReentrantCall","type":"error"},{"anonymous":false,"inputs":[{"indexed":true,"internalType":"address","name":"bank","type":"address"},{"indexed":false,"internalType":"uint256","name":"tokenId","type":"uint256"}],"name":"DeedReleased","type":"event"},{"anonymous":false,"inputs":[{"indexed":true,"internalType":"address","name":"investor","type":"address"},{"indexed":false,"internalType":"uint256","name":"mitAmount","type":"uint256"},{"indexed":false,"internalType":"uint256","name":"usdcPaid","type":"uint256"}],"name":"MITBought","type":"event"},{"anonymous":false,"inputs":[{"indexed":true,"internalType":"address","name":"mitToken","type":"address"},{"indexed":true,"internalType":"address","name":"deedNFT","type":"address"},{"indexed":false,"internalType":"uint256","name":"mitMinted","type":"uint256"},{"indexed":false,"internalType":"uint256","name":"deedTokenId","type":"uint256"}],"name":"PoolActivated","type":"event"},{"anonymous":false,"inputs":[{"indexed":true,"internalType":"address","name":"poolContract","type":"address"},{"indexed":false,"internalType":"string","name":"poolName","type":"string"},{"indexed":true,"internalType":"address","name":"bank","type":"address"},{"indexed":false,"internalType":"uint256","name":"principalAmount","type":"uint256"}],"name":"PoolCreated","type":"event"},{"anonymous":false,"inputs":[{"indexed":false,"internalType":"uint256","name":"timestamp","type":"uint256"}],"name":"PoolRepaid","type":"event"},{"anonymous":false,"inputs":[{"indexed":true,"internalType":"uint256","name":"period","type":"uint256"},{"indexed":false,"internalType":"uint256","name":"totalPaid","type":"uint256"},{"indexed":false,"internalType":"uint256","name":"mitBurned","type":"uint256"},{"indexed":false,"internalType":"uint256","name":"remainingPrincipal","type":"uint256"}],"name":"Repayment","type":"event"},{"anonymous":false,"inputs":[{"indexed":true,"internalType":"bytes32","name":"role","type":"bytes32"},{"indexed":true,"internalType":"bytes32","name":"previousAdminRole","type":"bytes32"},{"indexed":true,"internalType":"bytes32","name":"newAdminRole","type":"bytes32"}],"name":"RoleAdminChanged","type":"event"},{"anonymous":false,"inputs":[{"indexed":true,"internalType":"bytes32","name":"role","type":"bytes32"},{"indexed":true,"internalType":"address","name":"account","type":"address"},{"indexed":true,"internalType":"address","name":"sender","type":"address"}],"name":"RoleGranted","type":"event"},{"anonymous":false,"inputs":[{"indexed":true,"internalType":"bytes32","name":"role","type":"bytes32"},{"indexed":true,"internalType":"address","name":"account","type":"address"},{"indexed":true,"internalType":"address","name":"sender","type":"address"}],"name":"RoleRevoked","type":"event"},{"inputs":[],"name":"BANK_ROLE","outputs":[{"internalType":"bytes32","name":"","type":"bytes32"}],"stateMutability":"view","type":"function"},{"inputs":[],"name":"DEFAULT_ADMIN_ROLE","outputs":[{"internalType":"bytes32","name":"","type":"bytes32"}],"stateMutability":"view","type":"function"},{"inputs":[],"name":"INVESTOR_ROLE","outputs":[{"internalType":"bytes32","name":"","type":"bytes32"}],"stateMutability":"view","type":"function"},{"inputs":[],"name":"ISSUANCE_ROLE","outputs":[{"internalType":"bytes32","name":"","type":"bytes32"}],"stateMutability":"view","type":"function"},{"inputs":[{"internalType":"address","name":"_deedNFT","type":"address"},{"internalType":"address","name":"_pledgeVault","type":"address"},{"internalType":"address","name":"_wade","type":"address"},{"internalType":"string","name":"_metadataURI","type":"string"}],"name":"activatePool","outputs":[],"stateMutability":"nonpayable","type":"function"},{"inputs":[],"name":"activatedAt","outputs":[{"internalType":"uint256","name":"","type":"uint256"}],"stateMutability":"view","type":"function"},{"inputs":[],"name":"admin","outputs":[{"internalType":"address","name":"","type":"address"}],"stateMutability":"view","type":"function"},{"inputs":[{"internalType":"uint256","name":"mitAmount","type":"uint256"}],"name":"buyMIT","outputs":[],"stateMutability":"nonpayable","type":"function"},{"inputs":[],"name":"currentLtvBps","outputs":[{"internalType":"uint256","name":"","type":"uint256"}],"stateMutability":"view","type":"function"},{"inputs":[],"name":"currentPeriod","outputs":[{"internalType":"uint256","name":"","type":"uint256"}],"stateMutability":"view","type":"function"},{"inputs":[],"name":"deedNFT","outputs":[{"internalType":"contract DeedNFT","name":"","type":"address"}],"stateMutability":"view","type":"function"},{"inputs":[],"name":"deedTokenId","outputs":[{"internalType":"uint256","name":"","type":"uint256"}],"stateMutability":"view","type":"function"},{"inputs":[{"internalType":"uint256","name":"","type":"uint256"}],"name":"documentCIDs","outputs":[{"internalType":"string","name":"","type":"string"}],"stateMutability":"view","type":"function"},{"inputs":[],"name":"getDocumentCIDs","outputs":[{"internalType":"string[]","name":"","type":"string[]"}],"stateMutability":"view","type":"function"},{"inputs":[{"internalType":"bytes32","name":"role","type":"bytes32"}],"name":"getRoleAdmin","outputs":[{"internalType":"bytes32","name":"","type":"bytes32"}],"stateMutability":"view","type":"function"},{"inputs":[{"internalType":"bytes32","name":"role","type":"bytes32"},{"internalType":"uint256","name":"index","type":"uint256"}],"name":"getRoleMember","outputs":[{"internalType":"address","name":"","type":"address"}],"stateMutability":"view","type":"function"},{"inputs":[],"name":"getSchedule","outputs":[{"components":[{"internalType":"uint256","name":"dueDate","type":"uint256"},{"internalType":"uint256","name":"principal","type":"uint256"},{"internalType":"uint256","name":"interest","type":"uint256"},{"internalType":"uint256","name":"protocolFee","type":"uint256"},{"internalType":"uint256","name":"totalPayment","type":"uint256"},{"internalType":"uint256","name":"mitToBurn","type":"uint256"},{"internalType":"bool","name":"paid","type":"bool"}],"internalType":"struct PoolContract.Period[]","name":"","type":"tuple[]"}],"stateMutability":"view","type":"function"},{"inputs":[{"internalType":"bytes32","name":"role","type":"bytes32"},{"internalType":"address","name":"account","type":"address"}],"name":"grantRole","outputs":[],"stateMutability":"nonpayable","type":"function"},{"inputs":[{"internalType":"bytes32","name":"role","type":"bytes32"},{"internalType":"address","name":"account","type":"address"}],"name":"hasRole","outputs":[{"internalType":"bool","name":"","type":"bool"}],"stateMutability":"view","type":"function"},{"inputs":[],"name":"mitAvailable","outputs":[{"internalType":"uint256","name":"","type":"uint256"}],"stateMutability":"view","type":"function"},{"inputs":[],"name":"mitSold","outputs":[{"internalType":"uint256","name":"","type":"uint256"}],"stateMutability":"view","type":"function"},{"inputs":[],"name":"mitSupply","outputs":[{"internalType":"uint256","name":"","type":"uint256"}],"stateMutability":"view","type":"function"},{"inputs":[],"name":"mitToken","outputs":[{"internalType":"contract MITToken","name":"","type":"address"}],"stateMutability":"view","type":"function"},{"inputs":[],"name":"outstandingPrincipal","outputs":[{"internalType":"uint256","name":"","type":"uint256"}],"stateMutability":"view","type":"function"},{"inputs":[],"name":"params","outputs":[{"internalType":"string","name":"poolName","type":"string"},{"internalType":"uint256","name":"principalAmount","type":"uint256"},{"internalType":"uint256","name":"interestRateBps","type":"uint256"},{"internalType":"uint256","name":"termMonths","type":"uint256"},{"internalType":"uint256","name":"collateralValue","type":"uint256"},{"internalType":"uint256","name":"ltvBasisPoints","type":"uint256"},{"internalType":"uint256","name":"protocolFeeBps","type":"uint256"},{"internalType":"uint256","name":"createdAt","type":"uint256"},{"internalType":"address","name":"bankAddress","type":"address"}],"stateMutability":"view","type":"function"},{"inputs":[],"name":"pledgeVault","outputs":[{"internalType":"contract PledgeVault","name":"","type":"address"}],"stateMutability":"view","type":"function"},{"inputs":[{"internalType":"bytes32","name":"role","type":"bytes32"},{"internalType":"address","name":"callerConfirmation","type":"address"}],"name":"renounceRole","outputs":[],"stateMutability":"nonpayable","type":"function"},{"inputs":[],"name":"repay","outputs":[],"stateMutability":"nonpayable","type":"function"},{"inputs":[{"internalType":"bytes32","name":"role","type":"bytes32"},{"internalType":"address","name":"account","type":"address"}],"name":"revokeRole","outputs":[],"stateMutability":"nonpayable","type":"function"},{"inputs":[{"internalType":"uint256","name":"","type":"uint256"}],"name":"schedule","outputs":[{"internalType":"uint256","name":"dueDate","type":"uint256"},{"internalType":"uint256","name":"principal","type":"uint256"},{"internalType":"uint256","name":"interest","type":"uint256"},{"internalType":"uint256","name":"protocolFee","type":"uint256"},{"internalType":"uint256","name":"totalPayment","type":"uint256"},{"internalType":"uint256","name":"mitToBurn","type":"uint256"},{"internalType":"bool","name":"paid","type":"bool"}],"stateMutability":"view","type":"function"},{"inputs":[],"name":"status","outputs":[{"internalType":"enum PoolContract.PoolStatus","name":"","type":"uint8"}],"stateMutability":"view","type":"function"},{"inputs":[{"internalType":"bytes4","name":"interfaceId","type":"bytes4"}],"name":"supportsInterface","outputs":[{"internalType":"bool","name":"","type":"bool"}],"stateMutability":"view","type":"function"},{"inputs":[],"name":"usdc","outputs":[{"internalType":"contract IERC20","name":"","type":"address"}],"stateMutability":"view","type":"function"},{"inputs":[],"name":"wade","outputs":[{"internalType":"contract WADE","name":"","type":"address"}],"stateMutability":"view","type":"function"},{"inputs":[{"internalType":"address","name":"investor","type":"address"}],"name":"whitelistInvestor","outputs":[],"stateMutability":"nonpayable","type":"function"}],"evm":{"bytecode":{"linkReferences":{},"object":"60a06040523461088e5761456e803803908161001a81610892565b91823961016081838101031261088e57610033816108b7565b61003f602083016108b7565b61004b604084016108b7565b91610058606085016108b7565b60808501516001600160401b03811161088e5761007a908787019087016108cb565b9360a08601519260c08701519160e088015193610100890151926101208a01519a6101408b01519a60018060401b038c1161088e57818101601f8d830101121561088e57808c0151906001600160401b03821161046b5760209c6100e28e8460051b01610892565b9d8e848152019084830160208560051b83860101011161088e57602081840101915b60208560051b8386010101831061085757505060017f9b779b17422d0df92223018b32b4d1fa46e071723d6817e2486d003becc55f0055505050506001600160a01b031660805261018991906101598161094d565b50601680546001600160a01b0319166001600160a01b0392909216919091179055610183876109b9565b50610a57565b5061271080850290858204148515171561073d57816101a79161092f565b6040519161012083016001600160401b0381118482101761046b57604090815288845260208401879052830184905260608301859052608083015260a082015260c081018890524260e08201526001600160a01b03851661010082015285516001600160401b03811161046b57600154600181811c9116801561084d575b602082101461044d57601f8111610801575b50806020601f8211600114610791575f91610786575b508160011b915f199060031b1c1916176001555b602081015160025560408101516003556060810151600455608081015160055560a081015160065560c081015160075560e08101516008556101000151600980546001600160a01b0319166001600160a01b03929092169190911790556013839055600a805460ff191690555f5b86518110156104935760208160051b880101516017546801000000000000000081101561046b57600181018060175581101561047f5760175f5281517fc624b66cc0138b8fabc209247f72d758e1cf3343756d543badbf24212bed8c1591909101916001600160401b03821161046b578254600181811c91168015610461575b602082101461044d57601f811161040c575b50602090601f83116001146103a2576001949392915f9183610397575b50505f19600383901b1c191690841b1790555b016102cf565b015190505f8061037e565b90835f5260205f20915f5b601f19851681106103f457509183916001969594938794601f198116106103dc575b505050811b019055610391565b01515f1960f88460031b161c191690555f80806103cf565b919260206001819286850151815501940192016103ad565b835f5260205f20601f840160051c810160208510610446575b601f830160051c8201811061043b575050610361565b5f8155600101610425565b5080610425565b634e487b7160e01b5f52602260045260245ffd5b90607f169061034f565b634e487b7160e01b5f52604160045260245ffd5b634e487b7160e01b5f52603260045260245ffd5b508681670de0b6b3a7640000810204670de0b6b3a7640000148215171561073d576104c26201d4c0918561091c565b04670de0b6b3a76400005f5b84811061075757506104f8816104f36201d4c0670de0b6b3a76400008702048861091c565b61091c565b81670de0b6b3a763ffff1981011161073d57670de0b6b3a763ffff198201670de0b6b3a7640000808202829004149015171561073d5761054d91670de0b6b3a763ffff1901670de0b6b3a7640000029061092f565b925f91855b8284106105e6578860207f5da1dbde7460ad4d3a3664515e0dc115a979b47caf50db2cac8bfc97efd937748a8a6040519460408652805194859182604089015201606087015e5f60608587010152602085015260018060a01b0316926060813094601f80199101168101030190a3604051613a049081610b0a823960805181818161085e0152818161126501526117950152f35b670de0b6b3a76400006106006201d4c0828802048361091c565b049081871115610751576106148288610afc565b91845f1981011161073d575f1985018614610728575b61063d846106388386610aef565b610aef565b604051916001600160401b0360e084019081119084111761046b5760e083016040525f8352846020840152604083015284606083015260808201528260a08201525f60c0820152600b546801000000000000000081101561046b576001810180600b5581101561047f57600660c091600b5f52600760205f20910201835181556020840151600182015560408401516002820155606084015160038201556080840151600482015560a0840151600582015501910151151560ff801983541691161790558181115f1461071e5760019161071691610afc565b930192610552565b505060015f610716565b96509050806107378782610aef565b9661062a565b634e487b7160e01b5f52601160045260245ffd5b5f610614565b9061077f600191670de0b6b3a76400006107786201d4c0828902048361091c565b0490610aef565b91016104ce565b90508701515f61024d565b60015f90815292505f8051602061452e833981519152905b601f19831684106107e9576001935082601f198116106107d1575b5050811b01600155610261565b8901515f1960f88460031b161c191690555f806107c4565b898101518255602093840193600190920191016107a9565b60015f525f8051602061452e833981519152601f830160051c810160208410610846575b601f830160051c8201811061083b575050610237565b5f8155600101610825565b5080610825565b90607f1690610225565b8251906001600160401b03821161088e5760208092916108818293838b8a0191888b0101016108cb565b8152019301929050610104565b5f80fd5b6040519190601f01601f191682016001600160401b0381118382101761046b57604052565b51906001600160a01b038216820361088e57565b81601f8201121561088e578051906001600160401b03821161046b576108fa601f8301601f1916602001610892565b928284526020838301011161088e57815f9260208093018386015e8301015290565b8181029291811591840414171561073d57565b8115610939570490565b634e487b7160e01b5f52601260045260245ffd5b6001600160a01b03165f8181525f8051602061454e833981519152602052604090205460ff166109b4575f8181525f8051602061454e83398151915260205260408120805460ff191660011790553391905f8051602061450e8339815191528180a4600190565b505f90565b6001600160a01b03165f8181527f8b1b9c9043e80973230885f47d3c5fd9cb7da44cd5750066c17fe13b7626cf6960205260409020547f591fa5458fe051cc8c02c405479bd38e00713c98dbd3db209d982048f1e638fa919060ff16610a5157815f525f60205260405f20815f5260205260405f20600160ff1982541617905533915f8051602061450e8339815191525f80a4600190565b50505f90565b6001600160a01b03165f8181527fa076b6c7090e38bfc39b1b347e64cb6d96ee4ab3efa77a15f23085de7667b49c60205260409020547f43a0a3e63c2a39d49cdea8d043e7b4a2564ba537638445fefee61934c836e3bc919060ff16610a5157815f525f60205260405f20815f5260205260405f20600160ff1982541617905533915f8051602061450e8339815191525f80a4600190565b9190820180921161073d57565b9190820391821161073d5756fe6080806040526004361015610012575f80fd5b5f905f3560e01c90816301ffc9a714611ac8575080630604061814611aab5780630eb7143214611a7157806313e9164814611a49578063200d2ed214611a20578063248a9ca3146119f45780632669e4dd146119cc57806326fadbe21461186657806329b1829e146118495780632f2ff15d1461180d57806336568abe146117c45780633e413bee14611780578063402d888314611178578063462428b61461115d578063565ecac71461113f578063597be6d1146111215780635e7c6eef14610b7d57806363f9407c14610b5a5780636e8c2396146107415780636fbfd409146106c657806376082a5e1461068b578063777d80cc1461059d5780638e7675ef146105625780639010d07c1461052e57806391d14854146104e5578063a217fddf146104c9578063ac27daa7146104ab578063b813fb0814610438578063c430bcda1461030b578063c7f01cac146102e2578063cff0ab9614610252578063d547741f14610211578063eaa8c2e7146101e8578063f60559b8146101ca5763f851a4401461019f575f80fd5b346101c757806003193601126101c7576016546040516001600160a01b039091168152602090f35b80fd5b50346101c757806003193601126101c7576020601154604051908152f35b50346101c757806003193601126101c757600e546040516001600160a01b039091168152602090f35b50346101c75760403660031901126101c75761024e600435610231611b1b565b90808452836020526102496001604086200154611f75565b6120b7565b5080f35b50346101c757806003193601126101c7576102b460405161027d8161027681611bf0565b0382611d47565b600254600354600454600554600654600754916008549360018060a01b036009541695604051998a99610120808c528b0190611b94565b9760208a015260408901526060880152608087015260a086015260c085015260e08401526101008301520390f35b50346101c757806003193601126101c757600d546040516001600160a01b039091168152602090f35b50346101c75760203660031901126101c757610325611b31565b335f9081527fad3228b676f7d3cd4284a5443f17f1962b36e491b30a40b2405849e597ba5fb5602052604090205460ff161561041a57600c546001600160a01b0390811680156103d5578391813b156103d157829160248392604051948593849263e43252d760e01b8452891660048401525af180156103c6576103ae575b5061024e82611f96565b6103b790611d33565b6103c257815f6103a4565b5080fd5b6040513d84823e3d90fd5b8280fd5b60405162461bcd60e51b815260206004820152601b60248201527f506f6f6c436f6e74726163743a206e6f742061637469766174656400000000006044820152606490fd5b60405163e2517d3f60e01b81523360048201525f6024820152604490fd5b50346101c75760203660031901126101c7576004356017548110156103c2576104936102769160176104a79452604051928380927fc624b66cc0138b8fabc209247f72d758e1cf3343756d543badbf24212bed8c1501611ca2565b604051918291602083526020830190611b94565b0390f35b50346101c757806003193601126101c7576020601054604051908152f35b50346101c757806003193601126101c757602090604051908152f35b50346101c75760403660031901126101c7576040610501611b1b565b91600435815280602052209060018060a01b03165f52602052602060ff60405f2054166040519015158152f35b50346101c75760403660031901126101c7576020610550602435600435611efb565b6040516001600160a01b039091168152f35b50346101c757806003193601126101c75760206040517f43a0a3e63c2a39d49cdea8d043e7b4a2564ba537638445fefee61934c836e3bc8152f35b50346101c757806003193601126101c7576017546105ba81611d69565b906105c86040519283611d47565b8082526017835260209283830191817fc624b66cc0138b8fabc209247f72d758e1cf3343756d543badbf24212bed8c15845b83831061065f5750505050604051928484019085855251809152604084019460408260051b8601019392955b8287106106335785850386f35b90919293828061064f600193603f198a82030186528851611b94565b9601920196019592919092610626565b600188819260409a99979a51610679816102768189611ca2565b815201920192019190969395966105fa565b50346101c757806003193601126101c75760206040517fb165298935924f540e4181c03493a5d686c54a0aaeb3f6216de85b7ffbba77388152f35b50346101c75760203660031901126101c75760043590600b548210156101c75760e06106f183611b47565b508054906001810154906002810154600382015460048301549160ff600660058601549501541694604051968752602087015260408601526060850152608084015260a0830152151560c0820152f35b50346101c7576020806003193601126103c25760043561075f612129565b60ff600a54166004811015610b4657600161077a9114611d81565b8015610b0157600c546009546040516370a0823160e01b81526001600160a01b03918216600482015260249282169085818581855afa9081156109ed578791610ad0575b508411610a7b57604051636c9b2a3f60e11b815233600482015286919086818681855afa908115610a70578391610a53575b5015610a10575b5081600f5416803b156103c25781809160446040518094819363bffdd9f160e01b8352336004840152818a8401525af180156103c6576109f8575b50506040516323b872dd60e01b808252336004830152306024830152604482018590529185826064818a7f000000000000000000000000000000000000000000000000000000000000000086165af19081156109ed576108df936108a0879389958b916109d0575b50611de5565b600c546009546040519283526001600160a01b039084161660048301523360248301526044820193909352938492909116908290899082906064820190565b03925af19081156109c5578591610998575b501561094b575061090481601254611eee565b601255604051918183528201527f8104158f6bfd5059e89948b6d8498d84641bc7159cfed4814819a8831a00e3d360403392a260015f805160206139af8339815191525580f35b8260216084926040519262461bcd60e51b845260048401528201527f506f6f6c436f6e74726163743a204d4954207472616e73666572206661696c656044820152601960fa1b6064820152fd5b6109b89150843d86116109be575b6109b08183611d47565b810190611dcd565b5f6108f1565b503d6109a6565b6040513d87823e3d90fd5b6109e79150863d88116109be576109b08183611d47565b5f61089a565b6040513d89823e3d90fd5b610a0190611d33565b610a0c57845f610832565b8480fd5b803b156103c257818091856040518094819363e43252d760e01b83523360048401525af180156103c657156107f757610a4890611d33565b610a0c57845f6107f7565b610a6a9150873d89116109be576109b08183611d47565b5f6107f0565b6040513d85823e3d90fd5b60405162461bcd60e51b8152600481018690526028818501527f506f6f6c436f6e74726163743a20696e73756666696369656e74204d495420616044820152677661696c61626c6560c01b6064820152608490fd5b90508581813d8311610afa575b610ae78183611d47565b81010312610af657515f6107be565b5f80fd5b503d610add565b60405162461bcd60e51b815260048101839052601960248201527f506f6f6c436f6e74726163743a207a65726f20616d6f756e74000000000000006044820152606490fd5b634e487b7160e01b84526021600452602484fd5b50346101c757806003193601126101c7576020610b75611e72565b604051908152f35b50346101c75760803660031901126101c757610b97611b31565b610b9f611b1b565b6044356001600160a01b0381169290839003610af65767ffffffffffffffff908160643511610a0c57366023606435011215610a0c57816064356004013511610a0c5736602460643560040135606435010111610a0c57335f9081527fa076b6c7090e38bfc39b1b347e64cb6d96ee4ab3efa77a15f23085de7667b49c60205260409020547f43a0a3e63c2a39d49cdea8d043e7b4a2564ba537638445fefee61934c836e3bc9060ff16156111035750610c57612129565b60ff600a541660048110156110ef5761109e576001600160a01b0316928315158061108c575b80611083575b1561103e576020926bffffffffffffffffffffffff60a01b9485600d541617600d5560018060a01b031684600e541617600e5583600f541617600f55610d0d6024610cdc604051610cd78161027681611bf0565b612169565b604051948591634d49542d60e01b828401528051918291018484015e81018783820152036004810185520183611d47565b60165460405192611782808501936001600160a01b03939093169284118585101761102a57610d5f8594939260809261222d873960a08552610d5160a08601611bf0565b908582036020870152611b94565b923060408201523360608201520152039083f09081156103c657600c80549091166001600160a01b03838116918217909255600254601155600954849216903b156103c25760405163e43252d760e01b815260048101919091528181602481836001600160a01b0388165af180156103c657611016575b50600954601154906001600160a01b039081169084163b156103d1576040516340c10f1960e01b81526001600160a01b0390911660048201526024810191909152818180604481010381836001600160a01b0388165af180156103c657611002575b5050600d54600e5460025460055460065460405163a9cc7d0b60e01b81526001600160a01b03948516600482015230602482015260e06044820152946020948694911692849289928792859290610e9160e48501611bf0565b926064850152608484015260a48301526003198282030160c48301526064356004013581526064356004013560246064350184830137600460643501358181018401859052601f01601f1916010301925af1908115610a70578391610fd0575b508060105560018060ff19600a541617600a55426015558084905b610f6f575b5050600d546011546040805191825260208201939093526001600160a01b0391821693909116917f86dd5a6be51ae12acb42afc1ac29799e5f9e45134db298e05450083171b5669691a360015f805160206139af8339815191525580f35b600b54811015610fcb57818101808211610fb75762278d0090818102918183041490151715610fb7578291610fa5839242611eee565b610fae82611b47565b50550190610f0c565b634e487b7160e01b86526011600452602486fd5b610f11565b90506020813d602011610ffa575b81610feb60209383611d47565b81010312610af657515f610ef1565b3d9150610fde565b61100b90611d33565b6103c257815f610e38565b61101f90611d33565b6103c257815f610dd6565b634e487b7160e01b87526041600452602487fd5b60405162461bcd60e51b815260206004820152601f60248201527f506f6f6c436f6e74726163743a20696e76616c696420616464726573736573006044820152606490fd5b50801515610c83565b506001600160a01b0383161515610c7d565b60405162461bcd60e51b8152602060048201526024808201527f506f6f6c436f6e74726163743a206e6f742070656e64696e67206163746976616044820152633a34b7b760e11b6064820152608490fd5b634e487b7160e01b86526021600452602486fd5b6044906040519063e2517d3f60e01b82523360048301526024820152fd5b50346101c757806003193601126101c7576020601554604051908152f35b50346101c757806003193601126101c7576020601254604051908152f35b50346101c757806003193601126101c7576020610b75611e49565b5034610af6575f366003190112610af657335f9081527f8b1b9c9043e80973230885f47d3c5fd9cb7da44cd5750066c17fe13b7626cf6960209081526040909120547f591fa5458fe051cc8c02c405479bd38e00713c98dbd3db209d982048f1e638fa9060ff161561110357506111ed612129565b60ff600a5416600481101561176c5760016112089114611d81565b6014546004548110156117275761121e90611b47565b506006810160ff8154166116d8576004828101546009546040516323b872dd60e01b81526001600160a01b03918216938101939093523060248401526044830182905293917f000000000000000000000000000000000000000000000000000000000000000085169086816064815f865af1801561159a576112a6915f916116c15750611de5565b84600f541660038401916112f1886112bf855487611e3c565b60405163a9059cbb60e01b8082526001600160a01b039096166004820152602481019190915291829081906044820190565b03815f865af190811561159a575f916116a4575b501561165457600f5483546040519384529088166001600160a01b03166004840152602483015287908290815f816044810103925af190811561159a575f91611637575b50156115e857835460ff199081166001179094556014545f1981146115d457600101601455600460018401916113828354601354611e3c565b60135586600f541692549260028601549154938989600c5416604051958680926318160ddd60e01b82525afa93841561159a575f946115a5575b50813b15610af6575f60849281956040519788968795634a36069160e01b875260048701526024860152604485015260648401525af1801561159a57611560575b50907f89a7949b2b487473246661f4ca7f51ff59389180d10a910caed2d02dc90640326060600593601454948594015460135490604051928352898301526040820152a26004541461145f575b8360015f805160206139af8339815191525580f35b600290600a541617600a558281600e5416803b156103c257818091600460405180948193634593eaf360e01b83525af180156103c65761154c575b5081600d5416601054813b156103d157829160248392604051948593849263257c413b60e21b845260048401525af180156103c657611538575b50507f71107a1f8ebc346155161d1d2817aa6268ea6fd68f309fa4f02ad36a1c20a99b907f77c2c51736ca588d8412c341ce32700dc11d1f191d40d86f5ac657f457c91ef083604051428152a16009541691601054604051908152a25f808061144a565b61154190611d33565b6103d157825f6114d4565b61155590611d33565b6103d157825f61149a565b60059291965061156f90611d33565b5f959091507f89a7949b2b487473246661f4ca7f51ff59389180d10a910caed2d02dc90640326113fd565b6040513d5f823e3d90fd5b9093508981813d83116115cd575b6115bd8183611d47565b81010312610af65751925f6113bc565b503d6115b3565b634e487b7160e01b5f52601160045260245ffd5b60405162461bcd60e51b815260048101879052602160248201527f506f6f6c436f6e74726163743a20666565207472616e73666572206661696c656044820152601960fa1b6064820152608490fd5b61164e9150873d89116109be576109b08183611d47565b5f611349565b60405162461bcd60e51b815260048101899052602260248201527f506f6f6c436f6e74726163743a2057414445207472616e73666572206661696c604482015261195960f21b6064820152608490fd5b6116bb9150893d8b116109be576109b08183611d47565b5f611305565b6109e79150883d8a116109be576109b08183611d47565b60405162461bcd60e51b815260048101849052602160248201527f506f6f6c436f6e74726163743a20706572696f6420616c7265616479207061696044820152601960fa1b6064820152608490fd5b60405162461bcd60e51b815260048101839052601e60248201527f506f6f6c436f6e74726163743a20616c6c20706572696f6473207061696400006044820152606490fd5b634e487b7160e01b5f52602160045260245ffd5b34610af6575f366003190112610af6576040517f00000000000000000000000000000000000000000000000000000000000000006001600160a01b03168152602090f35b34610af6576040366003190112610af6576117dd611b1b565b336001600160a01b038216036117fb576117f9906004356120b7565b005b60405163334bd91960e11b8152600490fd5b34610af6576040366003190112610af6576117f960043561182c611b1b565b90805f525f602052611844600160405f200154611f75565b612041565b34610af6575f366003190112610af6576020601354604051908152f35b34610af6575f366003190112610af657600b5461188281611d69565b61188f6040519182611d47565b8181526020908181019283600b5f527f0175b7a638427703f0dbe7bb9bbf987a2551717b34e79f33b5b1008d1fa01db9905f905b838210611942576040805187815286518189018190528992820190895f5b8281106118ee5784840385f35b855180518552808301518584015260408082015190860152606080820151908601526080808201519086015260a0808201519086015260c0908101511515908501529481019460e0909301926001016118e1565b60405160e0810181811067ffffffffffffffff8211176119b8576001926007928992604052865481528487015483820152600287015460408201526003870154606082015260048701546080820152600587015460a082015260ff600688015416151560c08201528152019301910190916118c3565b634e487b7160e01b5f52604160045260245ffd5b34610af6575f366003190112610af657600c546040516001600160a01b039091168152602090f35b34610af6576020366003190112610af6576004355f525f6020526020600160405f200154604051908152f35b34610af6575f366003190112610af65760ff600a5416604051600482101561176c576020918152f35b34610af6575f366003190112610af657600f546040516001600160a01b039091168152602090f35b34610af6575f366003190112610af65760206040517f591fa5458fe051cc8c02c405479bd38e00713c98dbd3db209d982048f1e638fa8152f35b34610af6575f366003190112610af6576020601454604051908152f35b34610af6576020366003190112610af6576004359063ffffffff60e01b8216809203610af657602091637965db0b60e01b8114908115611b0a575b5015158152f35b6301ffc9a760e01b14905083611b03565b602435906001600160a01b0382168203610af657565b600435906001600160a01b0382168203610af657565b600b54811015611b8057600790600b5f52027f0175b7a638427703f0dbe7bb9bbf987a2551717b34e79f33b5b1008d1fa01db901905f90565b634e487b7160e01b5f52603260045260245ffd5b805180835260209291819084018484015e5f828201840152601f01601f1916010190565b90600182811c92168015611be6575b6020831014611bd257565b634e487b7160e01b5f52602260045260245ffd5b91607f1691611bc7565b905f91600190600154611c0281611bb8565b8083529260209160018116908115611c7d5750600114611c23575b50505050565b9293945060015f527fb10e2d527612073b26eecdfd717e6a320cf44b4afac2b0732d9fcbe2b7fa0cf6925f935b858510611c6a57505050602092500101905f808080611c1d565b8054858501840152938201938101611c50565b92505050602093945060ff929192191683830152151560051b0101905f808080611c1d565b80545f9392611cb082611bb8565b918282526020936001916001811690815f14611d145750600114611cd6575b5050505050565b90939495505f92919252835f2092845f945b838610611d0057505050500101905f80808080611ccf565b805485870183015294019385908201611ce8565b60ff19168685015250505090151560051b010191505f80808080611ccf565b67ffffffffffffffff81116119b857604052565b90601f8019910116810190811067ffffffffffffffff8211176119b857604052565b67ffffffffffffffff81116119b85760051b60200190565b15611d8857565b60405162461bcd60e51b815260206004820152601d60248201527f506f6f6c436f6e74726163743a20706f6f6c206e6f74206163746976650000006044820152606490fd5b90816020910312610af657518015158103610af65790565b15611dec57565b60405162461bcd60e51b815260206004820152602260248201527f506f6f6c436f6e74726163743a2055534443207472616e73666572206661696c604482015261195960f21b6064820152608490fd5b919082039182116115d457565b6005548015611e6d57601354612710908181029181830414901517156115d4570490565b505f90565b600c546001600160a01b03908116908115611ee857602090600954166024604051809481936370a0823160e01b835260048301525afa90811561159a575f91611eb9575090565b90506020813d602011611ee0575b81611ed460209383611d47565b81010312610af6575190565b3d9150611ec7565b50505f90565b919082018092116115d457565b159081611f6c575b50611f5d5760405162461bcd60e51b815260206004820152602760248201527f506f6f6c436f6e74726163743a20656e756d65726174696f6e206e6f742073756044820152661c1c1bdc9d195960ca1b6064820152608490fd5b6009546001600160a01b031690565b9050155f611f03565b805f525f60205260405f20335f5260205260ff60405f205416156111035750565b6001600160a01b03165f8181527fe2d1e94f75a79ebb420050d390c778587704a86b01c12de38aaedee2723d527760205260409020547fb165298935924f540e4181c03493a5d686c54a0aaeb3f6216de85b7ffbba7738919060ff16611ee857815f525f60205260405f20815f5260205260405f20600160ff1982541617905533917f2f8788117e7eff1d82e926ec794901d17c78024a50270940304540a733656f0d5f80a4600190565b90815f525f60205260405f209060018060a01b031690815f5260205260ff60405f205416155f14611ee857815f525f60205260405f20815f5260205260405f20600160ff1982541617905533917f2f8788117e7eff1d82e926ec794901d17c78024a50270940304540a733656f0d5f80a4600190565b90815f525f60205260405f209060018060a01b031690815f5260205260ff60405f2054165f14611ee857815f525f60205260405f20815f5260205260405f2060ff19815416905533917ff6391f5c32d9c69d2a47ea670b442974b53935d1edc7fd64eb21e047a839171b5f80a4600190565b5f805160206139af83398151915260028154146121465760029055565b604051633ee5aeb560e01b8152600490fd5b908151811015611b80570160200190565b6003815110156121765790565b604051906040820182811067ffffffffffffffff8211176119b857604052600382526020820190602036833780516002198101929083116115d4576001600160f81b03199283906121c79084612158565b5116845115611b80575f1a9053805160011981019081116115d4576121ed839183612158565b51165f1a835160011015611b8057602184015380515f1981019081116115d45761221691612158565b51165f1a815160021015611b805760228201539056fe604060808152346104b2576117828038038061001a816104b6565b928339810160a0828203126104b25781516001600160401b0391908281116104b257816100489185016104db565b9160209182850151908282116104b2576100639186016104db565b61006e86860161052c565b9261008760806100806060890161052c565b970161052c565b928551958187116103d6576003908154946001988987811c971680156104a8575b8688101461049457601f96878111610451575b5080868882116001146103f5575f916103ea575b505f1982861b1c1916908a1b1783555b80518481116103d65760049182548b81811c911680156103cc575b888210146103b95790818984931161036b575b508790898311600114610304575f926102f9575b50505f1982861b1c1916908a1b1781555b81519384116102e657600654908982811c921680156102dc575b868310146102c95750858111610285575b5083948311600114610221576008945f929184610216575b505082881b925f19911b1c1916176006555b600780546001600160a01b0319166001600160a01b0386811691821790925590946101c5906101b586610540565b506101bf816105ac565b5061064b565b506101cf8761064b565b506101d98461064b565b505f525281855f209460ff19958587825416179055165f52845f208385825416179055165f52825f20918254161790555161105d90816106e58239f35b015191505f80610175565b879291601f1983169560065f52855f20925f5b88811061026e57508460089810610255575b50505050811b01600655610187565b01519060f8845f19921b161c191690555f808080610246565b8183015185558b9690940193918701918701610234565b60065f52845f208680860160051c8201928787106102c0575b0160051c019089905b8281106102b557505061015d565b5f81550189906102a7565b9250819261029e565b602290634e487b7160e01b5f525260245ffd5b91607f169161014c565b604190634e487b7160e01b5f525260245ffd5b015190505f80610121565b908c9350601f19831691855f52895f20925f5b8b82821061034c5750508411610335575b505050811b018155610132565b01515f1983881b60f8161c191690555f8080610328565b91929395968291958786015181550195019301908e9594939291610317565b909150835f52875f208980850160051c8201928a86106103b0575b918e91869594930160051c01915b8281106103a257505061010d565b5f81558594508e9101610394565b92508192610386565b602284634e487b7160e01b5f525260245ffd5b90607f16906100fa565b634e487b7160e01b5f52604160045260245ffd5b90508301515f6100cf565b8b9250601f19821690865f52885f20915f5b8a82821061043b5750508311610424575b5050811b0183556100df565b8501515f1983881b60f8161c191690555f80610418565b8389015185558f96909401939283019201610407565b845f52865f208880840160051c82019289851061048b575b0160051c01908b905b8281106104805750506100bb565b5f8155018b90610472565b92508192610469565b634e487b7160e01b5f52602260045260245ffd5b96607f16966100a8565b5f80fd5b6040519190601f01601f191682016001600160401b038111838210176103d657604052565b81601f820112156104b2578051906001600160401b0382116103d65761050a601f8301601f19166020016104b6565b92828452602083830101116104b257815f9260208093018386015e8301015290565b51906001600160a01b03821682036104b257565b6001600160a01b03165f8181525f80516020611762833981519152602052604090205460ff166105a7575f8181525f8051602061176283398151915260205260408120805460ff191660011790553391905f805160206117428339815191528180a4600190565b505f90565b6001600160a01b03165f8181527fa76130cbffd9b33b64b573944ad05adb12481247304469bee8ac721996fc823460205260409020547f9c81408027135c0110a5451971bdd98dbf60c57e65d8cd78b7e1c47105a3ee35919060ff1661064557815f52600560205260405f20815f5260205260405f20600160ff1982541617905533915f805160206117428339815191525f80a4600190565b50505f90565b6001600160a01b03165f8181527f45e747ec8b3ef9fbf0dbc91852a1b6406d924c58bbaa8d947cde92d189a8448560205260409020547f2a3dab589bcc9747970dd85ac3f222668741ae51f2a1bbb8f8355be28dd8a868919060ff1661064557815f52600560205260405f20815f5260205260405f20600160ff1982541617905533915f805160206117428339815191525f80a460019056fe6080604081815260049182361015610015575f80fd5b5f3560e01c9081629597e014610c215750806301ffc9a714610bcd57806306fdde0314610af2578063095ea7b314610a4a57806318160ddd14610a2c57806323b872dd1461093a578063248a9ca3146109105780632f2ff15d146108e8578063313ce567146108cd57806336568abe1461088957806340c10f191461070f57806370a08231146106d95780637295ed931461069f57806388d52ef7146106775780638ab1d6811461061157806391d14854146105cd57806395d89b41146104f55780639dc29fac146103ca578063a217fddf146103b0578063a9059cbb14610380578063d547741f14610344578063d936547e14610308578063dd62ed3e146102bf578063e43252d7146102565763f3466dfa14610131575f80fd5b34610252575f366003190112610252578051905f60065460018160011c9060018316928315610248575b60209384841081146102355783885290811561021957506001146101c3575b505050829003601f01601f191682019267ffffffffffffffff8411838510176101b057508291826101ac925282610c59565b0390f35b604190634e487b7160e01b5f525260245ffd5b60065f908152929350837ff652222313e28459528d920b65115c16c04f3efc82aaedc97be59f3f377c0d3f5b83851061020557505050508301015f808061017a565b8054888601830152930192849082016101ef565b60ff1916878501525050151560051b84010190505f808061017a565b602289634e487b7160e01b5f525260245ffd5b91607f169161015b565b5f80fd5b503461025257602036600319011261025257610270610c83565b610278610eb8565b6001600160a01b03165f8181526008602052918220805460ff19166001179055907f4f783c179409b4127238bc9c990bc99b9a651666a0d20b51d6c42849eb88466d9080a2005b50346102525780600319360112610252576020906102db610c83565b6102e3610c99565b9060018060a01b038091165f5260018452825f2091165f528252805f20549051908152f35b5034610252576020366003190112610252576020906001600160a01b0361032d610c83565b165f526008825260ff815f20541690519015158152f35b503461025257806003193601126102525761037e91356103796001610367610c99565b93835f5260056020525f200154610f13565b610fb3565b005b50346102525780600319360112610252576020906103a961039f610c83565b6024359033610caf565b5160018152f35b5034610252575f36600319011261025257602090515f8152f35b5090346102525781600319360112610252576103e4610c83565b6024356103ef610e3f565b6001600160a01b0382169283156104df57835f526020926008845260ff865f2054161561049e57845f525f8452855f20549183831061046a575f867fddf252ad1be2c89b69c2b068fc378daa952ba7f163c4a11628f55a4df523b3ef87878b81898688528785520381872055816002540360025551908152a3005b865163391434e360e21b81526001600160a01b03909216908201908152602081018390526040810184905281906060010390fd5b606482858089519262461bcd60e51b845283015260248201527f4d4954546f6b656e3a2073656e646572206e6f742077686974656c69737465646044820152fd5b6024905f865191634b637e8f60e11b8352820152fd5b5034610252575f366003190112610252578051905f835460018160011c90600183169283156105c3575b602093848410811461023557838852908115610219575060011461056f57505050829003601f01601f191682019267ffffffffffffffff8411838510176101b057508291826101ac925282610c59565b5f878152929350837f8a35acfbc15ff81a39ae7d344fd709f28e8600b4aa8c65c6b64bfe7fe36bd19b5b8385106105af57505050508301015f808061017a565b805488860183015293019284908201610599565b91607f169161051f565b50346102525780600319360112610252576020916105e9610c99565b90355f5260058352815f209060018060a01b03165f52825260ff815f20541690519015158152f35b50346102525760203660031901126102525761062b610c83565b610633610eb8565b6001600160a01b03165f8181526008602052918220805460ff19169055907f535611fb62fa2a833988f283b779e417e996813e44046f521d76c17b5943b08c9080a2005b5034610252575f3660031901126102525760075490516001600160a01b039091168152602090f35b5034610252575f36600319011261025257602090517f2a3dab589bcc9747970dd85ac3f222668741ae51f2a1bbb8f8355be28dd8a8688152f35b5034610252576020366003190112610252576020906001600160a01b036106fe610c83565b165f525f8252805f20549051908152f35b509034610252578160031936011261025257610729610c83565b60243590610735610e3f565b60018060a01b031692835f526020926008845260ff825f2054168015610881575b1561083657841561082157845f526008845260ff825f205416156107d457600254908382018092116107c157506002555f8481528084528181208054840190559051918252917fddf252ad1be2c89b69c2b068fc378daa952ba7f163c4a11628f55a4df523b3ef91a3005b601190634e487b7160e01b5f525260245ffd5b83608492519162461bcd60e51b8352820152602360248201527f4d4954546f6b656e3a20726563697069656e74206e6f742077686974656c69736044820152621d195960ea1b6064820152fd5b5f602492519163ec442f0560e01b8352820152fd5b83608492519162461bcd60e51b8352820152602160248201527f4d4954546f6b656e3a2061646472657373206e6f742077686974656c697374656044820152601960fa1b6064820152fd5b508415610756565b50346102525780600319360112610252576108a2610c99565b90336001600160a01b038316036108be575061037e9135610fb3565b5163334bd91960e11b81529050fd5b5034610252575f366003190112610252576020905160068152f35b503461025257806003193601126102525761037e913561090b6001610367610c99565b610f35565b503461025257602036600319011261025257602091355f52600582526001815f2001549051908152f35b50903461025257606036600319011261025257610955610c83565b61095d610c99565b906044359260018060a01b038216805f526001602052855f20335f52602052855f2054915f198310610998575b6020876103a9888888610caf565b858310610a005781156109ea5733156109d457505f908152600160209081528682203383528152908690209185900390915582906103a961098a565b6024905f885191634a1406b160e11b8352820152fd5b6024905f88519163e602df0560e01b8352820152fd5b8651637dc7a0d960e11b8152339181019182526020820193909352604081018690528291506060010390fd5b5034610252575f366003190112610252576020906002549051908152f35b5034610252578060031936011261025257610a63610c83565b602435903315610adc576001600160a01b0316908115610ac65760209350335f5260018452825f20825f52845280835f205582519081527f8c5be1e5ebec7d5bd14f71427d1e84f3dd0314c0f7b2291e5b200ac8c7c3b925843392a35160018152f35b8251634a1406b160e11b81525f81860152602490fd5b825163e602df0560e01b81525f81860152602490fd5b5034610252575f366003190112610252578051905f60035460018160011c9060018316928315610bc3575b6020938484108114610235578388529081156102195750600114610b6d57505050829003601f01601f191682019267ffffffffffffffff8411838510176101b057508291826101ac925282610c59565b60035f908152929350837fc2575a0e9e593c00f959f8c92f12db2869c3395a3b0502d05e2516446f71f85b5b838510610baf57505050508301015f808061017a565b805488860183015293019284908201610b99565b91607f1691610b1d565b509034610252576020366003190112610252573563ffffffff60e01b811680910361025257602091637965db0b60e01b8214918215610c10575b50519015158152f35b6301ffc9a760e01b1491505f610c07565b34610252575f36600319011261025257807f9c81408027135c0110a5451971bdd98dbf60c57e65d8cd78b7e1c47105a3ee3560209252f35b602060409281835280519182918282860152018484015e5f828201840152601f01601f1916010190565b600435906001600160a01b038216820361025257565b602435906001600160a01b038216820361025257565b9291906001600160a01b03808516918215610e275716918215610e0f57815f5260209060088252604060ff815f20541615610dcc57845f526008835260ff815f20541615610d7d57835f525f8352805f205496828810610d4e575081849596977fddf252ad1be2c89b69c2b068fc378daa952ba7f163c4a11628f55a4df523b3ef955f525f855203815f2055855f52805f2082815401905551908152a3565b905163391434e360e21b81526001600160a01b0390911660048201526024810187905260448101829052606490fd5b5162461bcd60e51b815260048101839052602360248201527f4d4954546f6b656e3a20726563697069656e74206e6f742077686974656c69736044820152621d195960ea1b6064820152608490fd5b5162461bcd60e51b815260048101839052602481018390527f4d4954546f6b656e3a2073656e646572206e6f742077686974656c69737465646044820152606490fd5b60405163ec442f0560e01b81525f6004820152602490fd5b604051634b637e8f60e11b81525f6004820152602490fd5b335f9081527fa76130cbffd9b33b64b573944ad05adb12481247304469bee8ac721996fc823460205260409020547f9c81408027135c0110a5451971bdd98dbf60c57e65d8cd78b7e1c47105a3ee359060ff1615610e9a5750565b6044906040519063e2517d3f60e01b82523360048301526024820152fd5b335f9081527f45e747ec8b3ef9fbf0dbc91852a1b6406d924c58bbaa8d947cde92d189a8448560205260409020547f2a3dab589bcc9747970dd85ac3f222668741ae51f2a1bbb8f8355be28dd8a8689060ff1615610e9a5750565b805f52600560205260405f20335f5260205260ff60405f20541615610e9a5750565b90815f52600560205260405f209060018060a01b031690815f5260205260ff60405f205416155f14610fad57815f52600560205260405f20815f5260205260405f20600160ff1982541617905533917f2f8788117e7eff1d82e926ec794901d17c78024a50270940304540a733656f0d5f80a4600190565b50505f90565b90815f52600560205260405f209060018060a01b031690815f5260205260ff60405f2054165f14610fad57815f52600560205260405f20815f5260205260405f2060ff19815416905533917ff6391f5c32d9c69d2a47ea670b442974b53935d1edc7fd64eb21e047a839171b5f80a460019056fea2646970667358221220b3c7d2a3b34f0d1a609963938ced275cfe6c8985ebd9edd21fd6cb2239b9d4b464736f6c634300081900332f8788117e7eff1d82e926ec794901d17c78024a50270940304540a733656f0d05b8ccbb9d4d8fb16ea74ce3c29a41f1b461fbdaff4714a0d9a8eb05499746bc9b779b17422d0df92223018b32b4d1fa46e071723d6817e2486d003becc55f00a2646970667358221220230ba33f831123b9ca0a44aed2bcc1e9c9010ab81df749c6ae8ae37c1aaf866c64736f6c634300081900332f8788117e7eff1d82e926ec794901d17c78024a50270940304540a733656f0db10e2d527612073b26eecdfd717e6a320cf44b4afac2b0732d9fcbe2b7fa0cf6ad3228b676f7d3cd4284a5443f17f1962b36e491b30a40b2405849e597ba5fb5","opcodes":"PUSH1 0xA0 PUSH1 0x40 MSTORE CALLVALUE PUSH2 0x88E JUMPI PUSH2 0x456E DUP1 CODESIZE SUB SWAP1 DUP2 PUSH2 0x1A DUP2 PUSH2 0x892 JUMP JUMPDEST SWAP2 DUP3 CODECOPY PUSH2 0x160 DUP2 DUP4 DUP2 ADD SUB SLT PUSH2 0x88E JUMPI PUSH2 0x33 DUP2 PUSH2 0x8B7 JUMP JUMPDEST PUSH2 0x3F PUSH1 0x20 DUP4 ADD PUSH2 0x8B7 JUMP JUMPDEST PUSH2 0x4B PUSH1 0x40 DUP5 ADD PUSH2 0x8B7 JUMP JUMPDEST SWAP2 PUSH2 0x58 PUSH1 0x60 DUP6 ADD PUSH2 0x8B7 JUMP JUMPDEST PUSH1 0x80 DUP6 ADD MLOAD PUSH1 0x1 PUSH1 0x1 PUSH1 0x40 SHL SUB DUP2 GT PUSH2 0x88E JUMPI PUSH2 0x7A SWAP1 DUP8 DUP8 ADD SWAP1 DUP8 ADD PUSH2 0x8CB JUMP JUMPDEST SWAP4 PUSH1 0xA0 DUP7 ADD MLOAD SWAP3 PUSH1 0xC0 DUP8 ADD MLOAD SWAP2 PUSH1 0xE0 DUP9 ADD MLOAD SWAP4 PUSH2 0x100 DUP10 ADD MLOAD SWAP3 PUSH2 0x120 DUP11 ADD MLOAD SWAP11 PUSH2 0x140 DUP12 ADD MLOAD SWAP11 PUSH1 0x1 DUP1 PUSH1 0x40 SHL SUB DUP13 GT PUSH2 0x88E JUMPI DUP2 DUP2 ADD PUSH1 0x1F DUP14 DUP4 ADD ADD SLT ISZERO PUSH2 0x88E JUMPI DUP1 DUP13 ADD MLOAD SWAP1 PUSH1 0x1 PUSH1 0x1 PUSH1 0x40 SHL SUB DUP3 GT PUSH2 0x46B JUMPI PUSH1 0x20 SWAP13 PUSH2 0xE2 DUP15 DUP5 PUSH1 0x5 SHL ADD PUSH2 0x892 JUMP JUMPDEST SWAP14 DUP15 DUP5 DUP2 MSTORE ADD SWAP1 DUP5 DUP4 ADD PUSH1 0x20 DUP6 PUSH1 0x5 SHL DUP4 DUP7 ADD ADD ADD GT PUSH2 0x88E JUMPI PUSH1 0x20 DUP2 DUP5 ADD ADD SWAP2 JUMPDEST PUSH1 0x20 DUP6 PUSH1 0x5 SHL DUP4 DUP7 ADD ADD ADD DUP4 LT PUSH2 0x857 JUMPI POP POP PUSH1 0x1 PUSH32 0x9B779B17422D0DF92223018B32B4D1FA46E071723D6817E2486D003BECC55F00 SSTORE POP POP POP POP PUSH1 0x1 PUSH1 0x1 PUSH1 0xA0 SHL SUB AND PUSH1 0x80 MSTORE PUSH2 0x189 SWAP2 SWAP1 PUSH2 0x159 DUP2 PUSH2 0x94D JUMP JUMPDEST POP PUSH1 0x16 DUP1 SLOAD PUSH1 0x1 PUSH1 0x1 PUSH1 0xA0 SHL SUB NOT AND PUSH1 0x1 PUSH1 0x1 PUSH1 0xA0 SHL SUB SWAP3 SWAP1 SWAP3 AND SWAP2 SWAP1 SWAP2 OR SWAP1 SSTORE PUSH2 0x183 DUP8 PUSH2 0x9B9 JUMP JUMPDEST POP PUSH2 0xA57 JUMP JUMPDEST POP PUSH2 0x2710 DUP1 DUP6 MUL SWAP1 DUP6 DUP3 DIV EQ DUP6 ISZERO OR ISZERO PUSH2 0x73D JUMPI DUP2 PUSH2 0x1A7 SWAP2 PUSH2 0x92F JUMP JUMPDEST PUSH1 0x40 MLOAD SWAP2 PUSH2 0x120 DUP4 ADD PUSH1 0x1 PUSH1 0x1 PUSH1 0x40 SHL SUB DUP2 GT DUP5 DUP3 LT OR PUSH2 0x46B JUMPI PUSH1 0x40 SWAP1 DUP2 MSTORE DUP9 DUP5 MSTORE PUSH1 0x20 DUP5 ADD DUP8 SWAP1 MSTORE DUP4 ADD DUP5 SWAP1 MSTORE PUSH1 0x60 DUP4 ADD DUP6 SWAP1 MSTORE PUSH1 0x80 DUP4 ADD MSTORE PUSH1 0xA0 DUP3 ADD MSTORE PUSH1 0xC0 DUP2 ADD DUP9 SWAP1 MSTORE TIMESTAMP PUSH1 0xE0 DUP3 ADD MSTORE PUSH1 0x1 PUSH1 0x1 PUSH1 0xA0 SHL SUB DUP6 AND PUSH2 0x100 DUP3 ADD MSTORE DUP6 MLOAD PUSH1 0x1 PUSH1 0x1 PUSH1 0x40 SHL SUB DUP2 GT PUSH2 0x46B JUMPI PUSH1 0x1 SLOAD PUSH1 0x1 DUP2 DUP2 SHR SWAP2 AND DUP1 ISZERO PUSH2 0x84D JUMPI JUMPDEST PUSH1 0x20 DUP3 LT EQ PUSH2 0x44D JUMPI PUSH1 0x1F DUP2 GT PUSH2 0x801 JUMPI JUMPDEST POP DUP1 PUSH1 0x20 PUSH1 0x1F DUP3 GT PUSH1 0x1 EQ PUSH2 0x791 JUMPI PUSH0 SWAP2 PUSH2 0x786 JUMPI JUMPDEST POP DUP2 PUSH1 0x1 SHL SWAP2 PUSH0 NOT SWAP1 PUSH1 0x3 SHL SHR NOT AND OR PUSH1 0x1 SSTORE JUMPDEST PUSH1 0x20 DUP2 ADD MLOAD PUSH1 0x2 SSTORE PUSH1 0x40 DUP2 ADD MLOAD PUSH1 0x3 SSTORE PUSH1 0x60 DUP2 ADD MLOAD PUSH1 0x4 SSTORE PUSH1 0x80 DUP2 ADD MLOAD PUSH1 0x5 SSTORE PUSH1 0xA0 DUP2 ADD MLOAD PUSH1 0x6 SSTORE PUSH1 0xC0 DUP2 ADD MLOAD PUSH1 0x7 SSTORE PUSH1 0xE0 DUP2 ADD MLOAD PUSH1 0x8 SSTORE PUSH2 0x100 ADD MLOAD PUSH1 0x9 DUP1 SLOAD PUSH1 0x1 PUSH1 0x1 PUSH1 0xA0 SHL SUB NOT AND PUSH1 0x1 PUSH1 0x1 PUSH1 0xA0 SHL SUB SWAP3 SWAP1 SWAP3 AND SWAP2 SWAP1 SWAP2 OR SWAP1 SSTORE PUSH1 0x13 DUP4 SWAP1 SSTORE PUSH1 0xA DUP1 SLOAD PUSH1 0xFF NOT AND SWAP1 SSTORE PUSH0 JUMPDEST DUP7 MLOAD DUP2 LT ISZERO PUSH2 0x493 JUMPI PUSH1 0x20 DUP2 PUSH1 0x5 SHL DUP9 ADD ADD MLOAD PUSH1 0x17 SLOAD PUSH9 0x10000000000000000 DUP2 LT ISZERO PUSH2 0x46B JUMPI PUSH1 0x1 DUP2 ADD DUP1 PUSH1 0x17 SSTORE DUP2 LT ISZERO PUSH2 0x47F JUMPI PUSH1 0x17 PUSH0 MSTORE DUP2 MLOAD PUSH32 0xC624B66CC0138B8FABC209247F72D758E1CF3343756D543BADBF24212BED8C15 SWAP2 SWAP1 SWAP2 ADD SWAP2 PUSH1 0x1 PUSH1 0x1 PUSH1 0x40 SHL SUB DUP3 GT PUSH2 0x46B JUMPI DUP3 SLOAD PUSH1 0x1 DUP2 DUP2 SHR SWAP2 AND DUP1 ISZERO PUSH2 0x461 JUMPI JUMPDEST PUSH1 0x20 DUP3 LT EQ PUSH2 0x44D JUMPI PUSH1 0x1F DUP2 GT PUSH2 0x40C JUMPI JUMPDEST POP PUSH1 0x20 SWAP1 PUSH1 0x1F DUP4 GT PUSH1 0x1 EQ PUSH2 0x3A2 JUMPI PUSH1 0x1 SWAP5 SWAP4 SWAP3 SWAP2 PUSH0 SWAP2 DUP4 PUSH2 0x397 JUMPI JUMPDEST POP POP PUSH0 NOT PUSH1 0x3 DUP4 SWAP1 SHL SHR NOT AND SWAP1 DUP5 SHL OR SWAP1 SSTORE JUMPDEST ADD PUSH2 0x2CF JUMP JUMPDEST ADD MLOAD SWAP1 POP PUSH0 DUP1 PUSH2 0x37E JUMP JUMPDEST SWAP1 DUP4 PUSH0 MSTORE PUSH1 0x20 PUSH0 KECCAK256 SWAP2 PUSH0 JUMPDEST PUSH1 0x1F NOT DUP6 AND DUP2 LT PUSH2 0x3F4 JUMPI POP SWAP2 DUP4 SWAP2 PUSH1 0x1 SWAP7 SWAP6 SWAP5 SWAP4 DUP8 SWAP5 PUSH1 0x1F NOT DUP2 AND LT PUSH2 0x3DC JUMPI JUMPDEST POP POP POP DUP2 SHL ADD SWAP1 SSTORE PUSH2 0x391 JUMP JUMPDEST ADD MLOAD PUSH0 NOT PUSH1 0xF8 DUP5 PUSH1 0x3 SHL AND SHR NOT AND SWAP1 SSTORE PUSH0 DUP1 DUP1 PUSH2 0x3CF JUMP JUMPDEST SWAP2 SWAP3 PUSH1 0x20 PUSH1 0x1 DUP2 SWAP3 DUP7 DUP6 ADD MLOAD DUP2 SSTORE ADD SWAP5 ADD SWAP3 ADD PUSH2 0x3AD JUMP JUMPDEST DUP4 PUSH0 MSTORE PUSH1 0x20 PUSH0 KECCAK256 PUSH1 0x1F DUP5 ADD PUSH1 0x5 SHR DUP2 ADD PUSH1 0x20 DUP6 LT PUSH2 0x446 JUMPI JUMPDEST PUSH1 0x1F DUP4 ADD PUSH1 0x5 SHR DUP3 ADD DUP2 LT PUSH2 0x43B JUMPI POP POP PUSH2 0x361 JUMP JUMPDEST PUSH0 DUP2 SSTORE PUSH1 0x1 ADD PUSH2 0x425 JUMP JUMPDEST POP DUP1 PUSH2 0x425 JUMP JUMPDEST PUSH4 0x4E487B71 PUSH1 0xE0 SHL PUSH0 MSTORE PUSH1 0x22 PUSH1 0x4 MSTORE PUSH1 0x24 PUSH0 REVERT JUMPDEST SWAP1 PUSH1 0x7F AND SWAP1 PUSH2 0x34F JUMP JUMPDEST PUSH4 0x4E487B71 PUSH1 0xE0 SHL PUSH0 MSTORE PUSH1 0x41 PUSH1 0x4 MSTORE PUSH1 0x24 PUSH0 REVERT JUMPDEST PUSH4 0x4E487B71 PUSH1 0xE0 SHL PUSH0 MSTORE PUSH1 0x32 PUSH1 0x4 MSTORE PUSH1 0x24 PUSH0 REVERT JUMPDEST POP DUP7 DUP2 PUSH8 0xDE0B6B3A7640000 DUP2 MUL DIV PUSH8 0xDE0B6B3A7640000 EQ DUP3 ISZERO OR ISZERO PUSH2 0x73D JUMPI PUSH2 0x4C2 PUSH3 0x1D4C0 SWAP2 DUP6 PUSH2 0x91C JUMP JUMPDEST DIV PUSH8 0xDE0B6B3A7640000 PUSH0 JUMPDEST DUP5 DUP2 LT PUSH2 0x757 JUMPI POP PUSH2 0x4F8 DUP2 PUSH2 0x4F3 PUSH3 0x1D4C0 PUSH8 0xDE0B6B3A7640000 DUP8 MUL DIV DUP9 PUSH2 0x91C JUMP JUMPDEST PUSH2 0x91C JUMP JUMPDEST DUP2 PUSH8 0xDE0B6B3A763FFFF NOT DUP2 ADD GT PUSH2 0x73D JUMPI PUSH8 0xDE0B6B3A763FFFF NOT DUP3 ADD PUSH8 0xDE0B6B3A7640000 DUP1 DUP3 MUL DUP3 SWAP1 DIV EQ SWAP1 ISZERO OR ISZERO PUSH2 0x73D JUMPI PUSH2 0x54D SWAP2 PUSH8 0xDE0B6B3A763FFFF NOT ADD PUSH8 0xDE0B6B3A7640000 MUL SWAP1 PUSH2 0x92F JUMP JUMPDEST SWAP3 PUSH0 SWAP2 DUP6 JUMPDEST DUP3 DUP5 LT PUSH2 0x5E6 JUMPI DUP9 PUSH1 0x20 PUSH32 0x5DA1DBDE7460AD4D3A3664515E0DC115A979B47CAF50DB2CAC8BFC97EFD93774 DUP11 DUP11 PUSH1 0x40 MLOAD SWAP5 PUSH1 0x40 DUP7 MSTORE DUP1 MLOAD SWAP5 DUP6 SWAP2 DUP3 PUSH1 0x40 DUP10 ADD MSTORE ADD PUSH1 0x60 DUP8 ADD MCOPY PUSH0 PUSH1 0x60 DUP6 DUP8 ADD ADD MSTORE PUSH1 0x20 DUP6 ADD MSTORE PUSH1 0x1 DUP1 PUSH1 0xA0 SHL SUB AND SWAP3 PUSH1 0x60 DUP2 ADDRESS SWAP5 PUSH1 0x1F DUP1 NOT SWAP2 ADD AND DUP2 ADD SUB ADD SWAP1 LOG3 PUSH1 0x40 MLOAD PUSH2 0x3A04 SWAP1 DUP2 PUSH2 0xB0A DUP3 CODECOPY PUSH1 0x80 MLOAD DUP2 DUP2 DUP2 PUSH2 0x85E ADD MSTORE DUP2 DUP2 PUSH2 0x1265 ADD MSTORE PUSH2 0x1795 ADD MSTORE RETURN JUMPDEST PUSH8 0xDE0B6B3A7640000 PUSH2 0x600 PUSH3 0x1D4C0 DUP3 DUP9 MUL DIV DUP4 PUSH2 0x91C JUMP JUMPDEST DIV SWAP1 DUP2 DUP8 GT ISZERO PUSH2 0x751 JUMPI PUSH2 0x614 DUP3 DUP9 PUSH2 0xAFC JUMP JUMPDEST SWAP2 DUP5 PUSH0 NOT DUP2 ADD GT PUSH2 0x73D JUMPI PUSH0 NOT DUP6 ADD DUP7 EQ PUSH2 0x728 JUMPI JUMPDEST PUSH2 0x63D DUP5 PUSH2 0x638 DUP4 DUP7 PUSH2 0xAEF JUMP JUMPDEST PUSH2 0xAEF JUMP JUMPDEST PUSH1 0x40 MLOAD SWAP2 PUSH1 0x1 PUSH1 0x1 PUSH1 0x40 SHL SUB PUSH1 0xE0 DUP5 ADD SWAP1 DUP2 GT SWAP1 DUP5 GT OR PUSH2 0x46B JUMPI PUSH1 0xE0 DUP4 ADD PUSH1 0x40 MSTORE PUSH0 DUP4 MSTORE DUP5 PUSH1 0x20 DUP5 ADD MSTORE PUSH1 0x40 DUP4 ADD MSTORE DUP5 PUSH1 0x60 DUP4 ADD MSTORE PUSH1 0x80 DUP3 ADD MSTORE DUP3 PUSH1 0xA0 DUP3 ADD MSTORE PUSH0 PUSH1 0xC0 DUP3 ADD MSTORE PUSH1 0xB SLOAD PUSH9 0x10000000000000000 DUP2 LT ISZERO PUSH2 0x46B JUMPI PUSH1 0x1 DUP2 ADD DUP1 PUSH1 0xB SSTORE DUP2 LT ISZERO PUSH2 0x47F JUMPI PUSH1 0x6 PUSH1 0xC0 SWAP2 PUSH1 0xB PUSH0 MSTORE PUSH1 0x7 PUSH1 0x20 PUSH0 KECCAK256 SWAP2 MUL ADD DUP4 MLOAD DUP2 SSTORE PUSH1 0x20 DUP5 ADD MLOAD PUSH1 0x1 DUP3 ADD SSTORE PUSH1 0x40 DUP5 ADD MLOAD PUSH1 0x2 DUP3 ADD SSTORE PUSH1 0x60 DUP5 ADD MLOAD PUSH1 0x3 DUP3 ADD SSTORE PUSH1 0x80 DUP5 ADD MLOAD PUSH1 0x4 DUP3 ADD SSTORE PUSH1 0xA0 DUP5 ADD MLOAD PUSH1 0x5 DUP3 ADD SSTORE ADD SWAP2 ADD MLOAD ISZERO ISZERO PUSH1 0xFF DUP1 NOT DUP4 SLOAD AND SWAP2 AND OR SWAP1 SSTORE DUP2 DUP2 GT PUSH0 EQ PUSH2 0x71E JUMPI PUSH1 0x1 SWAP2 PUSH2 0x716 SWAP2 PUSH2 0xAFC JUMP JUMPDEST SWAP4 ADD SWAP3 PUSH2 0x552 JUMP JUMPDEST POP POP PUSH1 0x1 PUSH0 PUSH2 0x716 JUMP JUMPDEST SWAP7 POP SWAP1 POP DUP1 PUSH2 0x737 DUP8 DUP3 PUSH2 0xAEF JUMP JUMPDEST SWAP7 PUSH2 0x62A JUMP JUMPDEST PUSH4 0x4E487B71 PUSH1 0xE0 SHL PUSH0 MSTORE PUSH1 0x11 PUSH1 0x4 MSTORE PUSH1 0x24 PUSH0 REVERT JUMPDEST PUSH0 PUSH2 0x614 JUMP JUMPDEST SWAP1 PUSH2 0x77F PUSH1 0x1 SWAP2 PUSH8 0xDE0B6B3A7640000 PUSH2 0x778 PUSH3 0x1D4C0 DUP3 DUP10 MUL DIV DUP4 PUSH2 0x91C JUMP JUMPDEST DIV SWAP1 PUSH2 0xAEF JUMP JUMPDEST SWAP2 ADD PUSH2 0x4CE JUMP JUMPDEST SWAP1 POP DUP8 ADD MLOAD PUSH0 PUSH2 0x24D JUMP JUMPDEST PUSH1 0x1 PUSH0 SWAP1 DUP2 MSTORE SWAP3 POP PUSH0 DUP1 MLOAD PUSH1 0x20 PUSH2 0x452E DUP4 CODECOPY DUP2 MLOAD SWAP2 MSTORE SWAP1 JUMPDEST PUSH1 0x1F NOT DUP4 AND DUP5 LT PUSH2 0x7E9 JUMPI PUSH1 0x1 SWAP4 POP DUP3 PUSH1 0x1F NOT DUP2 AND LT PUSH2 0x7D1 JUMPI JUMPDEST POP POP DUP2 SHL ADD PUSH1 0x1 SSTORE PUSH2 0x261 JUMP JUMPDEST DUP10 ADD MLOAD PUSH0 NOT PUSH1 0xF8 DUP5 PUSH1 0x3 SHL AND SHR NOT AND SWAP1 SSTORE PUSH0 DUP1 PUSH2 0x7C4 JUMP JUMPDEST DUP10 DUP2 ADD MLOAD DUP3 SSTORE PUSH1 0x20 SWAP4 DUP5 ADD SWAP4 PUSH1 0x1 SWAP1 SWAP3 ADD SWAP2 ADD PUSH2 0x7A9 JUMP JUMPDEST PUSH1 0x1 PUSH0 MSTORE PUSH0 DUP1 MLOAD PUSH1 0x20 PUSH2 0x452E DUP4 CODECOPY DUP2 MLOAD SWAP2 MSTORE PUSH1 0x1F DUP4 ADD PUSH1 0x5 SHR DUP2 ADD PUSH1 0x20 DUP5 LT PUSH2 0x846 JUMPI JUMPDEST PUSH1 0x1F DUP4 ADD PUSH1 0x5 SHR DUP3 ADD DUP2 LT PUSH2 0x83B JUMPI POP POP PUSH2 0x237 JUMP JUMPDEST PUSH0 DUP2 SSTORE PUSH1 0x1 ADD PUSH2 0x825 JUMP JUMPDEST POP DUP1 PUSH2 0x825 JUMP JUMPDEST SWAP1 PUSH1 0x7F AND SWAP1 PUSH2 0x225 JUMP JUMPDEST DUP3 MLOAD SWAP1 PUSH1 0x1 PUSH1 0x1 PUSH1 0x40 SHL SUB DUP3 GT PUSH2 0x88E JUMPI PUSH1 0x20 DUP1 SWAP3 SWAP2 PUSH2 0x881 DUP3 SWAP4 DUP4 DUP12 DUP11 ADD SWAP2 DUP9 DUP12 ADD ADD ADD PUSH2 0x8CB JUMP JUMPDEST DUP2 MSTORE ADD SWAP4 ADD SWAP3 SWAP1 POP PUSH2 0x104 JUMP JUMPDEST PUSH0 DUP1 REVERT JUMPDEST PUSH1 0x40 MLOAD SWAP2 SWAP1 PUSH1 0x1F ADD PUSH1 0x1F NOT AND DUP3 ADD PUSH1 0x1 PUSH1 0x1 PUSH1 0x40 SHL SUB DUP2 GT DUP4 DUP3 LT OR PUSH2 0x46B JUMPI PUSH1 0x40 MSTORE JUMP JUMPDEST MLOAD SWAP1 PUSH1 0x1 PUSH1 0x1 PUSH1 0xA0 SHL SUB DUP3 AND DUP3 SUB PUSH2 0x88E JUMPI JUMP JUMPDEST DUP2 PUSH1 0x1F DUP3 ADD SLT ISZERO PUSH2 0x88E JUMPI DUP1 MLOAD SWAP1 PUSH1 0x1 PUSH1 0x1 PUSH1 0x40 SHL SUB DUP3 GT PUSH2 0x46B JUMPI PUSH2 0x8FA PUSH1 0x1F DUP4 ADD PUSH1 0x1F NOT AND PUSH1 0x20 ADD PUSH2 0x892 JUMP JUMPDEST SWAP3 DUP3 DUP5 MSTORE PUSH1 0x20 DUP4 DUP4 ADD ADD GT PUSH2 0x88E JUMPI DUP2 PUSH0 SWAP3 PUSH1 0x20 DUP1 SWAP4 ADD DUP4 DUP7 ADD MCOPY DUP4 ADD ADD MSTORE SWAP1 JUMP JUMPDEST DUP2 DUP2 MUL SWAP3 SWAP2 DUP2 ISZERO SWAP2 DUP5 DIV EQ OR ISZERO PUSH2 0x73D JUMPI JUMP JUMPDEST DUP2 ISZERO PUSH2 0x939 JUMPI DIV SWAP1 JUMP JUMPDEST PUSH4 0x4E487B71 PUSH1 0xE0 SHL PUSH0 MSTORE PUSH1 0x12 PUSH1 0x4 MSTORE PUSH1 0x24 PUSH0 REVERT JUMPDEST PUSH1 0x1 PUSH1 0x1 PUSH1 0xA0 SHL SUB AND PUSH0 DUP2 DUP2 MSTORE PUSH0 DUP1 MLOAD PUSH1 0x20 PUSH2 0x454E DUP4 CODECOPY DUP2 MLOAD SWAP2 MSTORE PUSH1 0x20 MSTORE PUSH1 0x40 SWAP1 KECCAK256 SLOAD PUSH1 0xFF AND PUSH2 0x9B4 JUMPI PUSH0 DUP2 DUP2 MSTORE PUSH0 DUP1 MLOAD PUSH1 0x20 PUSH2 0x454E DUP4 CODECOPY DUP2 MLOAD SWAP2 MSTORE PUSH1 0x20 MSTORE PUSH1 0x40 DUP2 KECCAK256 DUP1 SLOAD PUSH1 0xFF NOT AND PUSH1 0x1 OR SWAP1 SSTORE CALLER SWAP2 SWAP1 PUSH0 DUP1 MLOAD PUSH1 0x20 PUSH2 0x450E DUP4 CODECOPY DUP2 MLOAD SWAP2 MSTORE DUP2 DUP1 LOG4 PUSH1 0x1 SWAP1 JUMP JUMPDEST POP PUSH0 SWAP1 JUMP JUMPDEST PUSH1 0x1 PUSH1 0x1 PUSH1 0xA0 SHL SUB AND PUSH0 DUP2 DUP2 MSTORE PUSH32 0x8B1B9C9043E80973230885F47D3C5FD9CB7DA44CD5750066C17FE13B7626CF69 PUSH1 0x20 MSTORE PUSH1 0x40 SWAP1 KECCAK256 SLOAD PUSH32 0x591FA5458FE051CC8C02C405479BD38E00713C98DBD3DB209D982048F1E638FA SWAP2 SWAP1 PUSH1 0xFF AND PUSH2 0xA51 JUMPI DUP2 PUSH0 MSTORE PUSH0 PUSH1 0x20 MSTORE PUSH1 0x40 PUSH0 KECCAK256 DUP2 PUSH0 MSTORE PUSH1 0x20 MSTORE PUSH1 0x40 PUSH0 KECCAK256 PUSH1 0x1 PUSH1 0xFF NOT DUP3 SLOAD AND OR SWAP1 SSTORE CALLER SWAP2 PUSH0 DUP1 MLOAD PUSH1 0x20 PUSH2 0x450E DUP4 CODECOPY DUP2 MLOAD SWAP2 MSTORE PUSH0 DUP1 LOG4 PUSH1 0x1 SWAP1 JUMP JUMPDEST POP POP PUSH0 SWAP1 JUMP JUMPDEST PUSH1 0x1 PUSH1 0x1 PUSH1 0xA0 SHL SUB AND PUSH0 DUP2 DUP2 MSTORE PUSH32 0xA076B6C7090E38BFC39B1B347E64CB6D96EE4AB3EFA77A15F23085DE7667B49C PUSH1 0x20 MSTORE PUSH1 0x40 SWAP1 KECCAK256 SLOAD PUSH32 0x43A0A3E63C2A39D49CDEA8D043E7B4A2564BA537638445FEFEE61934C836E3BC SWAP2 SWAP1 PUSH1 0xFF AND PUSH2 0xA51 JUMPI DUP2 PUSH0 MSTORE PUSH0 PUSH1 0x20 MSTORE PUSH1 0x40 PUSH0 KECCAK256 DUP2 PUSH0 MSTORE PUSH1 0x20 MSTORE PUSH1 0x40 PUSH0 KECCAK256 PUSH1 0x1 PUSH1 0xFF NOT DUP3 SLOAD AND OR SWAP1 SSTORE CALLER SWAP2 PUSH0 DUP1 MLOAD PUSH1 0x20 PUSH2 0x450E DUP4 CODECOPY DUP2 MLOAD SWAP2 MSTORE PUSH0 DUP1 LOG4 PUSH1 0x1 SWAP1 JUMP JUMPDEST SWAP2 SWAP1 DUP3 ADD DUP1 SWAP3 GT PUSH2 0x73D JUMPI JUMP JUMPDEST SWAP2 SWAP1 DUP3 SUB SWAP2 DUP3 GT PUSH2 0x73D JUMPI JUMP INVALID PUSH1 0x80 DUP1 PUSH1 0x40 MSTORE PUSH1 0x4 CALLDATASIZE LT ISZERO PUSH2 0x12 JUMPI PUSH0 DUP1 REVERT JUMPDEST PUSH0 SWAP1 PUSH0 CALLDATALOAD PUSH1 0xE0 SHR SWAP1 DUP2 PUSH4 0x1FFC9A7 EQ PUSH2 0x1AC8 JUMPI POP DUP1 PUSH4 0x6040618 EQ PUSH2 0x1AAB JUMPI DUP1 PUSH4 0xEB71432 EQ PUSH2 0x1A71 JUMPI DUP1 PUSH4 0x13E91648 EQ PUSH2 0x1A49 JUMPI DUP1 PUSH4 0x200D2ED2 EQ PUSH2 0x1A20 JUMPI DUP1 PUSH4 0x248A9CA3 EQ PUSH2 0x19F4 JUMPI DUP1 PUSH4 0x2669E4DD EQ PUSH2 0x19CC JUMPI DUP1 PUSH4 0x26FADBE2 EQ PUSH2 0x1866 JUMPI DUP1 PUSH4 0x29B1829E EQ PUSH2 0x1849 JUMPI DUP1 PUSH4 0x2F2FF15D EQ PUSH2 0x180D JUMPI DUP1 PUSH4 0x36568ABE EQ PUSH2 0x17C4 JUMPI DUP1 PUSH4 0x3E413BEE EQ PUSH2 0x1780 JUMPI DUP1 PUSH4 0x402D8883 EQ PUSH2 0x1178 JUMPI DUP1 PUSH4 0x462428B6 EQ PUSH2 0x115D JUMPI DUP1 PUSH4 0x565ECAC7 EQ PUSH2 0x113F JUMPI DUP1 PUSH4 0x597BE6D1 EQ PUSH2 0x1121 JUMPI DUP1 PUSH4 0x5E7C6EEF EQ PUSH2 0xB7D JUMPI DUP1 PUSH4 0x63F9407C EQ PUSH2 0xB5A JUMPI DUP1 PUSH4 0x6E8C2396 EQ PUSH2 0x741 JUMPI DUP1 PUSH4 0x6FBFD409 EQ PUSH2 0x6C6 JUMPI DUP1 PUSH4 0x76082A5E EQ PUSH2 0x68B JUMPI DUP1 PUSH4 0x777D80CC EQ PUSH2 0x59D JUMPI DUP1 PUSH4 0x8E7675EF EQ PUSH2 0x562 JUMPI DUP1 PUSH4 0x9010D07C EQ PUSH2 0x52E JUMPI DUP1 PUSH4 0x91D14854 EQ PUSH2 0x4E5 JUMPI DUP1 PUSH4 0xA217FDDF EQ PUSH2 0x4C9 JUMPI DUP1 PUSH4 0xAC27DAA7 EQ PUSH2 0x4AB JUMPI DUP1 PUSH4 0xB813FB08 EQ PUSH2 0x438 JUMPI DUP1 PUSH4 0xC430BCDA EQ PUSH2 0x30B JUMPI DUP1 PUSH4 0xC7F01CAC EQ PUSH2 0x2E2 JUMPI DUP1 PUSH4 0xCFF0AB96 EQ PUSH2 0x252 JUMPI DUP1 PUSH4 0xD547741F EQ PUSH2 0x211 JUMPI DUP1 PUSH4 0xEAA8C2E7 EQ PUSH2 0x1E8 JUMPI DUP1 PUSH4 0xF60559B8 EQ PUSH2 0x1CA JUMPI PUSH4 0xF851A440 EQ PUSH2 0x19F JUMPI PUSH0 DUP1 REVERT JUMPDEST CALLVALUE PUSH2 0x1C7 JUMPI DUP1 PUSH1 0x3 NOT CALLDATASIZE ADD SLT PUSH2 0x1C7 JUMPI PUSH1 0x16 SLOAD PUSH1 0x40 MLOAD PUSH1 0x1 PUSH1 0x1 PUSH1 0xA0 SHL SUB SWAP1 SWAP2 AND DUP2 MSTORE PUSH1 0x20 SWAP1 RETURN JUMPDEST DUP1 REVERT JUMPDEST POP CALLVALUE PUSH2 0x1C7 JUMPI DUP1 PUSH1 0x3 NOT CALLDATASIZE ADD SLT PUSH2 0x1C7 JUMPI PUSH1 0x20 PUSH1 0x11 SLOAD PUSH1 0x40 MLOAD SWAP1 DUP2 MSTORE RETURN JUMPDEST POP CALLVALUE PUSH2 0x1C7 JUMPI DUP1 PUSH1 0x3 NOT CALLDATASIZE ADD SLT PUSH2 0x1C7 JUMPI PUSH1 0xE SLOAD PUSH1 0x40 MLOAD PUSH1 0x1 PUSH1 0x1 PUSH1 0xA0 SHL SUB SWAP1 SWAP2 AND DUP2 MSTORE PUSH1 0x20 SWAP1 RETURN JUMPDEST POP CALLVALUE PUSH2 0x1C7 JUMPI PUSH1 0x40 CALLDATASIZE PUSH1 0x3 NOT ADD SLT PUSH2 0x1C7 JUMPI PUSH2 0x24E PUSH1 0x4 CALLDATALOAD PUSH2 0x231 PUSH2 0x1B1B JUMP JUMPDEST SWAP1 DUP1 DUP5 MSTORE DUP4 PUSH1 0x20 MSTORE PUSH2 0x249 PUSH1 0x1 PUSH1 0x40 DUP7 KECCAK256 ADD SLOAD PUSH2 0x1F75 JUMP JUMPDEST PUSH2 0x20B7 JUMP JUMPDEST POP DUP1 RETURN JUMPDEST POP CALLVALUE PUSH2 0x1C7 JUMPI DUP1 PUSH1 0x3 NOT CALLDATASIZE ADD SLT PUSH2 0x1C7 JUMPI PUSH2 0x2B4 PUSH1 0x40 MLOAD PUSH2 0x27D DUP2 PUSH2 0x276 DUP2 PUSH2 0x1BF0 JUMP JUMPDEST SUB DUP3 PUSH2 0x1D47 JUMP JUMPDEST PUSH1 0x2 SLOAD PUSH1 0x3 SLOAD PUSH1 0x4 SLOAD PUSH1 0x5 SLOAD PUSH1 0x6 SLOAD PUSH1 0x7 SLOAD SWAP2 PUSH1 0x8 SLOAD SWAP4 PUSH1 0x1 DUP1 PUSH1 0xA0 SHL SUB PUSH1 0x9 SLOAD AND SWAP6 PUSH1 0x40 MLOAD SWAP10 DUP11 SWAP10 PUSH2 0x120 DUP1 DUP13 MSTORE DUP12 ADD SWAP1 PUSH2 0x1B94 JUMP JUMPDEST SWAP8 PUSH1 0x20 DUP11 ADD MSTORE PUSH1 0x40 DUP10 ADD MSTORE PUSH1 0x60 DUP9 ADD MSTORE PUSH1 0x80 DUP8 ADD MSTORE PUSH1 0xA0 DUP7 ADD MSTORE PUSH1 0xC0 DUP6 ADD MSTORE PUSH1 0xE0 DUP5 ADD MSTORE PUSH2 0x100 DUP4 ADD MSTORE SUB SWAP1 RETURN JUMPDEST POP CALLVALUE PUSH2 0x1C7 JUMPI DUP1 PUSH1 0x3 NOT CALLDATASIZE ADD SLT PUSH2 0x1C7 JUMPI PUSH1 0xD SLOAD PUSH1 0x40 MLOAD PUSH1 0x1 PUSH1 0x1 PUSH1 0xA0 SHL SUB SWAP1 SWAP2 AND DUP2 MSTORE PUSH1 0x20 SWAP1 RETURN JUMPDEST POP CALLVALUE PUSH2 0x1C7 JUMPI PUSH1 0x20 CALLDATASIZE PUSH1 0x3 NOT ADD SLT PUSH2 0x1C7 JUMPI PUSH2 0x325 PUSH2 0x1B31 JUMP JUMPDEST CALLER PUSH0 SWAP1 DUP2 MSTORE PUSH32 0xAD3228B676F7D3CD4284A5443F17F1962B36E491B30A40B2405849E597BA5FB5 PUSH1 0x20 MSTORE PUSH1 0x40 SWAP1 KECCAK256 SLOAD PUSH1 0xFF AND ISZERO PUSH2 0x41A JUMPI PUSH1 0xC SLOAD PUSH1 0x1 PUSH1 0x1 PUSH1 0xA0 SHL SUB SWAP1 DUP2 AND DUP1 ISZERO PUSH2 0x3D5 JUMPI DUP4 SWAP2 DUP2 EXTCODESIZE ISZERO PUSH2 0x3D1 JUMPI DUP3 SWAP2 PUSH1 0x24 DUP4 SWAP3 PUSH1 0x40 MLOAD SWAP5 DUP6 SWAP4 DUP5 SWAP3 PUSH4 0xE43252D7 PUSH1 0xE0 SHL DUP5 MSTORE DUP10 AND PUSH1 0x4 DUP5 ADD MSTORE GAS CALL DUP1 ISZERO PUSH2 0x3C6 JUMPI PUSH2 0x3AE JUMPI JUMPDEST POP PUSH2 0x24E DUP3 PUSH2 0x1F96 JUMP JUMPDEST PUSH2 0x3B7 SWAP1 PUSH2 0x1D33 JUMP JUMPDEST PUSH2 0x3C2 JUMPI DUP2 PUSH0 PUSH2 0x3A4 JUMP JUMPDEST POP DUP1 REVERT JUMPDEST PUSH1 0x40 MLOAD RETURNDATASIZE DUP5 DUP3 RETURNDATACOPY RETURNDATASIZE SWAP1 REVERT JUMPDEST DUP3 DUP1 REVERT JUMPDEST PUSH1 0x40 MLOAD PUSH3 0x461BCD PUSH1 0xE5 SHL DUP2 MSTORE PUSH1 0x20 PUSH1 0x4 DUP3 ADD MSTORE PUSH1 0x1B PUSH1 0x24 DUP3 ADD MSTORE PUSH32 0x506F6F6C436F6E74726163743A206E6F74206163746976617465640000000000 PUSH1 0x44 DUP3 ADD MSTORE PUSH1 0x64 SWAP1 REVERT JUMPDEST PUSH1 0x40 MLOAD PUSH4 0xE2517D3F PUSH1 0xE0 SHL DUP2 MSTORE CALLER PUSH1 0x4 DUP3 ADD MSTORE PUSH0 PUSH1 0x24 DUP3 ADD MSTORE PUSH1 0x44 SWAP1 REVERT JUMPDEST POP CALLVALUE PUSH2 0x1C7 JUMPI PUSH1 0x20 CALLDATASIZE PUSH1 0x3 NOT ADD SLT PUSH2 0x1C7 JUMPI PUSH1 0x4 CALLDATALOAD PUSH1 0x17 SLOAD DUP2 LT ISZERO PUSH2 0x3C2 JUMPI PUSH2 0x493 PUSH2 0x276 SWAP2 PUSH1 0x17 PUSH2 0x4A7 SWAP5 MSTORE PUSH1 0x40 MLOAD SWAP3 DUP4 DUP1 SWAP3 PUSH32 0xC624B66CC0138B8FABC209247F72D758E1CF3343756D543BADBF24212BED8C15 ADD PUSH2 0x1CA2 JUMP JUMPDEST PUSH1 0x40 MLOAD SWAP2 DUP3 SWAP2 PUSH1 0x20 DUP4 MSTORE PUSH1 0x20 DUP4 ADD SWAP1 PUSH2 0x1B94 JUMP JUMPDEST SUB SWAP1 RETURN JUMPDEST POP CALLVALUE PUSH2 0x1C7 JUMPI DUP1 PUSH1 0x3 NOT CALLDATASIZE ADD SLT PUSH2 0x1C7 JUMPI PUSH1 0x20 PUSH1 0x10 SLOAD PUSH1 0x40 MLOAD SWAP1 DUP2 MSTORE RETURN JUMPDEST POP CALLVALUE PUSH2 0x1C7 JUMPI DUP1 PUSH1 0x3 NOT CALLDATASIZE ADD SLT PUSH2 0x1C7 JUMPI PUSH1 0x20 SWAP1 PUSH1 0x40 MLOAD SWAP1 DUP2 MSTORE RETURN JUMPDEST POP CALLVALUE PUSH2 0x1C7 JUMPI PUSH1 0x40 CALLDATASIZE PUSH1 0x3 NOT ADD SLT PUSH2 0x1C7 JUMPI PUSH1 0x40 PUSH2 0x501 PUSH2 0x1B1B JUMP JUMPDEST SWAP2 PUSH1 0x4 CALLDATALOAD DUP2 MSTORE DUP1 PUSH1 0x20 MSTORE KECCAK256 SWAP1 PUSH1 0x1 DUP1 PUSH1 0xA0 SHL SUB AND PUSH0 MSTORE PUSH1 0x20 MSTORE PUSH1 0x20 PUSH1 0xFF PUSH1 0x40 PUSH0 KECCAK256 SLOAD AND PUSH1 0x40 MLOAD SWAP1 ISZERO ISZERO DUP2 MSTORE RETURN JUMPDEST POP CALLVALUE PUSH2 0x1C7 JUMPI PUSH1 0x40 CALLDATASIZE PUSH1 0x3 NOT ADD SLT PUSH2 0x1C7 JUMPI PUSH1 0x20 PUSH2 0x550 PUSH1 0x24 CALLDATALOAD PUSH1 0x4 CALLDATALOAD PUSH2 0x1EFB JUMP JUMPDEST PUSH1 0x40 MLOAD PUSH1 0x1 PUSH1 0x1 PUSH1 0xA0 SHL SUB SWAP1 SWAP2 AND DUP2 MSTORE RETURN JUMPDEST POP CALLVALUE PUSH2 0x1C7 JUMPI DUP1 PUSH1 0x3 NOT CALLDATASIZE ADD SLT PUSH2 0x1C7 JUMPI PUSH1 0x20 PUSH1 0x40 MLOAD PUSH32 0x43A0A3E63C2A39D49CDEA8D043E7B4A2564BA537638445FEFEE61934C836E3BC DUP2 MSTORE RETURN JUMPDEST POP CALLVALUE PUSH2 0x1C7 JUMPI DUP1 PUSH1 0x3 NOT CALLDATASIZE ADD SLT PUSH2 0x1C7 JUMPI PUSH1 0x17 SLOAD PUSH2 0x5BA DUP2 PUSH2 0x1D69 JUMP JUMPDEST SWAP1 PUSH2 0x5C8 PUSH1 0x40 MLOAD SWAP3 DUP4 PUSH2 0x1D47 JUMP JUMPDEST DUP1 DUP3 MSTORE PUSH1 0x17 DUP4 MSTORE PUSH1 0x20 SWAP3 DUP4 DUP4 ADD SWAP2 DUP2 PUSH32 0xC624B66CC0138B8FABC209247F72D758E1CF3343756D543BADBF24212BED8C15 DUP5 JUMPDEST DUP4 DUP4 LT PUSH2 0x65F JUMPI POP POP POP POP PUSH1 0x40 MLOAD SWAP3 DUP5 DUP5 ADD SWAP1 DUP6 DUP6 MSTORE MLOAD DUP1 SWAP2 MSTORE PUSH1 0x40 DUP5 ADD SWAP5 PUSH1 0x40 DUP3 PUSH1 0x5 SHL DUP7 ADD ADD SWAP4 SWAP3 SWAP6 JUMPDEST DUP3 DUP8 LT PUSH2 0x633 JUMPI DUP6 DUP6 SUB DUP7 RETURN JUMPDEST SWAP1 SWAP2 SWAP3 SWAP4 DUP3 DUP1 PUSH2 0x64F PUSH1 0x1 SWAP4 PUSH1 0x3F NOT DUP11 DUP3 SUB ADD DUP7 MSTORE DUP9 MLOAD PUSH2 0x1B94 JUMP JUMPDEST SWAP7 ADD SWAP3 ADD SWAP7 ADD SWAP6 SWAP3 SWAP2 SWAP1 SWAP3 PUSH2 0x626 JUMP JUMPDEST PUSH1 0x1 DUP9 DUP2 SWAP3 PUSH1 0x40 SWAP11 SWAP10 SWAP8 SWAP11 MLOAD PUSH2 0x679 DUP2 PUSH2 0x276 DUP2 DUP10 PUSH2 0x1CA2 JUMP JUMPDEST DUP2 MSTORE ADD SWAP3 ADD SWAP3 ADD SWAP2 SWAP1 SWAP7 SWAP4 SWAP6 SWAP7 PUSH2 0x5FA JUMP JUMPDEST POP CALLVALUE PUSH2 0x1C7 JUMPI DUP1 PUSH1 0x3 NOT CALLDATASIZE ADD SLT PUSH2 0x1C7 JUMPI PUSH1 0x20 PUSH1 0x40 MLOAD PUSH32 0xB165298935924F540E4181C03493A5D686C54A0AAEB3F6216DE85B7FFBBA7738 DUP2 MSTORE RETURN JUMPDEST POP CALLVALUE PUSH2 0x1C7 JUMPI PUSH1 0x20 CALLDATASIZE PUSH1 0x3 NOT ADD SLT PUSH2 0x1C7 JUMPI PUSH1 0x4 CALLDATALOAD SWAP1 PUSH1 0xB SLOAD DUP3 LT ISZERO PUSH2 0x1C7 JUMPI PUSH1 0xE0 PUSH2 0x6F1 DUP4 PUSH2 0x1B47 JUMP JUMPDEST POP DUP1 SLOAD SWAP1 PUSH1 0x1 DUP2 ADD SLOAD SWAP1 PUSH1 0x2 DUP2 ADD SLOAD PUSH1 0x3 DUP3 ADD SLOAD PUSH1 0x4 DUP4 ADD SLOAD SWAP2 PUSH1 0xFF PUSH1 0x6 PUSH1 0x5 DUP7 ADD SLOAD SWAP6 ADD SLOAD AND SWAP5 PUSH1 0x40 MLOAD SWAP7 DUP8 MSTORE PUSH1 0x20 DUP8 ADD MSTORE PUSH1 0x40 DUP7 ADD MSTORE PUSH1 0x60 DUP6 ADD MSTORE PUSH1 0x80 DUP5 ADD MSTORE PUSH1 0xA0 DUP4 ADD MSTORE ISZERO ISZERO PUSH1 0xC0 DUP3 ADD MSTORE RETURN JUMPDEST POP CALLVALUE PUSH2 0x1C7 JUMPI PUSH1 0x20 DUP1 PUSH1 0x3 NOT CALLDATASIZE ADD SLT PUSH2 0x3C2 JUMPI PUSH1 0x4 CALLDATALOAD PUSH2 0x75F PUSH2 0x2129 JUMP JUMPDEST PUSH1 0xFF PUSH1 0xA SLOAD AND PUSH1 0x4 DUP2 LT ISZERO PUSH2 0xB46 JUMPI PUSH1 0x1 PUSH2 0x77A SWAP2 EQ PUSH2 0x1D81 JUMP JUMPDEST DUP1 ISZERO PUSH2 0xB01 JUMPI PUSH1 0xC SLOAD PUSH1 0x9 SLOAD PUSH1 0x40 MLOAD PUSH4 0x70A08231 PUSH1 0xE0 SHL DUP2 MSTORE PUSH1 0x1 PUSH1 0x1 PUSH1 0xA0 SHL SUB SWAP2 DUP3 AND PUSH1 0x4 DUP3 ADD MSTORE PUSH1 0x24 SWAP3 DUP3 AND SWAP1 DUP6 DUP2 DUP6 DUP2 DUP6 GAS STATICCALL SWAP1 DUP2 ISZERO PUSH2 0x9ED JUMPI DUP8 SWAP2 PUSH2 0xAD0 JUMPI JUMPDEST POP DUP5 GT PUSH2 0xA7B JUMPI PUSH1 0x40 MLOAD PUSH4 0x6C9B2A3F PUSH1 0xE1 SHL DUP2 MSTORE CALLER PUSH1 0x4 DUP3 ADD MSTORE DUP7 SWAP2 SWAP1 DUP7 DUP2 DUP7 DUP2 DUP6 GAS STATICCALL SWAP1 DUP2 ISZERO PUSH2 0xA70 JUMPI DUP4 SWAP2 PUSH2 0xA53 JUMPI JUMPDEST POP ISZERO PUSH2 0xA10 JUMPI JUMPDEST POP DUP2 PUSH1 0xF SLOAD AND DUP1 EXTCODESIZE ISZERO PUSH2 0x3C2 JUMPI DUP2 DUP1 SWAP2 PUSH1 0x44 PUSH1 0x40 MLOAD DUP1 SWAP5 DUP2 SWAP4 PUSH4 0xBFFDD9F1 PUSH1 0xE0 SHL DUP4 MSTORE CALLER PUSH1 0x4 DUP5 ADD MSTORE DUP2 DUP11 DUP5 ADD MSTORE GAS CALL DUP1 ISZERO PUSH2 0x3C6 JUMPI PUSH2 0x9F8 JUMPI JUMPDEST POP POP PUSH1 0x40 MLOAD PUSH4 0x23B872DD PUSH1 0xE0 SHL DUP1 DUP3 MSTORE CALLER PUSH1 0x4 DUP4 ADD MSTORE ADDRESS PUSH1 0x24 DUP4 ADD MSTORE PUSH1 0x44 DUP3 ADD DUP6 SWAP1 MSTORE SWAP2 DUP6 DUP3 PUSH1 0x64 DUP2 DUP11 PUSH32 0x0 DUP7 AND GAS CALL SWAP1 DUP2 ISZERO PUSH2 0x9ED JUMPI PUSH2 0x8DF SWAP4 PUSH2 0x8A0 DUP8 SWAP4 DUP10 SWAP6 DUP12 SWAP2 PUSH2 0x9D0 JUMPI JUMPDEST POP PUSH2 0x1DE5 JUMP JUMPDEST PUSH1 0xC SLOAD PUSH1 0x9 SLOAD PUSH1 0x40 MLOAD SWAP3 DUP4 MSTORE PUSH1 0x1 PUSH1 0x1 PUSH1 0xA0 SHL SUB SWAP1 DUP5 AND AND PUSH1 0x4 DUP4 ADD MSTORE CALLER PUSH1 0x24 DUP4 ADD MSTORE PUSH1 0x44 DUP3 ADD SWAP4 SWAP1 SWAP4 MSTORE SWAP4 DUP5 SWAP3 SWAP1 SWAP2 AND SWAP1 DUP3 SWAP1 DUP10 SWAP1 DUP3 SWAP1 PUSH1 0x64 DUP3 ADD SWAP1 JUMP JUMPDEST SUB SWAP3 GAS CALL SWAP1 DUP2 ISZERO PUSH2 0x9C5 JUMPI DUP6 SWAP2 PUSH2 0x998 JUMPI JUMPDEST POP ISZERO PUSH2 0x94B JUMPI POP PUSH2 0x904 DUP2 PUSH1 0x12 SLOAD PUSH2 0x1EEE JUMP JUMPDEST PUSH1 0x12 SSTORE PUSH1 0x40 MLOAD SWAP2 DUP2 DUP4 MSTORE DUP3 ADD MSTORE PUSH32 0x8104158F6BFD5059E89948B6D8498D84641BC7159CFED4814819A8831A00E3D3 PUSH1 0x40 CALLER SWAP3 LOG2 PUSH1 0x1 PUSH0 DUP1 MLOAD PUSH1 0x20 PUSH2 0x39AF DUP4 CODECOPY DUP2 MLOAD SWAP2 MSTORE SSTORE DUP1 RETURN JUMPDEST DUP3 PUSH1 0x21 PUSH1 0x84 SWAP3 PUSH1 0x40 MLOAD SWAP3 PUSH3 0x461BCD PUSH1 0xE5 SHL DUP5 MSTORE PUSH1 0x4 DUP5 ADD MSTORE DUP3 ADD MSTORE PUSH32 0x506F6F6C436F6E74726163743A204D4954207472616E73666572206661696C65 PUSH1 0x44 DUP3 ADD MSTORE PUSH1 0x19 PUSH1 0xFA SHL PUSH1 0x64 DUP3 ADD MSTORE REVERT JUMPDEST PUSH2 0x9B8 SWAP2 POP DUP5 RETURNDATASIZE DUP7 GT PUSH2 0x9BE JUMPI JUMPDEST PUSH2 0x9B0 DUP2 DUP4 PUSH2 0x1D47 JUMP JUMPDEST DUP2 ADD SWAP1 PUSH2 0x1DCD JUMP JUMPDEST PUSH0 PUSH2 0x8F1 JUMP JUMPDEST POP RETURNDATASIZE PUSH2 0x9A6 JUMP JUMPDEST PUSH1 0x40 MLOAD RETURNDATASIZE DUP8 DUP3 RETURNDATACOPY RETURNDATASIZE SWAP1 REVERT JUMPDEST PUSH2 0x9E7 SWAP2 POP DUP7 RETURNDATASIZE DUP9 GT PUSH2 0x9BE JUMPI PUSH2 0x9B0 DUP2 DUP4 PUSH2 0x1D47 JUMP JUMPDEST PUSH0 PUSH2 0x89A JUMP JUMPDEST PUSH1 0x40 MLOAD RETURNDATASIZE DUP10 DUP3 RETURNDATACOPY RETURNDATASIZE SWAP1 REVERT JUMPDEST PUSH2 0xA01 SWAP1 PUSH2 0x1D33 JUMP JUMPDEST PUSH2 0xA0C JUMPI DUP5 PUSH0 PUSH2 0x832 JUMP JUMPDEST DUP5 DUP1 REVERT JUMPDEST DUP1 EXTCODESIZE ISZERO PUSH2 0x3C2 JUMPI DUP2 DUP1 SWAP2 DUP6 PUSH1 0x40 MLOAD DUP1 SWAP5 DUP2 SWAP4 PUSH4 0xE43252D7 PUSH1 0xE0 SHL DUP4 MSTORE CALLER PUSH1 0x4 DUP5 ADD MSTORE GAS CALL DUP1 ISZERO PUSH2 0x3C6 JUMPI ISZERO PUSH2 0x7F7 JUMPI PUSH2 0xA48 SWAP1 PUSH2 0x1D33 JUMP JUMPDEST PUSH2 0xA0C JUMPI DUP5 PUSH0 PUSH2 0x7F7 JUMP JUMPDEST PUSH2 0xA6A SWAP2 POP DUP8 RETURNDATASIZE DUP10 GT PUSH2 0x9BE JUMPI PUSH2 0x9B0 DUP2 DUP4 PUSH2 0x1D47 JUMP JUMPDEST PUSH0 PUSH2 0x7F0 JUMP JUMPDEST PUSH1 0x40 MLOAD RETURNDATASIZE DUP6 DUP3 RETURNDATACOPY RETURNDATASIZE SWAP1 REVERT JUMPDEST PUSH1 0x40 MLOAD PUSH3 0x461BCD PUSH1 0xE5 SHL DUP2 MSTORE PUSH1 0x4 DUP2 ADD DUP7 SWAP1 MSTORE PUSH1 0x28 DUP2 DUP6 ADD MSTORE PUSH32 0x506F6F6C436F6E74726163743A20696E73756666696369656E74204D49542061 PUSH1 0x44 DUP3 ADD MSTORE PUSH8 0x7661696C61626C65 PUSH1 0xC0 SHL PUSH1 0x64 DUP3 ADD MSTORE PUSH1 0x84 SWAP1 REVERT JUMPDEST SWAP1 POP DUP6 DUP2 DUP2 RETURNDATASIZE DUP4 GT PUSH2 0xAFA JUMPI JUMPDEST PUSH2 0xAE7 DUP2 DUP4 PUSH2 0x1D47 JUMP JUMPDEST DUP2 ADD SUB SLT PUSH2 0xAF6 JUMPI MLOAD PUSH0 PUSH2 0x7BE JUMP JUMPDEST PUSH0 DUP1 REVERT JUMPDEST POP RETURNDATASIZE PUSH2 0xADD JUMP JUMPDEST PUSH1 0x40 MLOAD PUSH3 0x461BCD PUSH1 0xE5 SHL DUP2 MSTORE PUSH1 0x4 DUP2 ADD DUP4 SWAP1 MSTORE PUSH1 0x19 PUSH1 0x24 DUP3 ADD MSTORE PUSH32 0x506F6F6C436F6E74726163743A207A65726F20616D6F756E7400000000000000 PUSH1 0x44 DUP3 ADD MSTORE PUSH1 0x64 SWAP1 REVERT JUMPDEST PUSH4 0x4E487B71 PUSH1 0xE0 SHL DUP5 MSTORE PUSH1 0x21 PUSH1 0x4 MSTORE PUSH1 0x24 DUP5 REVERT JUMPDEST POP CALLVALUE PUSH2 0x1C7 JUMPI DUP1 PUSH1 0x3 NOT CALLDATASIZE ADD SLT PUSH2 0x1C7 JUMPI PUSH1 0x20 PUSH2 0xB75 PUSH2 0x1E72 JUMP JUMPDEST PUSH1 0x40 MLOAD SWAP1 DUP2 MSTORE RETURN JUMPDEST POP CALLVALUE PUSH2 0x1C7 JUMPI PUSH1 0x80 CALLDATASIZE PUSH1 0x3 NOT ADD SLT PUSH2 0x1C7 JUMPI PUSH2 0xB97 PUSH2 0x1B31 JUMP JUMPDEST PUSH2 0xB9F PUSH2 0x1B1B JUMP JUMPDEST PUSH1 0x44 CALLDATALOAD PUSH1 0x1 PUSH1 0x1 PUSH1 0xA0 SHL SUB DUP2 AND SWAP3 SWAP1 DUP4 SWAP1 SUB PUSH2 0xAF6 JUMPI PUSH8 0xFFFFFFFFFFFFFFFF SWAP1 DUP2 PUSH1 0x64 CALLDATALOAD GT PUSH2 0xA0C JUMPI CALLDATASIZE PUSH1 0x23 PUSH1 0x64 CALLDATALOAD ADD SLT ISZERO PUSH2 0xA0C JUMPI DUP2 PUSH1 0x64 CALLDATALOAD PUSH1 0x4 ADD CALLDATALOAD GT PUSH2 0xA0C JUMPI CALLDATASIZE PUSH1 0x24 PUSH1 0x64 CALLDATALOAD PUSH1 0x4 ADD CALLDATALOAD PUSH1 0x64 CALLDATALOAD ADD ADD GT PUSH2 0xA0C JUMPI CALLER PUSH0 SWAP1 DUP2 MSTORE PUSH32 0xA076B6C7090E38BFC39B1B347E64CB6D96EE4AB3EFA77A15F23085DE7667B49C PUSH1 0x20 MSTORE PUSH1 0x40 SWAP1 KECCAK256 SLOAD PUSH32 0x43A0A3E63C2A39D49CDEA8D043E7B4A2564BA537638445FEFEE61934C836E3BC SWAP1 PUSH1 0xFF AND ISZERO PUSH2 0x1103 JUMPI POP PUSH2 0xC57 PUSH2 0x2129 JUMP JUMPDEST PUSH1 0xFF PUSH1 0xA SLOAD AND PUSH1 0x4 DUP2 LT ISZERO PUSH2 0x10EF JUMPI PUSH2 0x109E JUMPI PUSH1 0x1 PUSH1 0x1 PUSH1 0xA0 SHL SUB AND SWAP3 DUP4 ISZERO ISZERO DUP1 PUSH2 0x108C JUMPI JUMPDEST DUP1 PUSH2 0x1083 JUMPI JUMPDEST ISZERO PUSH2 0x103E JUMPI PUSH1 0x20 SWAP3 PUSH12 0xFFFFFFFFFFFFFFFFFFFFFFFF PUSH1 0xA0 SHL SWAP5 DUP6 PUSH1 0xD SLOAD AND OR PUSH1 0xD SSTORE PUSH1 0x1 DUP1 PUSH1 0xA0 SHL SUB AND DUP5 PUSH1 0xE SLOAD AND OR PUSH1 0xE SSTORE DUP4 PUSH1 0xF SLOAD AND OR PUSH1 0xF SSTORE PUSH2 0xD0D PUSH1 0x24 PUSH2 0xCDC PUSH1 0x40 MLOAD PUSH2 0xCD7 DUP2 PUSH2 0x276 DUP2 PUSH2 0x1BF0 JUMP JUMPDEST PUSH2 0x2169 JUMP JUMPDEST PUSH1 0x40 MLOAD SWAP5 DUP6 SWAP2 PUSH4 0x4D49542D PUSH1 0xE0 SHL DUP3 DUP5 ADD MSTORE DUP1 MLOAD SWAP2 DUP3 SWAP2 ADD DUP5 DUP5 ADD MCOPY DUP2 ADD DUP8 DUP4 DUP3 ADD MSTORE SUB PUSH1 0x4 DUP2 ADD DUP6 MSTORE ADD DUP4 PUSH2 0x1D47 JUMP JUMPDEST PUSH1 0x16 SLOAD PUSH1 0x40 MLOAD SWAP3 PUSH2 0x1782 DUP1 DUP6 ADD SWAP4 PUSH1 0x1 PUSH1 0x1 PUSH1 0xA0 SHL SUB SWAP4 SWAP1 SWAP4 AND SWAP3 DUP5 GT DUP6 DUP6 LT OR PUSH2 0x102A JUMPI PUSH2 0xD5F DUP6 SWAP5 SWAP4 SWAP3 PUSH1 0x80 SWAP3 PUSH2 0x222D DUP8 CODECOPY PUSH1 0xA0 DUP6 MSTORE PUSH2 0xD51 PUSH1 0xA0 DUP7 ADD PUSH2 0x1BF0 JUMP JUMPDEST SWAP1 DUP6 DUP3 SUB PUSH1 0x20 DUP8 ADD MSTORE PUSH2 0x1B94 JUMP JUMPDEST SWAP3 ADDRESS PUSH1 0x40 DUP3 ADD MSTORE CALLER PUSH1 0x60 DUP3 ADD MSTORE ADD MSTORE SUB SWAP1 DUP4 CREATE SWAP1 DUP2 ISZERO PUSH2 0x3C6 JUMPI PUSH1 0xC DUP1 SLOAD SWAP1 SWAP2 AND PUSH1 0x1 PUSH1 0x1 PUSH1 0xA0 SHL SUB DUP4 DUP2 AND SWAP2 DUP3 OR SWAP1 SWAP3 SSTORE PUSH1 0x2 SLOAD PUSH1 0x11 SSTORE PUSH1 0x9 SLOAD DUP5 SWAP3 AND SWAP1 EXTCODESIZE ISZERO PUSH2 0x3C2 JUMPI PUSH1 0x40 MLOAD PUSH4 0xE43252D7 PUSH1 0xE0 SHL DUP2 MSTORE PUSH1 0x4 DUP2 ADD SWAP2 SWAP1 SWAP2 MSTORE DUP2 DUP2 PUSH1 0x24 DUP2 DUP4 PUSH1 0x1 PUSH1 0x1 PUSH1 0xA0 SHL SUB DUP9 AND GAS CALL DUP1 ISZERO PUSH2 0x3C6 JUMPI PUSH2 0x1016 JUMPI JUMPDEST POP PUSH1 0x9 SLOAD PUSH1 0x11 SLOAD SWAP1 PUSH1 0x1 PUSH1 0x1 PUSH1 0xA0 SHL SUB SWAP1 DUP2 AND SWAP1 DUP5 AND EXTCODESIZE ISZERO PUSH2 0x3D1 JUMPI PUSH1 0x40 MLOAD PUSH4 0x40C10F19 PUSH1 0xE0 SHL DUP2 MSTORE PUSH1 0x1 PUSH1 0x1 PUSH1 0xA0 SHL SUB SWAP1 SWAP2 AND PUSH1 0x4 DUP3 ADD MSTORE PUSH1 0x24 DUP2 ADD SWAP2 SWAP1 SWAP2 MSTORE DUP2 DUP2 DUP1 PUSH1 0x44 DUP2 ADD SUB DUP2 DUP4 PUSH1 0x1 PUSH1 0x1 PUSH1 0xA0 SHL SUB DUP9 AND GAS CALL DUP1 ISZERO PUSH2 0x3C6 JUMPI PUSH2 0x1002 JUMPI JUMPDEST POP POP PUSH1 0xD SLOAD PUSH1 0xE SLOAD PUSH1 0x2 SLOAD PUSH1 0x5 SLOAD PUSH1 0x6 SLOAD PUSH1 0x40 MLOAD PUSH4 0xA9CC7D0B PUSH1 0xE0 SHL DUP2 MSTORE PUSH1 0x1 PUSH1 0x1 PUSH1 0xA0 SHL SUB SWAP5 DUP6 AND PUSH1 0x4 DUP3 ADD MSTORE ADDRESS PUSH1 0x24 DUP3 ADD MSTORE PUSH1 0xE0 PUSH1 0x44 DUP3 ADD MSTORE SWAP5 PUSH1 0x20 SWAP5 DUP7 SWAP5 SWAP2 AND SWAP3 DUP5 SWAP3 DUP10 SWAP3 DUP8 SWAP3 DUP6 SWAP3 SWAP1 PUSH2 0xE91 PUSH1 0xE4 DUP6 ADD PUSH2 0x1BF0 JUMP JUMPDEST SWAP3 PUSH1 0x64 DUP6 ADD MSTORE PUSH1 0x84 DUP5 ADD MSTORE PUSH1 0xA4 DUP4 ADD MSTORE PUSH1 0x3 NOT DUP3 DUP3 SUB ADD PUSH1 0xC4 DUP4 ADD MSTORE PUSH1 0x64 CALLDATALOAD PUSH1 0x4 ADD CALLDATALOAD DUP2 MSTORE PUSH1 0x64 CALLDATALOAD PUSH1 0x4 ADD CALLDATALOAD PUSH1 0x24 PUSH1 0x64 CALLDATALOAD ADD DUP5 DUP4 ADD CALLDATACOPY PUSH1 0x4 PUSH1 0x64 CALLDATALOAD ADD CALLDATALOAD DUP2 DUP2 ADD DUP5 ADD DUP6 SWAP1 MSTORE PUSH1 0x1F ADD PUSH1 0x1F NOT AND ADD SUB ADD SWAP3 GAS CALL SWAP1 DUP2 ISZERO PUSH2 0xA70 JUMPI DUP4 SWAP2 PUSH2 0xFD0 JUMPI JUMPDEST POP DUP1 PUSH1 0x10 SSTORE PUSH1 0x1 DUP1 PUSH1 0xFF NOT PUSH1 0xA SLOAD AND OR PUSH1 0xA SSTORE TIMESTAMP PUSH1 0x15 SSTORE DUP1 DUP5 SWAP1 JUMPDEST PUSH2 0xF6F JUMPI JUMPDEST POP POP PUSH1 0xD SLOAD PUSH1 0x11 SLOAD PUSH1 0x40 DUP1 MLOAD SWAP2 DUP3 MSTORE PUSH1 0x20 DUP3 ADD SWAP4 SWAP1 SWAP4 MSTORE PUSH1 0x1 PUSH1 0x1 PUSH1 0xA0 SHL SUB SWAP2 DUP3 AND SWAP4 SWAP1 SWAP2 AND SWAP2 PUSH32 0x86DD5A6BE51AE12ACB42AFC1AC29799E5F9E45134DB298E05450083171B56696 SWAP2 LOG3 PUSH1 0x1 PUSH0 DUP1 MLOAD PUSH1 0x20 PUSH2 0x39AF DUP4 CODECOPY DUP2 MLOAD SWAP2 MSTORE SSTORE DUP1 RETURN JUMPDEST PUSH1 0xB SLOAD DUP2 LT ISZERO PUSH2 0xFCB JUMPI DUP2 DUP2 ADD DUP1 DUP3 GT PUSH2 0xFB7 JUMPI PUSH3 0x278D00 SWAP1 DUP2 DUP2 MUL SWAP2 DUP2 DUP4 DIV EQ SWAP1 ISZERO OR ISZERO PUSH2 0xFB7 JUMPI DUP3 SWAP2 PUSH2 0xFA5 DUP4 SWAP3 TIMESTAMP PUSH2 0x1EEE JUMP JUMPDEST PUSH2 0xFAE DUP3 PUSH2 0x1B47 JUMP JUMPDEST POP SSTORE ADD SWAP1 PUSH2 0xF0C JUMP JUMPDEST PUSH4 0x4E487B71 PUSH1 0xE0 SHL DUP7 MSTORE PUSH1 0x11 PUSH1 0x4 MSTORE PUSH1 0x24 DUP7 REVERT JUMPDEST PUSH2 0xF11 JUMP JUMPDEST SWAP1 POP PUSH1 0x20 DUP2 RETURNDATASIZE PUSH1 0x20 GT PUSH2 0xFFA JUMPI JUMPDEST DUP2 PUSH2 0xFEB PUSH1 0x20 SWAP4 DUP4 PUSH2 0x1D47 JUMP JUMPDEST DUP2 ADD SUB SLT PUSH2 0xAF6 JUMPI MLOAD PUSH0 PUSH2 0xEF1 JUMP JUMPDEST RETURNDATASIZE SWAP2 POP PUSH2 0xFDE JUMP JUMPDEST PUSH2 0x100B SWAP1 PUSH2 0x1D33 JUMP JUMPDEST PUSH2 0x3C2 JUMPI DUP2 PUSH0 PUSH2 0xE38 JUMP JUMPDEST PUSH2 0x101F SWAP1 PUSH2 0x1D33 JUMP JUMPDEST PUSH2 0x3C2 JUMPI DUP2 PUSH0 PUSH2 0xDD6 JUMP JUMPDEST PUSH4 0x4E487B71 PUSH1 0xE0 SHL DUP8 MSTORE PUSH1 0x41 PUSH1 0x4 MSTORE PUSH1 0x24 DUP8 REVERT JUMPDEST PUSH1 0x40 MLOAD PUSH3 0x461BCD PUSH1 0xE5 SHL DUP2 MSTORE PUSH1 0x20 PUSH1 0x4 DUP3 ADD MSTORE PUSH1 0x1F PUSH1 0x24 DUP3 ADD MSTORE PUSH32 0x506F6F6C436F6E74726163743A20696E76616C69642061646472657373657300 PUSH1 0x44 DUP3 ADD MSTORE PUSH1 0x64 SWAP1 REVERT JUMPDEST POP DUP1 ISZERO ISZERO PUSH2 0xC83 JUMP JUMPDEST POP PUSH1 0x1 PUSH1 0x1 PUSH1 0xA0 SHL SUB DUP4 AND ISZERO ISZERO PUSH2 0xC7D JUMP JUMPDEST PUSH1 0x40 MLOAD PUSH3 0x461BCD PUSH1 0xE5 SHL DUP2 MSTORE PUSH1 0x20 PUSH1 0x4 DUP3 ADD MSTORE PUSH1 0x24 DUP1 DUP3 ADD MSTORE PUSH32 0x506F6F6C436F6E74726163743A206E6F742070656E64696E6720616374697661 PUSH1 0x44 DUP3 ADD MSTORE PUSH4 0x3A34B7B7 PUSH1 0xE1 SHL PUSH1 0x64 DUP3 ADD MSTORE PUSH1 0x84 SWAP1 REVERT JUMPDEST PUSH4 0x4E487B71 PUSH1 0xE0 SHL DUP7 MSTORE PUSH1 0x21 PUSH1 0x4 MSTORE PUSH1 0x24 DUP7 REVERT JUMPDEST PUSH1 0x44 SWAP1 PUSH1 0x40 MLOAD SWAP1 PUSH4 0xE2517D3F PUSH1 0xE0 SHL DUP3 MSTORE CALLER PUSH1 0x4 DUP4 ADD MSTORE PUSH1 0x24 DUP3 ADD MSTORE REVERT JUMPDEST POP CALLVALUE PUSH2 0x1C7 JUMPI DUP1 PUSH1 0x3 NOT CALLDATASIZE ADD SLT PUSH2 0x1C7 JUMPI PUSH1 0x20 PUSH1 0x15 SLOAD PUSH1 0x40 MLOAD SWAP1 DUP2 MSTORE RETURN JUMPDEST POP CALLVALUE PUSH2 0x1C7 JUMPI DUP1 PUSH1 0x3 NOT CALLDATASIZE ADD SLT PUSH2 0x1C7 JUMPI PUSH1 0x20 PUSH1 0x12 SLOAD PUSH1 0x40 MLOAD SWAP1 DUP2 MSTORE RETURN JUMPDEST POP CALLVALUE PUSH2 0x1C7 JUMPI DUP1 PUSH1 0x3 NOT CALLDATASIZE ADD SLT PUSH2 0x1C7 JUMPI PUSH1 0x20 PUSH2 0xB75 PUSH2 0x1E49 JUMP JUMPDEST POP CALLVALUE PUSH2 0xAF6 JUMPI PUSH0 CALLDATASIZE PUSH1 0x3 NOT ADD SLT PUSH2 0xAF6 JUMPI CALLER PUSH0 SWAP1 DUP2 MSTORE PUSH32 0x8B1B9C9043E80973230885F47D3C5FD9CB7DA44CD5750066C17FE13B7626CF69 PUSH1 0x20 SWAP1 DUP2 MSTORE PUSH1 0x40 SWAP1 SWAP2 KECCAK256 SLOAD PUSH32 0x591FA5458FE051CC8C02C405479BD38E00713C98DBD3DB209D982048F1E638FA SWAP1 PUSH1 0xFF AND ISZERO PUSH2 0x1103 JUMPI POP PUSH2 0x11ED PUSH2 0x2129 JUMP JUMPDEST PUSH1 0xFF PUSH1 0xA SLOAD AND PUSH1 0x4 DUP2 LT ISZERO PUSH2 0x176C JUMPI PUSH1 0x1 PUSH2 0x1208 SWAP2 EQ PUSH2 0x1D81 JUMP JUMPDEST PUSH1 0x14 SLOAD PUSH1 0x4 SLOAD DUP2 LT ISZERO PUSH2 0x1727 JUMPI PUSH2 0x121E SWAP1 PUSH2 0x1B47 JUMP JUMPDEST POP PUSH1 0x6 DUP2 ADD PUSH1 0xFF DUP2 SLOAD AND PUSH2 0x16D8 JUMPI PUSH1 0x4 DUP3 DUP2 ADD SLOAD PUSH1 0x9 SLOAD PUSH1 0x40 MLOAD PUSH4 0x23B872DD PUSH1 0xE0 SHL DUP2 MSTORE PUSH1 0x1 PUSH1 0x1 PUSH1 0xA0 SHL SUB SWAP2 DUP3 AND SWAP4 DUP2 ADD SWAP4 SWAP1 SWAP4 MSTORE ADDRESS PUSH1 0x24 DUP5 ADD MSTORE PUSH1 0x44 DUP4 ADD DUP3 SWAP1 MSTORE SWAP4 SWAP2 PUSH32 0x0 DUP6 AND SWAP1 DUP7 DUP2 PUSH1 0x64 DUP2 PUSH0 DUP7 GAS CALL DUP1 ISZERO PUSH2 0x159A JUMPI PUSH2 0x12A6 SWAP2 PUSH0 SWAP2 PUSH2 0x16C1 JUMPI POP PUSH2 0x1DE5 JUMP JUMPDEST DUP5 PUSH1 0xF SLOAD AND PUSH1 0x3 DUP5 ADD SWAP2 PUSH2 0x12F1 DUP9 PUSH2 0x12BF DUP6 SLOAD DUP8 PUSH2 0x1E3C JUMP JUMPDEST PUSH1 0x40 MLOAD PUSH4 0xA9059CBB PUSH1 0xE0 SHL DUP1 DUP3 MSTORE PUSH1 0x1 PUSH1 0x1 PUSH1 0xA0 SHL SUB SWAP1 SWAP7 AND PUSH1 0x4 DUP3 ADD MSTORE PUSH1 0x24 DUP2 ADD SWAP2 SWAP1 SWAP2 MSTORE SWAP2 DUP3 SWAP1 DUP2 SWAP1 PUSH1 0x44 DUP3 ADD SWAP1 JUMP JUMPDEST SUB DUP2 PUSH0 DUP7 GAS CALL SWAP1 DUP2 ISZERO PUSH2 0x159A JUMPI PUSH0 SWAP2 PUSH2 0x16A4 JUMPI JUMPDEST POP ISZERO PUSH2 0x1654 JUMPI PUSH1 0xF SLOAD DUP4 SLOAD PUSH1 0x40 MLOAD SWAP4 DUP5 MSTORE SWAP1 DUP9 AND PUSH1 0x1 PUSH1 0x1 PUSH1 0xA0 SHL SUB AND PUSH1 0x4 DUP5 ADD MSTORE PUSH1 0x24 DUP4 ADD MSTORE DUP8 SWAP1 DUP3 SWAP1 DUP2 PUSH0 DUP2 PUSH1 0x44 DUP2 ADD SUB SWAP3 GAS CALL SWAP1 DUP2 ISZERO PUSH2 0x159A JUMPI PUSH0 SWAP2 PUSH2 0x1637 JUMPI JUMPDEST POP ISZERO PUSH2 0x15E8 JUMPI DUP4 SLOAD PUSH1 0xFF NOT SWAP1 DUP2 AND PUSH1 0x1 OR SWAP1 SWAP5 SSTORE PUSH1 0x14 SLOAD PUSH0 NOT DUP2 EQ PUSH2 0x15D4 JUMPI PUSH1 0x1 ADD PUSH1 0x14 SSTORE PUSH1 0x4 PUSH1 0x1 DUP5 ADD SWAP2 PUSH2 0x1382 DUP4 SLOAD PUSH1 0x13 SLOAD PUSH2 0x1E3C JUMP JUMPDEST PUSH1 0x13 SSTORE DUP7 PUSH1 0xF SLOAD AND SWAP3 SLOAD SWAP3 PUSH1 0x2 DUP7 ADD SLOAD SWAP2 SLOAD SWAP4 DUP10 DUP10 PUSH1 0xC SLOAD AND PUSH1 0x40 MLOAD SWAP6 DUP7 DUP1 SWAP3 PUSH4 0x18160DDD PUSH1 0xE0 SHL DUP3 MSTORE GAS STATICCALL SWAP4 DUP5 ISZERO PUSH2 0x159A JUMPI PUSH0 SWAP5 PUSH2 0x15A5 JUMPI JUMPDEST POP DUP2 EXTCODESIZE ISZERO PUSH2 0xAF6 JUMPI PUSH0 PUSH1 0x84 SWAP3 DUP2 SWAP6 PUSH1 0x40 MLOAD SWAP8 DUP9 SWAP7 DUP8 SWAP6 PUSH4 0x4A360691 PUSH1 0xE0 SHL DUP8 MSTORE PUSH1 0x4 DUP8 ADD MSTORE PUSH1 0x24 DUP7 ADD MSTORE PUSH1 0x44 DUP6 ADD MSTORE PUSH1 0x64 DUP5 ADD MSTORE GAS CALL DUP1 ISZERO PUSH2 0x159A JUMPI PUSH2 0x1560 JUMPI JUMPDEST POP SWAP1 PUSH32 0x89A7949B2B487473246661F4CA7F51FF59389180D10A910CAED2D02DC9064032 PUSH1 0x60 PUSH1 0x5 SWAP4 PUSH1 0x14 SLOAD SWAP5 DUP6 SWAP5 ADD SLOAD PUSH1 0x13 SLOAD SWAP1 PUSH1 0x40 MLOAD SWAP3 DUP4 MSTORE DUP10 DUP4 ADD MSTORE PUSH1 0x40 DUP3 ADD MSTORE LOG2 PUSH1 0x4 SLOAD EQ PUSH2 0x145F JUMPI JUMPDEST DUP4 PUSH1 0x1 PUSH0 DUP1 MLOAD PUSH1 0x20 PUSH2 0x39AF DUP4 CODECOPY DUP2 MLOAD SWAP2 MSTORE SSTORE DUP1 RETURN JUMPDEST PUSH1 0x2 SWAP1 PUSH1 0xA SLOAD AND OR PUSH1 0xA SSTORE DUP3 DUP2 PUSH1 0xE SLOAD AND DUP1 EXTCODESIZE ISZERO PUSH2 0x3C2 JUMPI DUP2 DUP1 SWAP2 PUSH1 0x4 PUSH1 0x40 MLOAD DUP1 SWAP5 DUP2 SWAP4 PUSH4 0x4593EAF3 PUSH1 0xE0 SHL DUP4 MSTORE GAS CALL DUP1 ISZERO PUSH2 0x3C6 JUMPI PUSH2 0x154C JUMPI JUMPDEST POP DUP2 PUSH1 0xD SLOAD AND PUSH1 0x10 SLOAD DUP2 EXTCODESIZE ISZERO PUSH2 0x3D1 JUMPI DUP3 SWAP2 PUSH1 0x24 DUP4 SWAP3 PUSH1 0x40 MLOAD SWAP5 DUP6 SWAP4 DUP5 SWAP3 PUSH4 0x257C413B PUSH1 0xE2 SHL DUP5 MSTORE PUSH1 0x4 DUP5 ADD MSTORE GAS CALL DUP1 ISZERO PUSH2 0x3C6 JUMPI PUSH2 0x1538 JUMPI JUMPDEST POP POP PUSH32 0x71107A1F8EBC346155161D1D2817AA6268EA6FD68F309FA4F02AD36A1C20A99B SWAP1 PUSH32 0x77C2C51736CA588D8412C341CE32700DC11D1F191D40D86F5AC657F457C91EF0 DUP4 PUSH1 0x40 MLOAD TIMESTAMP DUP2 MSTORE LOG1 PUSH1 0x9 SLOAD AND SWAP2 PUSH1 0x10 SLOAD PUSH1 0x40 MLOAD SWAP1 DUP2 MSTORE LOG2 PUSH0 DUP1 DUP1 PUSH2 0x144A JUMP JUMPDEST PUSH2 0x1541 SWAP1 PUSH2 0x1D33 JUMP JUMPDEST PUSH2 0x3D1 JUMPI DUP3 PUSH0 PUSH2 0x14D4 JUMP JUMPDEST PUSH2 0x1555 SWAP1 PUSH2 0x1D33 JUMP JUMPDEST PUSH2 0x3D1 JUMPI DUP3 PUSH0 PUSH2 0x149A JUMP JUMPDEST PUSH1 0x5 SWAP3 SWAP2 SWAP7 POP PUSH2 0x156F SWAP1 PUSH2 0x1D33 JUMP JUMPDEST PUSH0 SWAP6 SWAP1 SWAP2 POP PUSH32 0x89A7949B2B487473246661F4CA7F51FF59389180D10A910CAED2D02DC9064032 PUSH2 0x13FD JUMP JUMPDEST PUSH1 0x40 MLOAD RETURNDATASIZE PUSH0 DUP3 RETURNDATACOPY RETURNDATASIZE SWAP1 REVERT JUMPDEST SWAP1 SWAP4 POP DUP10 DUP2 DUP2 RETURNDATASIZE DUP4 GT PUSH2 0x15CD JUMPI JUMPDEST PUSH2 0x15BD DUP2 DUP4 PUSH2 0x1D47 JUMP JUMPDEST DUP2 ADD SUB SLT PUSH2 0xAF6 JUMPI MLOAD SWAP3 PUSH0 PUSH2 0x13BC JUMP JUMPDEST POP RETURNDATASIZE PUSH2 0x15B3 JUMP JUMPDEST PUSH4 0x4E487B71 PUSH1 0xE0 SHL PUSH0 MSTORE PUSH1 0x11 PUSH1 0x4 MSTORE PUSH1 0x24 PUSH0 REVERT JUMPDEST PUSH1 0x40 MLOAD PUSH3 0x461BCD PUSH1 0xE5 SHL DUP2 MSTORE PUSH1 0x4 DUP2 ADD DUP8 SWAP1 MSTORE PUSH1 0x21 PUSH1 0x24 DUP3 ADD MSTORE PUSH32 0x506F6F6C436F6E74726163743A20666565207472616E73666572206661696C65 PUSH1 0x44 DUP3 ADD MSTORE PUSH1 0x19 PUSH1 0xFA SHL PUSH1 0x64 DUP3 ADD MSTORE PUSH1 0x84 SWAP1 REVERT JUMPDEST PUSH2 0x164E SWAP2 POP DUP8 RETURNDATASIZE DUP10 GT PUSH2 0x9BE JUMPI PUSH2 0x9B0 DUP2 DUP4 PUSH2 0x1D47 JUMP JUMPDEST PUSH0 PUSH2 0x1349 JUMP JUMPDEST PUSH1 0x40 MLOAD PUSH3 0x461BCD PUSH1 0xE5 SHL DUP2 MSTORE PUSH1 0x4 DUP2 ADD DUP10 SWAP1 MSTORE PUSH1 0x22 PUSH1 0x24 DUP3 ADD MSTORE PUSH32 0x506F6F6C436F6E74726163743A2057414445207472616E73666572206661696C PUSH1 0x44 DUP3 ADD MSTORE PUSH2 0x1959 PUSH1 0xF2 SHL PUSH1 0x64 DUP3 ADD MSTORE PUSH1 0x84 SWAP1 REVERT JUMPDEST PUSH2 0x16BB SWAP2 POP DUP10 RETURNDATASIZE DUP12 GT PUSH2 0x9BE JUMPI PUSH2 0x9B0 DUP2 DUP4 PUSH2 0x1D47 JUMP JUMPDEST PUSH0 PUSH2 0x1305 JUMP JUMPDEST PUSH2 0x9E7 SWAP2 POP DUP9 RETURNDATASIZE DUP11 GT PUSH2 0x9BE JUMPI PUSH2 0x9B0 DUP2 DUP4 PUSH2 0x1D47 JUMP JUMPDEST PUSH1 0x40 MLOAD PUSH3 0x461BCD PUSH1 0xE5 SHL DUP2 MSTORE PUSH1 0x4 DUP2 ADD DUP5 SWAP1 MSTORE PUSH1 0x21 PUSH1 0x24 DUP3 ADD MSTORE PUSH32 0x506F6F6C436F6E74726163743A20706572696F6420616C726561647920706169 PUSH1 0x44 DUP3 ADD MSTORE PUSH1 0x19 PUSH1 0xFA SHL PUSH1 0x64 DUP3 ADD MSTORE PUSH1 0x84 SWAP1 REVERT JUMPDEST PUSH1 0x40 MLOAD PUSH3 0x461BCD PUSH1 0xE5 SHL DUP2 MSTORE PUSH1 0x4 DUP2 ADD DUP4 SWAP1 MSTORE PUSH1 0x1E PUSH1 0x24 DUP3 ADD MSTORE PUSH32 0x506F6F6C436F6E74726163743A20616C6C20706572696F647320706169640000 PUSH1 0x44 DUP3 ADD MSTORE PUSH1 0x64 SWAP1 REVERT JUMPDEST PUSH4 0x4E487B71 PUSH1 0xE0 SHL PUSH0 MSTORE PUSH1 0x21 PUSH1 0x4 MSTORE PUSH1 0x24 PUSH0 REVERT JUMPDEST CALLVALUE PUSH2 0xAF6 JUMPI PUSH0 CALLDATASIZE PUSH1 0x3 NOT ADD SLT PUSH2 0xAF6 JUMPI PUSH1 0x40 MLOAD PUSH32 0x0 PUSH1 0x1 PUSH1 0x1 PUSH1 0xA0 SHL SUB AND DUP2 MSTORE PUSH1 0x20 SWAP1 RETURN JUMPDEST CALLVALUE PUSH2 0xAF6 JUMPI PUSH1 0x40 CALLDATASIZE PUSH1 0x3 NOT ADD SLT PUSH2 0xAF6 JUMPI PUSH2 0x17DD PUSH2 0x1B1B JUMP JUMPDEST CALLER PUSH1 0x1 PUSH1 0x1 PUSH1 0xA0 SHL SUB DUP3 AND SUB PUSH2 0x17FB JUMPI PUSH2 0x17F9 SWAP1 PUSH1 0x4 CALLDATALOAD PUSH2 0x20B7 JUMP JUMPDEST STOP JUMPDEST PUSH1 0x40 MLOAD PUSH4 0x334BD919 PUSH1 0xE1 SHL DUP2 MSTORE PUSH1 0x4 SWAP1 REVERT JUMPDEST CALLVALUE PUSH2 0xAF6 JUMPI PUSH1 0x40 CALLDATASIZE PUSH1 0x3 NOT ADD SLT PUSH2 0xAF6 JUMPI PUSH2 0x17F9 PUSH1 0x4 CALLDATALOAD PUSH2 0x182C PUSH2 0x1B1B JUMP JUMPDEST SWAP1 DUP1 PUSH0 MSTORE PUSH0 PUSH1 0x20 MSTORE PUSH2 0x1844 PUSH1 0x1 PUSH1 0x40 PUSH0 KECCAK256 ADD SLOAD PUSH2 0x1F75 JUMP JUMPDEST PUSH2 0x2041 JUMP JUMPDEST CALLVALUE PUSH2 0xAF6 JUMPI PUSH0 CALLDATASIZE PUSH1 0x3 NOT ADD SLT PUSH2 0xAF6 JUMPI PUSH1 0x20 PUSH1 0x13 SLOAD PUSH1 0x40 MLOAD SWAP1 DUP2 MSTORE RETURN JUMPDEST CALLVALUE PUSH2 0xAF6 JUMPI PUSH0 CALLDATASIZE PUSH1 0x3 NOT ADD SLT PUSH2 0xAF6 JUMPI PUSH1 0xB SLOAD PUSH2 0x1882 DUP2 PUSH2 0x1D69 JUMP JUMPDEST PUSH2 0x188F PUSH1 0x40 MLOAD SWAP2 DUP3 PUSH2 0x1D47 JUMP JUMPDEST DUP2 DUP2 MSTORE PUSH1 0x20 SWAP1 DUP2 DUP2 ADD SWAP3 DUP4 PUSH1 0xB PUSH0 MSTORE PUSH32 0x175B7A638427703F0DBE7BB9BBF987A2551717B34E79F33B5B1008D1FA01DB9 SWAP1 PUSH0 SWAP1 JUMPDEST DUP4 DUP3 LT PUSH2 0x1942 JUMPI PUSH1 0x40 DUP1 MLOAD DUP8 DUP2 MSTORE DUP7 MLOAD DUP2 DUP10 ADD DUP2 SWAP1 MSTORE DUP10 SWAP3 DUP3 ADD SWAP1 DUP10 PUSH0 JUMPDEST DUP3 DUP2 LT PUSH2 0x18EE JUMPI DUP5 DUP5 SUB DUP6 RETURN JUMPDEST DUP6 MLOAD DUP1 MLOAD DUP6 MSTORE DUP1 DUP4 ADD MLOAD DUP6 DUP5 ADD MSTORE PUSH1 0x40 DUP1 DUP3 ADD MLOAD SWAP1 DUP7 ADD MSTORE PUSH1 0x60 DUP1 DUP3 ADD MLOAD SWAP1 DUP7 ADD MSTORE PUSH1 0x80 DUP1 DUP3 ADD MLOAD SWAP1 DUP7 ADD MSTORE PUSH1 0xA0 DUP1 DUP3 ADD MLOAD SWAP1 DUP7 ADD MSTORE PUSH1 0xC0 SWAP1 DUP2 ADD MLOAD ISZERO ISZERO SWAP1 DUP6 ADD MSTORE SWAP5 DUP2 ADD SWAP5 PUSH1 0xE0 SWAP1 SWAP4 ADD SWAP3 PUSH1 0x1 ADD PUSH2 0x18E1 JUMP JUMPDEST PUSH1 0x40 MLOAD PUSH1 0xE0 DUP2 ADD DUP2 DUP2 LT PUSH8 0xFFFFFFFFFFFFFFFF DUP3 GT OR PUSH2 0x19B8 JUMPI PUSH1 0x1 SWAP3 PUSH1 0x7 SWAP3 DUP10 SWAP3 PUSH1 0x40 MSTORE DUP7 SLOAD DUP2 MSTORE DUP5 DUP8 ADD SLOAD DUP4 DUP3 ADD MSTORE PUSH1 0x2 DUP8 ADD SLOAD PUSH1 0x40 DUP3 ADD MSTORE PUSH1 0x3 DUP8 ADD SLOAD PUSH1 0x60 DUP3 ADD MSTORE PUSH1 0x4 DUP8 ADD SLOAD PUSH1 0x80 DUP3 ADD MSTORE PUSH1 0x5 DUP8 ADD SLOAD PUSH1 0xA0 DUP3 ADD MSTORE PUSH1 0xFF PUSH1 0x6 DUP9 ADD SLOAD AND ISZERO ISZERO PUSH1 0xC0 DUP3 ADD MSTORE DUP2 MSTORE ADD SWAP4 ADD SWAP2 ADD SWAP1 SWAP2 PUSH2 0x18C3 JUMP JUMPDEST PUSH4 0x4E487B71 PUSH1 0xE0 SHL PUSH0 MSTORE PUSH1 0x41 PUSH1 0x4 MSTORE PUSH1 0x24 PUSH0 REVERT JUMPDEST CALLVALUE PUSH2 0xAF6 JUMPI PUSH0 CALLDATASIZE PUSH1 0x3 NOT ADD SLT PUSH2 0xAF6 JUMPI PUSH1 0xC SLOAD PUSH1 0x40 MLOAD PUSH1 0x1 PUSH1 0x1 PUSH1 0xA0 SHL SUB SWAP1 SWAP2 AND DUP2 MSTORE PUSH1 0x20 SWAP1 RETURN JUMPDEST CALLVALUE PUSH2 0xAF6 JUMPI PUSH1 0x20 CALLDATASIZE PUSH1 0x3 NOT ADD SLT PUSH2 0xAF6 JUMPI PUSH1 0x4 CALLDATALOAD PUSH0 MSTORE PUSH0 PUSH1 0x20 MSTORE PUSH1 0x20 PUSH1 0x1 PUSH1 0x40 PUSH0 KECCAK256 ADD SLOAD PUSH1 0x40 MLOAD SWAP1 DUP2 MSTORE RETURN JUMPDEST CALLVALUE PUSH2 0xAF6 JUMPI PUSH0 CALLDATASIZE PUSH1 0x3 NOT ADD SLT PUSH2 0xAF6 JUMPI PUSH1 0xFF PUSH1 0xA SLOAD AND PUSH1 0x40 MLOAD PUSH1 0x4 DUP3 LT ISZERO PUSH2 0x176C JUMPI PUSH1 0x20 SWAP2 DUP2 MSTORE RETURN JUMPDEST CALLVALUE PUSH2 0xAF6 JUMPI PUSH0 CALLDATASIZE PUSH1 0x3 NOT ADD SLT PUSH2 0xAF6 JUMPI PUSH1 0xF SLOAD PUSH1 0x40 MLOAD PUSH1 0x1 PUSH1 0x1 PUSH1 0xA0 SHL SUB SWAP1 SWAP2 AND DUP2 MSTORE PUSH1 0x20 SWAP1 RETURN JUMPDEST CALLVALUE PUSH2 0xAF6 JUMPI PUSH0 CALLDATASIZE PUSH1 0x3 NOT ADD SLT PUSH2 0xAF6 JUMPI PUSH1 0x20 PUSH1 0x40 MLOAD PUSH32 0x591FA5458FE051CC8C02C405479BD38E00713C98DBD3DB209D982048F1E638FA DUP2 MSTORE RETURN JUMPDEST CALLVALUE PUSH2 0xAF6 JUMPI PUSH0 CALLDATASIZE PUSH1 0x3 NOT ADD SLT PUSH2 0xAF6 JUMPI PUSH1 0x20 PUSH1 0x14 SLOAD PUSH1 0x40 MLOAD SWAP1 DUP2 MSTORE RETURN JUMPDEST CALLVALUE PUSH2 0xAF6 JUMPI PUSH1 0x20 CALLDATASIZE PUSH1 0x3 NOT ADD SLT PUSH2 0xAF6 JUMPI PUSH1 0x4 CALLDATALOAD SWAP1 PUSH4 0xFFFFFFFF PUSH1 0xE0 SHL DUP3 AND DUP1 SWAP3 SUB PUSH2 0xAF6 JUMPI PUSH1 0x20 SWAP2 PUSH4 0x7965DB0B PUSH1 0xE0 SHL DUP2 EQ SWAP1 DUP2 ISZERO PUSH2 0x1B0A JUMPI JUMPDEST POP ISZERO ISZERO DUP2 MSTORE RETURN JUMPDEST PUSH4 0x1FFC9A7 PUSH1 0xE0 SHL EQ SWAP1 POP DUP4 PUSH2 0x1B03 JUMP JUMPDEST PUSH1 0x24 CALLDATALOAD SWAP1 PUSH1 0x1 PUSH1 0x1 PUSH1 0xA0 SHL SUB DUP3 AND DUP3 SUB PUSH2 0xAF6 JUMPI JUMP JUMPDEST PUSH1 0x4 CALLDATALOAD SWAP1 PUSH1 0x1 PUSH1 0x1 PUSH1 0xA0 SHL SUB DUP3 AND DUP3 SUB PUSH2 0xAF6 JUMPI JUMP JUMPDEST PUSH1 0xB SLOAD DUP2 LT ISZERO PUSH2 0x1B80 JUMPI PUSH1 0x7 SWAP1 PUSH1 0xB PUSH0 MSTORE MUL PUSH32 0x175B7A638427703F0DBE7BB9BBF987A2551717B34E79F33B5B1008D1FA01DB9 ADD SWAP1 PUSH0 SWAP1 JUMP JUMPDEST PUSH4 0x4E487B71 PUSH1 0xE0 SHL PUSH0 MSTORE PUSH1 0x32 PUSH1 0x4 MSTORE PUSH1 0x24 PUSH0 REVERT JUMPDEST DUP1 MLOAD DUP1 DUP4 MSTORE PUSH1 0x20 SWAP3 SWAP2 DUP2 SWAP1 DUP5 ADD DUP5 DUP5 ADD MCOPY PUSH0 DUP3 DUP3 ADD DUP5 ADD MSTORE PUSH1 0x1F ADD PUSH1 0x1F NOT AND ADD ADD SWAP1 JUMP JUMPDEST SWAP1 PUSH1 0x1 DUP3 DUP2 SHR SWAP3 AND DUP1 ISZERO PUSH2 0x1BE6 JUMPI JUMPDEST PUSH1 0x20 DUP4 LT EQ PUSH2 0x1BD2 JUMPI JUMP JUMPDEST PUSH4 0x4E487B71 PUSH1 0xE0 SHL PUSH0 MSTORE PUSH1 0x22 PUSH1 0x4 MSTORE PUSH1 0x24 PUSH0 REVERT JUMPDEST SWAP2 PUSH1 0x7F AND SWAP2 PUSH2 0x1BC7 JUMP JUMPDEST SWAP1 PUSH0 SWAP2 PUSH1 0x1 SWAP1 PUSH1 0x1 SLOAD PUSH2 0x1C02 DUP2 PUSH2 0x1BB8 JUMP JUMPDEST DUP1 DUP4 MSTORE SWAP3 PUSH1 0x20 SWAP2 PUSH1 0x1 DUP2 AND SWAP1 DUP2 ISZERO PUSH2 0x1C7D JUMPI POP PUSH1 0x1 EQ PUSH2 0x1C23 JUMPI JUMPDEST POP POP POP POP JUMP JUMPDEST SWAP3 SWAP4 SWAP5 POP PUSH1 0x1 PUSH0 MSTORE PUSH32 0xB10E2D527612073B26EECDFD717E6A320CF44B4AFAC2B0732D9FCBE2B7FA0CF6 SWAP3 PUSH0 SWAP4 JUMPDEST DUP6 DUP6 LT PUSH2 0x1C6A JUMPI POP POP POP PUSH1 0x20 SWAP3 POP ADD ADD SWAP1 PUSH0 DUP1 DUP1 DUP1 PUSH2 0x1C1D JUMP JUMPDEST DUP1 SLOAD DUP6 DUP6 ADD DUP5 ADD MSTORE SWAP4 DUP3 ADD SWAP4 DUP2 ADD PUSH2 0x1C50 JUMP JUMPDEST SWAP3 POP POP POP PUSH1 0x20 SWAP4 SWAP5 POP PUSH1 0xFF SWAP3 SWAP2 SWAP3 NOT AND DUP4 DUP4 ADD MSTORE ISZERO ISZERO PUSH1 0x5 SHL ADD ADD SWAP1 PUSH0 DUP1 DUP1 DUP1 PUSH2 0x1C1D JUMP JUMPDEST DUP1 SLOAD PUSH0 SWAP4 SWAP3 PUSH2 0x1CB0 DUP3 PUSH2 0x1BB8 JUMP JUMPDEST SWAP2 DUP3 DUP3 MSTORE PUSH1 0x20 SWAP4 PUSH1 0x1 SWAP2 PUSH1 0x1 DUP2 AND SWAP1 DUP2 PUSH0 EQ PUSH2 0x1D14 JUMPI POP PUSH1 0x1 EQ PUSH2 0x1CD6 JUMPI JUMPDEST POP POP POP POP POP JUMP JUMPDEST SWAP1 SWAP4 SWAP5 SWAP6 POP PUSH0 SWAP3 SWAP2 SWAP3 MSTORE DUP4 PUSH0 KECCAK256 SWAP3 DUP5 PUSH0 SWAP5 JUMPDEST DUP4 DUP7 LT PUSH2 0x1D00 JUMPI POP POP POP POP ADD ADD SWAP1 PUSH0 DUP1 DUP1 DUP1 DUP1 PUSH2 0x1CCF JUMP JUMPDEST DUP1 SLOAD DUP6 DUP8 ADD DUP4 ADD MSTORE SWAP5 ADD SWAP4 DUP6 SWAP1 DUP3 ADD PUSH2 0x1CE8 JUMP JUMPDEST PUSH1 0xFF NOT AND DUP7 DUP6 ADD MSTORE POP POP POP SWAP1 ISZERO ISZERO PUSH1 0x5 SHL ADD ADD SWAP2 POP PUSH0 DUP1 DUP1 DUP1 DUP1 PUSH2 0x1CCF JUMP JUMPDEST PUSH8 0xFFFFFFFFFFFFFFFF DUP2 GT PUSH2 0x19B8 JUMPI PUSH1 0x40 MSTORE JUMP JUMPDEST SWAP1 PUSH1 0x1F DUP1 NOT SWAP2 ADD AND DUP2 ADD SWAP1 DUP2 LT PUSH8 0xFFFFFFFFFFFFFFFF DUP3 GT OR PUSH2 0x19B8 JUMPI PUSH1 0x40 MSTORE JUMP JUMPDEST PUSH8 0xFFFFFFFFFFFFFFFF DUP2 GT PUSH2 0x19B8 JUMPI PUSH1 0x5 SHL PUSH1 0x20 ADD SWAP1 JUMP JUMPDEST ISZERO PUSH2 0x1D88 JUMPI JUMP JUMPDEST PUSH1 0x40 MLOAD PUSH3 0x461BCD PUSH1 0xE5 SHL DUP2 MSTORE PUSH1 0x20 PUSH1 0x4 DUP3 ADD MSTORE PUSH1 0x1D PUSH1 0x24 DUP3 ADD MSTORE PUSH32 0x506F6F6C436F6E74726163743A20706F6F6C206E6F7420616374697665000000 PUSH1 0x44 DUP3 ADD MSTORE PUSH1 0x64 SWAP1 REVERT JUMPDEST SWAP1 DUP2 PUSH1 0x20 SWAP2 SUB SLT PUSH2 0xAF6 JUMPI MLOAD DUP1 ISZERO ISZERO DUP2 SUB PUSH2 0xAF6 JUMPI SWAP1 JUMP JUMPDEST ISZERO PUSH2 0x1DEC JUMPI JUMP JUMPDEST PUSH1 0x40 MLOAD PUSH3 0x461BCD PUSH1 0xE5 SHL DUP2 MSTORE PUSH1 0x20 PUSH1 0x4 DUP3 ADD MSTORE PUSH1 0x22 PUSH1 0x24 DUP3 ADD MSTORE PUSH32 0x506F6F6C436F6E74726163743A2055534443207472616E73666572206661696C PUSH1 0x44 DUP3 ADD MSTORE PUSH2 0x1959 PUSH1 0xF2 SHL PUSH1 0x64 DUP3 ADD MSTORE PUSH1 0x84 SWAP1 REVERT JUMPDEST SWAP2 SWAP1 DUP3 SUB SWAP2 DUP3 GT PUSH2 0x15D4 JUMPI JUMP JUMPDEST PUSH1 0x5 SLOAD DUP1 ISZERO PUSH2 0x1E6D JUMPI PUSH1 0x13 SLOAD PUSH2 0x2710 SWAP1 DUP2 DUP2 MUL SWAP2 DUP2 DUP4 DIV EQ SWAP1 ISZERO OR ISZERO PUSH2 0x15D4 JUMPI DIV SWAP1 JUMP JUMPDEST POP PUSH0 SWAP1 JUMP JUMPDEST PUSH1 0xC SLOAD PUSH1 0x1 PUSH1 0x1 PUSH1 0xA0 SHL SUB SWAP1 DUP2 AND SWAP1 DUP2 ISZERO PUSH2 0x1EE8 JUMPI PUSH1 0x20 SWAP1 PUSH1 0x9 SLOAD AND PUSH1 0x24 PUSH1 0x40 MLOAD DUP1 SWAP5 DUP2 SWAP4 PUSH4 0x70A08231 PUSH1 0xE0 SHL DUP4 MSTORE PUSH1 0x4 DUP4 ADD MSTORE GAS STATICCALL SWAP1 DUP2 ISZERO PUSH2 0x159A JUMPI PUSH0 SWAP2 PUSH2 0x1EB9 JUMPI POP SWAP1 JUMP JUMPDEST SWAP1 POP PUSH1 0x20 DUP2 RETURNDATASIZE PUSH1 0x20 GT PUSH2 0x1EE0 JUMPI JUMPDEST DUP2 PUSH2 0x1ED4 PUSH1 0x20 SWAP4 DUP4 PUSH2 0x1D47 JUMP JUMPDEST DUP2 ADD SUB SLT PUSH2 0xAF6 JUMPI MLOAD SWAP1 JUMP JUMPDEST RETURNDATASIZE SWAP2 POP PUSH2 0x1EC7 JUMP JUMPDEST POP POP PUSH0 SWAP1 JUMP JUMPDEST SWAP2 SWAP1 DUP3 ADD DUP1 SWAP3 GT PUSH2 0x15D4 JUMPI JUMP JUMPDEST ISZERO SWAP1 DUP2 PUSH2 0x1F6C JUMPI JUMPDEST POP PUSH2 0x1F5D JUMPI PUSH1 0x40 MLOAD PUSH3 0x461BCD PUSH1 0xE5 SHL DUP2 MSTORE PUSH1 0x20 PUSH1 0x4 DUP3 ADD MSTORE PUSH1 0x27 PUSH1 0x24 DUP3 ADD MSTORE PUSH32 0x506F6F6C436F6E74726163743A20656E756D65726174696F6E206E6F74207375 PUSH1 0x44 DUP3 ADD MSTORE PUSH7 0x1C1C1BDC9D1959 PUSH1 0xCA SHL PUSH1 0x64 DUP3 ADD MSTORE PUSH1 0x84 SWAP1 REVERT JUMPDEST PUSH1 0x9 SLOAD PUSH1 0x1 PUSH1 0x1 PUSH1 0xA0 SHL SUB AND SWAP1 JUMP JUMPDEST SWAP1 POP ISZERO PUSH0 PUSH2 0x1F03 JUMP JUMPDEST DUP1 PUSH0 MSTORE PUSH0 PUSH1 0x20 MSTORE PUSH1 0x40 PUSH0 KECCAK256 CALLER PUSH0 MSTORE PUSH1 0x20 MSTORE PUSH1 0xFF PUSH1 0x40 PUSH0 KECCAK256 SLOAD AND ISZERO PUSH2 0x1103 JUMPI POP JUMP JUMPDEST PUSH1 0x1 PUSH1 0x1 PUSH1 0xA0 SHL SUB AND PUSH0 DUP2 DUP2 MSTORE PUSH32 0xE2D1E94F75A79EBB420050D390C778587704A86B01C12DE38AAEDEE2723D5277 PUSH1 0x20 MSTORE PUSH1 0x40 SWAP1 KECCAK256 SLOAD PUSH32 0xB165298935924F540E4181C03493A5D686C54A0AAEB3F6216DE85B7FFBBA7738 SWAP2 SWAP1 PUSH1 0xFF AND PUSH2 0x1EE8 JUMPI DUP2 PUSH0 MSTORE PUSH0 PUSH1 0x20 MSTORE PUSH1 0x40 PUSH0 KECCAK256 DUP2 PUSH0 MSTORE PUSH1 0x20 MSTORE PUSH1 0x40 PUSH0 KECCAK256 PUSH1 0x1 PUSH1 0xFF NOT DUP3 SLOAD AND OR SWAP1 SSTORE CALLER SWAP2 PUSH32 0x2F8788117E7EFF1D82E926EC794901D17C78024A50270940304540A733656F0D PUSH0 DUP1 LOG4 PUSH1 0x1 SWAP1 JUMP JUMPDEST SWAP1 DUP2 PUSH0 MSTORE PUSH0 PUSH1 0x20 MSTORE PUSH1 0x40 PUSH0 KECCAK256 SWAP1 PUSH1 0x1 DUP1 PUSH1 0xA0 SHL SUB AND SWAP1 DUP2 PUSH0 MSTORE PUSH1 0x20 MSTORE PUSH1 0xFF PUSH1 0x40 PUSH0 KECCAK256 SLOAD AND ISZERO PUSH0 EQ PUSH2 0x1EE8 JUMPI DUP2 PUSH0 MSTORE PUSH0 PUSH1 0x20 MSTORE PUSH1 0x40 PUSH0 KECCAK256 DUP2 PUSH0 MSTORE PUSH1 0x20 MSTORE PUSH1 0x40 PUSH0 KECCAK256 PUSH1 0x1 PUSH1 0xFF NOT DUP3 SLOAD AND OR SWAP1 SSTORE CALLER SWAP2 PUSH32 0x2F8788117E7EFF1D82E926EC794901D17C78024A50270940304540A733656F0D PUSH0 DUP1 LOG4 PUSH1 0x1 SWAP1 JUMP JUMPDEST SWAP1 DUP2 PUSH0 MSTORE PUSH0 PUSH1 0x20 MSTORE PUSH1 0x40 PUSH0 KECCAK256 SWAP1 PUSH1 0x1 DUP1 PUSH1 0xA0 SHL SUB AND SWAP1 DUP2 PUSH0 MSTORE PUSH1 0x20 MSTORE PUSH1 0xFF PUSH1 0x40 PUSH0 KECCAK256 SLOAD AND PUSH0 EQ PUSH2 0x1EE8 JUMPI DUP2 PUSH0 MSTORE PUSH0 PUSH1 0x20 MSTORE PUSH1 0x40 PUSH0 KECCAK256 DUP2 PUSH0 MSTORE PUSH1 0x20 MSTORE PUSH1 0x40 PUSH0 KECCAK256 PUSH1 0xFF NOT DUP2 SLOAD AND SWAP1 SSTORE CALLER SWAP2 PUSH32 0xF6391F5C32D9C69D2A47EA670B442974B53935D1EDC7FD64EB21E047A839171B PUSH0 DUP1 LOG4 PUSH1 0x1 SWAP1 JUMP JUMPDEST PUSH0 DUP1 MLOAD PUSH1 0x20 PUSH2 0x39AF DUP4 CODECOPY DUP2 MLOAD SWAP2 MSTORE PUSH1 0x2 DUP2 SLOAD EQ PUSH2 0x2146 JUMPI PUSH1 0x2 SWAP1 SSTORE JUMP JUMPDEST PUSH1 0x40 MLOAD PUSH4 0x3EE5AEB5 PUSH1 0xE0 SHL DUP2 MSTORE PUSH1 0x4 SWAP1 REVERT JUMPDEST SWAP1 DUP2 MLOAD DUP2 LT ISZERO PUSH2 0x1B80 JUMPI ADD PUSH1 0x20 ADD SWAP1 JUMP JUMPDEST PUSH1 0x3 DUP2 MLOAD LT ISZERO PUSH2 0x2176 JUMPI SWAP1 JUMP JUMPDEST PUSH1 0x40 MLOAD SWAP1 PUSH1 0x40 DUP3 ADD DUP3 DUP2 LT PUSH8 0xFFFFFFFFFFFFFFFF DUP3 GT OR PUSH2 0x19B8 JUMPI PUSH1 0x40 MSTORE PUSH1 0x3 DUP3 MSTORE PUSH1 0x20 DUP3 ADD SWAP1 PUSH1 0x20 CALLDATASIZE DUP4 CALLDATACOPY DUP1 MLOAD PUSH1 0x2 NOT DUP2 ADD SWAP3 SWAP1 DUP4 GT PUSH2 0x15D4 JUMPI PUSH1 0x1 PUSH1 0x1 PUSH1 0xF8 SHL SUB NOT SWAP3 DUP4 SWAP1 PUSH2 0x21C7 SWAP1 DUP5 PUSH2 0x2158 JUMP JUMPDEST MLOAD AND DUP5 MLOAD ISZERO PUSH2 0x1B80 JUMPI PUSH0 BYTE SWAP1 MSTORE8 DUP1 MLOAD PUSH1 0x1 NOT DUP2 ADD SWAP1 DUP2 GT PUSH2 0x15D4 JUMPI PUSH2 0x21ED DUP4 SWAP2 DUP4 PUSH2 0x2158 JUMP JUMPDEST MLOAD AND PUSH0 BYTE DUP4 MLOAD PUSH1 0x1 LT ISZERO PUSH2 0x1B80 JUMPI PUSH1 0x21 DUP5 ADD MSTORE8 DUP1 MLOAD PUSH0 NOT DUP2 ADD SWAP1 DUP2 GT PUSH2 0x15D4 JUMPI PUSH2 0x2216 SWAP2 PUSH2 0x2158 JUMP JUMPDEST MLOAD AND PUSH0 BYTE DUP2 MLOAD PUSH1 0x2 LT ISZERO PUSH2 0x1B80 JUMPI PUSH1 0x22 DUP3 ADD MSTORE8 SWAP1 JUMP INVALID PUSH1 0x40 PUSH1 0x80 DUP2 MSTORE CALLVALUE PUSH2 0x4B2 JUMPI PUSH2 0x1782 DUP1 CODESIZE SUB DUP1 PUSH2 0x1A DUP2 PUSH2 0x4B6 JUMP JUMPDEST SWAP3 DUP4 CODECOPY DUP2 ADD PUSH1 0xA0 DUP3 DUP3 SUB SLT PUSH2 0x4B2 JUMPI DUP2 MLOAD PUSH1 0x1 PUSH1 0x1 PUSH1 0x40 SHL SUB SWAP2 SWAP1 DUP3 DUP2 GT PUSH2 0x4B2 JUMPI DUP2 PUSH2 0x48 SWAP2 DUP6 ADD PUSH2 0x4DB JUMP JUMPDEST SWAP2 PUSH1 0x20 SWAP2 DUP3 DUP6 ADD MLOAD SWAP1 DUP3 DUP3 GT PUSH2 0x4B2 JUMPI PUSH2 0x63 SWAP2 DUP7 ADD PUSH2 0x4DB JUMP JUMPDEST PUSH2 0x6E DUP7 DUP7 ADD PUSH2 0x52C JUMP JUMPDEST SWAP3 PUSH2 0x87 PUSH1 0x80 PUSH2 0x80 PUSH1 0x60 DUP10 ADD PUSH2 0x52C JUMP JUMPDEST SWAP8 ADD PUSH2 0x52C JUMP JUMPDEST SWAP3 DUP6 MLOAD SWAP6 DUP2 DUP8 GT PUSH2 0x3D6 JUMPI PUSH1 0x3 SWAP1 DUP2 SLOAD SWAP5 PUSH1 0x1 SWAP9 DUP10 DUP8 DUP2 SHR SWAP8 AND DUP1 ISZERO PUSH2 0x4A8 JUMPI JUMPDEST DUP7 DUP9 LT EQ PUSH2 0x494 JUMPI PUSH1 0x1F SWAP7 DUP8 DUP2 GT PUSH2 0x451 JUMPI JUMPDEST POP DUP1 DUP7 DUP9 DUP3 GT PUSH1 0x1 EQ PUSH2 0x3F5 JUMPI PUSH0 SWAP2 PUSH2 0x3EA JUMPI JUMPDEST POP PUSH0 NOT DUP3 DUP7 SHL SHR NOT AND SWAP1 DUP11 SHL OR DUP4 SSTORE JUMPDEST DUP1 MLOAD DUP5 DUP2 GT PUSH2 0x3D6 JUMPI PUSH1 0x4 SWAP2 DUP3 SLOAD DUP12 DUP2 DUP2 SHR SWAP2 AND DUP1 ISZERO PUSH2 0x3CC JUMPI JUMPDEST DUP9 DUP3 LT EQ PUSH2 0x3B9 JUMPI SWAP1 DUP2 DUP10 DUP5 SWAP4 GT PUSH2 0x36B JUMPI JUMPDEST POP DUP8 SWAP1 DUP10 DUP4 GT PUSH1 0x1 EQ PUSH2 0x304 JUMPI PUSH0 SWAP3 PUSH2 0x2F9 JUMPI JUMPDEST POP POP PUSH0 NOT DUP3 DUP7 SHL SHR NOT AND SWAP1 DUP11 SHL OR DUP2 SSTORE JUMPDEST DUP2 MLOAD SWAP4 DUP5 GT PUSH2 0x2E6 JUMPI PUSH1 0x6 SLOAD SWAP1 DUP10 DUP3 DUP2 SHR SWAP3 AND DUP1 ISZERO PUSH2 0x2DC JUMPI JUMPDEST DUP7 DUP4 LT EQ PUSH2 0x2C9 JUMPI POP DUP6 DUP2 GT PUSH2 0x285 JUMPI JUMPDEST POP DUP4 SWAP5 DUP4 GT PUSH1 0x1 EQ PUSH2 0x221 JUMPI PUSH1 0x8 SWAP5 PUSH0 SWAP3 SWAP2 DUP5 PUSH2 0x216 JUMPI JUMPDEST POP POP DUP3 DUP9 SHL SWAP3 PUSH0 NOT SWAP2 SHL SHR NOT AND OR PUSH1 0x6 SSTORE JUMPDEST PUSH1 0x7 DUP1 SLOAD PUSH1 0x1 PUSH1 0x1 PUSH1 0xA0 SHL SUB NOT AND PUSH1 0x1 PUSH1 0x1 PUSH1 0xA0 SHL SUB DUP7 DUP2 AND SWAP2 DUP3 OR SWAP1 SWAP3 SSTORE SWAP1 SWAP5 PUSH2 0x1C5 SWAP1 PUSH2 0x1B5 DUP7 PUSH2 0x540 JUMP JUMPDEST POP PUSH2 0x1BF DUP2 PUSH2 0x5AC JUMP JUMPDEST POP PUSH2 0x64B JUMP JUMPDEST POP PUSH2 0x1CF DUP8 PUSH2 0x64B JUMP JUMPDEST POP PUSH2 0x1D9 DUP5 PUSH2 0x64B JUMP JUMPDEST POP PUSH0 MSTORE MSTORE DUP2 DUP6 PUSH0 KECCAK256 SWAP5 PUSH1 0xFF NOT SWAP6 DUP6 DUP8 DUP3 SLOAD AND OR SWAP1 SSTORE AND PUSH0 MSTORE DUP5 PUSH0 KECCAK256 DUP4 DUP6 DUP3 SLOAD AND OR SWAP1 SSTORE AND PUSH0 MSTORE DUP3 PUSH0 KECCAK256 SWAP2 DUP3 SLOAD AND OR SWAP1 SSTORE MLOAD PUSH2 0x105D SWAP1 DUP2 PUSH2 0x6E5 DUP3 CODECOPY RETURN JUMPDEST ADD MLOAD SWAP2 POP PUSH0 DUP1 PUSH2 0x175 JUMP JUMPDEST DUP8 SWAP3 SWAP2 PUSH1 0x1F NOT DUP4 AND SWAP6 PUSH1 0x6 PUSH0 MSTORE DUP6 PUSH0 KECCAK256 SWAP3 PUSH0 JUMPDEST DUP9 DUP2 LT PUSH2 0x26E JUMPI POP DUP5 PUSH1 0x8 SWAP9 LT PUSH2 0x255 JUMPI JUMPDEST POP POP POP POP DUP2 SHL ADD PUSH1 0x6 SSTORE PUSH2 0x187 JUMP JUMPDEST ADD MLOAD SWAP1 PUSH1 0xF8 DUP5 PUSH0 NOT SWAP3 SHL AND SHR NOT AND SWAP1 SSTORE PUSH0 DUP1 DUP1 DUP1 PUSH2 0x246 JUMP JUMPDEST DUP2 DUP4 ADD MLOAD DUP6 SSTORE DUP12 SWAP7 SWAP1 SWAP5 ADD SWAP4 SWAP2 DUP8 ADD SWAP2 DUP8 ADD PUSH2 0x234 JUMP JUMPDEST PUSH1 0x6 PUSH0 MSTORE DUP5 PUSH0 KECCAK256 DUP7 DUP1 DUP7 ADD PUSH1 0x5 SHR DUP3 ADD SWAP3 DUP8 DUP8 LT PUSH2 0x2C0 JUMPI JUMPDEST ADD PUSH1 0x5 SHR ADD SWAP1 DUP10 SWAP1 JUMPDEST DUP3 DUP2 LT PUSH2 0x2B5 JUMPI POP POP PUSH2 0x15D JUMP JUMPDEST PUSH0 DUP2 SSTORE ADD DUP10 SWAP1 PUSH2 0x2A7 JUMP JUMPDEST SWAP3 POP DUP2 SWAP3 PUSH2 0x29E JUMP JUMPDEST PUSH1 0x22 SWAP1 PUSH4 0x4E487B71 PUSH1 0xE0 SHL PUSH0 MSTORE MSTORE PUSH1 0x24 PUSH0 REVERT JUMPDEST SWAP2 PUSH1 0x7F AND SWAP2 PUSH2 0x14C JUMP JUMPDEST PUSH1 0x41 SWAP1 PUSH4 0x4E487B71 PUSH1 0xE0 SHL PUSH0 MSTORE MSTORE PUSH1 0x24 PUSH0 REVERT JUMPDEST ADD MLOAD SWAP1 POP PUSH0 DUP1 PUSH2 0x121 JUMP JUMPDEST SWAP1 DUP13 SWAP4 POP PUSH1 0x1F NOT DUP4 AND SWAP2 DUP6 PUSH0 MSTORE DUP10 PUSH0 KECCAK256 SWAP3 PUSH0 JUMPDEST DUP12 DUP3 DUP3 LT PUSH2 0x34C JUMPI POP POP DUP5 GT PUSH2 0x335 JUMPI JUMPDEST POP POP POP DUP2 SHL ADD DUP2 SSTORE PUSH2 0x132 JUMP JUMPDEST ADD MLOAD PUSH0 NOT DUP4 DUP9 SHL PUSH1 0xF8 AND SHR NOT AND SWAP1 SSTORE PUSH0 DUP1 DUP1 PUSH2 0x328 JUMP JUMPDEST SWAP2 SWAP3 SWAP4 SWAP6 SWAP7 DUP3 SWAP2 SWAP6 DUP8 DUP7 ADD MLOAD DUP2 SSTORE ADD SWAP6 ADD SWAP4 ADD SWAP1 DUP15 SWAP6 SWAP5 SWAP4 SWAP3 SWAP2 PUSH2 0x317 JUMP JUMPDEST SWAP1 SWAP2 POP DUP4 PUSH0 MSTORE DUP8 PUSH0 KECCAK256 DUP10 DUP1 DUP6 ADD PUSH1 0x5 SHR DUP3 ADD SWAP3 DUP11 DUP7 LT PUSH2 0x3B0 JUMPI JUMPDEST SWAP2 DUP15 SWAP2 DUP7 SWAP6 SWAP5 SWAP4 ADD PUSH1 0x5 SHR ADD SWAP2 JUMPDEST DUP3 DUP2 LT PUSH2 0x3A2 JUMPI POP POP PUSH2 0x10D JUMP JUMPDEST PUSH0 DUP2 SSTORE DUP6 SWAP5 POP DUP15 SWAP2 ADD PUSH2 0x394 JUMP JUMPDEST SWAP3 POP DUP2 SWAP3 PUSH2 0x386 JUMP JUMPDEST PUSH1 0x22 DUP5 PUSH4 0x4E487B71 PUSH1 0xE0 SHL PUSH0 MSTORE MSTORE PUSH1 0x24 PUSH0 REVERT JUMPDEST SWAP1 PUSH1 0x7F AND SWAP1 PUSH2 0xFA JUMP JUMPDEST PUSH4 0x4E487B71 PUSH1 0xE0 SHL PUSH0 MSTORE PUSH1 0x41 PUSH1 0x4 MSTORE PUSH1 0x24 PUSH0 REVERT JUMPDEST SWAP1 POP DUP4 ADD MLOAD PUSH0 PUSH2 0xCF JUMP JUMPDEST DUP12 SWAP3 POP PUSH1 0x1F NOT DUP3 AND SWAP1 DUP7 PUSH0 MSTORE DUP9 PUSH0 KECCAK256 SWAP2 PUSH0 JUMPDEST DUP11 DUP3 DUP3 LT PUSH2 0x43B JUMPI POP POP DUP4 GT PUSH2 0x424 JUMPI JUMPDEST POP POP DUP2 SHL ADD DUP4 SSTORE PUSH2 0xDF JUMP JUMPDEST DUP6 ADD MLOAD PUSH0 NOT DUP4 DUP9 SHL PUSH1 0xF8 AND SHR NOT AND SWAP1 SSTORE PUSH0 DUP1 PUSH2 0x418 JUMP JUMPDEST DUP4 DUP10 ADD MLOAD DUP6 SSTORE DUP16 SWAP7 SWAP1 SWAP5 ADD SWAP4 SWAP3 DUP4 ADD SWAP3 ADD PUSH2 0x407 JUMP JUMPDEST DUP5 PUSH0 MSTORE DUP7 PUSH0 KECCAK256 DUP9 DUP1 DUP5 ADD PUSH1 0x5 SHR DUP3 ADD SWAP3 DUP10 DUP6 LT PUSH2 0x48B JUMPI JUMPDEST ADD PUSH1 0x5 SHR ADD SWAP1 DUP12 SWAP1 JUMPDEST DUP3 DUP2 LT PUSH2 0x480 JUMPI POP POP PUSH2 0xBB JUMP JUMPDEST PUSH0 DUP2 SSTORE ADD DUP12 SWAP1 PUSH2 0x472 JUMP JUMPDEST SWAP3 POP DUP2 SWAP3 PUSH2 0x469 JUMP JUMPDEST PUSH4 0x4E487B71 PUSH1 0xE0 SHL PUSH0 MSTORE PUSH1 0x22 PUSH1 0x4 MSTORE PUSH1 0x24 PUSH0 REVERT JUMPDEST SWAP7 PUSH1 0x7F AND SWAP7 PUSH2 0xA8 JUMP JUMPDEST PUSH0 DUP1 REVERT JUMPDEST PUSH1 0x40 MLOAD SWAP2 SWAP1 PUSH1 0x1F ADD PUSH1 0x1F NOT AND DUP3 ADD PUSH1 0x1 PUSH1 0x1 PUSH1 0x40 SHL SUB DUP2 GT DUP4 DUP3 LT OR PUSH2 0x3D6 JUMPI PUSH1 0x40 MSTORE JUMP JUMPDEST DUP2 PUSH1 0x1F DUP3 ADD SLT ISZERO PUSH2 0x4B2 JUMPI DUP1 MLOAD SWAP1 PUSH1 0x1 PUSH1 0x1 PUSH1 0x40 SHL SUB DUP3 GT PUSH2 0x3D6 JUMPI PUSH2 0x50A PUSH1 0x1F DUP4 ADD PUSH1 0x1F NOT AND PUSH1 0x20 ADD PUSH2 0x4B6 JUMP JUMPDEST SWAP3 DUP3 DUP5 MSTORE PUSH1 0x20 DUP4 DUP4 ADD ADD GT PUSH2 0x4B2 JUMPI DUP2 PUSH0 SWAP3 PUSH1 0x20 DUP1 SWAP4 ADD DUP4 DUP7 ADD MCOPY DUP4 ADD ADD MSTORE SWAP1 JUMP JUMPDEST MLOAD SWAP1 PUSH1 0x1 PUSH1 0x1 PUSH1 0xA0 SHL SUB DUP3 AND DUP3 SUB PUSH2 0x4B2 JUMPI JUMP JUMPDEST PUSH1 0x1 PUSH1 0x1 PUSH1 0xA0 SHL SUB AND PUSH0 DUP2 DUP2 MSTORE PUSH0 DUP1 MLOAD PUSH1 0x20 PUSH2 0x1762 DUP4 CODECOPY DUP2 MLOAD SWAP2 MSTORE PUSH1 0x20 MSTORE PUSH1 0x40 SWAP1 KECCAK256 SLOAD PUSH1 0xFF AND PUSH2 0x5A7 JUMPI PUSH0 DUP2 DUP2 MSTORE PUSH0 DUP1 MLOAD PUSH1 0x20 PUSH2 0x1762 DUP4 CODECOPY DUP2 MLOAD SWAP2 MSTORE PUSH1 0x20 MSTORE PUSH1 0x40 DUP2 KECCAK256 DUP1 SLOAD PUSH1 0xFF NOT AND PUSH1 0x1 OR SWAP1 SSTORE CALLER SWAP2 SWAP1 PUSH0 DUP1 MLOAD PUSH1 0x20 PUSH2 0x1742 DUP4 CODECOPY DUP2 MLOAD SWAP2 MSTORE DUP2 DUP1 LOG4 PUSH1 0x1 SWAP1 JUMP JUMPDEST POP PUSH0 SWAP1 JUMP JUMPDEST PUSH1 0x1 PUSH1 0x1 PUSH1 0xA0 SHL SUB AND PUSH0 DUP2 DUP2 MSTORE PUSH32 0xA76130CBFFD9B33B64B573944AD05ADB12481247304469BEE8AC721996FC8234 PUSH1 0x20 MSTORE PUSH1 0x40 SWAP1 KECCAK256 SLOAD PUSH32 0x9C81408027135C0110A5451971BDD98DBF60C57E65D8CD78B7E1C47105A3EE35 SWAP2 SWAP1 PUSH1 0xFF AND PUSH2 0x645 JUMPI DUP2 PUSH0 MSTORE PUSH1 0x5 PUSH1 0x20 MSTORE PUSH1 0x40 PUSH0 KECCAK256 DUP2 PUSH0 MSTORE PUSH1 0x20 MSTORE PUSH1 0x40 PUSH0 KECCAK256 PUSH1 0x1 PUSH1 0xFF NOT DUP3 SLOAD AND OR SWAP1 SSTORE CALLER SWAP2 PUSH0 DUP1 MLOAD PUSH1 0x20 PUSH2 0x1742 DUP4 CODECOPY DUP2 MLOAD SWAP2 MSTORE PUSH0 DUP1 LOG4 PUSH1 0x1 SWAP1 JUMP JUMPDEST POP POP PUSH0 SWAP1 JUMP JUMPDEST PUSH1 0x1 PUSH1 0x1 PUSH1 0xA0 SHL SUB AND PUSH0 DUP2 DUP2 MSTORE PUSH32 0x45E747EC8B3EF9FBF0DBC91852A1B6406D924C58BBAA8D947CDE92D189A84485 PUSH1 0x20 MSTORE PUSH1 0x40 SWAP1 KECCAK256 SLOAD PUSH32 0x2A3DAB589BCC9747970DD85AC3F222668741AE51F2A1BBB8F8355BE28DD8A868 SWAP2 SWAP1 PUSH1 0xFF AND PUSH2 0x645 JUMPI DUP2 PUSH0 MSTORE PUSH1 0x5 PUSH1 0x20 MSTORE PUSH1 0x40 PUSH0 KECCAK256 DUP2 PUSH0 MSTORE PUSH1 0x20 MSTORE PUSH1 0x40 PUSH0 KECCAK256 PUSH1 0x1 PUSH1 0xFF NOT DUP3 SLOAD AND OR SWAP1 SSTORE CALLER SWAP2 PUSH0 DUP1 MLOAD PUSH1 0x20 PUSH2 0x1742 DUP4 CODECOPY DUP2 MLOAD SWAP2 MSTORE PUSH0 DUP1 LOG4 PUSH1 0x1 SWAP1 JUMP INVALID PUSH1 0x80 PUSH1 0x40 DUP2 DUP2 MSTORE PUSH1 0x4 SWAP2 DUP3 CALLDATASIZE LT ISZERO PUSH2 0x15 JUMPI PUSH0 DUP1 REVERT JUMPDEST PUSH0 CALLDATALOAD PUSH1 0xE0 SHR SWAP1 DUP2 PUSH3 0x9597E0 EQ PUSH2 0xC21 JUMPI POP DUP1 PUSH4 0x1FFC9A7 EQ PUSH2 0xBCD JUMPI DUP1 PUSH4 0x6FDDE03 EQ PUSH2 0xAF2 JUMPI DUP1 PUSH4 0x95EA7B3 EQ PUSH2 0xA4A JUMPI DUP1 PUSH4 0x18160DDD EQ PUSH2 0xA2C JUMPI DUP1 PUSH4 0x23B872DD EQ PUSH2 0x93A JUMPI DUP1 PUSH4 0x248A9CA3 EQ PUSH2 0x910 JUMPI DUP1 PUSH4 0x2F2FF15D EQ PUSH2 0x8E8 JUMPI DUP1 PUSH4 0x313CE567 EQ PUSH2 0x8CD JUMPI DUP1 PUSH4 0x36568ABE EQ PUSH2 0x889 JUMPI DUP1 PUSH4 0x40C10F19 EQ PUSH2 0x70F JUMPI DUP1 PUSH4 0x70A08231 EQ PUSH2 0x6D9 JUMPI DUP1 PUSH4 0x7295ED93 EQ PUSH2 0x69F JUMPI DUP1 PUSH4 0x88D52EF7 EQ PUSH2 0x677 JUMPI DUP1 PUSH4 0x8AB1D681 EQ PUSH2 0x611 JUMPI DUP1 PUSH4 0x91D14854 EQ PUSH2 0x5CD JUMPI DUP1 PUSH4 0x95D89B41 EQ PUSH2 0x4F5 JUMPI DUP1 PUSH4 0x9DC29FAC EQ PUSH2 0x3CA JUMPI DUP1 PUSH4 0xA217FDDF EQ PUSH2 0x3B0 JUMPI DUP1 PUSH4 0xA9059CBB EQ PUSH2 0x380 JUMPI DUP1 PUSH4 0xD547741F EQ PUSH2 0x344 JUMPI DUP1 PUSH4 0xD936547E EQ PUSH2 0x308 JUMPI DUP1 PUSH4 0xDD62ED3E EQ PUSH2 0x2BF JUMPI DUP1 PUSH4 0xE43252D7 EQ PUSH2 0x256 JUMPI PUSH4 0xF3466DFA EQ PUSH2 0x131 JUMPI PUSH0 DUP1 REVERT JUMPDEST CALLVALUE PUSH2 0x252 JUMPI PUSH0 CALLDATASIZE PUSH1 0x3 NOT ADD SLT PUSH2 0x252 JUMPI DUP1 MLOAD SWAP1 PUSH0 PUSH1 0x6 SLOAD PUSH1 0x1 DUP2 PUSH1 0x1 SHR SWAP1 PUSH1 0x1 DUP4 AND SWAP3 DUP4 ISZERO PUSH2 0x248 JUMPI JUMPDEST PUSH1 0x20 SWAP4 DUP5 DUP5 LT DUP2 EQ PUSH2 0x235 JUMPI DUP4 DUP9 MSTORE SWAP1 DUP2 ISZERO PUSH2 0x219 JUMPI POP PUSH1 0x1 EQ PUSH2 0x1C3 JUMPI JUMPDEST POP POP POP DUP3 SWAP1 SUB PUSH1 0x1F ADD PUSH1 0x1F NOT AND DUP3 ADD SWAP3 PUSH8 0xFFFFFFFFFFFFFFFF DUP5 GT DUP4 DUP6 LT OR PUSH2 0x1B0 JUMPI POP DUP3 SWAP2 DUP3 PUSH2 0x1AC SWAP3 MSTORE DUP3 PUSH2 0xC59 JUMP JUMPDEST SUB SWAP1 RETURN JUMPDEST PUSH1 0x41 SWAP1 PUSH4 0x4E487B71 PUSH1 0xE0 SHL PUSH0 MSTORE MSTORE PUSH1 0x24 PUSH0 REVERT JUMPDEST PUSH1 0x6 PUSH0 SWAP1 DUP2 MSTORE SWAP3 SWAP4 POP DUP4 PUSH32 0xF652222313E28459528D920B65115C16C04F3EFC82AAEDC97BE59F3F377C0D3F JUMPDEST DUP4 DUP6 LT PUSH2 0x205 JUMPI POP POP POP POP DUP4 ADD ADD PUSH0 DUP1 DUP1 PUSH2 0x17A JUMP JUMPDEST DUP1 SLOAD DUP9 DUP7 ADD DUP4 ADD MSTORE SWAP4 ADD SWAP3 DUP5 SWAP1 DUP3 ADD PUSH2 0x1EF JUMP JUMPDEST PUSH1 0xFF NOT AND DUP8 DUP6 ADD MSTORE POP POP ISZERO ISZERO PUSH1 0x5 SHL DUP5 ADD ADD SWAP1 POP PUSH0 DUP1 DUP1 PUSH2 0x17A JUMP JUMPDEST PUSH1 0x22 DUP10 PUSH4 0x4E487B71 PUSH1 0xE0 SHL PUSH0 MSTORE MSTORE PUSH1 0x24 PUSH0 REVERT JUMPDEST SWAP2 PUSH1 0x7F AND SWAP2 PUSH2 0x15B JUMP JUMPDEST PUSH0 DUP1 REVERT JUMPDEST POP CALLVALUE PUSH2 0x252 JUMPI PUSH1 0x20 CALLDATASIZE PUSH1 0x3 NOT ADD SLT PUSH2 0x252 JUMPI PUSH2 0x270 PUSH2 0xC83 JUMP JUMPDEST PUSH2 0x278 PUSH2 0xEB8 JUMP JUMPDEST PUSH1 0x1 PUSH1 0x1 PUSH1 0xA0 SHL SUB AND PUSH0 DUP2 DUP2 MSTORE PUSH1 0x8 PUSH1 0x20 MSTORE SWAP2 DUP3 KECCAK256 DUP1 SLOAD PUSH1 0xFF NOT AND PUSH1 0x1 OR SWAP1 SSTORE SWAP1 PUSH32 0x4F783C179409B4127238BC9C990BC99B9A651666A0D20B51D6C42849EB88466D SWAP1 DUP1 LOG2 STOP JUMPDEST POP CALLVALUE PUSH2 0x252 JUMPI DUP1 PUSH1 0x3 NOT CALLDATASIZE ADD SLT PUSH2 0x252 JUMPI PUSH1 0x20 SWAP1 PUSH2 0x2DB PUSH2 0xC83 JUMP JUMPDEST PUSH2 0x2E3 PUSH2 0xC99 JUMP JUMPDEST SWAP1 PUSH1 0x1 DUP1 PUSH1 0xA0 SHL SUB DUP1 SWAP2 AND PUSH0 MSTORE PUSH1 0x1 DUP5 MSTORE DUP3 PUSH0 KECCAK256 SWAP2 AND PUSH0 MSTORE DUP3 MSTORE DUP1 PUSH0 KECCAK256 SLOAD SWAP1 MLOAD SWAP1 DUP2 MSTORE RETURN JUMPDEST POP CALLVALUE PUSH2 0x252 JUMPI PUSH1 0x20 CALLDATASIZE PUSH1 0x3 NOT ADD SLT PUSH2 0x252 JUMPI PUSH1 0x20 SWAP1 PUSH1 0x1 PUSH1 0x1 PUSH1 0xA0 SHL SUB PUSH2 0x32D PUSH2 0xC83 JUMP JUMPDEST AND PUSH0 MSTORE PUSH1 0x8 DUP3 MSTORE PUSH1 0xFF DUP2 PUSH0 KECCAK256 SLOAD AND SWAP1 MLOAD SWAP1 ISZERO ISZERO DUP2 MSTORE RETURN JUMPDEST POP CALLVALUE PUSH2 0x252 JUMPI DUP1 PUSH1 0x3 NOT CALLDATASIZE ADD SLT PUSH2 0x252 JUMPI PUSH2 0x37E SWAP2 CALLDATALOAD PUSH2 0x379 PUSH1 0x1 PUSH2 0x367 PUSH2 0xC99 JUMP JUMPDEST SWAP4 DUP4 PUSH0 MSTORE PUSH1 0x5 PUSH1 0x20 MSTORE PUSH0 KECCAK256 ADD SLOAD PUSH2 0xF13 JUMP JUMPDEST PUSH2 0xFB3 JUMP JUMPDEST STOP JUMPDEST POP CALLVALUE PUSH2 0x252 JUMPI DUP1 PUSH1 0x3 NOT CALLDATASIZE ADD SLT PUSH2 0x252 JUMPI PUSH1 0x20 SWAP1 PUSH2 0x3A9 PUSH2 0x39F PUSH2 0xC83 JUMP JUMPDEST PUSH1 0x24 CALLDATALOAD SWAP1 CALLER PUSH2 0xCAF JUMP JUMPDEST MLOAD PUSH1 0x1 DUP2 MSTORE RETURN JUMPDEST POP CALLVALUE PUSH2 0x252 JUMPI PUSH0 CALLDATASIZE PUSH1 0x3 NOT ADD SLT PUSH2 0x252 JUMPI PUSH1 0x20 SWAP1 MLOAD PUSH0 DUP2 MSTORE RETURN JUMPDEST POP SWAP1 CALLVALUE PUSH2 0x252 JUMPI DUP2 PUSH1 0x3 NOT CALLDATASIZE ADD SLT PUSH2 0x252 JUMPI PUSH2 0x3E4 PUSH2 0xC83 JUMP JUMPDEST PUSH1 0x24 CALLDATALOAD PUSH2 0x3EF PUSH2 0xE3F JUMP JUMPDEST PUSH1 0x1 PUSH1 0x1 PUSH1 0xA0 SHL SUB DUP3 AND SWAP3 DUP4 ISZERO PUSH2 0x4DF JUMPI DUP4 PUSH0 MSTORE PUSH1 0x20 SWAP3 PUSH1 0x8 DUP5 MSTORE PUSH1 0xFF DUP7 PUSH0 KECCAK256 SLOAD AND ISZERO PUSH2 0x49E JUMPI DUP5 PUSH0 MSTORE PUSH0 DUP5 MSTORE DUP6 PUSH0 KECCAK256 SLOAD SWAP2 DUP4 DUP4 LT PUSH2 0x46A JUMPI PUSH0 DUP7 PUSH32 0xDDF252AD1BE2C89B69C2B068FC378DAA952BA7F163C4A11628F55A4DF523B3EF DUP8 DUP8 DUP12 DUP2 DUP10 DUP7 DUP9 MSTORE DUP8 DUP6 MSTORE SUB DUP2 DUP8 KECCAK256 SSTORE DUP2 PUSH1 0x2 SLOAD SUB PUSH1 0x2 SSTORE MLOAD SWAP1 DUP2 MSTORE LOG3 STOP JUMPDEST DUP7 MLOAD PUSH4 0x391434E3 PUSH1 0xE2 SHL DUP2 MSTORE PUSH1 0x1 PUSH1 0x1 PUSH1 0xA0 SHL SUB SWAP1 SWAP3 AND SWAP1 DUP3 ADD SWAP1 DUP2 MSTORE PUSH1 0x20 DUP2 ADD DUP4 SWAP1 MSTORE PUSH1 0x40 DUP2 ADD DUP5 SWAP1 MSTORE DUP2 SWAP1 PUSH1 0x60 ADD SUB SWAP1 REVERT JUMPDEST PUSH1 0x64 DUP3 DUP6 DUP1 DUP10 MLOAD SWAP3 PUSH3 0x461BCD PUSH1 0xE5 SHL DUP5 MSTORE DUP4 ADD MSTORE PUSH1 0x24 DUP3 ADD MSTORE PUSH32 0x4D4954546F6B656E3A2073656E646572206E6F742077686974656C6973746564 PUSH1 0x44 DUP3 ADD MSTORE REVERT JUMPDEST PUSH1 0x24 SWAP1 PUSH0 DUP7 MLOAD SWAP2 PUSH4 0x4B637E8F PUSH1 0xE1 SHL DUP4 MSTORE DUP3 ADD MSTORE REVERT JUMPDEST POP CALLVALUE PUSH2 0x252 JUMPI PUSH0 CALLDATASIZE PUSH1 0x3 NOT ADD SLT PUSH2 0x252 JUMPI DUP1 MLOAD SWAP1 PUSH0 DUP4 SLOAD PUSH1 0x1 DUP2 PUSH1 0x1 SHR SWAP1 PUSH1 0x1 DUP4 AND SWAP3 DUP4 ISZERO PUSH2 0x5C3 JUMPI JUMPDEST PUSH1 0x20 SWAP4 DUP5 DUP5 LT DUP2 EQ PUSH2 0x235 JUMPI DUP4 DUP9 MSTORE SWAP1 DUP2 ISZERO PUSH2 0x219 JUMPI POP PUSH1 0x1 EQ PUSH2 0x56F JUMPI POP POP POP DUP3 SWAP1 SUB PUSH1 0x1F ADD PUSH1 0x1F NOT AND DUP3 ADD SWAP3 PUSH8 0xFFFFFFFFFFFFFFFF DUP5 GT DUP4 DUP6 LT OR PUSH2 0x1B0 JUMPI POP DUP3 SWAP2 DUP3 PUSH2 0x1AC SWAP3 MSTORE DUP3 PUSH2 0xC59 JUMP JUMPDEST PUSH0 DUP8 DUP2 MSTORE SWAP3 SWAP4 POP DUP4 PUSH32 0x8A35ACFBC15FF81A39AE7D344FD709F28E8600B4AA8C65C6B64BFE7FE36BD19B JUMPDEST DUP4 DUP6 LT PUSH2 0x5AF JUMPI POP POP POP POP DUP4 ADD ADD PUSH0 DUP1 DUP1 PUSH2 0x17A JUMP JUMPDEST DUP1 SLOAD DUP9 DUP7 ADD DUP4 ADD MSTORE SWAP4 ADD SWAP3 DUP5 SWAP1 DUP3 ADD PUSH2 0x599 JUMP JUMPDEST SWAP2 PUSH1 0x7F AND SWAP2 PUSH2 0x51F JUMP JUMPDEST POP CALLVALUE PUSH2 0x252 JUMPI DUP1 PUSH1 0x3 NOT CALLDATASIZE ADD SLT PUSH2 0x252 JUMPI PUSH1 0x20 SWAP2 PUSH2 0x5E9 PUSH2 0xC99 JUMP JUMPDEST SWAP1 CALLDATALOAD PUSH0 MSTORE PUSH1 0x5 DUP4 MSTORE DUP2 PUSH0 KECCAK256 SWAP1 PUSH1 0x1 DUP1 PUSH1 0xA0 SHL SUB AND PUSH0 MSTORE DUP3 MSTORE PUSH1 0xFF DUP2 PUSH0 KECCAK256 SLOAD AND SWAP1 MLOAD SWAP1 ISZERO ISZERO DUP2 MSTORE RETURN JUMPDEST POP CALLVALUE PUSH2 0x252 JUMPI PUSH1 0x20 CALLDATASIZE PUSH1 0x3 NOT ADD SLT PUSH2 0x252 JUMPI PUSH2 0x62B PUSH2 0xC83 JUMP JUMPDEST PUSH2 0x633 PUSH2 0xEB8 JUMP JUMPDEST PUSH1 0x1 PUSH1 0x1 PUSH1 0xA0 SHL SUB AND PUSH0 DUP2 DUP2 MSTORE PUSH1 0x8 PUSH1 0x20 MSTORE SWAP2 DUP3 KECCAK256 DUP1 SLOAD PUSH1 0xFF NOT AND SWAP1 SSTORE SWAP1 PUSH32 0x535611FB62FA2A833988F283B779E417E996813E44046F521D76C17B5943B08C SWAP1 DUP1 LOG2 STOP JUMPDEST POP CALLVALUE PUSH2 0x252 JUMPI PUSH0 CALLDATASIZE PUSH1 0x3 NOT ADD SLT PUSH2 0x252 JUMPI PUSH1 0x7 SLOAD SWAP1 MLOAD PUSH1 0x1 PUSH1 0x1 PUSH1 0xA0 SHL SUB SWAP1 SWAP2 AND DUP2 MSTORE PUSH1 0x20 SWAP1 RETURN JUMPDEST POP CALLVALUE PUSH2 0x252 JUMPI PUSH0 CALLDATASIZE PUSH1 0x3 NOT ADD SLT PUSH2 0x252 JUMPI PUSH1 0x20 SWAP1 MLOAD PUSH32 0x2A3DAB589BCC9747970DD85AC3F222668741AE51F2A1BBB8F8355BE28DD8A868 DUP2 MSTORE RETURN JUMPDEST POP CALLVALUE PUSH2 0x252 JUMPI PUSH1 0x20 CALLDATASIZE PUSH1 0x3 NOT ADD SLT PUSH2 0x252 JUMPI PUSH1 0x20 SWAP1 PUSH1 0x1 PUSH1 0x1 PUSH1 0xA0 SHL SUB PUSH2 0x6FE PUSH2 0xC83 JUMP JUMPDEST AND PUSH0 MSTORE PUSH0 DUP3 MSTORE DUP1 PUSH0 KECCAK256 SLOAD SWAP1 MLOAD SWAP1 DUP2 MSTORE RETURN JUMPDEST POP SWAP1 CALLVALUE PUSH2 0x252 JUMPI DUP2 PUSH1 0x3 NOT CALLDATASIZE ADD SLT PUSH2 0x252 JUMPI PUSH2 0x729 PUSH2 0xC83 JUMP JUMPDEST PUSH1 0x24 CALLDATALOAD SWAP1 PUSH2 0x735 PUSH2 0xE3F JUMP JUMPDEST PUSH1 0x1 DUP1 PUSH1 0xA0 SHL SUB AND SWAP3 DUP4 PUSH0 MSTORE PUSH1 0x20 SWAP3 PUSH1 0x8 DUP5 MSTORE PUSH1 0xFF DUP3 PUSH0 KECCAK256 SLOAD AND DUP1 ISZERO PUSH2 0x881 JUMPI JUMPDEST ISZERO PUSH2 0x836 JUMPI DUP5 ISZERO PUSH2 0x821 JUMPI DUP5 PUSH0 MSTORE PUSH1 0x8 DUP5 MSTORE PUSH1 0xFF DUP3 PUSH0 KECCAK256 SLOAD AND ISZERO PUSH2 0x7D4 JUMPI PUSH1 0x2 SLOAD SWAP1 DUP4 DUP3 ADD DUP1 SWAP3 GT PUSH2 0x7C1 JUMPI POP PUSH1 0x2 SSTORE PUSH0 DUP5 DUP2 MSTORE DUP1 DUP5 MSTORE DUP2 DUP2 KECCAK256 DUP1 SLOAD DUP5 ADD SWAP1 SSTORE SWAP1 MLOAD SWAP2 DUP3 MSTORE SWAP2 PUSH32 0xDDF252AD1BE2C89B69C2B068FC378DAA952BA7F163C4A11628F55A4DF523B3EF SWAP2 LOG3 STOP JUMPDEST PUSH1 0x11 SWAP1 PUSH4 0x4E487B71 PUSH1 0xE0 SHL PUSH0 MSTORE MSTORE PUSH1 0x24 PUSH0 REVERT JUMPDEST DUP4 PUSH1 0x84 SWAP3 MLOAD SWAP2 PUSH3 0x461BCD PUSH1 0xE5 SHL DUP4 MSTORE DUP3 ADD MSTORE PUSH1 0x23 PUSH1 0x24 DUP3 ADD MSTORE PUSH32 0x4D4954546F6B656E3A20726563697069656E74206E6F742077686974656C6973 PUSH1 0x44 DUP3 ADD MSTORE PUSH3 0x1D1959 PUSH1 0xEA SHL PUSH1 0x64 DUP3 ADD MSTORE REVERT JUMPDEST PUSH0 PUSH1 0x24 SWAP3 MLOAD SWAP2 PUSH4 0xEC442F05 PUSH1 0xE0 SHL DUP4 MSTORE DUP3 ADD MSTORE REVERT JUMPDEST DUP4 PUSH1 0x84 SWAP3 MLOAD SWAP2 PUSH3 0x461BCD PUSH1 0xE5 SHL DUP4 MSTORE DUP3 ADD MSTORE PUSH1 0x21 PUSH1 0x24 DUP3 ADD MSTORE PUSH32 0x4D4954546F6B656E3A2061646472657373206E6F742077686974656C69737465 PUSH1 0x44 DUP3 ADD MSTORE PUSH1 0x19 PUSH1 0xFA SHL PUSH1 0x64 DUP3 ADD MSTORE REVERT JUMPDEST POP DUP5 ISZERO PUSH2 0x756 JUMP JUMPDEST POP CALLVALUE PUSH2 0x252 JUMPI DUP1 PUSH1 0x3 NOT CALLDATASIZE ADD SLT PUSH2 0x252 JUMPI PUSH2 0x8A2 PUSH2 0xC99 JUMP JUMPDEST SWAP1 CALLER PUSH1 0x1 PUSH1 0x1 PUSH1 0xA0 SHL SUB DUP4 AND SUB PUSH2 0x8BE JUMPI POP PUSH2 0x37E SWAP2 CALLDATALOAD PUSH2 0xFB3 JUMP JUMPDEST MLOAD PUSH4 0x334BD919 PUSH1 0xE1 SHL DUP2 MSTORE SWAP1 POP REVERT JUMPDEST POP CALLVALUE PUSH2 0x252 JUMPI PUSH0 CALLDATASIZE PUSH1 0x3 NOT ADD SLT PUSH2 0x252 JUMPI PUSH1 0x20 SWAP1 MLOAD PUSH1 0x6 DUP2 MSTORE RETURN JUMPDEST POP CALLVALUE PUSH2 0x252 JUMPI DUP1 PUSH1 0x3 NOT CALLDATASIZE ADD SLT PUSH2 0x252 JUMPI PUSH2 0x37E SWAP2 CALLDATALOAD PUSH2 0x90B PUSH1 0x1 PUSH2 0x367 PUSH2 0xC99 JUMP JUMPDEST PUSH2 0xF35 JUMP JUMPDEST POP CALLVALUE PUSH2 0x252 JUMPI PUSH1 0x20 CALLDATASIZE PUSH1 0x3 NOT ADD SLT PUSH2 0x252 JUMPI PUSH1 0x20 SWAP2 CALLDATALOAD PUSH0 MSTORE PUSH1 0x5 DUP3 MSTORE PUSH1 0x1 DUP2 PUSH0 KECCAK256 ADD SLOAD SWAP1 MLOAD SWAP1 DUP2 MSTORE RETURN JUMPDEST POP SWAP1 CALLVALUE PUSH2 0x252 JUMPI PUSH1 0x60 CALLDATASIZE PUSH1 0x3 NOT ADD SLT PUSH2 0x252 JUMPI PUSH2 0x955 PUSH2 0xC83 JUMP JUMPDEST PUSH2 0x95D PUSH2 0xC99 JUMP JUMPDEST SWAP1 PUSH1 0x44 CALLDATALOAD SWAP3 PUSH1 0x1 DUP1 PUSH1 0xA0 SHL SUB DUP3 AND DUP1 PUSH0 MSTORE PUSH1 0x1 PUSH1 0x20 MSTORE DUP6 PUSH0 KECCAK256 CALLER PUSH0 MSTORE PUSH1 0x20 MSTORE DUP6 PUSH0 KECCAK256 SLOAD SWAP2 PUSH0 NOT DUP4 LT PUSH2 0x998 JUMPI JUMPDEST PUSH1 0x20 DUP8 PUSH2 0x3A9 DUP9 DUP9 DUP9 PUSH2 0xCAF JUMP JUMPDEST DUP6 DUP4 LT PUSH2 0xA00 JUMPI DUP2 ISZERO PUSH2 0x9EA JUMPI CALLER ISZERO PUSH2 0x9D4 JUMPI POP PUSH0 SWAP1 DUP2 MSTORE PUSH1 0x1 PUSH1 0x20 SWAP1 DUP2 MSTORE DUP7 DUP3 KECCAK256 CALLER DUP4 MSTORE DUP2 MSTORE SWAP1 DUP7 SWAP1 KECCAK256 SWAP2 DUP6 SWAP1 SUB SWAP1 SWAP2 SSTORE DUP3 SWAP1 PUSH2 0x3A9 PUSH2 0x98A JUMP JUMPDEST PUSH1 0x24 SWAP1 PUSH0 DUP9 MLOAD SWAP2 PUSH4 0x4A1406B1 PUSH1 0xE1 SHL DUP4 MSTORE DUP3 ADD MSTORE REVERT JUMPDEST PUSH1 0x24 SWAP1 PUSH0 DUP9 MLOAD SWAP2 PUSH4 0xE602DF05 PUSH1 0xE0 SHL DUP4 MSTORE DUP3 ADD MSTORE REVERT JUMPDEST DUP7 MLOAD PUSH4 0x7DC7A0D9 PUSH1 0xE1 SHL DUP2 MSTORE CALLER SWAP2 DUP2 ADD SWAP2 DUP3 MSTORE PUSH1 0x20 DUP3 ADD SWAP4 SWAP1 SWAP4 MSTORE PUSH1 0x40 DUP2 ADD DUP7 SWAP1 MSTORE DUP3 SWAP2 POP PUSH1 0x60 ADD SUB SWAP1 REVERT JUMPDEST POP CALLVALUE PUSH2 0x252 JUMPI PUSH0 CALLDATASIZE PUSH1 0x3 NOT ADD SLT PUSH2 0x252 JUMPI PUSH1 0x20 SWAP1 PUSH1 0x2 SLOAD SWAP1 MLOAD SWAP1 DUP2 MSTORE RETURN JUMPDEST POP CALLVALUE PUSH2 0x252 JUMPI DUP1 PUSH1 0x3 NOT CALLDATASIZE ADD SLT PUSH2 0x252 JUMPI PUSH2 0xA63 PUSH2 0xC83 JUMP JUMPDEST PUSH1 0x24 CALLDATALOAD SWAP1 CALLER ISZERO PUSH2 0xADC JUMPI PUSH1 0x1 PUSH1 0x1 PUSH1 0xA0 SHL SUB AND SWAP1 DUP2 ISZERO PUSH2 0xAC6 JUMPI PUSH1 0x20 SWAP4 POP CALLER PUSH0 MSTORE PUSH1 0x1 DUP5 MSTORE DUP3 PUSH0 KECCAK256 DUP3 PUSH0 MSTORE DUP5 MSTORE DUP1 DUP4 PUSH0 KECCAK256 SSTORE DUP3 MLOAD SWAP1 DUP2 MSTORE PUSH32 0x8C5BE1E5EBEC7D5BD14F71427D1E84F3DD0314C0F7B2291E5B200AC8C7C3B925 DUP5 CALLER SWAP3 LOG3 MLOAD PUSH1 0x1 DUP2 MSTORE RETURN JUMPDEST DUP3 MLOAD PUSH4 0x4A1406B1 PUSH1 0xE1 SHL DUP2 MSTORE PUSH0 DUP2 DUP7 ADD MSTORE PUSH1 0x24 SWAP1 REVERT JUMPDEST DUP3 MLOAD PUSH4 0xE602DF05 PUSH1 0xE0 SHL DUP2 MSTORE PUSH0 DUP2 DUP7 ADD MSTORE PUSH1 0x24 SWAP1 REVERT JUMPDEST POP CALLVALUE PUSH2 0x252 JUMPI PUSH0 CALLDATASIZE PUSH1 0x3 NOT ADD SLT PUSH2 0x252 JUMPI DUP1 MLOAD SWAP1 PUSH0 PUSH1 0x3 SLOAD PUSH1 0x1 DUP2 PUSH1 0x1 SHR SWAP1 PUSH1 0x1 DUP4 AND SWAP3 DUP4 ISZERO PUSH2 0xBC3 JUMPI JUMPDEST PUSH1 0x20 SWAP4 DUP5 DUP5 LT DUP2 EQ PUSH2 0x235 JUMPI DUP4 DUP9 MSTORE SWAP1 DUP2 ISZERO PUSH2 0x219 JUMPI POP PUSH1 0x1 EQ PUSH2 0xB6D JUMPI POP POP POP DUP3 SWAP1 SUB PUSH1 0x1F ADD PUSH1 0x1F NOT AND DUP3 ADD SWAP3 PUSH8 0xFFFFFFFFFFFFFFFF DUP5 GT DUP4 DUP6 LT OR PUSH2 0x1B0 JUMPI POP DUP3 SWAP2 DUP3 PUSH2 0x1AC SWAP3 MSTORE DUP3 PUSH2 0xC59 JUMP JUMPDEST PUSH1 0x3 PUSH0 SWAP1 DUP2 MSTORE SWAP3 SWAP4 POP DUP4 PUSH32 0xC2575A0E9E593C00F959F8C92F12DB2869C3395A3B0502D05E2516446F71F85B JUMPDEST DUP4 DUP6 LT PUSH2 0xBAF JUMPI POP POP POP POP DUP4 ADD ADD PUSH0 DUP1 DUP1 PUSH2 0x17A JUMP JUMPDEST DUP1 SLOAD DUP9 DUP7 ADD DUP4 ADD MSTORE SWAP4 ADD SWAP3 DUP5 SWAP1 DUP3 ADD PUSH2 0xB99 JUMP JUMPDEST SWAP2 PUSH1 0x7F AND SWAP2 PUSH2 0xB1D JUMP JUMPDEST POP SWAP1 CALLVALUE PUSH2 0x252 JUMPI PUSH1 0x20 CALLDATASIZE PUSH1 0x3 NOT ADD SLT PUSH2 0x252 JUMPI CALLDATALOAD PUSH4 0xFFFFFFFF PUSH1 0xE0 SHL DUP2 AND DUP1 SWAP2 SUB PUSH2 0x252 JUMPI PUSH1 0x20 SWAP2 PUSH4 0x7965DB0B PUSH1 0xE0 SHL DUP3 EQ SWAP2 DUP3 ISZERO PUSH2 0xC10 JUMPI JUMPDEST POP MLOAD SWAP1 ISZERO ISZERO DUP2 MSTORE RETURN JUMPDEST PUSH4 0x1FFC9A7 PUSH1 0xE0 SHL EQ SWAP2 POP PUSH0 PUSH2 0xC07 JUMP JUMPDEST CALLVALUE PUSH2 0x252 JUMPI PUSH0 CALLDATASIZE PUSH1 0x3 NOT ADD SLT PUSH2 0x252 JUMPI DUP1 PUSH32 0x9C81408027135C0110A5451971BDD98DBF60C57E65D8CD78B7E1C47105A3EE35 PUSH1 0x20 SWAP3 MSTORE RETURN JUMPDEST PUSH1 0x20 PUSH1 0x40 SWAP3 DUP2 DUP4 MSTORE DUP1 MLOAD SWAP2 DUP3 SWAP2 DUP3 DUP3 DUP7 ADD MSTORE ADD DUP5 DUP5 ADD MCOPY PUSH0 DUP3 DUP3 ADD DUP5 ADD MSTORE PUSH1 0x1F ADD PUSH1 0x1F NOT AND ADD ADD SWAP1 JUMP JUMPDEST PUSH1 0x4 CALLDATALOAD SWAP1 PUSH1 0x1 PUSH1 0x1 PUSH1 0xA0 SHL SUB DUP3 AND DUP3 SUB PUSH2 0x252 JUMPI JUMP JUMPDEST PUSH1 0x24 CALLDATALOAD SWAP1 PUSH1 0x1 PUSH1 0x1 PUSH1 0xA0 SHL SUB DUP3 AND DUP3 SUB PUSH2 0x252 JUMPI JUMP JUMPDEST SWAP3 SWAP2 SWAP1 PUSH1 0x1 PUSH1 0x1 PUSH1 0xA0 SHL SUB DUP1 DUP6 AND SWAP2 DUP3 ISZERO PUSH2 0xE27 JUMPI AND SWAP2 DUP3 ISZERO PUSH2 0xE0F JUMPI DUP2 PUSH0 MSTORE PUSH1 0x20 SWAP1 PUSH1 0x8 DUP3 MSTORE PUSH1 0x40 PUSH1 0xFF DUP2 PUSH0 KECCAK256 SLOAD AND ISZERO PUSH2 0xDCC JUMPI DUP5 PUSH0 MSTORE PUSH1 0x8 DUP4 MSTORE PUSH1 0xFF DUP2 PUSH0 KECCAK256 SLOAD AND ISZERO PUSH2 0xD7D JUMPI DUP4 PUSH0 MSTORE PUSH0 DUP4 MSTORE DUP1 PUSH0 KECCAK256 SLOAD SWAP7 DUP3 DUP9 LT PUSH2 0xD4E JUMPI POP DUP2 DUP5 SWAP6 SWAP7 SWAP8 PUSH32 0xDDF252AD1BE2C89B69C2B068FC378DAA952BA7F163C4A11628F55A4DF523B3EF SWAP6 PUSH0 MSTORE PUSH0 DUP6 MSTORE SUB DUP2 PUSH0 KECCAK256 SSTORE DUP6 PUSH0 MSTORE DUP1 PUSH0 KECCAK256 DUP3 DUP2 SLOAD ADD SWAP1 SSTORE MLOAD SWAP1 DUP2 MSTORE LOG3 JUMP JUMPDEST SWAP1 MLOAD PUSH4 0x391434E3 PUSH1 0xE2 SHL DUP2 MSTORE PUSH1 0x1 PUSH1 0x1 PUSH1 0xA0 SHL SUB SWAP1 SWAP2 AND PUSH1 0x4 DUP3 ADD MSTORE PUSH1 0x24 DUP2 ADD DUP8 SWAP1 MSTORE PUSH1 0x44 DUP2 ADD DUP3 SWAP1 MSTORE PUSH1 0x64 SWAP1 REVERT JUMPDEST MLOAD PUSH3 0x461BCD PUSH1 0xE5 SHL DUP2 MSTORE PUSH1 0x4 DUP2 ADD DUP4 SWAP1 MSTORE PUSH1 0x23 PUSH1 0x24 DUP3 ADD MSTORE PUSH32 0x4D4954546F6B656E3A20726563697069656E74206E6F742077686974656C6973 PUSH1 0x44 DUP3 ADD MSTORE PUSH3 0x1D1959 PUSH1 0xEA SHL PUSH1 0x64 DUP3 ADD MSTORE PUSH1 0x84 SWAP1 REVERT JUMPDEST MLOAD PUSH3 0x461BCD PUSH1 0xE5 SHL DUP2 MSTORE PUSH1 0x4 DUP2 ADD DUP4 SWAP1 MSTORE PUSH1 0x24 DUP2 ADD DUP4 SWAP1 MSTORE PUSH32 0x4D4954546F6B656E3A2073656E646572206E6F742077686974656C6973746564 PUSH1 0x44 DUP3 ADD MSTORE PUSH1 0x64 SWAP1 REVERT JUMPDEST PUSH1 0x40 MLOAD PUSH4 0xEC442F05 PUSH1 0xE0 SHL DUP2 MSTORE PUSH0 PUSH1 0x4 DUP3 ADD MSTORE PUSH1 0x24 SWAP1 REVERT JUMPDEST PUSH1 0x40 MLOAD PUSH4 0x4B637E8F PUSH1 0xE1 SHL DUP2 MSTORE PUSH0 PUSH1 0x4 DUP3 ADD MSTORE PUSH1 0x24 SWAP1 REVERT JUMPDEST CALLER PUSH0 SWAP1 DUP2 MSTORE PUSH32 0xA76130CBFFD9B33B64B573944AD05ADB12481247304469BEE8AC721996FC8234 PUSH1 0x20 MSTORE PUSH1 0x40 SWAP1 KECCAK256 SLOAD PUSH32 0x9C81408027135C0110A5451971BDD98DBF60C57E65D8CD78B7E1C47105A3EE35 SWAP1 PUSH1 0xFF AND ISZERO PUSH2 0xE9A JUMPI POP JUMP JUMPDEST PUSH1 0x44 SWAP1 PUSH1 0x40 MLOAD SWAP1 PUSH4 0xE2517D3F PUSH1 0xE0 SHL DUP3 MSTORE CALLER PUSH1 0x4 DUP4 ADD MSTORE PUSH1 0x24 DUP3 ADD MSTORE REVERT JUMPDEST CALLER PUSH0 SWAP1 DUP2 MSTORE PUSH32 0x45E747EC8B3EF9FBF0DBC91852A1B6406D924C58BBAA8D947CDE92D189A84485 PUSH1 0x20 MSTORE PUSH1 0x40 SWAP1 KECCAK256 SLOAD PUSH32 0x2A3DAB589BCC9747970DD85AC3F222668741AE51F2A1BBB8F8355BE28DD8A868 SWAP1 PUSH1 0xFF AND ISZERO PUSH2 0xE9A JUMPI POP JUMP JUMPDEST DUP1 PUSH0 MSTORE PUSH1 0x5 PUSH1 0x20 MSTORE PUSH1 0x40 PUSH0 KECCAK256 CALLER PUSH0 MSTORE PUSH1 0x20 MSTORE PUSH1 0xFF PUSH1 0x40 PUSH0 KECCAK256 SLOAD AND ISZERO PUSH2 0xE9A JUMPI POP JUMP JUMPDEST SWAP1 DUP2 PUSH0 MSTORE PUSH1 0x5 PUSH1 0x20 MSTORE PUSH1 0x40 PUSH0 KECCAK256 SWAP1 PUSH1 0x1 DUP1 PUSH1 0xA0 SHL SUB AND SWAP1 DUP2 PUSH0 MSTORE PUSH1 0x20 MSTORE PUSH1 0xFF PUSH1 0x40 PUSH0 KECCAK256 SLOAD AND ISZERO PUSH0 EQ PUSH2 0xFAD JUMPI DUP2 PUSH0 MSTORE PUSH1 0x5 PUSH1 0x20 MSTORE PUSH1 0x40 PUSH0 KECCAK256 DUP2 PUSH0 MSTORE PUSH1 0x20 MSTORE PUSH1 0x40 PUSH0 KECCAK256 PUSH1 0x1 PUSH1 0xFF NOT DUP3 SLOAD AND OR SWAP1 SSTORE CALLER SWAP2 PUSH32 0x2F8788117E7EFF1D82E926EC794901D17C78024A50270940304540A733656F0D PUSH0 DUP1 LOG4 PUSH1 0x1 SWAP1 JUMP JUMPDEST POP POP PUSH0 SWAP1 JUMP JUMPDEST SWAP1 DUP2 PUSH0 MSTORE PUSH1 0x5 PUSH1 0x20 MSTORE PUSH1 0x40 PUSH0 KECCAK256 SWAP1 PUSH1 0x1 DUP1 PUSH1 0xA0 SHL SUB AND SWAP1 DUP2 PUSH0 MSTORE PUSH1 0x20 MSTORE PUSH1 0xFF PUSH1 0x40 PUSH0 KECCAK256 SLOAD AND PUSH0 EQ PUSH2 0xFAD JUMPI DUP2 PUSH0 MSTORE PUSH1 0x5 PUSH1 0x20 MSTORE PUSH1 0x40 PUSH0 KECCAK256 DUP2 PUSH0 MSTORE PUSH1 0x20 MSTORE PUSH1 0x40 PUSH0 KECCAK256 PUSH1 0xFF NOT DUP2 SLOAD AND SWAP1 SSTORE CALLER SWAP2 PUSH32 0xF6391F5C32D9C69D2A47EA670B442974B53935D1EDC7FD64EB21E047A839171B PUSH0 DUP1 LOG4 PUSH1 0x1 SWAP1 JUMP INVALID LOG2 PUSH5 0x6970667358 0x22 SLT KECCAK256 0xB3 0xC7 0xD2 LOG3 0xB3 0x4F 0xD BYTE PUSH1 0x99 PUSH4 0x938CED27 TLOAD INVALID PUSH13 0x8985EBD9EDD21FD6CB2239B9D4 0xB4 PUSH5 0x736F6C6343 STOP ADDMOD NOT STOP CALLER 0x2F DUP8 DUP9 GT PUSH31 0x7EFF1D82E926EC794901D17C78024A50270940304540A733656F0D05B8CCBB SWAP14 0x4D DUP16 0xB1 PUSH15 0xA74CE3C29A41F1B461FBDAFF4714A0 0xD9 0xA8 0xEB SDIV BLOBHASH SWAP8 CHAINID 0xBC SWAP12 PUSH24 0x9B17422D0DF92223018B32B4D1FA46E071723D6817E2486D STOP EXTCODESIZE 0xEC 0xC5 PUSH0 STOP LOG2 PUSH5 0x6970667358 0x22 SLT KECCAK256 0x23 SIGNEXTEND LOG3 EXTCODEHASH DUP4 GT 0x23 0xB9 0xCA EXP PREVRANDAO 0xAE 0xD2 0xBC 0xC1 0xE9 0xC9 ADD EXP 0xB8 SAR 0xF7 BLOBHASH 0xC6 0xAE DUP11 0xE3 PUSH29 0x1AAF866C64736F6C634300081900332F8788117E7EFF1D82E926EC7949 ADD 0xD1 PUSH29 0x78024A50270940304540A733656F0DB10E2D527612073B26EECDFD717E PUSH11 0x320CF44B4AFAC2B0732D9F 0xCB 0xE2 0xB7 STATICCALL 0xC 0xF6 0xAD ORIGIN 0x28 0xB6 PUSH23 0xF7D3CD4284A5443F17F1962B36E491B30A40B2405849E5 SWAP8 0xBA PUSH0 0xB5 "},"methodIdentifiers":{"BANK_ROLE()":"0eb71432","DEFAULT_ADMIN_ROLE()":"a217fddf","INVESTOR_ROLE()":"76082a5e","ISSUANCE_ROLE()":"8e7675ef","activatePool(address,address,address,string)":"5e7c6eef","activatedAt()":"597be6d1","admin()":"f851a440","buyMIT(uint256)":"6e8c2396","currentLtvBps()":"462428b6","currentPeriod()":"06040618","deedNFT()":"c7f01cac","deedTokenId()":"ac27daa7","documentCIDs(uint256)":"b813fb08","getDocumentCIDs()":"777d80cc","getRoleAdmin(bytes32)":"248a9ca3","getRoleMember(bytes32,uint256)":"9010d07c","getSchedule()":"26fadbe2","grantRole(bytes32,address)":"2f2ff15d","hasRole(bytes32,address)":"91d14854","mitAvailable()":"63f9407c","mitSold()":"565ecac7","mitSupply()":"f60559b8","mitToken()":"2669e4dd","outstandingPrincipal()":"29b1829e","params()":"cff0ab96","pledgeVault()":"eaa8c2e7","renounceRole(bytes32,address)":"36568abe","repay()":"402d8883","revokeRole(bytes32,address)":"d547741f","schedule(uint256)":"6fbfd409","status()":"200d2ed2","supportsInterface(bytes4)":"01ffc9a7","usdc()":"3e413bee","wade()":"13e91648","whitelistInvestor(address)":"c430bcda"}}}}}