{"contracts/WADE.sol":{"WADE":{"abi":[{"inputs":[{"internalType":"address","name":"_usdc","type":"address"},{"internalType":"address","name":"_mitToken","type":"address"},{"internalType":"address","name":"_treasury","type":"address"},{"internalType":"address","name":"_poolContract","type":"address"},{"internalType":"address","name":"_admin","type":"address"}],"stateMutability":"nonpayable","type":"constructor"},{"inputs":[],"name":"AccessControlBadConfirmation","type":"error"},{"inputs":[{"internalType":"address","name":"account","type":"address"},{"internalType":"bytes32","name":"neededRole","type":"bytes32"}],"name":"AccessControlUnauthorizedAccount","type":"error"},{"anonymous":false,"inputs":[{"indexed":true,"internalType":"address","name":"treasury","type":"address"},{"indexed":false,"internalType":"uint256","name":"amount","type":"uint256"}],"name":"ProtocolFeeTransferred","type":"event"},{"anonymous":false,"inputs":[{"indexed":true,"internalType":"uint256","name":"period","type":"uint256"},{"indexed":false,"internalType":"uint256","name":"principalAmount","type":"uint256"},{"indexed":false,"internalType":"uint256","name":"interestAmount","type":"uint256"},{"indexed":false,"internalType":"uint256","name":"protocolFee","type":"uint256"},{"indexed":false,"internalType":"uint256","name":"mitBurned","type":"uint256"},{"indexed":false,"internalType":"uint256","name":"timestamp","type":"uint256"}],"name":"RepaymentDistributed","type":"event"},{"anonymous":false,"inputs":[{"indexed":true,"internalType":"bytes32","name":"role","type":"bytes32"},{"indexed":true,"internalType":"bytes32","name":"previousAdminRole","type":"bytes32"},{"indexed":true,"internalType":"bytes32","name":"newAdminRole","type":"bytes32"}],"name":"RoleAdminChanged","type":"event"},{"anonymous":false,"inputs":[{"indexed":true,"internalType":"bytes32","name":"role","type":"bytes32"},{"indexed":true,"internalType":"address","name":"account","type":"address"},{"indexed":true,"internalType":"address","name":"sender","type":"address"}],"name":"RoleGranted","type":"event"},{"anonymous":false,"inputs":[{"indexed":true,"internalType":"bytes32","name":"role","type":"bytes32"},{"indexed":true,"internalType":"address","name":"account","type":"address"},{"indexed":true,"internalType":"address","name":"sender","type":"address"}],"name":"RoleRevoked","type":"event"},{"anonymous":false,"inputs":[{"indexed":true,"internalType":"address","name":"holder","type":"address"},{"indexed":false,"internalType":"uint256","name":"yieldAmount","type":"uint256"},{"indexed":false,"internalType":"uint256","name":"principalAmount","type":"uint256"}],"name":"YieldClaimed","type":"event"},{"inputs":[],"name":"DEFAULT_ADMIN_ROLE","outputs":[{"internalType":"bytes32","name":"","type":"bytes32"}],"stateMutability":"view","type":"function"},{"inputs":[],"name":"POOL_CONTRACT_ROLE","outputs":[{"internalType":"bytes32","name":"","type":"bytes32"}],"stateMutability":"view","type":"function"},{"inputs":[],"name":"PRECISION","outputs":[{"internalType":"uint256","name":"","type":"uint256"}],"stateMutability":"view","type":"function"},{"inputs":[],"name":"accPrincipalPerMIT","outputs":[{"internalType":"uint256","name":"","type":"uint256"}],"stateMutability":"view","type":"function"},{"inputs":[],"name":"accYieldPerMIT","outputs":[{"internalType":"uint256","name":"","type":"uint256"}],"stateMutability":"view","type":"function"},{"inputs":[],"name":"claim","outputs":[],"stateMutability":"nonpayable","type":"function"},{"inputs":[{"internalType":"uint256","name":"principalAmount","type":"uint256"},{"internalType":"uint256","name":"interestAmount","type":"uint256"},{"internalType":"uint256","name":"protocolFee","type":"uint256"},{"internalType":"uint256","name":"mitSupplyBefore","type":"uint256"}],"name":"distributeRepayment","outputs":[],"stateMutability":"nonpayable","type":"function"},{"inputs":[{"internalType":"bytes32","name":"role","type":"bytes32"}],"name":"getRoleAdmin","outputs":[{"internalType":"bytes32","name":"","type":"bytes32"}],"stateMutability":"view","type":"function"},{"inputs":[{"internalType":"bytes32","name":"role","type":"bytes32"},{"internalType":"address","name":"account","type":"address"}],"name":"grantRole","outputs":[],"stateMutability":"nonpayable","type":"function"},{"inputs":[{"internalType":"bytes32","name":"role","type":"bytes32"},{"internalType":"address","name":"account","type":"address"}],"name":"hasRole","outputs":[{"internalType":"bool","name":"","type":"bool"}],"stateMutability":"view","type":"function"},{"inputs":[],"name":"mitToken","outputs":[{"internalType":"contract MITToken","name":"","type":"address"}],"stateMutability":"view","type":"function"},{"inputs":[{"internalType":"address","name":"holder","type":"address"}],"name":"pendingClaimable","outputs":[{"internalType":"uint256","name":"yield_","type":"uint256"},{"internalType":"uint256","name":"principal_","type":"uint256"}],"stateMutability":"view","type":"function"},{"inputs":[{"internalType":"address","name":"","type":"address"}],"name":"pendingPrincipal","outputs":[{"internalType":"uint256","name":"","type":"uint256"}],"stateMutability":"view","type":"function"},{"inputs":[{"internalType":"address","name":"","type":"address"}],"name":"pendingYield","outputs":[{"internalType":"uint256","name":"","type":"uint256"}],"stateMutability":"view","type":"function"},{"inputs":[],"name":"periodCount","outputs":[{"internalType":"uint256","name":"","type":"uint256"}],"stateMutability":"view","type":"function"},{"inputs":[],"name":"poolContract","outputs":[{"internalType":"address","name":"","type":"address"}],"stateMutability":"view","type":"function"},{"inputs":[{"internalType":"address","name":"","type":"address"}],"name":"principalDebt","outputs":[{"internalType":"uint256","name":"","type":"uint256"}],"stateMutability":"view","type":"function"},{"inputs":[{"internalType":"bytes32","name":"role","type":"bytes32"},{"internalType":"address","name":"callerConfirmation","type":"address"}],"name":"renounceRole","outputs":[],"stateMutability":"nonpayable","type":"function"},{"inputs":[{"internalType":"bytes32","name":"role","type":"bytes32"},{"internalType":"address","name":"account","type":"address"}],"name":"revokeRole","outputs":[],"stateMutability":"nonpayable","type":"function"},{"inputs":[{"internalType":"address","name":"from","type":"address"},{"internalType":"address","name":"to","type":"address"}],"name":"settleOnTransfer","outputs":[],"stateMutability":"nonpayable","type":"function"},{"inputs":[{"internalType":"bytes4","name":"interfaceId","type":"bytes4"}],"name":"supportsInterface","outputs":[{"internalType":"bool","name":"","type":"bool"}],"stateMutability":"view","type":"function"},{"inputs":[],"name":"totalDistributed","outputs":[{"internalType":"uint256","name":"","type":"uint256"}],"stateMutability":"view","type":"function"},{"inputs":[],"name":"totalProtocolFees","outputs":[{"internalType":"uint256","name":"","type":"uint256"}],"stateMutability":"view","type":"function"},{"inputs":[],"name":"treasury","outputs":[{"internalType":"address","name":"","type":"address"}],"stateMutability":"view","type":"function"},{"inputs":[],"name":"usdc","outputs":[{"internalType":"contract IERC20","name":"","type":"address"}],"stateMutability":"view","type":"function"},{"inputs":[{"internalType":"address","name":"","type":"address"}],"name":"yieldDebt","outputs":[{"internalType":"uint256","name":"","type":"uint256"}],"stateMutability":"view","type":"function"}],"evm":{"bytecode":{"linkReferences":{},"object":"6101003461010557601f61135038819003918201601f19168301916001600160401b038311848410176101095780849260a09460405283398101031261010557806100a161004f6100a79361011d565b61005b6020840161011d565b906100686040850161011d565b90610081608061007a6060880161011d565b960161011d565b6001600160a01b03918216608052921660a05260c05260e0839052610131565b5061019d565b506040516110d4908161023c82396080518181816104d70152818161092f0152610a5d015260a0518181816105d601528181610b1f01528181610bc00152610fab015260c05181818161041601526108ee015260e051816103b30152f35b5f80fd5b634e487b7160e01b5f52604160045260245ffd5b51906001600160a01b038216820361010557565b6001600160a01b03165f8181525f80516020611330833981519152602052604090205460ff16610198575f8181525f8051602061133083398151915260205260408120805460ff191660011790553391905f805160206113108339815191528180a4600190565b505f90565b6001600160a01b03165f8181527fd439bc0518d0a531d536f3ed9c15db9487aefbc8051a48ec78dcddffd7bd3a6360205260409020547f9c81408027135c0110a5451971bdd98dbf60c57e65d8cd78b7e1c47105a3ee35919060ff1661023557815f525f60205260405f20815f5260205260405f20600160ff1982541617905533915f805160206113108339815191525f80a4600190565b50505f9056fe6080604081815260049182361015610015575f80fd5b5f925f3560e01c9182629597e014610ce15750816301ffc9a714610c8d5781630676382214610b77578163248a9ca314610b4e5781632669e4dd14610b0b5781632f2ff15d14610ad257816336568abe14610a8c5781633e413bee14610a495781634a360691146107675781634a599862146107495781634e71d92d1461044557816361d027b3146104015781637f197519146103e257816388d52ef71461039e57816391d148541461035b57816396a2d5b014610323578163a217fddf14610308578163aaf5eb68146102e8578163bffdd9f114610284578163c7bf19801461024c578163d547741f1461020d578163de9ce35c146101d357508063efca2eed146101b5578063f107c7fe14610197578063f526e39a146101795763fe6b43221461013f575f80fd5b346101755760203660031901126101755760209181906001600160a01b03610165610d19565b1681526006845220549051908152f35b5080fd5b50346101755781600319360112610175576020906008549051908152f35b50346101755781600319360112610175576020906001549051908152f35b50346101755781600319360112610175576020906007549051908152f35b9050346102095760203660031901126102095760209282916001600160a01b036101fb610d19565b168252845220549051908152f35b8280fd5b9190503461020957806003193601126102095761024891356102436001610232610d2f565b938387528660205286200154610e6b565b610f08565b5080f35b5050346101755760203660031901126101755760209181906001600160a01b03610274610d19565b1681526005845220549051908152f35b505034610175573660031901126102e55761029d610d19565b6102a5610d2f565b906102ae610df2565b6001600160a01b03908082166102d6575b5081166102ca575080f35b6102d390610f7a565b80f35b6102df90610f7a565b5f6102bf565b80fd5b5050346101755781600319360112610175576020905164e8d4a510008152f35b50503461017557816003193601126101755751908152602090f35b5050346101755760203660031901126101755760209181906001600160a01b0361034b610d19565b1681526003845220549051908152f35b90503461020957816003193601126102095781602093610379610d2f565b92358152808552209060018060a01b03165f52825260ff815f20541690519015158152f35b505034610175578160031936011261017557517f00000000000000000000000000000000000000000000000000000000000000006001600160a01b03168152602090f35b5050346101755781600319360112610175576020906009549051908152f35b505034610175578160031936011261017557517f00000000000000000000000000000000000000000000000000000000000000006001600160a01b03168152602090f35b839150346106c1575f3660031901126106c15761046133610f7a565b335f5260209260058452805f20549160068552815f2054908315801590610740575b15610704576104928285610dcd565b335f52600587525f84812055600687525f8481205586836105c2575b845163a9059cbb60e01b815233848201908152602081019390935291829081906040015b0381897f00000000000000000000000000000000000000000000000000000000000000006001600160a01b03165af19081156105b857869161058b575b501561054857507f10d8dedfc0745b8c25ba10b06e304138b251c18dcaadf2d71c7f3214719dc4d192939482519485528401523392a280f35b825162461bcd60e51b8152908101869052601b60248201527f574144453a20636c61696d207472616e73666572206661696c656400000000006044820152606490fd5b6105ab9150873d89116105b1575b6105a38183610d45565b810190610dda565b8761050f565b503d610599565b84513d88823e3d90fd5b5083516370a0823160e01b815233838201527f00000000000000000000000000000000000000000000000000000000000000006001600160a01b0316908881602481855afa9081156106fa57908992915f916106cb575b50808610156106c5575084905b81610633575b50506104ae565b809192503b156106c1578551632770a7eb60e21b8152338582019081526020810193909352915f91839182908490829060400103925af180156106b75790889291610682575b8092919261062c565b67ffffffffffffffff919750809250116106a45783525f9486906104d2610679565b604182634e487b7160e01b5f525260245ffd5b85513d5f823e3d90fd5b5f80fd5b90610626565b83819492503d83116106f3575b6106e28183610d45565b810103126106c1578891518a610619565b503d6106d8565b86513d5f823e3d90fd5b825162461bcd60e51b81529081018690526016602482015275574144453a206e6f7468696e6720746f20636c61696d60501b6044820152606490fd5b50811515610483565b82346106c1575f3660031901126106c1576020906002549051908152f35b9050346106c15760803660031901126106c15780356024918235926044359160643591610792610df2565b8215610a11576009545f1981146108c557600101600955836108d8575b85158015610892575b508415918215610822575b877fb7b794f31825e881cb81620679786270b7de900bd12ec02b21c33e3bfddaaf3e60a08989896107ff6107f78484610dcd565b600754610dcd565b6007556009549580519383855260208501528301526060820152426080820152a2005b64e8d4a5100092838702938785041417156108815750509161087461086c60a095937fb7b794f31825e881cb81620679786270b7de900bd12ec02b21c33e3bfddaaf3e9795610daf565b600254610dcd565b60025591938193876107c3565b601190634e487b7160e01b5f52525ffd5b64e8d4a5100090818802918883041417156108c5576108b4846108bc92610daf565b600154610dcd565b600155876107b8565b50634e487b7160e01b5f90815260118352fd5b865163a9059cbb60e01b81526001600160a01b037f00000000000000000000000000000000000000000000000000000000000000008181168584019081526020808201899052919391908290819060400103815f867f0000000000000000000000000000000000000000000000000000000000000000165af1908115610a07575f916109e8575b50156109a65760207f0880b0e717a57f3b5cbd3fc19396ae3c8cdee5c624c9289477869c38014c84959161099588600854610dcd565b6008558a51938885521692a26107af565b885162461bcd60e51b8152602081860152601e818501527f574144453a207472656173757279207472616e73666572206661696c656400006044820152606490fd5b610a01915060203d6020116105b1576105a38183610d45565b8a61095f565b8a513d5f823e3d90fd5b906013606492602089519362461bcd60e51b855284015282015272574144453a206e6f204d495420737570706c7960681b6044820152fd5b82346106c1575f3660031901126106c157517f00000000000000000000000000000000000000000000000000000000000000006001600160a01b03168152602090f35b82346106c157806003193601126106c157610aa5610d2f565b90336001600160a01b03831603610ac35750610ac19135610f08565b005b5163334bd91960e11b81529050fd5b82346106c157806003193601126106c157610ac19135610b066001610af5610d2f565b93835f525f6020525f200154610e6b565b610e8c565b82346106c1575f3660031901126106c157517f00000000000000000000000000000000000000000000000000000000000000006001600160a01b03168152602090f35b82346106c15760203660031901126106c157602091355f525f82526001815f2001549051908152f35b9050346106c157602090816003193601126106c1578190610b96610d19565b84516370a0823160e01b81526001600160a01b0391821681840181905294909291839060249082907f0000000000000000000000000000000000000000000000000000000000000000165afa80156106b7575f90610c5e575b610c539250845f5260058452610c2d865f205491610c34600154936003885289610c2d84610c2864e8d4a510009889945f205490610d7b565b610d9c565b0490610dcd565b965f5260068652610c28885f205494600254908852895f205490610d7b565b908351928352820152f35b508282813d8311610c86575b610c748183610d45565b810103126106c157610c539151610bef565b503d610c6a565b9050346106c15760203660031901126106c1573563ffffffff60e01b81168091036106c157602091637965db0b60e01b8214918215610cd0575b50519015158152f35b6301ffc9a760e01b14915083610cc7565b346106c1575f3660031901126106c157807f9c81408027135c0110a5451971bdd98dbf60c57e65d8cd78b7e1c47105a3ee3560209252f35b600435906001600160a01b03821682036106c157565b602435906001600160a01b03821682036106c157565b90601f8019910116810190811067ffffffffffffffff821117610d6757604052565b634e487b7160e01b5f52604160045260245ffd5b91908203918211610d8857565b634e487b7160e01b5f52601160045260245ffd5b81810292918115918404141715610d8857565b8115610db9570490565b634e487b7160e01b5f52601260045260245ffd5b91908201809211610d8857565b908160209103126106c1575180151581036106c15790565b335f9081527fd439bc0518d0a531d536f3ed9c15db9487aefbc8051a48ec78dcddffd7bd3a6360205260409020547f9c81408027135c0110a5451971bdd98dbf60c57e65d8cd78b7e1c47105a3ee359060ff1615610e4d5750565b6044906040519063e2517d3f60e01b82523360048301526024820152fd5b805f525f60205260405f20335f5260205260ff60405f20541615610e4d5750565b90815f525f60205260405f209060018060a01b031690815f5260205260ff60405f205416155f14610f0257815f525f60205260405f20815f5260205260405f20600160ff1982541617905533917f2f8788117e7eff1d82e926ec794901d17c78024a50270940304540a733656f0d5f80a4600190565b50505f90565b90815f525f60205260405f209060018060a01b031690815f5260205260ff60405f2054165f14610f0257815f525f60205260405f20815f5260205260405f2060ff19815416905533917ff6391f5c32d9c69d2a47ea670b442974b53935d1edc7fd64eb21e047a839171b5f80a4600190565b604080516370a0823160e01b81526001600160a01b03928316600482018190526020939091908490829060249082907f0000000000000000000000000000000000000000000000000000000000000000165afa908115611094575f91611065575b50611033610c2891600154845f52600387526110048264e8d4a51000958693895f205490610d7b565b04845f526005875261101a865f20918254610dcd565b9055610c28600254855f5260048852865f205490610d7b565b04815f5260068452611049835f20918254610dcd565b9055600154905f5260038352815f2055600460025492525f2055565b90508381813d831161108d575b61107c8183610d45565b810103126106c15751611033610fdb565b503d611072565b83513d5f823e3d90fdfea26469706673582212201d095e06719b6428401eae1342528567a82bb4589737e282f468ddace49f179964736f6c634300081900332f8788117e7eff1d82e926ec794901d17c78024a50270940304540a733656f0dad3228b676f7d3cd4284a5443f17f1962b36e491b30a40b2405849e597ba5fb5","opcodes":"PUSH2 0x100 CALLVALUE PUSH2 0x105 JUMPI PUSH1 0x1F PUSH2 0x1350 CODESIZE DUP2 SWAP1 SUB SWAP2 DUP3 ADD PUSH1 0x1F NOT AND DUP4 ADD SWAP2 PUSH1 0x1 PUSH1 0x1 PUSH1 0x40 SHL SUB DUP4 GT DUP5 DUP5 LT OR PUSH2 0x109 JUMPI DUP1 DUP5 SWAP3 PUSH1 0xA0 SWAP5 PUSH1 0x40 MSTORE DUP4 CODECOPY DUP2 ADD SUB SLT PUSH2 0x105 JUMPI DUP1 PUSH2 0xA1 PUSH2 0x4F PUSH2 0xA7 SWAP4 PUSH2 0x11D JUMP JUMPDEST PUSH2 0x5B PUSH1 0x20 DUP5 ADD PUSH2 0x11D JUMP JUMPDEST SWAP1 PUSH2 0x68 PUSH1 0x40 DUP6 ADD PUSH2 0x11D JUMP JUMPDEST SWAP1 PUSH2 0x81 PUSH1 0x80 PUSH2 0x7A PUSH1 0x60 DUP9 ADD PUSH2 0x11D JUMP JUMPDEST SWAP7 ADD PUSH2 0x11D JUMP JUMPDEST PUSH1 0x1 PUSH1 0x1 PUSH1 0xA0 SHL SUB SWAP2 DUP3 AND PUSH1 0x80 MSTORE SWAP3 AND PUSH1 0xA0 MSTORE PUSH1 0xC0 MSTORE PUSH1 0xE0 DUP4 SWAP1 MSTORE PUSH2 0x131 JUMP JUMPDEST POP PUSH2 0x19D JUMP JUMPDEST POP PUSH1 0x40 MLOAD PUSH2 0x10D4 SWAP1 DUP2 PUSH2 0x23C DUP3 CODECOPY PUSH1 0x80 MLOAD DUP2 DUP2 DUP2 PUSH2 0x4D7 ADD MSTORE DUP2 DUP2 PUSH2 0x92F ADD MSTORE PUSH2 0xA5D ADD MSTORE PUSH1 0xA0 MLOAD DUP2 DUP2 DUP2 PUSH2 0x5D6 ADD MSTORE DUP2 DUP2 PUSH2 0xB1F ADD MSTORE DUP2 DUP2 PUSH2 0xBC0 ADD MSTORE PUSH2 0xFAB ADD MSTORE PUSH1 0xC0 MLOAD DUP2 DUP2 DUP2 PUSH2 0x416 ADD MSTORE PUSH2 0x8EE ADD MSTORE PUSH1 0xE0 MLOAD DUP2 PUSH2 0x3B3 ADD MSTORE RETURN JUMPDEST PUSH0 DUP1 REVERT JUMPDEST PUSH4 0x4E487B71 PUSH1 0xE0 SHL PUSH0 MSTORE PUSH1 0x41 PUSH1 0x4 MSTORE PUSH1 0x24 PUSH0 REVERT JUMPDEST MLOAD SWAP1 PUSH1 0x1 PUSH1 0x1 PUSH1 0xA0 SHL SUB DUP3 AND DUP3 SUB PUSH2 0x105 JUMPI JUMP JUMPDEST PUSH1 0x1 PUSH1 0x1 PUSH1 0xA0 SHL SUB AND PUSH0 DUP2 DUP2 MSTORE PUSH0 DUP1 MLOAD PUSH1 0x20 PUSH2 0x1330 DUP4 CODECOPY DUP2 MLOAD SWAP2 MSTORE PUSH1 0x20 MSTORE PUSH1 0x40 SWAP1 KECCAK256 SLOAD PUSH1 0xFF AND PUSH2 0x198 JUMPI PUSH0 DUP2 DUP2 MSTORE PUSH0 DUP1 MLOAD PUSH1 0x20 PUSH2 0x1330 DUP4 CODECOPY DUP2 MLOAD SWAP2 MSTORE PUSH1 0x20 MSTORE PUSH1 0x40 DUP2 KECCAK256 DUP1 SLOAD PUSH1 0xFF NOT AND PUSH1 0x1 OR SWAP1 SSTORE CALLER SWAP2 SWAP1 PUSH0 DUP1 MLOAD PUSH1 0x20 PUSH2 0x1310 DUP4 CODECOPY DUP2 MLOAD SWAP2 MSTORE DUP2 DUP1 LOG4 PUSH1 0x1 SWAP1 JUMP JUMPDEST POP PUSH0 SWAP1 JUMP JUMPDEST PUSH1 0x1 PUSH1 0x1 PUSH1 0xA0 SHL SUB AND PUSH0 DUP2 DUP2 MSTORE PUSH32 0xD439BC0518D0A531D536F3ED9C15DB9487AEFBC8051A48EC78DCDDFFD7BD3A63 PUSH1 0x20 MSTORE PUSH1 0x40 SWAP1 KECCAK256 SLOAD PUSH32 0x9C81408027135C0110A5451971BDD98DBF60C57E65D8CD78B7E1C47105A3EE35 SWAP2 SWAP1 PUSH1 0xFF AND PUSH2 0x235 JUMPI DUP2 PUSH0 MSTORE PUSH0 PUSH1 0x20 MSTORE PUSH1 0x40 PUSH0 KECCAK256 DUP2 PUSH0 MSTORE PUSH1 0x20 MSTORE PUSH1 0x40 PUSH0 KECCAK256 PUSH1 0x1 PUSH1 0xFF NOT DUP3 SLOAD AND OR SWAP1 SSTORE CALLER SWAP2 PUSH0 DUP1 MLOAD PUSH1 0x20 PUSH2 0x1310 DUP4 CODECOPY DUP2 MLOAD SWAP2 MSTORE PUSH0 DUP1 LOG4 PUSH1 0x1 SWAP1 JUMP JUMPDEST POP POP PUSH0 SWAP1 JUMP INVALID PUSH1 0x80 PUSH1 0x40 DUP2 DUP2 MSTORE PUSH1 0x4 SWAP2 DUP3 CALLDATASIZE LT ISZERO PUSH2 0x15 JUMPI PUSH0 DUP1 REVERT JUMPDEST PUSH0 SWAP3 PUSH0 CALLDATALOAD PUSH1 0xE0 SHR SWAP2 DUP3 PUSH3 0x9597E0 EQ PUSH2 0xCE1 JUMPI POP DUP2 PUSH4 0x1FFC9A7 EQ PUSH2 0xC8D JUMPI DUP2 PUSH4 0x6763822 EQ PUSH2 0xB77 JUMPI DUP2 PUSH4 0x248A9CA3 EQ PUSH2 0xB4E JUMPI DUP2 PUSH4 0x2669E4DD EQ PUSH2 0xB0B JUMPI DUP2 PUSH4 0x2F2FF15D EQ PUSH2 0xAD2 JUMPI DUP2 PUSH4 0x36568ABE EQ PUSH2 0xA8C JUMPI DUP2 PUSH4 0x3E413BEE EQ PUSH2 0xA49 JUMPI DUP2 PUSH4 0x4A360691 EQ PUSH2 0x767 JUMPI DUP2 PUSH4 0x4A599862 EQ PUSH2 0x749 JUMPI DUP2 PUSH4 0x4E71D92D EQ PUSH2 0x445 JUMPI DUP2 PUSH4 0x61D027B3 EQ PUSH2 0x401 JUMPI DUP2 PUSH4 0x7F197519 EQ PUSH2 0x3E2 JUMPI DUP2 PUSH4 0x88D52EF7 EQ PUSH2 0x39E JUMPI DUP2 PUSH4 0x91D14854 EQ PUSH2 0x35B JUMPI DUP2 PUSH4 0x96A2D5B0 EQ PUSH2 0x323 JUMPI DUP2 PUSH4 0xA217FDDF EQ PUSH2 0x308 JUMPI DUP2 PUSH4 0xAAF5EB68 EQ PUSH2 0x2E8 JUMPI DUP2 PUSH4 0xBFFDD9F1 EQ PUSH2 0x284 JUMPI DUP2 PUSH4 0xC7BF1980 EQ PUSH2 0x24C JUMPI DUP2 PUSH4 0xD547741F EQ PUSH2 0x20D JUMPI DUP2 PUSH4 0xDE9CE35C EQ PUSH2 0x1D3 JUMPI POP DUP1 PUSH4 0xEFCA2EED EQ PUSH2 0x1B5 JUMPI DUP1 PUSH4 0xF107C7FE EQ PUSH2 0x197 JUMPI DUP1 PUSH4 0xF526E39A EQ PUSH2 0x179 JUMPI PUSH4 0xFE6B4322 EQ PUSH2 0x13F JUMPI PUSH0 DUP1 REVERT JUMPDEST CALLVALUE PUSH2 0x175 JUMPI PUSH1 0x20 CALLDATASIZE PUSH1 0x3 NOT ADD SLT PUSH2 0x175 JUMPI PUSH1 0x20 SWAP2 DUP2 SWAP1 PUSH1 0x1 PUSH1 0x1 PUSH1 0xA0 SHL SUB PUSH2 0x165 PUSH2 0xD19 JUMP JUMPDEST AND DUP2 MSTORE PUSH1 0x6 DUP5 MSTORE KECCAK256 SLOAD SWAP1 MLOAD SWAP1 DUP2 MSTORE RETURN JUMPDEST POP DUP1 REVERT JUMPDEST POP CALLVALUE PUSH2 0x175 JUMPI DUP2 PUSH1 0x3 NOT CALLDATASIZE ADD SLT PUSH2 0x175 JUMPI PUSH1 0x20 SWAP1 PUSH1 0x8 SLOAD SWAP1 MLOAD SWAP1 DUP2 MSTORE RETURN JUMPDEST POP CALLVALUE PUSH2 0x175 JUMPI DUP2 PUSH1 0x3 NOT CALLDATASIZE ADD SLT PUSH2 0x175 JUMPI PUSH1 0x20 SWAP1 PUSH1 0x1 SLOAD SWAP1 MLOAD SWAP1 DUP2 MSTORE RETURN JUMPDEST POP CALLVALUE PUSH2 0x175 JUMPI DUP2 PUSH1 0x3 NOT CALLDATASIZE ADD SLT PUSH2 0x175 JUMPI PUSH1 0x20 SWAP1 PUSH1 0x7 SLOAD SWAP1 MLOAD SWAP1 DUP2 MSTORE RETURN JUMPDEST SWAP1 POP CALLVALUE PUSH2 0x209 JUMPI PUSH1 0x20 CALLDATASIZE PUSH1 0x3 NOT ADD SLT PUSH2 0x209 JUMPI PUSH1 0x20 SWAP3 DUP3 SWAP2 PUSH1 0x1 PUSH1 0x1 PUSH1 0xA0 SHL SUB PUSH2 0x1FB PUSH2 0xD19 JUMP JUMPDEST AND DUP3 MSTORE DUP5 MSTORE KECCAK256 SLOAD SWAP1 MLOAD SWAP1 DUP2 MSTORE RETURN JUMPDEST DUP3 DUP1 REVERT JUMPDEST SWAP2 SWAP1 POP CALLVALUE PUSH2 0x209 JUMPI DUP1 PUSH1 0x3 NOT CALLDATASIZE ADD SLT PUSH2 0x209 JUMPI PUSH2 0x248 SWAP2 CALLDATALOAD PUSH2 0x243 PUSH1 0x1 PUSH2 0x232 PUSH2 0xD2F JUMP JUMPDEST SWAP4 DUP4 DUP8 MSTORE DUP7 PUSH1 0x20 MSTORE DUP7 KECCAK256 ADD SLOAD PUSH2 0xE6B JUMP JUMPDEST PUSH2 0xF08 JUMP JUMPDEST POP DUP1 RETURN JUMPDEST POP POP CALLVALUE PUSH2 0x175 JUMPI PUSH1 0x20 CALLDATASIZE PUSH1 0x3 NOT ADD SLT PUSH2 0x175 JUMPI PUSH1 0x20 SWAP2 DUP2 SWAP1 PUSH1 0x1 PUSH1 0x1 PUSH1 0xA0 SHL SUB PUSH2 0x274 PUSH2 0xD19 JUMP JUMPDEST AND DUP2 MSTORE PUSH1 0x5 DUP5 MSTORE KECCAK256 SLOAD SWAP1 MLOAD SWAP1 DUP2 MSTORE RETURN JUMPDEST POP POP CALLVALUE PUSH2 0x175 JUMPI CALLDATASIZE PUSH1 0x3 NOT ADD SLT PUSH2 0x2E5 JUMPI PUSH2 0x29D PUSH2 0xD19 JUMP JUMPDEST PUSH2 0x2A5 PUSH2 0xD2F JUMP JUMPDEST SWAP1 PUSH2 0x2AE PUSH2 0xDF2 JUMP JUMPDEST PUSH1 0x1 PUSH1 0x1 PUSH1 0xA0 SHL SUB SWAP1 DUP1 DUP3 AND PUSH2 0x2D6 JUMPI JUMPDEST POP DUP2 AND PUSH2 0x2CA JUMPI POP DUP1 RETURN JUMPDEST PUSH2 0x2D3 SWAP1 PUSH2 0xF7A JUMP JUMPDEST DUP1 RETURN JUMPDEST PUSH2 0x2DF SWAP1 PUSH2 0xF7A JUMP JUMPDEST PUSH0 PUSH2 0x2BF JUMP JUMPDEST DUP1 REVERT JUMPDEST POP POP CALLVALUE PUSH2 0x175 JUMPI DUP2 PUSH1 0x3 NOT CALLDATASIZE ADD SLT PUSH2 0x175 JUMPI PUSH1 0x20 SWAP1 MLOAD PUSH5 0xE8D4A51000 DUP2 MSTORE RETURN JUMPDEST POP POP CALLVALUE PUSH2 0x175 JUMPI DUP2 PUSH1 0x3 NOT CALLDATASIZE ADD SLT PUSH2 0x175 JUMPI MLOAD SWAP1 DUP2 MSTORE PUSH1 0x20 SWAP1 RETURN JUMPDEST POP POP CALLVALUE PUSH2 0x175 JUMPI PUSH1 0x20 CALLDATASIZE PUSH1 0x3 NOT ADD SLT PUSH2 0x175 JUMPI PUSH1 0x20 SWAP2 DUP2 SWAP1 PUSH1 0x1 PUSH1 0x1 PUSH1 0xA0 SHL SUB PUSH2 0x34B PUSH2 0xD19 JUMP JUMPDEST AND DUP2 MSTORE PUSH1 0x3 DUP5 MSTORE KECCAK256 SLOAD SWAP1 MLOAD SWAP1 DUP2 MSTORE RETURN JUMPDEST SWAP1 POP CALLVALUE PUSH2 0x209 JUMPI DUP2 PUSH1 0x3 NOT CALLDATASIZE ADD SLT PUSH2 0x209 JUMPI DUP2 PUSH1 0x20 SWAP4 PUSH2 0x379 PUSH2 0xD2F JUMP JUMPDEST SWAP3 CALLDATALOAD DUP2 MSTORE DUP1 DUP6 MSTORE KECCAK256 SWAP1 PUSH1 0x1 DUP1 PUSH1 0xA0 SHL SUB AND PUSH0 MSTORE DUP3 MSTORE PUSH1 0xFF DUP2 PUSH0 KECCAK256 SLOAD AND SWAP1 MLOAD SWAP1 ISZERO ISZERO DUP2 MSTORE RETURN JUMPDEST POP POP CALLVALUE PUSH2 0x175 JUMPI DUP2 PUSH1 0x3 NOT CALLDATASIZE ADD SLT PUSH2 0x175 JUMPI MLOAD PUSH32 0x0 PUSH1 0x1 PUSH1 0x1 PUSH1 0xA0 SHL SUB AND DUP2 MSTORE PUSH1 0x20 SWAP1 RETURN JUMPDEST POP POP CALLVALUE PUSH2 0x175 JUMPI DUP2 PUSH1 0x3 NOT CALLDATASIZE ADD SLT PUSH2 0x175 JUMPI PUSH1 0x20 SWAP1 PUSH1 0x9 SLOAD SWAP1 MLOAD SWAP1 DUP2 MSTORE RETURN JUMPDEST POP POP CALLVALUE PUSH2 0x175 JUMPI DUP2 PUSH1 0x3 NOT CALLDATASIZE ADD SLT PUSH2 0x175 JUMPI MLOAD PUSH32 0x0 PUSH1 0x1 PUSH1 0x1 PUSH1 0xA0 SHL SUB AND DUP2 MSTORE PUSH1 0x20 SWAP1 RETURN JUMPDEST DUP4 SWAP2 POP CALLVALUE PUSH2 0x6C1 JUMPI PUSH0 CALLDATASIZE PUSH1 0x3 NOT ADD SLT PUSH2 0x6C1 JUMPI PUSH2 0x461 CALLER PUSH2 0xF7A JUMP JUMPDEST CALLER PUSH0 MSTORE PUSH1 0x20 SWAP3 PUSH1 0x5 DUP5 MSTORE DUP1 PUSH0 KECCAK256 SLOAD SWAP2 PUSH1 0x6 DUP6 MSTORE DUP2 PUSH0 KECCAK256 SLOAD SWAP1 DUP4 ISZERO DUP1 ISZERO SWAP1 PUSH2 0x740 JUMPI JUMPDEST ISZERO PUSH2 0x704 JUMPI PUSH2 0x492 DUP3 DUP6 PUSH2 0xDCD JUMP JUMPDEST CALLER PUSH0 MSTORE PUSH1 0x5 DUP8 MSTORE PUSH0 DUP5 DUP2 KECCAK256 SSTORE PUSH1 0x6 DUP8 MSTORE PUSH0 DUP5 DUP2 KECCAK256 SSTORE DUP7 DUP4 PUSH2 0x5C2 JUMPI JUMPDEST DUP5 MLOAD PUSH4 0xA9059CBB PUSH1 0xE0 SHL DUP2 MSTORE CALLER DUP5 DUP3 ADD SWAP1 DUP2 MSTORE PUSH1 0x20 DUP2 ADD SWAP4 SWAP1 SWAP4 MSTORE SWAP2 DUP3 SWAP1 DUP2 SWAP1 PUSH1 0x40 ADD JUMPDEST SUB DUP2 DUP10 PUSH32 0x0 PUSH1 0x1 PUSH1 0x1 PUSH1 0xA0 SHL SUB AND GAS CALL SWAP1 DUP2 ISZERO PUSH2 0x5B8 JUMPI DUP7 SWAP2 PUSH2 0x58B JUMPI JUMPDEST POP ISZERO PUSH2 0x548 JUMPI POP PUSH32 0x10D8DEDFC0745B8C25BA10B06E304138B251C18DCAADF2D71C7F3214719DC4D1 SWAP3 SWAP4 SWAP5 DUP3 MLOAD SWAP5 DUP6 MSTORE DUP5 ADD MSTORE CALLER SWAP3 LOG2 DUP1 RETURN JUMPDEST DUP3 MLOAD PUSH3 0x461BCD PUSH1 0xE5 SHL DUP2 MSTORE SWAP1 DUP2 ADD DUP7 SWAP1 MSTORE PUSH1 0x1B PUSH1 0x24 DUP3 ADD MSTORE PUSH32 0x574144453A20636C61696D207472616E73666572206661696C65640000000000 PUSH1 0x44 DUP3 ADD MSTORE PUSH1 0x64 SWAP1 REVERT JUMPDEST PUSH2 0x5AB SWAP2 POP DUP8 RETURNDATASIZE DUP10 GT PUSH2 0x5B1 JUMPI JUMPDEST PUSH2 0x5A3 DUP2 DUP4 PUSH2 0xD45 JUMP JUMPDEST DUP2 ADD SWAP1 PUSH2 0xDDA JUMP JUMPDEST DUP8 PUSH2 0x50F JUMP JUMPDEST POP RETURNDATASIZE PUSH2 0x599 JUMP JUMPDEST DUP5 MLOAD RETURNDATASIZE DUP9 DUP3 RETURNDATACOPY RETURNDATASIZE SWAP1 REVERT JUMPDEST POP DUP4 MLOAD PUSH4 0x70A08231 PUSH1 0xE0 SHL DUP2 MSTORE CALLER DUP4 DUP3 ADD MSTORE PUSH32 0x0 PUSH1 0x1 PUSH1 0x1 PUSH1 0xA0 SHL SUB AND SWAP1 DUP9 DUP2 PUSH1 0x24 DUP2 DUP6 GAS STATICCALL SWAP1 DUP2 ISZERO PUSH2 0x6FA JUMPI SWAP1 DUP10 SWAP3 SWAP2 PUSH0 SWAP2 PUSH2 0x6CB JUMPI JUMPDEST POP DUP1 DUP7 LT ISZERO PUSH2 0x6C5 JUMPI POP DUP5 SWAP1 JUMPDEST DUP2 PUSH2 0x633 JUMPI JUMPDEST POP POP PUSH2 0x4AE JUMP JUMPDEST DUP1 SWAP2 SWAP3 POP EXTCODESIZE ISZERO PUSH2 0x6C1 JUMPI DUP6 MLOAD PUSH4 0x2770A7EB PUSH1 0xE2 SHL DUP2 MSTORE CALLER DUP6 DUP3 ADD SWAP1 DUP2 MSTORE PUSH1 0x20 DUP2 ADD SWAP4 SWAP1 SWAP4 MSTORE SWAP2 PUSH0 SWAP2 DUP4 SWAP2 DUP3 SWAP1 DUP5 SWAP1 DUP3 SWAP1 PUSH1 0x40 ADD SUB SWAP3 GAS CALL DUP1 ISZERO PUSH2 0x6B7 JUMPI SWAP1 DUP9 SWAP3 SWAP2 PUSH2 0x682 JUMPI JUMPDEST DUP1 SWAP3 SWAP2 SWAP3 PUSH2 0x62C JUMP JUMPDEST PUSH8 0xFFFFFFFFFFFFFFFF SWAP2 SWAP8 POP DUP1 SWAP3 POP GT PUSH2 0x6A4 JUMPI DUP4 MSTORE PUSH0 SWAP5 DUP7 SWAP1 PUSH2 0x4D2 PUSH2 0x679 JUMP JUMPDEST PUSH1 0x41 DUP3 PUSH4 0x4E487B71 PUSH1 0xE0 SHL PUSH0 MSTORE MSTORE PUSH1 0x24 PUSH0 REVERT JUMPDEST DUP6 MLOAD RETURNDATASIZE PUSH0 DUP3 RETURNDATACOPY RETURNDATASIZE SWAP1 REVERT JUMPDEST PUSH0 DUP1 REVERT JUMPDEST SWAP1 PUSH2 0x626 JUMP JUMPDEST DUP4 DUP2 SWAP5 SWAP3 POP RETURNDATASIZE DUP4 GT PUSH2 0x6F3 JUMPI JUMPDEST PUSH2 0x6E2 DUP2 DUP4 PUSH2 0xD45 JUMP JUMPDEST DUP2 ADD SUB SLT PUSH2 0x6C1 JUMPI DUP9 SWAP2 MLOAD DUP11 PUSH2 0x619 JUMP JUMPDEST POP RETURNDATASIZE PUSH2 0x6D8 JUMP JUMPDEST DUP7 MLOAD RETURNDATASIZE PUSH0 DUP3 RETURNDATACOPY RETURNDATASIZE SWAP1 REVERT JUMPDEST DUP3 MLOAD PUSH3 0x461BCD PUSH1 0xE5 SHL DUP2 MSTORE SWAP1 DUP2 ADD DUP7 SWAP1 MSTORE PUSH1 0x16 PUSH1 0x24 DUP3 ADD MSTORE PUSH22 0x574144453A206E6F7468696E6720746F20636C61696D PUSH1 0x50 SHL PUSH1 0x44 DUP3 ADD MSTORE PUSH1 0x64 SWAP1 REVERT JUMPDEST POP DUP2 ISZERO ISZERO PUSH2 0x483 JUMP JUMPDEST DUP3 CALLVALUE PUSH2 0x6C1 JUMPI PUSH0 CALLDATASIZE PUSH1 0x3 NOT ADD SLT PUSH2 0x6C1 JUMPI PUSH1 0x20 SWAP1 PUSH1 0x2 SLOAD SWAP1 MLOAD SWAP1 DUP2 MSTORE RETURN JUMPDEST SWAP1 POP CALLVALUE PUSH2 0x6C1 JUMPI PUSH1 0x80 CALLDATASIZE PUSH1 0x3 NOT ADD SLT PUSH2 0x6C1 JUMPI DUP1 CALLDATALOAD PUSH1 0x24 SWAP2 DUP3 CALLDATALOAD SWAP3 PUSH1 0x44 CALLDATALOAD SWAP2 PUSH1 0x64 CALLDATALOAD SWAP2 PUSH2 0x792 PUSH2 0xDF2 JUMP JUMPDEST DUP3 ISZERO PUSH2 0xA11 JUMPI PUSH1 0x9 SLOAD PUSH0 NOT DUP2 EQ PUSH2 0x8C5 JUMPI PUSH1 0x1 ADD PUSH1 0x9 SSTORE DUP4 PUSH2 0x8D8 JUMPI JUMPDEST DUP6 ISZERO DUP1 ISZERO PUSH2 0x892 JUMPI JUMPDEST POP DUP5 ISZERO SWAP2 DUP3 ISZERO PUSH2 0x822 JUMPI JUMPDEST DUP8 PUSH32 0xB7B794F31825E881CB81620679786270B7DE900BD12EC02B21C33E3BFDDAAF3E PUSH1 0xA0 DUP10 DUP10 DUP10 PUSH2 0x7FF PUSH2 0x7F7 DUP5 DUP5 PUSH2 0xDCD JUMP JUMPDEST PUSH1 0x7 SLOAD PUSH2 0xDCD JUMP JUMPDEST PUSH1 0x7 SSTORE PUSH1 0x9 SLOAD SWAP6 DUP1 MLOAD SWAP4 DUP4 DUP6 MSTORE PUSH1 0x20 DUP6 ADD MSTORE DUP4 ADD MSTORE PUSH1 0x60 DUP3 ADD MSTORE TIMESTAMP PUSH1 0x80 DUP3 ADD MSTORE LOG2 STOP JUMPDEST PUSH5 0xE8D4A51000 SWAP3 DUP4 DUP8 MUL SWAP4 DUP8 DUP6 DIV EQ OR ISZERO PUSH2 0x881 JUMPI POP POP SWAP2 PUSH2 0x874 PUSH2 0x86C PUSH1 0xA0 SWAP6 SWAP4 PUSH32 0xB7B794F31825E881CB81620679786270B7DE900BD12EC02B21C33E3BFDDAAF3E SWAP8 SWAP6 PUSH2 0xDAF JUMP JUMPDEST PUSH1 0x2 SLOAD PUSH2 0xDCD JUMP JUMPDEST PUSH1 0x2 SSTORE SWAP2 SWAP4 DUP2 SWAP4 DUP8 PUSH2 0x7C3 JUMP JUMPDEST PUSH1 0x11 SWAP1 PUSH4 0x4E487B71 PUSH1 0xE0 SHL PUSH0 MSTORE MSTORE PUSH0 REVERT JUMPDEST PUSH5 0xE8D4A51000 SWAP1 DUP2 DUP9 MUL SWAP2 DUP9 DUP4 DIV EQ OR ISZERO PUSH2 0x8C5 JUMPI PUSH2 0x8B4 DUP5 PUSH2 0x8BC SWAP3 PUSH2 0xDAF JUMP JUMPDEST PUSH1 0x1 SLOAD PUSH2 0xDCD JUMP JUMPDEST PUSH1 0x1 SSTORE DUP8 PUSH2 0x7B8 JUMP JUMPDEST POP PUSH4 0x4E487B71 PUSH1 0xE0 SHL PUSH0 SWAP1 DUP2 MSTORE PUSH1 0x11 DUP4 MSTORE REVERT JUMPDEST DUP7 MLOAD PUSH4 0xA9059CBB PUSH1 0xE0 SHL DUP2 MSTORE PUSH1 0x1 PUSH1 0x1 PUSH1 0xA0 SHL SUB PUSH32 0x0 DUP2 DUP2 AND DUP6 DUP5 ADD SWAP1 DUP2 MSTORE PUSH1 0x20 DUP1 DUP3 ADD DUP10 SWAP1 MSTORE SWAP2 SWAP4 SWAP2 SWAP1 DUP3 SWAP1 DUP2 SWAP1 PUSH1 0x40 ADD SUB DUP2 PUSH0 DUP7 PUSH32 0x0 AND GAS CALL SWAP1 DUP2 ISZERO PUSH2 0xA07 JUMPI PUSH0 SWAP2 PUSH2 0x9E8 JUMPI JUMPDEST POP ISZERO PUSH2 0x9A6 JUMPI PUSH1 0x20 PUSH32 0x880B0E717A57F3B5CBD3FC19396AE3C8CDEE5C624C9289477869C38014C8495 SWAP2 PUSH2 0x995 DUP9 PUSH1 0x8 SLOAD PUSH2 0xDCD JUMP JUMPDEST PUSH1 0x8 SSTORE DUP11 MLOAD SWAP4 DUP9 DUP6 MSTORE AND SWAP3 LOG2 PUSH2 0x7AF JUMP JUMPDEST DUP9 MLOAD PUSH3 0x461BCD PUSH1 0xE5 SHL DUP2 MSTORE PUSH1 0x20 DUP2 DUP7 ADD MSTORE PUSH1 0x1E DUP2 DUP6 ADD MSTORE PUSH32 0x574144453A207472656173757279207472616E73666572206661696C65640000 PUSH1 0x44 DUP3 ADD MSTORE PUSH1 0x64 SWAP1 REVERT JUMPDEST PUSH2 0xA01 SWAP2 POP PUSH1 0x20 RETURNDATASIZE PUSH1 0x20 GT PUSH2 0x5B1 JUMPI PUSH2 0x5A3 DUP2 DUP4 PUSH2 0xD45 JUMP JUMPDEST DUP11 PUSH2 0x95F JUMP JUMPDEST DUP11 MLOAD RETURNDATASIZE PUSH0 DUP3 RETURNDATACOPY RETURNDATASIZE SWAP1 REVERT JUMPDEST SWAP1 PUSH1 0x13 PUSH1 0x64 SWAP3 PUSH1 0x20 DUP10 MLOAD SWAP4 PUSH3 0x461BCD PUSH1 0xE5 SHL DUP6 MSTORE DUP5 ADD MSTORE DUP3 ADD MSTORE PUSH19 0x574144453A206E6F204D495420737570706C79 PUSH1 0x68 SHL PUSH1 0x44 DUP3 ADD MSTORE REVERT JUMPDEST DUP3 CALLVALUE PUSH2 0x6C1 JUMPI PUSH0 CALLDATASIZE PUSH1 0x3 NOT ADD SLT PUSH2 0x6C1 JUMPI MLOAD PUSH32 0x0 PUSH1 0x1 PUSH1 0x1 PUSH1 0xA0 SHL SUB AND DUP2 MSTORE PUSH1 0x20 SWAP1 RETURN JUMPDEST DUP3 CALLVALUE PUSH2 0x6C1 JUMPI DUP1 PUSH1 0x3 NOT CALLDATASIZE ADD SLT PUSH2 0x6C1 JUMPI PUSH2 0xAA5 PUSH2 0xD2F JUMP JUMPDEST SWAP1 CALLER PUSH1 0x1 PUSH1 0x1 PUSH1 0xA0 SHL SUB DUP4 AND SUB PUSH2 0xAC3 JUMPI POP PUSH2 0xAC1 SWAP2 CALLDATALOAD PUSH2 0xF08 JUMP JUMPDEST STOP JUMPDEST MLOAD PUSH4 0x334BD919 PUSH1 0xE1 SHL DUP2 MSTORE SWAP1 POP REVERT JUMPDEST DUP3 CALLVALUE PUSH2 0x6C1 JUMPI DUP1 PUSH1 0x3 NOT CALLDATASIZE ADD SLT PUSH2 0x6C1 JUMPI PUSH2 0xAC1 SWAP2 CALLDATALOAD PUSH2 0xB06 PUSH1 0x1 PUSH2 0xAF5 PUSH2 0xD2F JUMP JUMPDEST SWAP4 DUP4 PUSH0 MSTORE PUSH0 PUSH1 0x20 MSTORE PUSH0 KECCAK256 ADD SLOAD PUSH2 0xE6B JUMP JUMPDEST PUSH2 0xE8C JUMP JUMPDEST DUP3 CALLVALUE PUSH2 0x6C1 JUMPI PUSH0 CALLDATASIZE PUSH1 0x3 NOT ADD SLT PUSH2 0x6C1 JUMPI MLOAD PUSH32 0x0 PUSH1 0x1 PUSH1 0x1 PUSH1 0xA0 SHL SUB AND DUP2 MSTORE PUSH1 0x20 SWAP1 RETURN JUMPDEST DUP3 CALLVALUE PUSH2 0x6C1 JUMPI PUSH1 0x20 CALLDATASIZE PUSH1 0x3 NOT ADD SLT PUSH2 0x6C1 JUMPI PUSH1 0x20 SWAP2 CALLDATALOAD PUSH0 MSTORE PUSH0 DUP3 MSTORE PUSH1 0x1 DUP2 PUSH0 KECCAK256 ADD SLOAD SWAP1 MLOAD SWAP1 DUP2 MSTORE RETURN JUMPDEST SWAP1 POP CALLVALUE PUSH2 0x6C1 JUMPI PUSH1 0x20 SWAP1 DUP2 PUSH1 0x3 NOT CALLDATASIZE ADD SLT PUSH2 0x6C1 JUMPI DUP2 SWAP1 PUSH2 0xB96 PUSH2 0xD19 JUMP JUMPDEST DUP5 MLOAD PUSH4 0x70A08231 PUSH1 0xE0 SHL DUP2 MSTORE PUSH1 0x1 PUSH1 0x1 PUSH1 0xA0 SHL SUB SWAP2 DUP3 AND DUP2 DUP5 ADD DUP2 SWAP1 MSTORE SWAP5 SWAP1 SWAP3 SWAP2 DUP4 SWAP1 PUSH1 0x24 SWAP1 DUP3 SWAP1 PUSH32 0x0 AND GAS STATICCALL DUP1 ISZERO PUSH2 0x6B7 JUMPI PUSH0 SWAP1 PUSH2 0xC5E JUMPI JUMPDEST PUSH2 0xC53 SWAP3 POP DUP5 PUSH0 MSTORE PUSH1 0x5 DUP5 MSTORE PUSH2 0xC2D DUP7 PUSH0 KECCAK256 SLOAD SWAP2 PUSH2 0xC34 PUSH1 0x1 SLOAD SWAP4 PUSH1 0x3 DUP9 MSTORE DUP10 PUSH2 0xC2D DUP5 PUSH2 0xC28 PUSH5 0xE8D4A51000 SWAP9 DUP10 SWAP5 PUSH0 KECCAK256 SLOAD SWAP1 PUSH2 0xD7B JUMP JUMPDEST PUSH2 0xD9C JUMP JUMPDEST DIV SWAP1 PUSH2 0xDCD JUMP JUMPDEST SWAP7 PUSH0 MSTORE PUSH1 0x6 DUP7 MSTORE PUSH2 0xC28 DUP9 PUSH0 KECCAK256 SLOAD SWAP5 PUSH1 0x2 SLOAD SWAP1 DUP9 MSTORE DUP10 PUSH0 KECCAK256 SLOAD SWAP1 PUSH2 0xD7B JUMP JUMPDEST SWAP1 DUP4 MLOAD SWAP3 DUP4 MSTORE DUP3 ADD MSTORE RETURN JUMPDEST POP DUP3 DUP3 DUP2 RETURNDATASIZE DUP4 GT PUSH2 0xC86 JUMPI JUMPDEST PUSH2 0xC74 DUP2 DUP4 PUSH2 0xD45 JUMP JUMPDEST DUP2 ADD SUB SLT PUSH2 0x6C1 JUMPI PUSH2 0xC53 SWAP2 MLOAD PUSH2 0xBEF JUMP JUMPDEST POP RETURNDATASIZE PUSH2 0xC6A JUMP JUMPDEST SWAP1 POP CALLVALUE PUSH2 0x6C1 JUMPI PUSH1 0x20 CALLDATASIZE PUSH1 0x3 NOT ADD SLT PUSH2 0x6C1 JUMPI CALLDATALOAD PUSH4 0xFFFFFFFF PUSH1 0xE0 SHL DUP2 AND DUP1 SWAP2 SUB PUSH2 0x6C1 JUMPI PUSH1 0x20 SWAP2 PUSH4 0x7965DB0B PUSH1 0xE0 SHL DUP3 EQ SWAP2 DUP3 ISZERO PUSH2 0xCD0 JUMPI JUMPDEST POP MLOAD SWAP1 ISZERO ISZERO DUP2 MSTORE RETURN JUMPDEST PUSH4 0x1FFC9A7 PUSH1 0xE0 SHL EQ SWAP2 POP DUP4 PUSH2 0xCC7 JUMP JUMPDEST CALLVALUE PUSH2 0x6C1 JUMPI PUSH0 CALLDATASIZE PUSH1 0x3 NOT ADD SLT PUSH2 0x6C1 JUMPI DUP1 PUSH32 0x9C81408027135C0110A5451971BDD98DBF60C57E65D8CD78B7E1C47105A3EE35 PUSH1 0x20 SWAP3 MSTORE RETURN JUMPDEST PUSH1 0x4 CALLDATALOAD SWAP1 PUSH1 0x1 PUSH1 0x1 PUSH1 0xA0 SHL SUB DUP3 AND DUP3 SUB PUSH2 0x6C1 JUMPI JUMP JUMPDEST PUSH1 0x24 CALLDATALOAD SWAP1 PUSH1 0x1 PUSH1 0x1 PUSH1 0xA0 SHL SUB DUP3 AND DUP3 SUB PUSH2 0x6C1 JUMPI JUMP JUMPDEST SWAP1 PUSH1 0x1F DUP1 NOT SWAP2 ADD AND DUP2 ADD SWAP1 DUP2 LT PUSH8 0xFFFFFFFFFFFFFFFF DUP3 GT OR PUSH2 0xD67 JUMPI PUSH1 0x40 MSTORE JUMP JUMPDEST PUSH4 0x4E487B71 PUSH1 0xE0 SHL PUSH0 MSTORE PUSH1 0x41 PUSH1 0x4 MSTORE PUSH1 0x24 PUSH0 REVERT JUMPDEST SWAP2 SWAP1 DUP3 SUB SWAP2 DUP3 GT PUSH2 0xD88 JUMPI JUMP JUMPDEST PUSH4 0x4E487B71 PUSH1 0xE0 SHL PUSH0 MSTORE PUSH1 0x11 PUSH1 0x4 MSTORE PUSH1 0x24 PUSH0 REVERT JUMPDEST DUP2 DUP2 MUL SWAP3 SWAP2 DUP2 ISZERO SWAP2 DUP5 DIV EQ OR ISZERO PUSH2 0xD88 JUMPI JUMP JUMPDEST DUP2 ISZERO PUSH2 0xDB9 JUMPI DIV SWAP1 JUMP JUMPDEST PUSH4 0x4E487B71 PUSH1 0xE0 SHL PUSH0 MSTORE PUSH1 0x12 PUSH1 0x4 MSTORE PUSH1 0x24 PUSH0 REVERT JUMPDEST SWAP2 SWAP1 DUP3 ADD DUP1 SWAP3 GT PUSH2 0xD88 JUMPI JUMP JUMPDEST SWAP1 DUP2 PUSH1 0x20 SWAP2 SUB SLT PUSH2 0x6C1 JUMPI MLOAD DUP1 ISZERO ISZERO DUP2 SUB PUSH2 0x6C1 JUMPI SWAP1 JUMP JUMPDEST CALLER PUSH0 SWAP1 DUP2 MSTORE PUSH32 0xD439BC0518D0A531D536F3ED9C15DB9487AEFBC8051A48EC78DCDDFFD7BD3A63 PUSH1 0x20 MSTORE PUSH1 0x40 SWAP1 KECCAK256 SLOAD PUSH32 0x9C81408027135C0110A5451971BDD98DBF60C57E65D8CD78B7E1C47105A3EE35 SWAP1 PUSH1 0xFF AND ISZERO PUSH2 0xE4D JUMPI POP JUMP JUMPDEST PUSH1 0x44 SWAP1 PUSH1 0x40 MLOAD SWAP1 PUSH4 0xE2517D3F PUSH1 0xE0 SHL DUP3 MSTORE CALLER PUSH1 0x4 DUP4 ADD MSTORE PUSH1 0x24 DUP3 ADD MSTORE REVERT JUMPDEST DUP1 PUSH0 MSTORE PUSH0 PUSH1 0x20 MSTORE PUSH1 0x40 PUSH0 KECCAK256 CALLER PUSH0 MSTORE PUSH1 0x20 MSTORE PUSH1 0xFF PUSH1 0x40 PUSH0 KECCAK256 SLOAD AND ISZERO PUSH2 0xE4D JUMPI POP JUMP JUMPDEST SWAP1 DUP2 PUSH0 MSTORE PUSH0 PUSH1 0x20 MSTORE PUSH1 0x40 PUSH0 KECCAK256 SWAP1 PUSH1 0x1 DUP1 PUSH1 0xA0 SHL SUB AND SWAP1 DUP2 PUSH0 MSTORE PUSH1 0x20 MSTORE PUSH1 0xFF PUSH1 0x40 PUSH0 KECCAK256 SLOAD AND ISZERO PUSH0 EQ PUSH2 0xF02 JUMPI DUP2 PUSH0 MSTORE PUSH0 PUSH1 0x20 MSTORE PUSH1 0x40 PUSH0 KECCAK256 DUP2 PUSH0 MSTORE PUSH1 0x20 MSTORE PUSH1 0x40 PUSH0 KECCAK256 PUSH1 0x1 PUSH1 0xFF NOT DUP3 SLOAD AND OR SWAP1 SSTORE CALLER SWAP2 PUSH32 0x2F8788117E7EFF1D82E926EC794901D17C78024A50270940304540A733656F0D PUSH0 DUP1 LOG4 PUSH1 0x1 SWAP1 JUMP JUMPDEST POP POP PUSH0 SWAP1 JUMP JUMPDEST SWAP1 DUP2 PUSH0 MSTORE PUSH0 PUSH1 0x20 MSTORE PUSH1 0x40 PUSH0 KECCAK256 SWAP1 PUSH1 0x1 DUP1 PUSH1 0xA0 SHL SUB AND SWAP1 DUP2 PUSH0 MSTORE PUSH1 0x20 MSTORE PUSH1 0xFF PUSH1 0x40 PUSH0 KECCAK256 SLOAD AND PUSH0 EQ PUSH2 0xF02 JUMPI DUP2 PUSH0 MSTORE PUSH0 PUSH1 0x20 MSTORE PUSH1 0x40 PUSH0 KECCAK256 DUP2 PUSH0 MSTORE PUSH1 0x20 MSTORE PUSH1 0x40 PUSH0 KECCAK256 PUSH1 0xFF NOT DUP2 SLOAD AND SWAP1 SSTORE CALLER SWAP2 PUSH32 0xF6391F5C32D9C69D2A47EA670B442974B53935D1EDC7FD64EB21E047A839171B PUSH0 DUP1 LOG4 PUSH1 0x1 SWAP1 JUMP JUMPDEST PUSH1 0x40 DUP1 MLOAD PUSH4 0x70A08231 PUSH1 0xE0 SHL DUP2 MSTORE PUSH1 0x1 PUSH1 0x1 PUSH1 0xA0 SHL SUB SWAP3 DUP4 AND PUSH1 0x4 DUP3 ADD DUP2 SWAP1 MSTORE PUSH1 0x20 SWAP4 SWAP1 SWAP2 SWAP1 DUP5 SWAP1 DUP3 SWAP1 PUSH1 0x24 SWAP1 DUP3 SWAP1 PUSH32 0x0 AND GAS STATICCALL SWAP1 DUP2 ISZERO PUSH2 0x1094 JUMPI PUSH0 SWAP2 PUSH2 0x1065 JUMPI JUMPDEST POP PUSH2 0x1033 PUSH2 0xC28 SWAP2 PUSH1 0x1 SLOAD DUP5 PUSH0 MSTORE PUSH1 0x3 DUP8 MSTORE PUSH2 0x1004 DUP3 PUSH5 0xE8D4A51000 SWAP6 DUP7 SWAP4 DUP10 PUSH0 KECCAK256 SLOAD SWAP1 PUSH2 0xD7B JUMP JUMPDEST DIV DUP5 PUSH0 MSTORE PUSH1 0x5 DUP8 MSTORE PUSH2 0x101A DUP7 PUSH0 KECCAK256 SWAP2 DUP3 SLOAD PUSH2 0xDCD JUMP JUMPDEST SWAP1 SSTORE PUSH2 0xC28 PUSH1 0x2 SLOAD DUP6 PUSH0 MSTORE PUSH1 0x4 DUP9 MSTORE DUP7 PUSH0 KECCAK256 SLOAD SWAP1 PUSH2 0xD7B JUMP JUMPDEST DIV DUP2 PUSH0 MSTORE PUSH1 0x6 DUP5 MSTORE PUSH2 0x1049 DUP4 PUSH0 KECCAK256 SWAP2 DUP3 SLOAD PUSH2 0xDCD JUMP JUMPDEST SWAP1 SSTORE PUSH1 0x1 SLOAD SWAP1 PUSH0 MSTORE PUSH1 0x3 DUP4 MSTORE DUP2 PUSH0 KECCAK256 SSTORE PUSH1 0x4 PUSH1 0x2 SLOAD SWAP3 MSTORE PUSH0 KECCAK256 SSTORE JUMP JUMPDEST SWAP1 POP DUP4 DUP2 DUP2 RETURNDATASIZE DUP4 GT PUSH2 0x108D JUMPI JUMPDEST PUSH2 0x107C DUP2 DUP4 PUSH2 0xD45 JUMP JUMPDEST DUP2 ADD SUB SLT PUSH2 0x6C1 JUMPI MLOAD PUSH2 0x1033 PUSH2 0xFDB JUMP JUMPDEST POP RETURNDATASIZE PUSH2 0x1072 JUMP JUMPDEST DUP4 MLOAD RETURNDATASIZE PUSH0 DUP3 RETURNDATACOPY RETURNDATASIZE SWAP1 REVERT INVALID LOG2 PUSH5 0x6970667358 0x22 SLT KECCAK256 SAR MULMOD MCOPY MOD PUSH18 0x9B6428401EAE1342528567A82BB4589737E2 DUP3 DELEGATECALL PUSH9 0xDDACE49F179964736F PUSH13 0x634300081900332F8788117E7E SELFDESTRUCT SAR DUP3 0xE9 0x26 0xEC PUSH26 0x4901D17C78024A50270940304540A733656F0DAD3228B676F7D3 0xCD TIMESTAMP DUP5 0xA5 PREVRANDAO EXTCODEHASH OR CALL SWAP7 0x2B CALLDATASIZE 0xE4 SWAP2 0xB3 EXP BLOCKHASH 0xB2 BLOCKHASH PC BLOBHASH 0xE5 SWAP8 0xBA PUSH0 0xB5 "},"methodIdentifiers":{"DEFAULT_ADMIN_ROLE()":"a217fddf","POOL_CONTRACT_ROLE()":"009597e0","PRECISION()":"aaf5eb68","accPrincipalPerMIT()":"4a599862","accYieldPerMIT()":"f107c7fe","claim()":"4e71d92d","distributeRepayment(uint256,uint256,uint256,uint256)":"4a360691","getRoleAdmin(bytes32)":"248a9ca3","grantRole(bytes32,address)":"2f2ff15d","hasRole(bytes32,address)":"91d14854","mitToken()":"2669e4dd","pendingClaimable(address)":"06763822","pendingPrincipal(address)":"fe6b4322","pendingYield(address)":"c7bf1980","periodCount()":"7f197519","poolContract()":"88d52ef7","principalDebt(address)":"de9ce35c","renounceRole(bytes32,address)":"36568abe","revokeRole(bytes32,address)":"d547741f","settleOnTransfer(address,address)":"bffdd9f1","supportsInterface(bytes4)":"01ffc9a7","totalDistributed()":"efca2eed","totalProtocolFees()":"f526e39a","treasury()":"61d027b3","usdc()":"3e413bee","yieldDebt(address)":"96a2d5b0"}}}}}