{
  "_format": "hh-sol-artifact-1",
  "contractName": "MITToken",
  "sourceName": "contracts/MITToken.sol",
  "abi": [
    {
      "inputs": [
        {
          "internalType": "string",
          "name": "_poolName",
          "type": "string"
        },
        {
          "internalType": "string",
          "name": "_symbol",
          "type": "string"
        },
        {
          "internalType": "address",
          "name": "_poolContract",
          "type": "address"
        },
        {
          "internalType": "address",
          "name": "_issuancePartner",
          "type": "address"
        },
        {
          "internalType": "address",
          "name": "_admin",
          "type": "address"
        }
      ],
      "stateMutability": "nonpayable",
      "type": "constructor"
    },
    {
      "inputs": [],
      "name": "AccessControlBadConfirmation",
      "type": "error"
    },
    {
      "inputs": [
        {
          "internalType": "address",
          "name": "account",
          "type": "address"
        },
        {
          "internalType": "bytes32",
          "name": "neededRole",
          "type": "bytes32"
        }
      ],
      "name": "AccessControlUnauthorizedAccount",
      "type": "error"
    },
    {
      "inputs": [
        {
          "internalType": "address",
          "name": "spender",
          "type": "address"
        },
        {
          "internalType": "uint256",
          "name": "allowance",
          "type": "uint256"
        },
        {
          "internalType": "uint256",
          "name": "needed",
          "type": "uint256"
        }
      ],
      "name": "ERC20InsufficientAllowance",
      "type": "error"
    },
    {
      "inputs": [
        {
          "internalType": "address",
          "name": "sender",
          "type": "address"
        },
        {
          "internalType": "uint256",
          "name": "balance",
          "type": "uint256"
        },
        {
          "internalType": "uint256",
          "name": "needed",
          "type": "uint256"
        }
      ],
      "name": "ERC20InsufficientBalance",
      "type": "error"
    },
    {
      "inputs": [
        {
          "internalType": "address",
          "name": "approver",
          "type": "address"
        }
      ],
      "name": "ERC20InvalidApprover",
      "type": "error"
    },
    {
      "inputs": [
        {
          "internalType": "address",
          "name": "receiver",
          "type": "address"
        }
      ],
      "name": "ERC20InvalidReceiver",
      "type": "error"
    },
    {
      "inputs": [
        {
          "internalType": "address",
          "name": "sender",
          "type": "address"
        }
      ],
      "name": "ERC20InvalidSender",
      "type": "error"
    },
    {
      "inputs": [
        {
          "internalType": "address",
          "name": "spender",
          "type": "address"
        }
      ],
      "name": "ERC20InvalidSpender",
      "type": "error"
    },
    {
      "anonymous": false,
      "inputs": [
        {
          "indexed": true,
          "internalType": "address",
          "name": "account",
          "type": "address"
        }
      ],
      "name": "AddressRemovedFromWhitelist",
      "type": "event"
    },
    {
      "anonymous": false,
      "inputs": [
        {
          "indexed": true,
          "internalType": "address",
          "name": "account",
          "type": "address"
        }
      ],
      "name": "AddressWhitelisted",
      "type": "event"
    },
    {
      "anonymous": false,
      "inputs": [
        {
          "indexed": true,
          "internalType": "address",
          "name": "owner",
          "type": "address"
        },
        {
          "indexed": true,
          "internalType": "address",
          "name": "spender",
          "type": "address"
        },
        {
          "indexed": false,
          "internalType": "uint256",
          "name": "value",
          "type": "uint256"
        }
      ],
      "name": "Approval",
      "type": "event"
    },
    {
      "anonymous": false,
      "inputs": [
        {
          "indexed": true,
          "internalType": "bytes32",
          "name": "role",
          "type": "bytes32"
        },
        {
          "indexed": true,
          "internalType": "bytes32",
          "name": "previousAdminRole",
          "type": "bytes32"
        },
        {
          "indexed": true,
          "internalType": "bytes32",
          "name": "newAdminRole",
          "type": "bytes32"
        }
      ],
      "name": "RoleAdminChanged",
      "type": "event"
    },
    {
      "anonymous": false,
      "inputs": [
        {
          "indexed": true,
          "internalType": "bytes32",
          "name": "role",
          "type": "bytes32"
        },
        {
          "indexed": true,
          "internalType": "address",
          "name": "account",
          "type": "address"
        },
        {
          "indexed": true,
          "internalType": "address",
          "name": "sender",
          "type": "address"
        }
      ],
      "name": "RoleGranted",
      "type": "event"
    },
    {
      "anonymous": false,
      "inputs": [
        {
          "indexed": true,
          "internalType": "bytes32",
          "name": "role",
          "type": "bytes32"
        },
        {
          "indexed": true,
          "internalType": "address",
          "name": "account",
          "type": "address"
        },
        {
          "indexed": true,
          "internalType": "address",
          "name": "sender",
          "type": "address"
        }
      ],
      "name": "RoleRevoked",
      "type": "event"
    },
    {
      "anonymous": false,
      "inputs": [
        {
          "indexed": true,
          "internalType": "address",
          "name": "from",
          "type": "address"
        },
        {
          "indexed": true,
          "internalType": "address",
          "name": "to",
          "type": "address"
        },
        {
          "indexed": false,
          "internalType": "uint256",
          "name": "value",
          "type": "uint256"
        }
      ],
      "name": "Transfer",
      "type": "event"
    },
    {
      "inputs": [],
      "name": "DEFAULT_ADMIN_ROLE",
      "outputs": [
        {
          "internalType": "bytes32",
          "name": "",
          "type": "bytes32"
        }
      ],
      "stateMutability": "view",
      "type": "function"
    },
    {
      "inputs": [],
      "name": "POOL_CONTRACT_ROLE",
      "outputs": [
        {
          "internalType": "bytes32",
          "name": "",
          "type": "bytes32"
        }
      ],
      "stateMutability": "view",
      "type": "function"
    },
    {
      "inputs": [],
      "name": "WHITELIST_MANAGER_ROLE",
      "outputs": [
        {
          "internalType": "bytes32",
          "name": "",
          "type": "bytes32"
        }
      ],
      "stateMutability": "view",
      "type": "function"
    },
    {
      "inputs": [
        {
          "internalType": "address",
          "name": "account",
          "type": "address"
        }
      ],
      "name": "addToWhitelist",
      "outputs": [],
      "stateMutability": "nonpayable",
      "type": "function"
    },
    {
      "inputs": [
        {
          "internalType": "address",
          "name": "owner",
          "type": "address"
        },
        {
          "internalType": "address",
          "name": "spender",
          "type": "address"
        }
      ],
      "name": "allowance",
      "outputs": [
        {
          "internalType": "uint256",
          "name": "",
          "type": "uint256"
        }
      ],
      "stateMutability": "view",
      "type": "function"
    },
    {
      "inputs": [
        {
          "internalType": "address",
          "name": "spender",
          "type": "address"
        },
        {
          "internalType": "uint256",
          "name": "value",
          "type": "uint256"
        }
      ],
      "name": "approve",
      "outputs": [
        {
          "internalType": "bool",
          "name": "",
          "type": "bool"
        }
      ],
      "stateMutability": "nonpayable",
      "type": "function"
    },
    {
      "inputs": [
        {
          "internalType": "address",
          "name": "account",
          "type": "address"
        }
      ],
      "name": "balanceOf",
      "outputs": [
        {
          "internalType": "uint256",
          "name": "",
          "type": "uint256"
        }
      ],
      "stateMutability": "view",
      "type": "function"
    },
    {
      "inputs": [
        {
          "internalType": "address",
          "name": "from",
          "type": "address"
        },
        {
          "internalType": "uint256",
          "name": "amount",
          "type": "uint256"
        }
      ],
      "name": "burn",
      "outputs": [],
      "stateMutability": "nonpayable",
      "type": "function"
    },
    {
      "inputs": [],
      "name": "decimals",
      "outputs": [
        {
          "internalType": "uint8",
          "name": "",
          "type": "uint8"
        }
      ],
      "stateMutability": "pure",
      "type": "function"
    },
    {
      "inputs": [
        {
          "internalType": "bytes32",
          "name": "role",
          "type": "bytes32"
        }
      ],
      "name": "getRoleAdmin",
      "outputs": [
        {
          "internalType": "bytes32",
          "name": "",
          "type": "bytes32"
        }
      ],
      "stateMutability": "view",
      "type": "function"
    },
    {
      "inputs": [
        {
          "internalType": "bytes32",
          "name": "role",
          "type": "bytes32"
        },
        {
          "internalType": "address",
          "name": "account",
          "type": "address"
        }
      ],
      "name": "grantRole",
      "outputs": [],
      "stateMutability": "nonpayable",
      "type": "function"
    },
    {
      "inputs": [
        {
          "internalType": "bytes32",
          "name": "role",
          "type": "bytes32"
        },
        {
          "internalType": "address",
          "name": "account",
          "type": "address"
        }
      ],
      "name": "hasRole",
      "outputs": [
        {
          "internalType": "bool",
          "name": "",
          "type": "bool"
        }
      ],
      "stateMutability": "view",
      "type": "function"
    },
    {
      "inputs": [
        {
          "internalType": "address",
          "name": "to",
          "type": "address"
        },
        {
          "internalType": "uint256",
          "name": "amount",
          "type": "uint256"
        }
      ],
      "name": "mint",
      "outputs": [],
      "stateMutability": "nonpayable",
      "type": "function"
    },
    {
      "inputs": [],
      "name": "name",
      "outputs": [
        {
          "internalType": "string",
          "name": "",
          "type": "string"
        }
      ],
      "stateMutability": "view",
      "type": "function"
    },
    {
      "inputs": [],
      "name": "poolContract",
      "outputs": [
        {
          "internalType": "address",
          "name": "",
          "type": "address"
        }
      ],
      "stateMutability": "view",
      "type": "function"
    },
    {
      "inputs": [],
      "name": "poolName",
      "outputs": [
        {
          "internalType": "string",
          "name": "",
          "type": "string"
        }
      ],
      "stateMutability": "view",
      "type": "function"
    },
    {
      "inputs": [
        {
          "internalType": "address",
          "name": "account",
          "type": "address"
        }
      ],
      "name": "removeFromWhitelist",
      "outputs": [],
      "stateMutability": "nonpayable",
      "type": "function"
    },
    {
      "inputs": [
        {
          "internalType": "bytes32",
          "name": "role",
          "type": "bytes32"
        },
        {
          "internalType": "address",
          "name": "callerConfirmation",
          "type": "address"
        }
      ],
      "name": "renounceRole",
      "outputs": [],
      "stateMutability": "nonpayable",
      "type": "function"
    },
    {
      "inputs": [
        {
          "internalType": "bytes32",
          "name": "role",
          "type": "bytes32"
        },
        {
          "internalType": "address",
          "name": "account",
          "type": "address"
        }
      ],
      "name": "revokeRole",
      "outputs": [],
      "stateMutability": "nonpayable",
      "type": "function"
    },
    {
      "inputs": [
        {
          "internalType": "bytes4",
          "name": "interfaceId",
          "type": "bytes4"
        }
      ],
      "name": "supportsInterface",
      "outputs": [
        {
          "internalType": "bool",
          "name": "",
          "type": "bool"
        }
      ],
      "stateMutability": "view",
      "type": "function"
    },
    {
      "inputs": [],
      "name": "symbol",
      "outputs": [
        {
          "internalType": "string",
          "name": "",
          "type": "string"
        }
      ],
      "stateMutability": "view",
      "type": "function"
    },
    {
      "inputs": [],
      "name": "totalSupply",
      "outputs": [
        {
          "internalType": "uint256",
          "name": "",
          "type": "uint256"
        }
      ],
      "stateMutability": "view",
      "type": "function"
    },
    {
      "inputs": [
        {
          "internalType": "address",
          "name": "to",
          "type": "address"
        },
        {
          "internalType": "uint256",
          "name": "value",
          "type": "uint256"
        }
      ],
      "name": "transfer",
      "outputs": [
        {
          "internalType": "bool",
          "name": "",
          "type": "bool"
        }
      ],
      "stateMutability": "nonpayable",
      "type": "function"
    },
    {
      "inputs": [
        {
          "internalType": "address",
          "name": "from",
          "type": "address"
        },
        {
          "internalType": "address",
          "name": "to",
          "type": "address"
        },
        {
          "internalType": "uint256",
          "name": "value",
          "type": "uint256"
        }
      ],
      "name": "transferFrom",
      "outputs": [
        {
          "internalType": "bool",
          "name": "",
          "type": "bool"
        }
      ],
      "stateMutability": "nonpayable",
      "type": "function"
    },
    {
      "inputs": [
        {
          "internalType": "address",
          "name": "",
          "type": "address"
        }
      ],
      "name": "whitelisted",
      "outputs": [
        {
          "internalType": "bool",
          "name": "",
          "type": "bool"
        }
      ],
      "stateMutability": "view",
      "type": "function"
    }
  ],
  "bytecode": "0x604060808152346104b2576117828038038061001a816104b6565b928339810160a0828203126104b25781516001600160401b0391908281116104b257816100489185016104db565b9160209182850151908282116104b2576100639186016104db565b61006e86860161052c565b9261008760806100806060890161052c565b970161052c565b928551958187116103d6576003908154946001988987811c971680156104a8575b8688101461049457601f96878111610451575b5080868882116001146103f5575f916103ea575b505f1982861b1c1916908a1b1783555b80518481116103d65760049182548b81811c911680156103cc575b888210146103b95790818984931161036b575b508790898311600114610304575f926102f9575b50505f1982861b1c1916908a1b1781555b81519384116102e657600654908982811c921680156102dc575b868310146102c95750858111610285575b5083948311600114610221576008945f929184610216575b505082881b925f19911b1c1916176006555b600780546001600160a01b0319166001600160a01b0386811691821790925590946101c5906101b586610540565b506101bf816105ac565b5061064b565b506101cf8761064b565b506101d98461064b565b505f525281855f209460ff19958587825416179055165f52845f208385825416179055165f52825f20918254161790555161105d90816106e58239f35b015191505f80610175565b879291601f1983169560065f52855f20925f5b88811061026e57508460089810610255575b50505050811b01600655610187565b01519060f8845f19921b161c191690555f808080610246565b8183015185558b9690940193918701918701610234565b60065f52845f208680860160051c8201928787106102c0575b0160051c019089905b8281106102b557505061015d565b5f81550189906102a7565b9250819261029e565b602290634e487b7160e01b5f525260245ffd5b91607f169161014c565b604190634e487b7160e01b5f525260245ffd5b015190505f80610121565b908c9350601f19831691855f52895f20925f5b8b82821061034c5750508411610335575b505050811b018155610132565b01515f1983881b60f8161c191690555f8080610328565b91929395968291958786015181550195019301908e9594939291610317565b909150835f52875f208980850160051c8201928a86106103b0575b918e91869594930160051c01915b8281106103a257505061010d565b5f81558594508e9101610394565b92508192610386565b602284634e487b7160e01b5f525260245ffd5b90607f16906100fa565b634e487b7160e01b5f52604160045260245ffd5b90508301515f6100cf565b8b9250601f19821690865f52885f20915f5b8a82821061043b5750508311610424575b5050811b0183556100df565b8501515f1983881b60f8161c191690555f80610418565b8389015185558f96909401939283019201610407565b845f52865f208880840160051c82019289851061048b575b0160051c01908b905b8281106104805750506100bb565b5f8155018b90610472565b92508192610469565b634e487b7160e01b5f52602260045260245ffd5b96607f16966100a8565b5f80fd5b6040519190601f01601f191682016001600160401b038111838210176103d657604052565b81601f820112156104b2578051906001600160401b0382116103d65761050a601f8301601f19166020016104b6565b92828452602083830101116104b257815f9260208093018386015e8301015290565b51906001600160a01b03821682036104b257565b6001600160a01b03165f8181525f80516020611762833981519152602052604090205460ff166105a7575f8181525f8051602061176283398151915260205260408120805460ff191660011790553391905f805160206117428339815191528180a4600190565b505f90565b6001600160a01b03165f8181527fa76130cbffd9b33b64b573944ad05adb12481247304469bee8ac721996fc823460205260409020547f9c81408027135c0110a5451971bdd98dbf60c57e65d8cd78b7e1c47105a3ee35919060ff1661064557815f52600560205260405f20815f5260205260405f20600160ff1982541617905533915f805160206117428339815191525f80a4600190565b50505f90565b6001600160a01b03165f8181527f45e747ec8b3ef9fbf0dbc91852a1b6406d924c58bbaa8d947cde92d189a8448560205260409020547f2a3dab589bcc9747970dd85ac3f222668741ae51f2a1bbb8f8355be28dd8a868919060ff1661064557815f52600560205260405f20815f5260205260405f20600160ff1982541617905533915f805160206117428339815191525f80a460019056fe6080604081815260049182361015610015575f80fd5b5f3560e01c9081629597e014610c215750806301ffc9a714610bcd57806306fdde0314610af2578063095ea7b314610a4a57806318160ddd14610a2c57806323b872dd1461093a578063248a9ca3146109105780632f2ff15d146108e8578063313ce567146108cd57806336568abe1461088957806340c10f191461070f57806370a08231146106d95780637295ed931461069f57806388d52ef7146106775780638ab1d6811461061157806391d14854146105cd57806395d89b41146104f55780639dc29fac146103ca578063a217fddf146103b0578063a9059cbb14610380578063d547741f14610344578063d936547e14610308578063dd62ed3e146102bf578063e43252d7146102565763f3466dfa14610131575f80fd5b34610252575f366003190112610252578051905f60065460018160011c9060018316928315610248575b60209384841081146102355783885290811561021957506001146101c3575b505050829003601f01601f191682019267ffffffffffffffff8411838510176101b057508291826101ac925282610c59565b0390f35b604190634e487b7160e01b5f525260245ffd5b60065f908152929350837ff652222313e28459528d920b65115c16c04f3efc82aaedc97be59f3f377c0d3f5b83851061020557505050508301015f808061017a565b8054888601830152930192849082016101ef565b60ff1916878501525050151560051b84010190505f808061017a565b602289634e487b7160e01b5f525260245ffd5b91607f169161015b565b5f80fd5b503461025257602036600319011261025257610270610c83565b610278610eb8565b6001600160a01b03165f8181526008602052918220805460ff19166001179055907f4f783c179409b4127238bc9c990bc99b9a651666a0d20b51d6c42849eb88466d9080a2005b50346102525780600319360112610252576020906102db610c83565b6102e3610c99565b9060018060a01b038091165f5260018452825f2091165f528252805f20549051908152f35b5034610252576020366003190112610252576020906001600160a01b0361032d610c83565b165f526008825260ff815f20541690519015158152f35b503461025257806003193601126102525761037e91356103796001610367610c99565b93835f5260056020525f200154610f13565b610fb3565b005b50346102525780600319360112610252576020906103a961039f610c83565b6024359033610caf565b5160018152f35b5034610252575f36600319011261025257602090515f8152f35b5090346102525781600319360112610252576103e4610c83565b6024356103ef610e3f565b6001600160a01b0382169283156104df57835f526020926008845260ff865f2054161561049e57845f525f8452855f20549183831061046a575f867fddf252ad1be2c89b69c2b068fc378daa952ba7f163c4a11628f55a4df523b3ef87878b81898688528785520381872055816002540360025551908152a3005b865163391434e360e21b81526001600160a01b03909216908201908152602081018390526040810184905281906060010390fd5b606482858089519262461bcd60e51b845283015260248201527f4d4954546f6b656e3a2073656e646572206e6f742077686974656c69737465646044820152fd5b6024905f865191634b637e8f60e11b8352820152fd5b5034610252575f366003190112610252578051905f835460018160011c90600183169283156105c3575b602093848410811461023557838852908115610219575060011461056f57505050829003601f01601f191682019267ffffffffffffffff8411838510176101b057508291826101ac925282610c59565b5f878152929350837f8a35acfbc15ff81a39ae7d344fd709f28e8600b4aa8c65c6b64bfe7fe36bd19b5b8385106105af57505050508301015f808061017a565b805488860183015293019284908201610599565b91607f169161051f565b50346102525780600319360112610252576020916105e9610c99565b90355f5260058352815f209060018060a01b03165f52825260ff815f20541690519015158152f35b50346102525760203660031901126102525761062b610c83565b610633610eb8565b6001600160a01b03165f8181526008602052918220805460ff19169055907f535611fb62fa2a833988f283b779e417e996813e44046f521d76c17b5943b08c9080a2005b5034610252575f3660031901126102525760075490516001600160a01b039091168152602090f35b5034610252575f36600319011261025257602090517f2a3dab589bcc9747970dd85ac3f222668741ae51f2a1bbb8f8355be28dd8a8688152f35b5034610252576020366003190112610252576020906001600160a01b036106fe610c83565b165f525f8252805f20549051908152f35b509034610252578160031936011261025257610729610c83565b60243590610735610e3f565b60018060a01b031692835f526020926008845260ff825f2054168015610881575b1561083657841561082157845f526008845260ff825f205416156107d457600254908382018092116107c157506002555f8481528084528181208054840190559051918252917fddf252ad1be2c89b69c2b068fc378daa952ba7f163c4a11628f55a4df523b3ef91a3005b601190634e487b7160e01b5f525260245ffd5b83608492519162461bcd60e51b8352820152602360248201527f4d4954546f6b656e3a20726563697069656e74206e6f742077686974656c69736044820152621d195960ea1b6064820152fd5b5f602492519163ec442f0560e01b8352820152fd5b83608492519162461bcd60e51b8352820152602160248201527f4d4954546f6b656e3a2061646472657373206e6f742077686974656c697374656044820152601960fa1b6064820152fd5b508415610756565b50346102525780600319360112610252576108a2610c99565b90336001600160a01b038316036108be575061037e9135610fb3565b5163334bd91960e11b81529050fd5b5034610252575f366003190112610252576020905160068152f35b503461025257806003193601126102525761037e913561090b6001610367610c99565b610f35565b503461025257602036600319011261025257602091355f52600582526001815f2001549051908152f35b50903461025257606036600319011261025257610955610c83565b61095d610c99565b906044359260018060a01b038216805f526001602052855f20335f52602052855f2054915f198310610998575b6020876103a9888888610caf565b858310610a005781156109ea5733156109d457505f908152600160209081528682203383528152908690209185900390915582906103a961098a565b6024905f885191634a1406b160e11b8352820152fd5b6024905f88519163e602df0560e01b8352820152fd5b8651637dc7a0d960e11b8152339181019182526020820193909352604081018690528291506060010390fd5b5034610252575f366003190112610252576020906002549051908152f35b5034610252578060031936011261025257610a63610c83565b602435903315610adc576001600160a01b0316908115610ac65760209350335f5260018452825f20825f52845280835f205582519081527f8c5be1e5ebec7d5bd14f71427d1e84f3dd0314c0f7b2291e5b200ac8c7c3b925843392a35160018152f35b8251634a1406b160e11b81525f81860152602490fd5b825163e602df0560e01b81525f81860152602490fd5b5034610252575f366003190112610252578051905f60035460018160011c9060018316928315610bc3575b6020938484108114610235578388529081156102195750600114610b6d57505050829003601f01601f191682019267ffffffffffffffff8411838510176101b057508291826101ac925282610c59565b60035f908152929350837fc2575a0e9e593c00f959f8c92f12db2869c3395a3b0502d05e2516446f71f85b5b838510610baf57505050508301015f808061017a565b805488860183015293019284908201610b99565b91607f1691610b1d565b509034610252576020366003190112610252573563ffffffff60e01b811680910361025257602091637965db0b60e01b8214918215610c10575b50519015158152f35b6301ffc9a760e01b1491505f610c07565b34610252575f36600319011261025257807f9c81408027135c0110a5451971bdd98dbf60c57e65d8cd78b7e1c47105a3ee3560209252f35b602060409281835280519182918282860152018484015e5f828201840152601f01601f1916010190565b600435906001600160a01b038216820361025257565b602435906001600160a01b038216820361025257565b9291906001600160a01b03808516918215610e275716918215610e0f57815f5260209060088252604060ff815f20541615610dcc57845f526008835260ff815f20541615610d7d57835f525f8352805f205496828810610d4e575081849596977fddf252ad1be2c89b69c2b068fc378daa952ba7f163c4a11628f55a4df523b3ef955f525f855203815f2055855f52805f2082815401905551908152a3565b905163391434e360e21b81526001600160a01b0390911660048201526024810187905260448101829052606490fd5b5162461bcd60e51b815260048101839052602360248201527f4d4954546f6b656e3a20726563697069656e74206e6f742077686974656c69736044820152621d195960ea1b6064820152608490fd5b5162461bcd60e51b815260048101839052602481018390527f4d4954546f6b656e3a2073656e646572206e6f742077686974656c69737465646044820152606490fd5b60405163ec442f0560e01b81525f6004820152602490fd5b604051634b637e8f60e11b81525f6004820152602490fd5b335f9081527fa76130cbffd9b33b64b573944ad05adb12481247304469bee8ac721996fc823460205260409020547f9c81408027135c0110a5451971bdd98dbf60c57e65d8cd78b7e1c47105a3ee359060ff1615610e9a5750565b6044906040519063e2517d3f60e01b82523360048301526024820152fd5b335f9081527f45e747ec8b3ef9fbf0dbc91852a1b6406d924c58bbaa8d947cde92d189a8448560205260409020547f2a3dab589bcc9747970dd85ac3f222668741ae51f2a1bbb8f8355be28dd8a8689060ff1615610e9a5750565b805f52600560205260405f20335f5260205260ff60405f20541615610e9a5750565b90815f52600560205260405f209060018060a01b031690815f5260205260ff60405f205416155f14610fad57815f52600560205260405f20815f5260205260405f20600160ff1982541617905533917f2f8788117e7eff1d82e926ec794901d17c78024a50270940304540a733656f0d5f80a4600190565b50505f90565b90815f52600560205260405f209060018060a01b031690815f5260205260ff60405f2054165f14610fad57815f52600560205260405f20815f5260205260405f2060ff19815416905533917ff6391f5c32d9c69d2a47ea670b442974b53935d1edc7fd64eb21e047a839171b5f80a460019056fea2646970667358221220b3c7d2a3b34f0d1a609963938ced275cfe6c8985ebd9edd21fd6cb2239b9d4b464736f6c634300081900332f8788117e7eff1d82e926ec794901d17c78024a50270940304540a733656f0d05b8ccbb9d4d8fb16ea74ce3c29a41f1b461fbdaff4714a0d9a8eb05499746bc",
  "linkReferences": {},
  "deployedLinkReferences": {}
}