{
  "_format": "hh-sol-artifact-1",
  "contractName": "DeedNFT",
  "sourceName": "contracts/DeedNFT.sol",
  "abi": [
    {
      "inputs": [
        {
          "internalType": "address",
          "name": "_admin",
          "type": "address"
        }
      ],
      "stateMutability": "nonpayable",
      "type": "constructor"
    },
    {
      "inputs": [],
      "name": "AccessControlBadConfirmation",
      "type": "error"
    },
    {
      "inputs": [
        {
          "internalType": "address",
          "name": "account",
          "type": "address"
        },
        {
          "internalType": "bytes32",
          "name": "neededRole",
          "type": "bytes32"
        }
      ],
      "name": "AccessControlUnauthorizedAccount",
      "type": "error"
    },
    {
      "inputs": [
        {
          "internalType": "address",
          "name": "sender",
          "type": "address"
        },
        {
          "internalType": "uint256",
          "name": "tokenId",
          "type": "uint256"
        },
        {
          "internalType": "address",
          "name": "owner",
          "type": "address"
        }
      ],
      "name": "ERC721IncorrectOwner",
      "type": "error"
    },
    {
      "inputs": [
        {
          "internalType": "address",
          "name": "operator",
          "type": "address"
        },
        {
          "internalType": "uint256",
          "name": "tokenId",
          "type": "uint256"
        }
      ],
      "name": "ERC721InsufficientApproval",
      "type": "error"
    },
    {
      "inputs": [
        {
          "internalType": "address",
          "name": "approver",
          "type": "address"
        }
      ],
      "name": "ERC721InvalidApprover",
      "type": "error"
    },
    {
      "inputs": [
        {
          "internalType": "address",
          "name": "operator",
          "type": "address"
        }
      ],
      "name": "ERC721InvalidOperator",
      "type": "error"
    },
    {
      "inputs": [
        {
          "internalType": "address",
          "name": "owner",
          "type": "address"
        }
      ],
      "name": "ERC721InvalidOwner",
      "type": "error"
    },
    {
      "inputs": [
        {
          "internalType": "address",
          "name": "receiver",
          "type": "address"
        }
      ],
      "name": "ERC721InvalidReceiver",
      "type": "error"
    },
    {
      "inputs": [
        {
          "internalType": "address",
          "name": "sender",
          "type": "address"
        }
      ],
      "name": "ERC721InvalidSender",
      "type": "error"
    },
    {
      "inputs": [
        {
          "internalType": "uint256",
          "name": "tokenId",
          "type": "uint256"
        }
      ],
      "name": "ERC721NonexistentToken",
      "type": "error"
    },
    {
      "anonymous": false,
      "inputs": [
        {
          "indexed": true,
          "internalType": "address",
          "name": "owner",
          "type": "address"
        },
        {
          "indexed": true,
          "internalType": "address",
          "name": "approved",
          "type": "address"
        },
        {
          "indexed": true,
          "internalType": "uint256",
          "name": "tokenId",
          "type": "uint256"
        }
      ],
      "name": "Approval",
      "type": "event"
    },
    {
      "anonymous": false,
      "inputs": [
        {
          "indexed": true,
          "internalType": "address",
          "name": "owner",
          "type": "address"
        },
        {
          "indexed": true,
          "internalType": "address",
          "name": "operator",
          "type": "address"
        },
        {
          "indexed": false,
          "internalType": "bool",
          "name": "approved",
          "type": "bool"
        }
      ],
      "name": "ApprovalForAll",
      "type": "event"
    },
    {
      "anonymous": false,
      "inputs": [
        {
          "indexed": false,
          "internalType": "uint256",
          "name": "_fromTokenId",
          "type": "uint256"
        },
        {
          "indexed": false,
          "internalType": "uint256",
          "name": "_toTokenId",
          "type": "uint256"
        }
      ],
      "name": "BatchMetadataUpdate",
      "type": "event"
    },
    {
      "anonymous": false,
      "inputs": [
        {
          "indexed": true,
          "internalType": "uint256",
          "name": "tokenId",
          "type": "uint256"
        },
        {
          "indexed": true,
          "internalType": "address",
          "name": "poolContract",
          "type": "address"
        },
        {
          "indexed": false,
          "internalType": "string",
          "name": "poolName",
          "type": "string"
        }
      ],
      "name": "DeedMinted",
      "type": "event"
    },
    {
      "anonymous": false,
      "inputs": [
        {
          "indexed": true,
          "internalType": "uint256",
          "name": "tokenId",
          "type": "uint256"
        },
        {
          "indexed": true,
          "internalType": "address",
          "name": "recipient",
          "type": "address"
        }
      ],
      "name": "DeedReleased",
      "type": "event"
    },
    {
      "anonymous": false,
      "inputs": [
        {
          "indexed": false,
          "internalType": "uint256",
          "name": "_tokenId",
          "type": "uint256"
        }
      ],
      "name": "MetadataUpdate",
      "type": "event"
    },
    {
      "anonymous": false,
      "inputs": [
        {
          "indexed": true,
          "internalType": "bytes32",
          "name": "role",
          "type": "bytes32"
        },
        {
          "indexed": true,
          "internalType": "bytes32",
          "name": "previousAdminRole",
          "type": "bytes32"
        },
        {
          "indexed": true,
          "internalType": "bytes32",
          "name": "newAdminRole",
          "type": "bytes32"
        }
      ],
      "name": "RoleAdminChanged",
      "type": "event"
    },
    {
      "anonymous": false,
      "inputs": [
        {
          "indexed": true,
          "internalType": "bytes32",
          "name": "role",
          "type": "bytes32"
        },
        {
          "indexed": true,
          "internalType": "address",
          "name": "account",
          "type": "address"
        },
        {
          "indexed": true,
          "internalType": "address",
          "name": "sender",
          "type": "address"
        }
      ],
      "name": "RoleGranted",
      "type": "event"
    },
    {
      "anonymous": false,
      "inputs": [
        {
          "indexed": true,
          "internalType": "bytes32",
          "name": "role",
          "type": "bytes32"
        },
        {
          "indexed": true,
          "internalType": "address",
          "name": "account",
          "type": "address"
        },
        {
          "indexed": true,
          "internalType": "address",
          "name": "sender",
          "type": "address"
        }
      ],
      "name": "RoleRevoked",
      "type": "event"
    },
    {
      "anonymous": false,
      "inputs": [
        {
          "indexed": true,
          "internalType": "address",
          "name": "from",
          "type": "address"
        },
        {
          "indexed": true,
          "internalType": "address",
          "name": "to",
          "type": "address"
        },
        {
          "indexed": true,
          "internalType": "uint256",
          "name": "tokenId",
          "type": "uint256"
        }
      ],
      "name": "Transfer",
      "type": "event"
    },
    {
      "inputs": [],
      "name": "DEFAULT_ADMIN_ROLE",
      "outputs": [
        {
          "internalType": "bytes32",
          "name": "",
          "type": "bytes32"
        }
      ],
      "stateMutability": "view",
      "type": "function"
    },
    {
      "inputs": [],
      "name": "MINTER_ROLE",
      "outputs": [
        {
          "internalType": "bytes32",
          "name": "",
          "type": "bytes32"
        }
      ],
      "stateMutability": "view",
      "type": "function"
    },
    {
      "inputs": [
        {
          "internalType": "address",
          "name": "to",
          "type": "address"
        },
        {
          "internalType": "uint256",
          "name": "tokenId",
          "type": "uint256"
        }
      ],
      "name": "approve",
      "outputs": [],
      "stateMutability": "nonpayable",
      "type": "function"
    },
    {
      "inputs": [
        {
          "internalType": "address",
          "name": "owner",
          "type": "address"
        }
      ],
      "name": "balanceOf",
      "outputs": [
        {
          "internalType": "uint256",
          "name": "",
          "type": "uint256"
        }
      ],
      "stateMutability": "view",
      "type": "function"
    },
    {
      "inputs": [
        {
          "internalType": "uint256",
          "name": "",
          "type": "uint256"
        }
      ],
      "name": "deedMetadata",
      "outputs": [
        {
          "internalType": "address",
          "name": "poolContract",
          "type": "address"
        },
        {
          "internalType": "string",
          "name": "poolName",
          "type": "string"
        },
        {
          "internalType": "uint256",
          "name": "principalAmount",
          "type": "uint256"
        },
        {
          "internalType": "uint256",
          "name": "collateralValue",
          "type": "uint256"
        },
        {
          "internalType": "uint256",
          "name": "ltvBasisPoints",
          "type": "uint256"
        },
        {
          "internalType": "uint256",
          "name": "activationTimestamp",
          "type": "uint256"
        },
        {
          "internalType": "bool",
          "name": "released",
          "type": "bool"
        }
      ],
      "stateMutability": "view",
      "type": "function"
    },
    {
      "inputs": [
        {
          "internalType": "uint256",
          "name": "tokenId",
          "type": "uint256"
        }
      ],
      "name": "getApproved",
      "outputs": [
        {
          "internalType": "address",
          "name": "",
          "type": "address"
        }
      ],
      "stateMutability": "view",
      "type": "function"
    },
    {
      "inputs": [
        {
          "internalType": "bytes32",
          "name": "role",
          "type": "bytes32"
        }
      ],
      "name": "getRoleAdmin",
      "outputs": [
        {
          "internalType": "bytes32",
          "name": "",
          "type": "bytes32"
        }
      ],
      "stateMutability": "view",
      "type": "function"
    },
    {
      "inputs": [
        {
          "internalType": "bytes32",
          "name": "role",
          "type": "bytes32"
        },
        {
          "internalType": "address",
          "name": "account",
          "type": "address"
        }
      ],
      "name": "grantRole",
      "outputs": [],
      "stateMutability": "nonpayable",
      "type": "function"
    },
    {
      "inputs": [
        {
          "internalType": "bytes32",
          "name": "role",
          "type": "bytes32"
        },
        {
          "internalType": "address",
          "name": "account",
          "type": "address"
        }
      ],
      "name": "hasRole",
      "outputs": [
        {
          "internalType": "bool",
          "name": "",
          "type": "bool"
        }
      ],
      "stateMutability": "view",
      "type": "function"
    },
    {
      "inputs": [
        {
          "internalType": "address",
          "name": "owner",
          "type": "address"
        },
        {
          "internalType": "address",
          "name": "operator",
          "type": "address"
        }
      ],
      "name": "isApprovedForAll",
      "outputs": [
        {
          "internalType": "bool",
          "name": "",
          "type": "bool"
        }
      ],
      "stateMutability": "view",
      "type": "function"
    },
    {
      "inputs": [
        {
          "internalType": "uint256",
          "name": "tokenId",
          "type": "uint256"
        }
      ],
      "name": "markReleased",
      "outputs": [],
      "stateMutability": "nonpayable",
      "type": "function"
    },
    {
      "inputs": [
        {
          "internalType": "address",
          "name": "to",
          "type": "address"
        },
        {
          "internalType": "address",
          "name": "poolContract",
          "type": "address"
        },
        {
          "internalType": "string",
          "name": "poolName",
          "type": "string"
        },
        {
          "internalType": "uint256",
          "name": "principalAmount",
          "type": "uint256"
        },
        {
          "internalType": "uint256",
          "name": "collateralValue",
          "type": "uint256"
        },
        {
          "internalType": "uint256",
          "name": "ltvBasisPoints",
          "type": "uint256"
        },
        {
          "internalType": "string",
          "name": "metadataURI",
          "type": "string"
        }
      ],
      "name": "mintDeed",
      "outputs": [
        {
          "internalType": "uint256",
          "name": "tokenId",
          "type": "uint256"
        }
      ],
      "stateMutability": "nonpayable",
      "type": "function"
    },
    {
      "inputs": [],
      "name": "name",
      "outputs": [
        {
          "internalType": "string",
          "name": "",
          "type": "string"
        }
      ],
      "stateMutability": "view",
      "type": "function"
    },
    {
      "inputs": [
        {
          "internalType": "uint256",
          "name": "tokenId",
          "type": "uint256"
        }
      ],
      "name": "ownerOf",
      "outputs": [
        {
          "internalType": "address",
          "name": "",
          "type": "address"
        }
      ],
      "stateMutability": "view",
      "type": "function"
    },
    {
      "inputs": [
        {
          "internalType": "bytes32",
          "name": "role",
          "type": "bytes32"
        },
        {
          "internalType": "address",
          "name": "callerConfirmation",
          "type": "address"
        }
      ],
      "name": "renounceRole",
      "outputs": [],
      "stateMutability": "nonpayable",
      "type": "function"
    },
    {
      "inputs": [
        {
          "internalType": "bytes32",
          "name": "role",
          "type": "bytes32"
        },
        {
          "internalType": "address",
          "name": "account",
          "type": "address"
        }
      ],
      "name": "revokeRole",
      "outputs": [],
      "stateMutability": "nonpayable",
      "type": "function"
    },
    {
      "inputs": [
        {
          "internalType": "address",
          "name": "from",
          "type": "address"
        },
        {
          "internalType": "address",
          "name": "to",
          "type": "address"
        },
        {
          "internalType": "uint256",
          "name": "tokenId",
          "type": "uint256"
        }
      ],
      "name": "safeTransferFrom",
      "outputs": [],
      "stateMutability": "nonpayable",
      "type": "function"
    },
    {
      "inputs": [
        {
          "internalType": "address",
          "name": "from",
          "type": "address"
        },
        {
          "internalType": "address",
          "name": "to",
          "type": "address"
        },
        {
          "internalType": "uint256",
          "name": "tokenId",
          "type": "uint256"
        },
        {
          "internalType": "bytes",
          "name": "data",
          "type": "bytes"
        }
      ],
      "name": "safeTransferFrom",
      "outputs": [],
      "stateMutability": "nonpayable",
      "type": "function"
    },
    {
      "inputs": [
        {
          "internalType": "address",
          "name": "operator",
          "type": "address"
        },
        {
          "internalType": "bool",
          "name": "approved",
          "type": "bool"
        }
      ],
      "name": "setApprovalForAll",
      "outputs": [],
      "stateMutability": "nonpayable",
      "type": "function"
    },
    {
      "inputs": [
        {
          "internalType": "bytes4",
          "name": "interfaceId",
          "type": "bytes4"
        }
      ],
      "name": "supportsInterface",
      "outputs": [
        {
          "internalType": "bool",
          "name": "",
          "type": "bool"
        }
      ],
      "stateMutability": "view",
      "type": "function"
    },
    {
      "inputs": [],
      "name": "symbol",
      "outputs": [
        {
          "internalType": "string",
          "name": "",
          "type": "string"
        }
      ],
      "stateMutability": "view",
      "type": "function"
    },
    {
      "inputs": [
        {
          "internalType": "uint256",
          "name": "tokenId",
          "type": "uint256"
        }
      ],
      "name": "tokenURI",
      "outputs": [
        {
          "internalType": "string",
          "name": "",
          "type": "string"
        }
      ],
      "stateMutability": "view",
      "type": "function"
    },
    {
      "inputs": [
        {
          "internalType": "address",
          "name": "from",
          "type": "address"
        },
        {
          "internalType": "address",
          "name": "to",
          "type": "address"
        },
        {
          "internalType": "uint256",
          "name": "tokenId",
          "type": "uint256"
        }
      ],
      "name": "transferFrom",
      "outputs": [],
      "stateMutability": "nonpayable",
      "type": "function"
    }
  ],
  "bytecode": "0x6080346102fc57601f1990601f906001600160401b03611cb038819003848101861684018381118582101761022a578492829160405283396020938491810103126102fc5751926001600160a01b03841684036102fc5761005e610300565b92600f84526e135a541bdbdb081119595908139195608a1b81850152610082610300565b9060048252631111515160e21b81830152845184811161022a575f546001968782811c921680156102f2575b8483101461020c5781868493116102a4575b508390868311600114610249575f9261023e575b50505f19600383901b1c191690861b175f555b815193841161022a5784548581811c91168015610220575b8282101461020c578381116101c9575b5080928411600114610167575061014c95505f91908361015c575b50505f19600383901b1c191690821b1790555b6101468161031f565b5061038b565b50604051611845908161042b8239f35b015190505f8061012a565b5f85815281812094978816915b8282106101b2575050918493918761014c98941061019a575b505050811b01905561013d565b01515f1960f88460031b161c191690555f808061018d565b808786978294978701518155019601940190610174565b855f52815f208480870160051c820192848810610203575b0160051c019086905b8281106101f857505061010f565b5f81550186906101ea565b925081926101e1565b634e487b7160e01b5f52602260045260245ffd5b90607f16906100ff565b634e487b7160e01b5f52604160045260245ffd5b015190505f806100d4565b908a899416915f8052855f20925f5b8782821061028e5750508411610276575b505050811b015f556100e7565b01515f1960f88460031b161c191690555f8080610269565b8385015186558c97909501949384019301610258565b9091505f8052835f208680850160051c8201928686106102e9575b918a91869594930160051c01915b8281106102db5750506100c0565b5f81558594508a91016102cd565b925081926102bf565b91607f16916100ae565b5f80fd5b60408051919082016001600160401b0381118382101761022a57604052565b6001600160a01b03165f8181525f80516020611c90833981519152602052604090205460ff16610386575f8181525f80516020611c9083398151915260205260408120805460ff191660011790553391905f80516020611c708339815191528180a4600190565b505f90565b6001600160a01b03165f8181527fa4bfd7afe708e2e87e7f0e2ad9b4d545417e0f795f57b5c5ab5d799c565a04f460205260409020547f9f2df0fed2c77648de5860a4cc508cd0818c85b8b8a1ab4ceeef8d981c8956a6919060ff1661042457815f52600760205260405f20815f5260205260405f20600160ff1982541617905533915f80516020611c708339815191525f80a4600190565b50505f9056fe6080806040526004361015610012575f80fd5b5f3560e01c90816301ffc9a7146110125750806306fdde0314610f6b578063081812fc14610f2f578063095ea7b314610e4e57806323b872dd14610e37578063248a9ca314610e0a5780632f2ff15d14610dcd57806336568abe14610d8657806342842e0e14610d595780636352211e14610d2957806370a0823114610cd357806391d1485414610c8a5780639272f82514610bf657806395d89b4114610b1857806395f104ec14610a4c578063a217fddf14610a32578063a22cb4651461096a578063a9cc7d0b1461028b578063b88d4fde1461021f578063c87b56dd146101e8578063d5391393146101ae578063d547741f1461016f5763e985e9c514610119575f80fd5b3461016b57604036600319011261016b576101326110d5565b61013a6110eb565b9060018060a01b038091165f52600560205260405f2091165f52602052602060ff60405f2054166040519015158152f35b5f80fd5b3461016b57604036600319011261016b576101ac60043561018e6110eb565b90805f5260076020526101a7600160405f2001546115b1565b611651565b005b3461016b575f36600319011261016b5760206040517f9f2df0fed2c77648de5860a4cc508cd0818c85b8b8a1ab4ceeef8d981c8956a68152f35b3461016b57602036600319011261016b5761021b610207600435611451565b6040519182916020835260208301906110b1565b0390f35b3461016b57608036600319011261016b576102386110d5565b6102406110eb565b906044356064359267ffffffffffffffff841161016b573660238501121561016b576102796101ac943690602481600401359101611298565b926102858383836112ce565b336116c5565b3461016b5760e036600319011261016b576102a46110d5565b6102ac6110eb565b60443567ffffffffffffffff811161016b576102cc90369060040161124e565b60c43567ffffffffffffffff811161016b576102ec90369060040161124e565b92906102f6611538565b600854935f19851461095657600185016008556040516103158161116e565b5f81526001600160a01b0388161561093e575f868152600260205260409020546001600160a01b03168015159087908261090b575b6001600160a01b038b165f818152600360209081526040808320805460010190558583526002909152812080546001600160a01b031916831790559091907fddf252ad1be2c89b69c2b068fc378daa952ba7f163c4a11628f55a4df523b3ef9080a46108f357873b6107a6575b506103c89293949596503691611298565b835f52600660205260405f209080519067ffffffffffffffff82116106d25781906103f38454611136565b601f8111610759575b50602090601f83116001146106f1575f926106e6575b50508160011b915f199060031b1c19161790555b7ff8e1a15aba9398e019f0b49df1a4fde98ee17ae345cb5f6b5e2c27f5033e8ce76020604051858152a160405160e0810181811067ffffffffffffffff8211176106d2576040526001600160a01b0385168152610484368484611298565b60208201526064356040820152608435606082015260a43560808201524260a08201525f60c0820152835f52600960205260405f209060018060a01b038151166bffffffffffffffffffffffff60a01b835416178255602081015180519067ffffffffffffffff82116106d2576104fe6001850154611136565b601f811161068e575b509285926020989288958a90601f83116001146105ef5760c060409694846105ad957fe2060a2b05d7d04dd71fd94c654bec73ff52f4606f54f55bb0ec7d8866849db49b9c98956006955f926105e4575b50508160011b915f199060031b1c19161760018501555b878101516002850155606081015160038501556080810151600485015560a081015160058501550151151591019060ff801983541691151516179055565b82519384928a8452818b850152848401375f8288018401526001600160a01b031695601f01601f19168101030190a3604051908152f35b015190505f80610558565b90600185015f528b5f20915f5b601f19851681106106715750604096946001857fe2060a2b05d7d04dd71fd94c654bec73ff52f4606f54f55bb0ec7d8866849db49b9c989560069560c0956105ad99601f19811610610659575b505050811b01600185015561056f565b01515f1960f88460031b161c191690555f8080610649565b8282015184558c99508b9850600190930192918d01918d016105fc565b600185015f5260205f20601f840160051c8101602085106106cb575b601f830160051c820181106106c0575050610507565b5f81556001016106aa565b50806106aa565b634e487b7160e01b5f52604160045260245ffd5b015190508780610412565b9250835f5260205f20905f935b601f198416851061073e576001945083601f19811610610726575b505050811b019055610426565b01515f1960f88460031b161c19169055878080610719565b818101518355602094850194600190930192909101906106fe565b909150835f5260205f20601f840160051c81016020851061079f575b90849392915b601f830160051c820181106107915750506103fc565b5f815585945060010161077b565b5080610775565b60206107e09160405180938192630a85bd0160e11b83523360048401525f60248401528a60448401526080606484015260848301906110b1565b03815f6001600160a01b038d165af15f91816108ae575b5061085e57873d15610856573d9061080e8261127c565b9161081c604051938461118a565b82523d5f602084013e5b8151918261084f57604051633250574960e11b81526001600160a01b0383166004820152602490fd5b6020915001fd5b606090610826565b630a85bd0160e198929394959697981b9063ffffffff60e01b160361088c57508594939291906103c86103b7565b604051633250574960e11b81526001600160a01b039091166004820152602490fd5b9091506020813d6020116108eb575b816108ca6020938361118a565b8101031261016b57516001600160e01b03198116810361016b5790896107f7565b3d91506108bd565b6040516339e3563760e11b81525f6004820152602490fd5b5f82815260046020526040902080546001600160a01b0319169055805f52600360205260405f205f19815401905561034a565b604051633250574960e11b81525f6004820152602490fd5b634e487b7160e01b5f52601160045260245ffd5b3461016b57604036600319011261016b576109836110d5565b602435908115159081830361016b573315610a1a576001600160a01b0316918215610a01576109d390335f52600560205260405f20845f5260205260405f209060ff801983541691151516179055565b6040519081527f17307eab39ab6107e8899845ad3d59bd9653f200f220920489ca2b5937696c3160203392a3005b604051630b61174360e31b815260048101849052602490fd5b60405163a9fbf51f60e01b81525f6004820152602490fd5b3461016b575f36600319011261016b5760206040515f8152f35b3461016b57602036600319011261016b57600435610a68611538565b805f52600960205260ff600660405f20015416610ad3575f818152600960205260409020600601805460ff191660011790556001600160a01b03610aab826114fe565b16907f643fd83f31a35a9385de02e8d489f50aaad48205627a37cc3e20d42e7e67fd615f80a3005b60405162461bcd60e51b815260206004820152601960248201527f446565644e46543a20616c72656164792072656c6561736564000000000000006044820152606490fd5b3461016b575f36600319011261016b576040515f60018260015492610b3c84611136565b92838352602094856001821691825f14610bd6575050600114610b7b575b50610b679250038361118a565b61021b6040519282849384528301906110b1565b84915060015f527fb10e2d527612073b26eecdfd717e6a320cf44b4afac2b0732d9fcbe2b7fa0cf6905f915b858310610bbe575050610b67935082010185610b5a565b80548389018501528794508693909201918101610ba7565b60ff191685820152610b6795151560051b8501019250879150610b5a9050565b3461016b57602036600319011261016b576004355f90815260096020526040902080546001600160a01b0316610c2e600183016111ac565b91600281015490600381015490600481015460ff600660058401549301541692610c6a604051978897885260e0602089015260e08801906110b1565b9460408701526060860152608085015260a0840152151560c08301520390f35b3461016b57604036600319011261016b57610ca36110eb565b6004355f52600760205260405f209060018060a01b03165f52602052602060ff60405f2054166040519015158152f35b3461016b57602036600319011261016b576001600160a01b03610cf46110d5565b168015610d11575f526003602052602060405f2054604051908152f35b6040516322718ad960e21b81525f6004820152602490fd5b3461016b57602036600319011261016b576020610d476004356114fe565b6040516001600160a01b039091168152f35b3461016b576101ac610d6a36611101565b9060405192610d788461116e565b5f84526102858383836112ce565b3461016b57604036600319011261016b57610d9f6110eb565b336001600160a01b03821603610dbb576101ac90600435611651565b60405163334bd91960e11b8152600490fd5b3461016b57604036600319011261016b576101ac600435610dec6110eb565b90805f526007602052610e05600160405f2001546115b1565b6115d3565b3461016b57602036600319011261016b576004355f5260076020526020600160405f200154604051908152f35b3461016b576101ac610e4836611101565b916112ce565b3461016b57604036600319011261016b57610e676110d5565b602435610e73816114fe565b33151580610f1c575b80610ef3575b610edb576001600160a01b039283169282918491167f8c5be1e5ebec7d5bd14f71427d1e84f3dd0314c0f7b2291e5b200ac8c7c3b9255f80a45f90815260046020526040902080546001600160a01b0319169091179055005b60405163a9fbf51f60e01b8152336004820152602490fd5b5060018060a01b0381165f52600560205260405f20335f5260205260ff60405f20541615610e82565b506001600160a01b038116331415610e7c565b3461016b57602036600319011261016b57600435610f4c816114fe565b505f526004602052602060018060a01b0360405f205416604051908152f35b3461016b575f36600319011261016b576040515f80549082610f8c83611136565b91828252602093600190856001821691825f14610bd6575050600114610fb95750610b679250038361118a565b5f808052859250907f290decd9548b62a8d60345a988386fc84ba6bc95484008f6362f93160ef3e5635b858310610ffa575050610b67935082010185610b5a565b80548389018501528794508693909201918101610fe3565b3461016b57602036600319011261016b576004359063ffffffff60e01b821680920361016b57602091637965db0b60e01b8114908115611054575b5015158152f35b632483248360e11b81149150811561106e575b508361104d565b6380ac58cd60e01b8114915081156110a0575b811561108f575b5083611067565b6301ffc9a760e01b14905083611088565b635b5e139f60e01b81149150611081565b805180835260209291819084018484015e5f828201840152601f01601f1916010190565b600435906001600160a01b038216820361016b57565b602435906001600160a01b038216820361016b57565b606090600319011261016b576001600160a01b0390600435828116810361016b5791602435908116810361016b579060443590565b90600182811c92168015611164575b602083101461115057565b634e487b7160e01b5f52602260045260245ffd5b91607f1691611145565b6020810190811067ffffffffffffffff8211176106d257604052565b90601f8019910116810190811067ffffffffffffffff8211176106d257604052565b9060405191825f82546111be81611136565b908184526020946001916001811690815f1461122c57506001146111ee575b5050506111ec9250038361118a565b565b5f90815285812095935091905b8183106112145750506111ec93508201015f80806111dd565b855488840185015294850194879450918301916111fb565b925050506111ec94925060ff191682840152151560051b8201015f80806111dd565b9181601f8401121561016b5782359167ffffffffffffffff831161016b576020838186019501011161016b57565b67ffffffffffffffff81116106d257601f01601f191660200190565b9291926112a48261127c565b916112b2604051938461118a565b82948184528183011161016b578281602093845f960137010152565b6001600160a01b03918216929091831561093e57815f52602092600284528260409583875f20541695331515806113bf575b506002908761138e575b825f5260038152885f2060018154019055835f5252865f20816bffffffffffffffffffffffff60a01b825416179055857fddf252ad1be2c89b69c2b068fc378daa952ba7f163c4a11628f55a4df523b3ef5f80a4169283830361136d5750505050565b6064945051926364283d7b60e01b8452600484015260248301526044820152fd5b5f84815260046020526040812080546001600160a01b03191690558881526003825289902080545f1901905561130a565b9192509080611410575b156113d7579084915f611300565b8685876113f4576024915190637e27328960e01b82526004820152fd5b604491519063177e802f60e01b82523360048301526024820152fd5b503386148015611435575b806113c95750845f52600481523384885f205416146113c9565b50855f5260058152865f20335f52815260ff875f20541661141b565b61145a816114fe565b50604051906114688261116e565b5f8252805f5260206006815261148060405f206111ac565b92805180156114f75784516114bd5750505061149c91506114fe565b505f6040516114aa8161116e565b526040516114b78161116e565b5f815290565b6114f493508294818492604051978895018486015e8301908282015f8152815193849201905e015f8382015203808452018261118a565b90565b5050505090565b5f818152600260205260409020546001600160a01b0316908115611520575090565b60249060405190637e27328960e01b82526004820152fd5b335f9081527fa4bfd7afe708e2e87e7f0e2ad9b4d545417e0f795f57b5c5ab5d799c565a04f460205260409020547f9f2df0fed2c77648de5860a4cc508cd0818c85b8b8a1ab4ceeef8d981c8956a69060ff16156115935750565b6044906040519063e2517d3f60e01b82523360048301526024820152fd5b805f52600760205260405f20335f5260205260ff60405f205416156115935750565b90815f52600760205260405f209060018060a01b031690815f5260205260ff60405f205416155f1461164b57815f52600760205260405f20815f5260205260405f20600160ff1982541617905533917f2f8788117e7eff1d82e926ec794901d17c78024a50270940304540a733656f0d5f80a4600190565b50505f90565b90815f52600760205260405f209060018060a01b031690815f5260205260ff60405f2054165f1461164b57815f52600760205260405f20815f5260205260405f2060ff19815416905533917ff6391f5c32d9c69d2a47ea670b442974b53935d1edc7fd64eb21e047a839171b5f80a4600190565b9293909193843b6116d8575b5050505050565b604051630a85bd0160e11b8082526001600160a01b03958616600483015293851660248201526044810191909152608060648201526020959490931693929085908290819061172b9060848301906110b1565b03815f885af15f91816117cf575b50611798575050503d5f14611790573d916117538361127c565b92611761604051948561118a565b83523d5f8285013e5b8251928361178b57604051633250574960e11b815260048101849052602490fd5b019050fd5b60609161176a565b9193506001600160e01b0319909116036117b757505f808080806116d1565b60249060405190633250574960e11b82526004820152fd5b9091508581813d8311611808575b6117e7818361118a565b8101031261016b57516001600160e01b03198116810361016b57905f611739565b503d6117dd56fea2646970667358221220107a866a91e87bd593f26bbc16689b78bacc1a4cacd61ff2fe41d950581aa5f764736f6c634300081900332f8788117e7eff1d82e926ec794901d17c78024a50270940304540a733656f0d6d5257204ebe7d88fd91ae87941cb2dd9d8062b64ae5a2bd2d28ec40b9fbf6df",
  "linkReferences": {},
  "deployedLinkReferences": {}
}