{
  "_format": "hh-sol-artifact-1",
  "contractName": "MockUSDC",
  "sourceName": "contracts/mocks/MockUSDC.sol",
  "abi": [
    {
      "inputs": [
        {
          "internalType": "address",
          "name": "initialOwner",
          "type": "address"
        }
      ],
      "stateMutability": "nonpayable",
      "type": "constructor"
    },
    {
      "inputs": [
        {
          "internalType": "address",
          "name": "spender",
          "type": "address"
        },
        {
          "internalType": "uint256",
          "name": "allowance",
          "type": "uint256"
        },
        {
          "internalType": "uint256",
          "name": "needed",
          "type": "uint256"
        }
      ],
      "name": "ERC20InsufficientAllowance",
      "type": "error"
    },
    {
      "inputs": [
        {
          "internalType": "address",
          "name": "sender",
          "type": "address"
        },
        {
          "internalType": "uint256",
          "name": "balance",
          "type": "uint256"
        },
        {
          "internalType": "uint256",
          "name": "needed",
          "type": "uint256"
        }
      ],
      "name": "ERC20InsufficientBalance",
      "type": "error"
    },
    {
      "inputs": [
        {
          "internalType": "address",
          "name": "approver",
          "type": "address"
        }
      ],
      "name": "ERC20InvalidApprover",
      "type": "error"
    },
    {
      "inputs": [
        {
          "internalType": "address",
          "name": "receiver",
          "type": "address"
        }
      ],
      "name": "ERC20InvalidReceiver",
      "type": "error"
    },
    {
      "inputs": [
        {
          "internalType": "address",
          "name": "sender",
          "type": "address"
        }
      ],
      "name": "ERC20InvalidSender",
      "type": "error"
    },
    {
      "inputs": [
        {
          "internalType": "address",
          "name": "spender",
          "type": "address"
        }
      ],
      "name": "ERC20InvalidSpender",
      "type": "error"
    },
    {
      "inputs": [
        {
          "internalType": "address",
          "name": "owner",
          "type": "address"
        }
      ],
      "name": "OwnableInvalidOwner",
      "type": "error"
    },
    {
      "inputs": [
        {
          "internalType": "address",
          "name": "account",
          "type": "address"
        }
      ],
      "name": "OwnableUnauthorizedAccount",
      "type": "error"
    },
    {
      "anonymous": false,
      "inputs": [
        {
          "indexed": true,
          "internalType": "address",
          "name": "owner",
          "type": "address"
        },
        {
          "indexed": true,
          "internalType": "address",
          "name": "spender",
          "type": "address"
        },
        {
          "indexed": false,
          "internalType": "uint256",
          "name": "value",
          "type": "uint256"
        }
      ],
      "name": "Approval",
      "type": "event"
    },
    {
      "anonymous": false,
      "inputs": [
        {
          "indexed": true,
          "internalType": "address",
          "name": "previousOwner",
          "type": "address"
        },
        {
          "indexed": true,
          "internalType": "address",
          "name": "newOwner",
          "type": "address"
        }
      ],
      "name": "OwnershipTransferred",
      "type": "event"
    },
    {
      "anonymous": false,
      "inputs": [
        {
          "indexed": true,
          "internalType": "address",
          "name": "from",
          "type": "address"
        },
        {
          "indexed": true,
          "internalType": "address",
          "name": "to",
          "type": "address"
        },
        {
          "indexed": false,
          "internalType": "uint256",
          "name": "value",
          "type": "uint256"
        }
      ],
      "name": "Transfer",
      "type": "event"
    },
    {
      "inputs": [
        {
          "internalType": "address",
          "name": "owner",
          "type": "address"
        },
        {
          "internalType": "address",
          "name": "spender",
          "type": "address"
        }
      ],
      "name": "allowance",
      "outputs": [
        {
          "internalType": "uint256",
          "name": "",
          "type": "uint256"
        }
      ],
      "stateMutability": "view",
      "type": "function"
    },
    {
      "inputs": [
        {
          "internalType": "address",
          "name": "spender",
          "type": "address"
        },
        {
          "internalType": "uint256",
          "name": "value",
          "type": "uint256"
        }
      ],
      "name": "approve",
      "outputs": [
        {
          "internalType": "bool",
          "name": "",
          "type": "bool"
        }
      ],
      "stateMutability": "nonpayable",
      "type": "function"
    },
    {
      "inputs": [
        {
          "internalType": "address",
          "name": "account",
          "type": "address"
        }
      ],
      "name": "balanceOf",
      "outputs": [
        {
          "internalType": "uint256",
          "name": "",
          "type": "uint256"
        }
      ],
      "stateMutability": "view",
      "type": "function"
    },
    {
      "inputs": [],
      "name": "decimals",
      "outputs": [
        {
          "internalType": "uint8",
          "name": "",
          "type": "uint8"
        }
      ],
      "stateMutability": "pure",
      "type": "function"
    },
    {
      "inputs": [
        {
          "internalType": "address",
          "name": "to",
          "type": "address"
        },
        {
          "internalType": "uint256",
          "name": "amount",
          "type": "uint256"
        }
      ],
      "name": "faucet",
      "outputs": [],
      "stateMutability": "nonpayable",
      "type": "function"
    },
    {
      "inputs": [
        {
          "internalType": "address",
          "name": "to",
          "type": "address"
        },
        {
          "internalType": "uint256",
          "name": "amount",
          "type": "uint256"
        }
      ],
      "name": "mint",
      "outputs": [],
      "stateMutability": "nonpayable",
      "type": "function"
    },
    {
      "inputs": [],
      "name": "name",
      "outputs": [
        {
          "internalType": "string",
          "name": "",
          "type": "string"
        }
      ],
      "stateMutability": "view",
      "type": "function"
    },
    {
      "inputs": [],
      "name": "owner",
      "outputs": [
        {
          "internalType": "address",
          "name": "",
          "type": "address"
        }
      ],
      "stateMutability": "view",
      "type": "function"
    },
    {
      "inputs": [],
      "name": "renounceOwnership",
      "outputs": [],
      "stateMutability": "nonpayable",
      "type": "function"
    },
    {
      "inputs": [],
      "name": "symbol",
      "outputs": [
        {
          "internalType": "string",
          "name": "",
          "type": "string"
        }
      ],
      "stateMutability": "view",
      "type": "function"
    },
    {
      "inputs": [],
      "name": "totalSupply",
      "outputs": [
        {
          "internalType": "uint256",
          "name": "",
          "type": "uint256"
        }
      ],
      "stateMutability": "view",
      "type": "function"
    },
    {
      "inputs": [
        {
          "internalType": "address",
          "name": "to",
          "type": "address"
        },
        {
          "internalType": "uint256",
          "name": "value",
          "type": "uint256"
        }
      ],
      "name": "transfer",
      "outputs": [
        {
          "internalType": "bool",
          "name": "",
          "type": "bool"
        }
      ],
      "stateMutability": "nonpayable",
      "type": "function"
    },
    {
      "inputs": [
        {
          "internalType": "address",
          "name": "from",
          "type": "address"
        },
        {
          "internalType": "address",
          "name": "to",
          "type": "address"
        },
        {
          "internalType": "uint256",
          "name": "value",
          "type": "uint256"
        }
      ],
      "name": "transferFrom",
      "outputs": [
        {
          "internalType": "bool",
          "name": "",
          "type": "bool"
        }
      ],
      "stateMutability": "nonpayable",
      "type": "function"
    },
    {
      "inputs": [
        {
          "internalType": "address",
          "name": "newOwner",
          "type": "address"
        }
      ],
      "name": "transferOwnership",
      "outputs": [],
      "stateMutability": "nonpayable",
      "type": "function"
    }
  ],
  "bytecode": "0x6080346103c757601f1990601f6001600160401b03610d103881900383810186168501838111868210176103cb578592829160405283396020948591810103126103c757516001600160a01b0380821695909290918690036103c7576100636103df565b601281527155534420436f696e2028546573746e65742960701b868201526100896103df565b90600495868352635553444360e01b888401528151928484116102df576003938454936001948581811c911680156103bd575b8c8210146103aa57908b8286859411610359575b50508b908583116001146102fd575f926102f2575b50505f1982871b1c191690841b1784555b80519485116102df5787548381811c911680156102d5575b8a8210146102c25782811161027f575b508891851160011461021f57849550908492915f95610214575b50501b925f19911b1c19161782555b83156101fd57600580546001600160a01b0319811686179091558491167f8be0079c531659141344cd1fd0a4f28419497f9722a3daafe3b4186f6b6457e05f80a36002546509184e72a000918282018092116101ea57506002555f838152808352604080822080548401905551918252917fddf252ad1be2c89b69c2b068fc378daa952ba7f163c4a11628f55a4df523b3ef91a360405161091190816103ff8239f35b601190634e487b7160e01b5f525260245ffd5b604051631e4fbdf760e01b81525f81840152602490fd5b015193505f80610138565b929194841692875f5284895f20945f5b8b89838310610268575050501061024f575b50505050811b018255610147565b01519060f8845f19921b161c191690555f808080610241565b86860151895590970196948501948893500161022f565b885f52895f208380880160051c8201928c89106102b9575b0160051c019084905b8281106102ae57505061011e565b5f81550184906102a0565b92508192610297565b602289634e487b7160e01b5f525260245ffd5b90607f169061010e565b604188634e487b7160e01b5f525260245ffd5b015190505f806100e5565b908c918a889516895f52835f20935f905b828210610342575050841161032b575b505050811b0184556100f6565b01515f1983891b60f8161c191690555f808061031e565b8385015186558a979095019493840193018f61030e565b90919250875f5285825f209181860160051c83019386106103a1575b918891869594930160051c01915b82811061039357508d91506100d0565b5f8155859450889101610383565b92508192610375565b60228b634e487b7160e01b5f525260245ffd5b90607f16906100bc565b5f80fd5b634e487b7160e01b5f52604160045260245ffd5b60408051919082016001600160401b038111838210176103cb5760405256fe608060409080825260049081361015610016575f80fd5b5f3560e01c90816306fdde031461061557508063095ea7b31461056c57806318160ddd1461054e57806323b872dd1461045d578063313ce5671461044257806340c10f191461041657806370a08231146103e0578063715018a6146103855780637b56c2b21461030c5780638da5cb5b146102e457806395d89b41146101c4578063a9059cbb14610194578063dd62ed3e1461014b5763f2fde38b146100ba575f80fd5b34610147576020366003190112610147576100d3610735565b906100dc61083b565b6001600160a01b03918216928315610131575050600554826bffffffffffffffffffffffff60a01b821617600555167f8be0079c531659141344cd1fd0a4f28419497f9722a3daafe3b4186f6b6457e05f80a3005b905f6024925191631e4fbdf760e01b8352820152fd5b5f80fd5b8234610147578060031936011261014757602090610167610735565b61016f61074b565b9060018060a01b038091165f5260018452825f2091165f528252805f20549051908152f35b82346101475780600319360112610147576020906101bd6101b3610735565b6024359033610761565b5160018152f35b509034610147575f366003190112610147578051905f835460018160011c90600183169283156102da575b60209384841081146102c7578388529081156102ab5750600114610257575b505050829003601f01601f191682019267ffffffffffffffff841183851017610244575082918261024092528261070b565b0390f35b604190634e487b7160e01b5f525260245ffd5b5f878152929350837f8a35acfbc15ff81a39ae7d344fd709f28e8600b4aa8c65c6b64bfe7fe36bd19b5b83851061029757505050508301015f808061020e565b805488860183015293019284908201610281565b60ff1916878501525050151560051b84010190505f808061020e565b602289634e487b7160e01b5f525260245ffd5b91607f16916101ef565b8234610147575f3660031901126101475760055490516001600160a01b039091168152602090f35b5034610147578160031936011261014757610325610735565b602435916509184e72a0008311610342576103408383610867565b005b606490602085519162461bcd60e51b8352820152601a60248201527f4d6f636b555344433a206d61782031304d20706572206d696e740000000000006044820152fd5b34610147575f3660031901126101475761039d61083b565b600580546001600160a01b031981169091555f906001600160a01b03167f8be0079c531659141344cd1fd0a4f28419497f9722a3daafe3b4186f6b6457e08280a3005b8234610147576020366003190112610147576020906001600160a01b03610405610735565b165f525f8252805f20549051908152f35b82346101475736600319011261014757610340610431610735565b61043961083b565b60243590610867565b8234610147575f366003190112610147576020905160068152f35b503461014757606036600319011261014757610477610735565b61047f61074b565b906044359260018060a01b038216805f526001602052855f20335f52602052855f2054915f1983106104ba575b6020876101bd888888610761565b85831061052257811561050c5733156104f657505f908152600160209081528682203383528152908690209185900390915582906101bd6104ac565b6024905f885191634a1406b160e11b8352820152fd5b6024905f88519163e602df0560e01b8352820152fd5b8651637dc7a0d960e11b8152339181019182526020820193909352604081018690528291506060010390fd5b8234610147575f366003190112610147576020906002549051908152f35b509034610147578060031936011261014757610586610735565b6024359033156105ff576001600160a01b03169081156105e95760209350335f5260018452825f20825f52845280835f205582519081527f8c5be1e5ebec7d5bd14f71427d1e84f3dd0314c0f7b2291e5b200ac8c7c3b925843392a35160018152f35b8251634a1406b160e11b81525f81860152602490fd5b825163e602df0560e01b81525f81860152602490fd5b90508234610147575f366003190112610147575f60035460018160011c9060018316928315610701575b60209384841081146102c7578388529081156106e5575060011461068f57505050829003601f01601f191682019267ffffffffffffffff841183851017610244575082918261024092528261070b565b60035f908152929350837fc2575a0e9e593c00f959f8c92f12db2869c3395a3b0502d05e2516446f71f85b5b8385106106d1575050505083010184808061020e565b8054888601830152930192849082016106bb565b60ff1916878501525050151560051b840101905084808061020e565b91607f169161063f565b602060409281835280519182918282860152018484015e5f828201840152601f01601f1916010190565b600435906001600160a01b038216820361014757565b602435906001600160a01b038216820361014757565b916001600160a01b03808416928315610823571692831561080b57825f525f60205260405f2054908282106107d95750817fddf252ad1be2c89b69c2b068fc378daa952ba7f163c4a11628f55a4df523b3ef92602092855f525f84520360405f2055845f5260405f20818154019055604051908152a3565b60405163391434e360e21b81526001600160a01b03919091166004820152602481019190915260448101829052606490fd5b60405163ec442f0560e01b81525f6004820152602490fd5b604051634b637e8f60e11b81525f6004820152602490fd5b6005546001600160a01b0316330361084f57565b60405163118cdaa760e01b8152336004820152602490fd5b6001600160a01b031690811561080b57600254908082018092116108c75760207fddf252ad1be2c89b69c2b068fc378daa952ba7f163c4a11628f55a4df523b3ef915f9360025584845283825260408420818154019055604051908152a3565b634e487b7160e01b5f52601160045260245ffdfea26469706673582212207a0daa600ce174ef8a0d226dc0f0fe6cff28a490c9d1d5694cc353d195fa301064736f6c63430008190033",
  "linkReferences": {},
  "deployedLinkReferences": {}
}