{
  "_format": "hh-sol-artifact-1",
  "contractName": "PoolFactory",
  "sourceName": "contracts/PoolFactory.sol",
  "abi": [
    {
      "inputs": [
        {
          "internalType": "address",
          "name": "_usdc",
          "type": "address"
        },
        {
          "internalType": "address",
          "name": "_issuancePartner",
          "type": "address"
        }
      ],
      "stateMutability": "nonpayable",
      "type": "constructor"
    },
    {
      "anonymous": false,
      "inputs": [
        {
          "indexed": true,
          "internalType": "address",
          "name": "poolContract",
          "type": "address"
        },
        {
          "indexed": false,
          "internalType": "string",
          "name": "poolName",
          "type": "string"
        },
        {
          "indexed": true,
          "internalType": "address",
          "name": "bank",
          "type": "address"
        },
        {
          "indexed": false,
          "internalType": "uint256",
          "name": "principalAmount",
          "type": "uint256"
        }
      ],
      "name": "PoolCreated",
      "type": "event"
    },
    {
      "inputs": [],
      "name": "admin",
      "outputs": [
        {
          "internalType": "address",
          "name": "",
          "type": "address"
        }
      ],
      "stateMutability": "view",
      "type": "function"
    },
    {
      "inputs": [
        {
          "internalType": "string",
          "name": "poolName",
          "type": "string"
        },
        {
          "internalType": "uint256",
          "name": "principalAmount",
          "type": "uint256"
        },
        {
          "internalType": "uint256",
          "name": "interestRateBps",
          "type": "uint256"
        },
        {
          "internalType": "uint256",
          "name": "termMonths",
          "type": "uint256"
        },
        {
          "internalType": "uint256",
          "name": "collateralValue",
          "type": "uint256"
        },
        {
          "internalType": "uint256",
          "name": "protocolFeeBps",
          "type": "uint256"
        },
        {
          "internalType": "string[]",
          "name": "documentCIDs",
          "type": "string[]"
        }
      ],
      "name": "createPool",
      "outputs": [
        {
          "internalType": "address",
          "name": "",
          "type": "address"
        }
      ],
      "stateMutability": "nonpayable",
      "type": "function"
    },
    {
      "inputs": [],
      "name": "getAllPools",
      "outputs": [
        {
          "internalType": "address[]",
          "name": "",
          "type": "address[]"
        }
      ],
      "stateMutability": "view",
      "type": "function"
    },
    {
      "inputs": [],
      "name": "issuancePartner",
      "outputs": [
        {
          "internalType": "address",
          "name": "",
          "type": "address"
        }
      ],
      "stateMutability": "view",
      "type": "function"
    },
    {
      "inputs": [
        {
          "internalType": "uint256",
          "name": "",
          "type": "uint256"
        }
      ],
      "name": "pools",
      "outputs": [
        {
          "internalType": "address",
          "name": "",
          "type": "address"
        }
      ],
      "stateMutability": "view",
      "type": "function"
    },
    {
      "inputs": [],
      "name": "totalPools",
      "outputs": [
        {
          "internalType": "uint256",
          "name": "",
          "type": "uint256"
        }
      ],
      "stateMutability": "view",
      "type": "function"
    },
    {
      "inputs": [],
      "name": "usdc",
      "outputs": [
        {
          "internalType": "address",
          "name": "",
          "type": "address"
        }
      ],
      "stateMutability": "view",
      "type": "function"
    },
    {
      "inputs": [
        {
          "internalType": "address",
          "name": "bank",
          "type": "address"
        }
      ],
      "name": "whitelistBank",
      "outputs": [],
      "stateMutability": "nonpayable",
      "type": "function"
    },
    {
      "inputs": [
        {
          "internalType": "address",
          "name": "",
          "type": "address"
        }
      ],
      "name": "whitelistedBanks",
      "outputs": [
        {
          "internalType": "bool",
          "name": "",
          "type": "bool"
        }
      ],
      "stateMutability": "view",
      "type": "function"
    }
  ],
  "bytecode": "0x608034608b57601f614c7338819003918201601f19168301916001600160401b03831184841017608f578084926040948552833981010312608b57604b602060458360a3565b920160a3565b9060018060a01b0319913383600254161760025560018060a01b0380921683600354161760035516906004541617600455604051614bbc90816100b78239f35b5f80fd5b634e487b7160e01b5f52604160045260245ffd5b51906001600160a01b0382168203608b5756fe6080604090808252600480361015610015575f80fd5b5f3560e01c918263094e6e041461050f57508163112a121f146104cf5781633e413bee146104a75781634e3bf8ae146101f1578163ab3c7e52146101d4578163ac4afa3814610195578163bf88c4cb1461016e57508063d88ff1f4146100ae5763f851a44014610083575f80fd5b346100aa575f3660031901126100aa5760025490516001600160a01b039091168152602090f35b5f80fd5b50346100aa575f3660031901126100aa57805190815f5490818152602080910180925f80527f290decd9548b62a8d60345a988386fc84ba6bc95484008f6362f93160ef3e563905f5b818110610151575050508461010d91038561058a565b825181815293518185018190528493840192915f5b82811061013157505050500390f35b83516001600160a01b031685528695509381019392810192600101610122565b82546001600160a01b0316845292840192600192830192016100f7565b82346100aa575f3660031901126100aa57905490516001600160a01b039091168152602090f35b9050346100aa5760203660031901126100aa5735905f548210156100aa576101be602092610616565b905491519160018060a01b039160031b1c168152f35b82346100aa575f3660031901126100aa576020905f549051908152f35b82346100aa5760e03660031901126100aa5767ffffffffffffffff9082358281116100aa5761022390369085016105c0565b9160249283359160c435958187116100aa57366023880112156100aa5786810135828111610495578060051b6020988751926102618b84018561058a565b8352898301898193830101913683116100aa578a8101915b83831061046f5750505050335f526001808a5260ff885f2054161561043b5760018060a01b0394856003541693868654169487600254168b5196614505808901958987109087111761042957918f918e8a99989695936102f9956106828c396101609489523390890152870152606086015280608086015284018a61065d565b928a60a082015260443560c082015260643560e082015260843561010082015260a435610120820152610140818503910152518083528c808401818360051b86010195945f925b8484106103f5575050505050505003905ff080156103eb578216955f5491680100000000000000008310156103da575050917f5da1dbde7460ad4d3a3664515e0dc115a979b47caf50db2cac8bfc97efd93774916103a48460018996015f55610616565b819291549060031b9186831b921b19161790556103c98551918683528683019061065d565b93878201528033940390a351908152f35b604190634e487b7160e01b5f52525ffd5b85513d5f823e3d90fd5b859781929496939597995061041490601f198682030187528a5161065d565b9801930193019092879695938f959395610340565b8e60418b634e487b7160e01b5f52525ffd5b875162461bcd60e51b81528085018b9052600f818b01526e139bdd081dda1a5d195b1a5cdd1959608a1b6044820152606490fd5b82358881116100aa578d9161048a83928f36918701016105c0565b815201920191610279565b86604183634e487b7160e01b5f52525ffd5b82346100aa575f3660031901126100aa5760035490516001600160a01b039091168152602090f35b9050346100aa5760203660031901126100aa57356001600160a01b03811691908290036100aa576020915f526001825260ff815f20541690519015158152f35b909150346100aa5760203660031901126100aa5781356001600160a01b0381811693918490036100aa5760025416330361055d5750505f5260016020525f20600160ff198254161790555f80f35b62461bcd60e51b825260209082015260096024820152682737ba1030b236b4b760b91b6044820152606490fd5b90601f8019910116810190811067ffffffffffffffff8211176105ac57604052565b634e487b7160e01b5f52604160045260245ffd5b81601f820112156100aa5780359067ffffffffffffffff82116105ac57604051926105f5601f8401601f19166020018561058a565b828452602083830101116100aa57815f926020809301838601378301015290565b5f54811015610649575f80527f290decd9548b62a8d60345a988386fc84ba6bc95484008f6362f93160ef3e56301905f90565b634e487b7160e01b5f52603260045260245ffd5b805180835260209291819084018484015e5f828201840152601f01601f191601019056fe60a06040523461088e57614505803803908161001a81610892565b91823961016081838101031261088e57610033816108b7565b61003f602083016108b7565b61004b604084016108b7565b91610058606085016108b7565b60808501516001600160401b03811161088e5761007a908787019087016108cb565b9360a08601519260c08701519160e088015193610100890151926101208a01519a6101408b01519a60018060401b038c1161088e57818101601f8d830101121561088e57808c0151906001600160401b03821161046b5760209c6100e28e8460051b01610892565b9d8e848152019084830160208560051b83860101011161088e57602081840101915b60208560051b8386010101831061085757505060017f9b779b17422d0df92223018b32b4d1fa46e071723d6817e2486d003becc55f0055505050506001600160a01b031660805261018991906101598161094d565b50601680546001600160a01b0319166001600160a01b0392909216919091179055610183876109b9565b50610a57565b5061271080850290858204148515171561073d57816101a79161092f565b6040519161012083016001600160401b0381118482101761046b57604090815288845260208401879052830184905260608301859052608083015260a082015260c081018890524260e08201526001600160a01b03851661010082015285516001600160401b03811161046b57600154600181811c9116801561084d575b602082101461044d57601f8111610801575b50806020601f8211600114610791575f91610786575b508160011b915f199060031b1c1916176001555b602081015160025560408101516003556060810151600455608081015160055560a081015160065560c081015160075560e08101516008556101000151600980546001600160a01b0319166001600160a01b03929092169190911790556013839055600a805460ff191690555f5b86518110156104935760208160051b880101516017546801000000000000000081101561046b57600181018060175581101561047f5760175f5281517fc624b66cc0138b8fabc209247f72d758e1cf3343756d543badbf24212bed8c1591909101916001600160401b03821161046b578254600181811c91168015610461575b602082101461044d57601f811161040c575b50602090601f83116001146103a2576001949392915f9183610397575b50505f19600383901b1c191690841b1790555b016102cf565b015190505f8061037e565b90835f5260205f20915f5b601f19851681106103f457509183916001969594938794601f198116106103dc575b505050811b019055610391565b01515f1960f88460031b161c191690555f80806103cf565b919260206001819286850151815501940192016103ad565b835f5260205f20601f840160051c810160208510610446575b601f830160051c8201811061043b575050610361565b5f8155600101610425565b5080610425565b634e487b7160e01b5f52602260045260245ffd5b90607f169061034f565b634e487b7160e01b5f52604160045260245ffd5b634e487b7160e01b5f52603260045260245ffd5b508681670de0b6b3a7640000810204670de0b6b3a7640000148215171561073d576104c26201d4c0918561091c565b04670de0b6b3a76400005f5b84811061075757506104f8816104f36201d4c0670de0b6b3a76400008702048861091c565b61091c565b81670de0b6b3a763ffff1981011161073d57670de0b6b3a763ffff198201670de0b6b3a7640000808202829004149015171561073d5761054d91670de0b6b3a763ffff1901670de0b6b3a7640000029061092f565b925f91855b8284106105e6578860207f5da1dbde7460ad4d3a3664515e0dc115a979b47caf50db2cac8bfc97efd937748a8a6040519460408652805194859182604089015201606087015e5f60608587010152602085015260018060a01b0316926060813094601f80199101168101030190a360405161399b9081610b0a82396080518181816108c9015281816112c301526117390152f35b670de0b6b3a76400006106006201d4c0828802048361091c565b049081871115610751576106148288610afc565b91845f1981011161073d575f1985018614610728575b61063d846106388386610aef565b610aef565b604051916001600160401b0360e084019081119084111761046b5760e083016040525f8352846020840152604083015284606083015260808201528260a08201525f60c0820152600b546801000000000000000081101561046b576001810180600b5581101561047f57600660c091600b5f52600760205f20910201835181556020840151600182015560408401516002820155606084015160038201556080840151600482015560a0840151600582015501910151151560ff801983541691161790558181115f1461071e5760019161071691610afc565b930192610552565b505060015f610716565b96509050806107378782610aef565b9661062a565b634e487b7160e01b5f52601160045260245ffd5b5f610614565b9061077f600191670de0b6b3a76400006107786201d4c0828902048361091c565b0490610aef565b91016104ce565b90508701515f61024d565b60015f90815292505f805160206144c5833981519152905b601f19831684106107e9576001935082601f198116106107d1575b5050811b01600155610261565b8901515f1960f88460031b161c191690555f806107c4565b898101518255602093840193600190920191016107a9565b60015f525f805160206144c5833981519152601f830160051c810160208410610846575b601f830160051c8201811061083b575050610237565b5f8155600101610825565b5080610825565b90607f1690610225565b8251906001600160401b03821161088e5760208092916108818293838b8a0191888b0101016108cb565b8152019301929050610104565b5f80fd5b6040519190601f01601f191682016001600160401b0381118382101761046b57604052565b51906001600160a01b038216820361088e57565b81601f8201121561088e578051906001600160401b03821161046b576108fa601f8301601f1916602001610892565b928284526020838301011161088e57815f9260208093018386015e8301015290565b8181029291811591840414171561073d57565b8115610939570490565b634e487b7160e01b5f52601260045260245ffd5b6001600160a01b03165f8181525f805160206144e5833981519152602052604090205460ff166109b4575f8181525f805160206144e583398151915260205260408120805460ff191660011790553391905f805160206144a58339815191528180a4600190565b505f90565b6001600160a01b03165f8181527f8b1b9c9043e80973230885f47d3c5fd9cb7da44cd5750066c17fe13b7626cf6960205260409020547f591fa5458fe051cc8c02c405479bd38e00713c98dbd3db209d982048f1e638fa919060ff16610a5157815f525f60205260405f20815f5260205260405f20600160ff1982541617905533915f805160206144a58339815191525f80a4600190565b50505f90565b6001600160a01b03165f8181527fa076b6c7090e38bfc39b1b347e64cb6d96ee4ab3efa77a15f23085de7667b49c60205260409020547f43a0a3e63c2a39d49cdea8d043e7b4a2564ba537638445fefee61934c836e3bc919060ff16610a5157815f525f60205260405f20815f5260205260405f20600160ff1982541617905533915f805160206144a58339815191525f80a4600190565b9190820180921161073d57565b9190820391821161073d5756fe6080806040526004361015610012575f80fd5b5f905f3560e01c90816301ffc9a714611a6c575080630604061814611a4f5780630eb7143214611a1557806313e91648146119ed578063200d2ed2146119c4578063248a9ca3146119985780632669e4dd1461197057806326fadbe21461180a57806329b1829e146117ed5780632f2ff15d146117b157806336568abe146117685780633e413bee14611724578063402d8883146111d6578063462428b6146111bb578063565ecac71461119d578063597be6d11461117f5780635e7c6eef14610bd757806363f9407c14610bb45780636e8c2396146107e65780636fbfd4091461076b57806376082a5e14610730578063777d80cc146106425780638e7675ef146106075780639010d07c146105d357806391d148541461058a578063a217fddf1461056e578063ac27daa714610550578063b813fb08146104d6578063c430bcda146103a9578063c7f01cac14610380578063cff0ab9614610252578063d547741f14610211578063eaa8c2e7146101e8578063f60559b8146101ca5763f851a4401461019f575f80fd5b346101c757806003193601126101c7576016546040516001600160a01b039091168152602090f35b80fd5b50346101c757806003193601126101c7576020601154604051908152f35b50346101c757806003193601126101c757600e546040516001600160a01b039091168152602090f35b50346101c75760403660031901126101c75761024e600435610231611abf565b90808452836020526102496001604086200154611f0c565b61204e565b5080f35b50346101c757806003193601126101c7576040515f906001916001549261027884611b5c565b908184526020946001811690815f146103625750600114610309575b6102dd84866102a582870383611ceb565b60025460035460045460055460065490600754926008549460018060a01b0360095416966040519a8b9a610120808d528c0190611b38565b988a015260408901526060880152608087015260a086015260c085015260e08401526101008301520390f35b60015f9081529492507fb10e2d527612073b26eecdfd717e6a320cf44b4afac2b0732d9fcbe2b7fa0cf65b82861061034f575091938301840191506102a5905082610294565b8054858701850152948301948101610334565b60ff1916858701525050151560051b8201830190506102a582610294565b50346101c757806003193601126101c757600d546040516001600160a01b039091168152602090f35b50346101c75760203660031901126101c7576103c3611ad5565b335f9081527fad3228b676f7d3cd4284a5443f17f1962b36e491b30a40b2405849e597ba5fb5602052604090205460ff16156104b857600c546001600160a01b039081168015610473578391813b1561046f57829160248392604051948593849263e43252d760e01b8452891660048401525af180156104645761044c575b5061024e82611f2d565b61045590611cd7565b61046057815f610442565b5080fd5b6040513d84823e3d90fd5b8280fd5b60405162461bcd60e51b815260206004820152601b60248201527f506f6f6c436f6e74726163743a206e6f742061637469766174656400000000006044820152606490fd5b60405163e2517d3f60e01b81523360048201525f6024820152604490fd5b50346101c75760203660031901126101c7576004356017548110156104605761053861053191601761054c9452604051928380927fc624b66cc0138b8fabc209247f72d758e1cf3343756d543badbf24212bed8c1501611c46565b0382611ceb565b604051918291602083526020830190611b38565b0390f35b50346101c757806003193601126101c7576020601054604051908152f35b50346101c757806003193601126101c757602090604051908152f35b50346101c75760403660031901126101c75760406105a6611abf565b91600435815280602052209060018060a01b03165f52602052602060ff60405f2054166040519015158152f35b50346101c75760403660031901126101c75760206105f5602435600435611e92565b6040516001600160a01b039091168152f35b50346101c757806003193601126101c75760206040517f43a0a3e63c2a39d49cdea8d043e7b4a2564ba537638445fefee61934c836e3bc8152f35b50346101c757806003193601126101c75760175461065f81611d0d565b9061066d6040519283611ceb565b8082526017835260209283830191817fc624b66cc0138b8fabc209247f72d758e1cf3343756d543badbf24212bed8c15845b8383106107045750505050604051928484019085855251809152604084019460408260051b8601019392955b8287106106d85785850386f35b9091929382806106f4600193603f198a82030186528851611b38565b96019201960195929190926106cb565b600188819260409a99979a5161071e816105318189611c46565b8152019201920191909693959661069f565b50346101c757806003193601126101c75760206040517fb165298935924f540e4181c03493a5d686c54a0aaeb3f6216de85b7ffbba77388152f35b50346101c75760203660031901126101c75760043590600b548210156101c75760e061079683611aeb565b508054906001810154906002810154600382015460048301549160ff600660058601549501541694604051968752602087015260408601526060850152608084015260a0830152151560c0820152f35b50346101c757602080600319360112610460576004356108046120c0565b60ff600a54166004811015610ba057600161081f9114611d25565b8015610b5b57600c546009546040516370a0823160e01b81526001600160a01b03918216600482015290918216908481602481855afa908115610a59578691610b2a575b508311610ad457604051636c9b2a3f60e11b81523360048201528591908581602481855afa908115610ac9578391610aac575b5015610a64575b50506040516323b872dd60e01b80825233600483015230602483015260448201849052918482606481897f000000000000000000000000000000000000000000000000000000000000000086165af1908115610a595761094a9361090b869388958a91610a3c575b50611d89565b600c546009546040519283526001600160a01b039084161660048301523360248301526044820193909352938492909116908290889082906064820190565b03925af1908115610a31578491610a04575b50156109b55761096e81601254611e85565b601255604051918183528201527f8104158f6bfd5059e89948b6d8498d84641bc7159cfed4814819a8831a00e3d360403392a260015f805160206139468339815191525580f35b60405162461bcd60e51b815260048101839052602160248201527f506f6f6c436f6e74726163743a204d4954207472616e73666572206661696c656044820152601960fa1b6064820152608490fd5b610a249150833d8511610a2a575b610a1c8183611ceb565b810190611d71565b5f61095c565b503d610a12565b6040513d86823e3d90fd5b610a539150863d8811610a2a57610a1c8183611ceb565b5f610905565b6040513d88823e3d90fd5b803b156104605781809160246040518094819363e43252d760e01b83523360048401525af18015610464571561089d57610a9d90611cd7565b610aa857835f61089d565b8380fd5b610ac39150863d8811610a2a57610a1c8183611ceb565b5f610896565b6040513d85823e3d90fd5b60405162461bcd60e51b815260048101859052602860248201527f506f6f6c436f6e74726163743a20696e73756666696369656e74204d495420616044820152677661696c61626c6560c01b6064820152608490fd5b90508481813d8311610b54575b610b418183611ceb565b81010312610b5057515f610863565b5f80fd5b503d610b37565b60405162461bcd60e51b815260048101839052601960248201527f506f6f6c436f6e74726163743a207a65726f20616d6f756e74000000000000006044820152606490fd5b634e487b7160e01b84526021600452602484fd5b50346101c757806003193601126101c7576020610bcf611e09565b604051908152f35b50346101c75760803660031901126101c757610bf1611ad5565b610bf9611abf565b6044356001600160a01b0381169290839003610b505767ffffffffffffffff90816064351161117b5736602360643501121561117b5781606435600401351161117b573660246064356004013560643501011161117b57335f9081527fa076b6c7090e38bfc39b1b347e64cb6d96ee4ab3efa77a15f23085de7667b49c60205260409020547f43a0a3e63c2a39d49cdea8d043e7b4a2564ba537638445fefee61934c836e3bc9060ff161561115d5750610cb16120c0565b60ff600a54166004811015611149576110f8576001600160a01b031692831515806110e6575b806110dd575b15611098576020926bffffffffffffffffffffffff60a01b9485600d541617600d5560018060a01b031684600e541617600e5583600f541617600f55610d676024610d36604051610d318161053181611b94565b612100565b604051948591634d49542d60e01b828401528051918291018484015e81018783820152036004810185520183611ceb565b60165460405192611782808501936001600160a01b03939093169284118585101761108457610db9859493926080926121c4873960a08552610dab60a08601611b94565b908582036020870152611b38565b923060408201523360608201520152039083f090811561046457600c80549091166001600160a01b03838116918217909255600254601155600954849216903b156104605760405163e43252d760e01b815260048101919091528181602481836001600160a01b0388165af1801561046457611070575b50600954601154906001600160a01b039081169084163b1561046f576040516340c10f1960e01b81526001600160a01b0390911660048201526024810191909152818180604481010381836001600160a01b0388165af180156104645761105c575b5050600d54600e5460025460055460065460405163a9cc7d0b60e01b81526001600160a01b03948516600482015230602482015260e06044820152946020948694911692849289928792859290610eeb60e48501611b94565b926064850152608484015260a48301526003198282030160c48301526064356004013581526064356004013560246064350184830137600460643501358181018401859052601f01601f1916010301925af1908115610ac957839161102a575b508060105560018060ff19600a541617600a55426015558084905b610fc9575b5050600d546011546040805191825260208201939093526001600160a01b0391821693909116917f86dd5a6be51ae12acb42afc1ac29799e5f9e45134db298e05450083171b5669691a360015f805160206139468339815191525580f35b600b54811015611025578181018082116110115762278d0090818102918183041490151715611011578291610fff839242611e85565b61100882611aeb565b50550190610f66565b634e487b7160e01b86526011600452602486fd5b610f6b565b90506020813d602011611054575b8161104560209383611ceb565b81010312610b5057515f610f4b565b3d9150611038565b61106590611cd7565b61046057815f610e92565b61107990611cd7565b61046057815f610e30565b634e487b7160e01b87526041600452602487fd5b60405162461bcd60e51b815260206004820152601f60248201527f506f6f6c436f6e74726163743a20696e76616c696420616464726573736573006044820152606490fd5b50801515610cdd565b506001600160a01b0383161515610cd7565b60405162461bcd60e51b8152602060048201526024808201527f506f6f6c436f6e74726163743a206e6f742070656e64696e67206163746976616044820152633a34b7b760e11b6064820152608490fd5b634e487b7160e01b86526021600452602486fd5b6044906040519063e2517d3f60e01b82523360048301526024820152fd5b8480fd5b50346101c757806003193601126101c7576020601554604051908152f35b50346101c757806003193601126101c7576020601254604051908152f35b50346101c757806003193601126101c7576020610bcf611de0565b5034610b50575f366003190112610b5057335f9081527f8b1b9c9043e80973230885f47d3c5fd9cb7da44cd5750066c17fe13b7626cf6960209081526040909120547f591fa5458fe051cc8c02c405479bd38e00713c98dbd3db209d982048f1e638fa9060ff161561115d575061124b6120c0565b60ff600a541660048110156117105760016112669114611d25565b6014546004548110156116cb5761127c90611aeb565b506006810160ff81541661167c576004828101546009546040516323b872dd60e01b81526001600160a01b03918216938101939093523060248401526044830182905293917f000000000000000000000000000000000000000000000000000000000000000085169086816064815f865af180156115aa576113429261130b85928a945f916116655750611d89565b87600f54165f60405180968195829463a9059cbb60e01b84526004840160209093929193604081019460018060a01b031681520152565b03925af19081156115aa575f91611648575b50156115f857825460ff199081166001179093556014545f1981146115e4576001016014556001820180546013549081039081116115e457601355600485600f54169154916002850154906003860154938989600c5416604051958680926318160ddd60e01b82525afa9384156115aa575f946115b5575b50813b15610b50575f60849281956040519788968795634a36069160e01b875260048701526024860152604485015260648401525af180156115aa57611570575b50907f89a7949b2b487473246661f4ca7f51ff59389180d10a910caed2d02dc90640326060600593601454948594015460135490604051928352898301526040820152a26004541461146f575b8360015f805160206139468339815191525580f35b600290600a541617600a558281600e5416803b1561046057818091600460405180948193634593eaf360e01b83525af180156104645761155c575b5081600d5416601054813b1561046f57829160248392604051948593849263257c413b60e21b845260048401525af1801561046457611548575b50507f71107a1f8ebc346155161d1d2817aa6268ea6fd68f309fa4f02ad36a1c20a99b907f77c2c51736ca588d8412c341ce32700dc11d1f191d40d86f5ac657f457c91ef083604051428152a16009541691601054604051908152a25f808061145a565b61155190611cd7565b61046f57825f6114e4565b61156590611cd7565b61046f57825f6114aa565b60059291965061157f90611cd7565b5f959091507f89a7949b2b487473246661f4ca7f51ff59389180d10a910caed2d02dc906403261140d565b6040513d5f823e3d90fd5b9093508981813d83116115dd575b6115cd8183611ceb565b81010312610b505751925f6113cc565b503d6115c3565b634e487b7160e01b5f52601160045260245ffd5b60405162461bcd60e51b815260048101869052602260248201527f506f6f6c436f6e74726163743a2057414445207472616e73666572206661696c604482015261195960f21b6064820152608490fd5b61165f9150863d8811610a2a57610a1c8183611ceb565b5f611354565b610a539150853d8711610a2a57610a1c8183611ceb565b60405162461bcd60e51b815260048101849052602160248201527f506f6f6c436f6e74726163743a20706572696f6420616c7265616479207061696044820152601960fa1b6064820152608490fd5b60405162461bcd60e51b815260048101839052601e60248201527f506f6f6c436f6e74726163743a20616c6c20706572696f6473207061696400006044820152606490fd5b634e487b7160e01b5f52602160045260245ffd5b34610b50575f366003190112610b50576040517f00000000000000000000000000000000000000000000000000000000000000006001600160a01b03168152602090f35b34610b50576040366003190112610b5057611781611abf565b336001600160a01b0382160361179f5761179d9060043561204e565b005b60405163334bd91960e11b8152600490fd5b34610b50576040366003190112610b505761179d6004356117d0611abf565b90805f525f6020526117e8600160405f200154611f0c565b611fd8565b34610b50575f366003190112610b50576020601354604051908152f35b34610b50575f366003190112610b5057600b5461182681611d0d565b6118336040519182611ceb565b8181526020908181019283600b5f527f0175b7a638427703f0dbe7bb9bbf987a2551717b34e79f33b5b1008d1fa01db9905f905b8382106118e6576040805187815286518189018190528992820190895f5b8281106118925784840385f35b855180518552808301518584015260408082015190860152606080820151908601526080808201519086015260a0808201519086015260c0908101511515908501529481019460e090930192600101611885565b60405160e0810181811067ffffffffffffffff82111761195c576001926007928992604052865481528487015483820152600287015460408201526003870154606082015260048701546080820152600587015460a082015260ff600688015416151560c0820152815201930191019091611867565b634e487b7160e01b5f52604160045260245ffd5b34610b50575f366003190112610b5057600c546040516001600160a01b039091168152602090f35b34610b50576020366003190112610b50576004355f525f6020526020600160405f200154604051908152f35b34610b50575f366003190112610b505760ff600a54166040516004821015611710576020918152f35b34610b50575f366003190112610b5057600f546040516001600160a01b039091168152602090f35b34610b50575f366003190112610b505760206040517f591fa5458fe051cc8c02c405479bd38e00713c98dbd3db209d982048f1e638fa8152f35b34610b50575f366003190112610b50576020601454604051908152f35b34610b50576020366003190112610b50576004359063ffffffff60e01b8216809203610b5057602091637965db0b60e01b8114908115611aae575b5015158152f35b6301ffc9a760e01b14905083611aa7565b602435906001600160a01b0382168203610b5057565b600435906001600160a01b0382168203610b5057565b600b54811015611b2457600790600b5f52027f0175b7a638427703f0dbe7bb9bbf987a2551717b34e79f33b5b1008d1fa01db901905f90565b634e487b7160e01b5f52603260045260245ffd5b805180835260209291819084018484015e5f828201840152601f01601f1916010190565b90600182811c92168015611b8a575b6020831014611b7657565b634e487b7160e01b5f52602260045260245ffd5b91607f1691611b6b565b905f91600190600154611ba681611b5c565b8083529260209160018116908115611c215750600114611bc7575b50505050565b9293945060015f527fb10e2d527612073b26eecdfd717e6a320cf44b4afac2b0732d9fcbe2b7fa0cf6925f935b858510611c0e57505050602092500101905f808080611bc1565b8054858501840152938201938101611bf4565b92505050602093945060ff929192191683830152151560051b0101905f808080611bc1565b80545f9392611c5482611b5c565b918282526020936001916001811690815f14611cb85750600114611c7a575b5050505050565b90939495505f92919252835f2092845f945b838610611ca457505050500101905f80808080611c73565b805485870183015294019385908201611c8c565b60ff19168685015250505090151560051b010191505f80808080611c73565b67ffffffffffffffff811161195c57604052565b90601f8019910116810190811067ffffffffffffffff82111761195c57604052565b67ffffffffffffffff811161195c5760051b60200190565b15611d2c57565b60405162461bcd60e51b815260206004820152601d60248201527f506f6f6c436f6e74726163743a20706f6f6c206e6f74206163746976650000006044820152606490fd5b90816020910312610b5057518015158103610b505790565b15611d9057565b60405162461bcd60e51b815260206004820152602260248201527f506f6f6c436f6e74726163743a2055534443207472616e73666572206661696c604482015261195960f21b6064820152608490fd5b6005548015611e0457601354612710908181029181830414901517156115e4570490565b505f90565b600c546001600160a01b03908116908115611e7f57602090600954166024604051809481936370a0823160e01b835260048301525afa9081156115aa575f91611e50575090565b90506020813d602011611e77575b81611e6b60209383611ceb565b81010312610b50575190565b3d9150611e5e565b50505f90565b919082018092116115e457565b159081611f03575b50611ef45760405162461bcd60e51b815260206004820152602760248201527f506f6f6c436f6e74726163743a20656e756d65726174696f6e206e6f742073756044820152661c1c1bdc9d195960ca1b6064820152608490fd5b6009546001600160a01b031690565b9050155f611e9a565b805f525f60205260405f20335f5260205260ff60405f2054161561115d5750565b6001600160a01b03165f8181527fe2d1e94f75a79ebb420050d390c778587704a86b01c12de38aaedee2723d527760205260409020547fb165298935924f540e4181c03493a5d686c54a0aaeb3f6216de85b7ffbba7738919060ff16611e7f57815f525f60205260405f20815f5260205260405f20600160ff1982541617905533917f2f8788117e7eff1d82e926ec794901d17c78024a50270940304540a733656f0d5f80a4600190565b90815f525f60205260405f209060018060a01b031690815f5260205260ff60405f205416155f14611e7f57815f525f60205260405f20815f5260205260405f20600160ff1982541617905533917f2f8788117e7eff1d82e926ec794901d17c78024a50270940304540a733656f0d5f80a4600190565b90815f525f60205260405f209060018060a01b031690815f5260205260ff60405f2054165f14611e7f57815f525f60205260405f20815f5260205260405f2060ff19815416905533917ff6391f5c32d9c69d2a47ea670b442974b53935d1edc7fd64eb21e047a839171b5f80a4600190565b5f8051602061394683398151915260028154146120dd5760029055565b604051633ee5aeb560e01b8152600490fd5b908151811015611b24570160200190565b60038151101561210d5790565b604051906040820182811067ffffffffffffffff82111761195c57604052600382526020820190602036833780516002198101929083116115e4576001600160f81b031992839061215e90846120ef565b5116845115611b24575f1a9053805160011981019081116115e4576121848391836120ef565b51165f1a835160011015611b2457602184015380515f1981019081116115e4576121ad916120ef565b51165f1a815160021015611b245760228201539056fe604060808152346104b2576117828038038061001a816104b6565b928339810160a0828203126104b25781516001600160401b0391908281116104b257816100489185016104db565b9160209182850151908282116104b2576100639186016104db565b61006e86860161052c565b9261008760806100806060890161052c565b970161052c565b928551958187116103d6576003908154946001988987811c971680156104a8575b8688101461049457601f96878111610451575b5080868882116001146103f5575f916103ea575b505f1982861b1c1916908a1b1783555b80518481116103d65760049182548b81811c911680156103cc575b888210146103b95790818984931161036b575b508790898311600114610304575f926102f9575b50505f1982861b1c1916908a1b1781555b81519384116102e657600654908982811c921680156102dc575b868310146102c95750858111610285575b5083948311600114610221576008945f929184610216575b505082881b925f19911b1c1916176006555b600780546001600160a01b0319166001600160a01b0386811691821790925590946101c5906101b586610540565b506101bf816105ac565b5061064b565b506101cf8761064b565b506101d98461064b565b505f525281855f209460ff19958587825416179055165f52845f208385825416179055165f52825f20918254161790555161105d90816106e58239f35b015191505f80610175565b879291601f1983169560065f52855f20925f5b88811061026e57508460089810610255575b50505050811b01600655610187565b01519060f8845f19921b161c191690555f808080610246565b8183015185558b9690940193918701918701610234565b60065f52845f208680860160051c8201928787106102c0575b0160051c019089905b8281106102b557505061015d565b5f81550189906102a7565b9250819261029e565b602290634e487b7160e01b5f525260245ffd5b91607f169161014c565b604190634e487b7160e01b5f525260245ffd5b015190505f80610121565b908c9350601f19831691855f52895f20925f5b8b82821061034c5750508411610335575b505050811b018155610132565b01515f1983881b60f8161c191690555f8080610328565b91929395968291958786015181550195019301908e9594939291610317565b909150835f52875f208980850160051c8201928a86106103b0575b918e91869594930160051c01915b8281106103a257505061010d565b5f81558594508e9101610394565b92508192610386565b602284634e487b7160e01b5f525260245ffd5b90607f16906100fa565b634e487b7160e01b5f52604160045260245ffd5b90508301515f6100cf565b8b9250601f19821690865f52885f20915f5b8a82821061043b5750508311610424575b5050811b0183556100df565b8501515f1983881b60f8161c191690555f80610418565b8389015185558f96909401939283019201610407565b845f52865f208880840160051c82019289851061048b575b0160051c01908b905b8281106104805750506100bb565b5f8155018b90610472565b92508192610469565b634e487b7160e01b5f52602260045260245ffd5b96607f16966100a8565b5f80fd5b6040519190601f01601f191682016001600160401b038111838210176103d657604052565b81601f820112156104b2578051906001600160401b0382116103d65761050a601f8301601f19166020016104b6565b92828452602083830101116104b257815f9260208093018386015e8301015290565b51906001600160a01b03821682036104b257565b6001600160a01b03165f8181525f80516020611762833981519152602052604090205460ff166105a7575f8181525f8051602061176283398151915260205260408120805460ff191660011790553391905f805160206117428339815191528180a4600190565b505f90565b6001600160a01b03165f8181527fa76130cbffd9b33b64b573944ad05adb12481247304469bee8ac721996fc823460205260409020547f9c81408027135c0110a5451971bdd98dbf60c57e65d8cd78b7e1c47105a3ee35919060ff1661064557815f52600560205260405f20815f5260205260405f20600160ff1982541617905533915f805160206117428339815191525f80a4600190565b50505f90565b6001600160a01b03165f8181527f45e747ec8b3ef9fbf0dbc91852a1b6406d924c58bbaa8d947cde92d189a8448560205260409020547f2a3dab589bcc9747970dd85ac3f222668741ae51f2a1bbb8f8355be28dd8a868919060ff1661064557815f52600560205260405f20815f5260205260405f20600160ff1982541617905533915f805160206117428339815191525f80a460019056fe6080604081815260049182361015610015575f80fd5b5f3560e01c9081629597e014610c215750806301ffc9a714610bcd57806306fdde0314610af2578063095ea7b314610a4a57806318160ddd14610a2c57806323b872dd1461093a578063248a9ca3146109105780632f2ff15d146108e8578063313ce567146108cd57806336568abe1461088957806340c10f191461070f57806370a08231146106d95780637295ed931461069f57806388d52ef7146106775780638ab1d6811461061157806391d14854146105cd57806395d89b41146104f55780639dc29fac146103ca578063a217fddf146103b0578063a9059cbb14610380578063d547741f14610344578063d936547e14610308578063dd62ed3e146102bf578063e43252d7146102565763f3466dfa14610131575f80fd5b34610252575f366003190112610252578051905f60065460018160011c9060018316928315610248575b60209384841081146102355783885290811561021957506001146101c3575b505050829003601f01601f191682019267ffffffffffffffff8411838510176101b057508291826101ac925282610c59565b0390f35b604190634e487b7160e01b5f525260245ffd5b60065f908152929350837ff652222313e28459528d920b65115c16c04f3efc82aaedc97be59f3f377c0d3f5b83851061020557505050508301015f808061017a565b8054888601830152930192849082016101ef565b60ff1916878501525050151560051b84010190505f808061017a565b602289634e487b7160e01b5f525260245ffd5b91607f169161015b565b5f80fd5b503461025257602036600319011261025257610270610c83565b610278610eb8565b6001600160a01b03165f8181526008602052918220805460ff19166001179055907f4f783c179409b4127238bc9c990bc99b9a651666a0d20b51d6c42849eb88466d9080a2005b50346102525780600319360112610252576020906102db610c83565b6102e3610c99565b9060018060a01b038091165f5260018452825f2091165f528252805f20549051908152f35b5034610252576020366003190112610252576020906001600160a01b0361032d610c83565b165f526008825260ff815f20541690519015158152f35b503461025257806003193601126102525761037e91356103796001610367610c99565b93835f5260056020525f200154610f13565b610fb3565b005b50346102525780600319360112610252576020906103a961039f610c83565b6024359033610caf565b5160018152f35b5034610252575f36600319011261025257602090515f8152f35b5090346102525781600319360112610252576103e4610c83565b6024356103ef610e3f565b6001600160a01b0382169283156104df57835f526020926008845260ff865f2054161561049e57845f525f8452855f20549183831061046a575f867fddf252ad1be2c89b69c2b068fc378daa952ba7f163c4a11628f55a4df523b3ef87878b81898688528785520381872055816002540360025551908152a3005b865163391434e360e21b81526001600160a01b03909216908201908152602081018390526040810184905281906060010390fd5b606482858089519262461bcd60e51b845283015260248201527f4d4954546f6b656e3a2073656e646572206e6f742077686974656c69737465646044820152fd5b6024905f865191634b637e8f60e11b8352820152fd5b5034610252575f366003190112610252578051905f835460018160011c90600183169283156105c3575b602093848410811461023557838852908115610219575060011461056f57505050829003601f01601f191682019267ffffffffffffffff8411838510176101b057508291826101ac925282610c59565b5f878152929350837f8a35acfbc15ff81a39ae7d344fd709f28e8600b4aa8c65c6b64bfe7fe36bd19b5b8385106105af57505050508301015f808061017a565b805488860183015293019284908201610599565b91607f169161051f565b50346102525780600319360112610252576020916105e9610c99565b90355f5260058352815f209060018060a01b03165f52825260ff815f20541690519015158152f35b50346102525760203660031901126102525761062b610c83565b610633610eb8565b6001600160a01b03165f8181526008602052918220805460ff19169055907f535611fb62fa2a833988f283b779e417e996813e44046f521d76c17b5943b08c9080a2005b5034610252575f3660031901126102525760075490516001600160a01b039091168152602090f35b5034610252575f36600319011261025257602090517f2a3dab589bcc9747970dd85ac3f222668741ae51f2a1bbb8f8355be28dd8a8688152f35b5034610252576020366003190112610252576020906001600160a01b036106fe610c83565b165f525f8252805f20549051908152f35b509034610252578160031936011261025257610729610c83565b60243590610735610e3f565b60018060a01b031692835f526020926008845260ff825f2054168015610881575b1561083657841561082157845f526008845260ff825f205416156107d457600254908382018092116107c157506002555f8481528084528181208054840190559051918252917fddf252ad1be2c89b69c2b068fc378daa952ba7f163c4a11628f55a4df523b3ef91a3005b601190634e487b7160e01b5f525260245ffd5b83608492519162461bcd60e51b8352820152602360248201527f4d4954546f6b656e3a20726563697069656e74206e6f742077686974656c69736044820152621d195960ea1b6064820152fd5b5f602492519163ec442f0560e01b8352820152fd5b83608492519162461bcd60e51b8352820152602160248201527f4d4954546f6b656e3a2061646472657373206e6f742077686974656c697374656044820152601960fa1b6064820152fd5b508415610756565b50346102525780600319360112610252576108a2610c99565b90336001600160a01b038316036108be575061037e9135610fb3565b5163334bd91960e11b81529050fd5b5034610252575f366003190112610252576020905160068152f35b503461025257806003193601126102525761037e913561090b6001610367610c99565b610f35565b503461025257602036600319011261025257602091355f52600582526001815f2001549051908152f35b50903461025257606036600319011261025257610955610c83565b61095d610c99565b906044359260018060a01b038216805f526001602052855f20335f52602052855f2054915f198310610998575b6020876103a9888888610caf565b858310610a005781156109ea5733156109d457505f908152600160209081528682203383528152908690209185900390915582906103a961098a565b6024905f885191634a1406b160e11b8352820152fd5b6024905f88519163e602df0560e01b8352820152fd5b8651637dc7a0d960e11b8152339181019182526020820193909352604081018690528291506060010390fd5b5034610252575f366003190112610252576020906002549051908152f35b5034610252578060031936011261025257610a63610c83565b602435903315610adc576001600160a01b0316908115610ac65760209350335f5260018452825f20825f52845280835f205582519081527f8c5be1e5ebec7d5bd14f71427d1e84f3dd0314c0f7b2291e5b200ac8c7c3b925843392a35160018152f35b8251634a1406b160e11b81525f81860152602490fd5b825163e602df0560e01b81525f81860152602490fd5b5034610252575f366003190112610252578051905f60035460018160011c9060018316928315610bc3575b6020938484108114610235578388529081156102195750600114610b6d57505050829003601f01601f191682019267ffffffffffffffff8411838510176101b057508291826101ac925282610c59565b60035f908152929350837fc2575a0e9e593c00f959f8c92f12db2869c3395a3b0502d05e2516446f71f85b5b838510610baf57505050508301015f808061017a565b805488860183015293019284908201610b99565b91607f1691610b1d565b509034610252576020366003190112610252573563ffffffff60e01b811680910361025257602091637965db0b60e01b8214918215610c10575b50519015158152f35b6301ffc9a760e01b1491505f610c07565b34610252575f36600319011261025257807f9c81408027135c0110a5451971bdd98dbf60c57e65d8cd78b7e1c47105a3ee3560209252f35b602060409281835280519182918282860152018484015e5f828201840152601f01601f1916010190565b600435906001600160a01b038216820361025257565b602435906001600160a01b038216820361025257565b9291906001600160a01b03808516918215610e275716918215610e0f57815f5260209060088252604060ff815f20541615610dcc57845f526008835260ff815f20541615610d7d57835f525f8352805f205496828810610d4e575081849596977fddf252ad1be2c89b69c2b068fc378daa952ba7f163c4a11628f55a4df523b3ef955f525f855203815f2055855f52805f2082815401905551908152a3565b905163391434e360e21b81526001600160a01b0390911660048201526024810187905260448101829052606490fd5b5162461bcd60e51b815260048101839052602360248201527f4d4954546f6b656e3a20726563697069656e74206e6f742077686974656c69736044820152621d195960ea1b6064820152608490fd5b5162461bcd60e51b815260048101839052602481018390527f4d4954546f6b656e3a2073656e646572206e6f742077686974656c69737465646044820152606490fd5b60405163ec442f0560e01b81525f6004820152602490fd5b604051634b637e8f60e11b81525f6004820152602490fd5b335f9081527fa76130cbffd9b33b64b573944ad05adb12481247304469bee8ac721996fc823460205260409020547f9c81408027135c0110a5451971bdd98dbf60c57e65d8cd78b7e1c47105a3ee359060ff1615610e9a5750565b6044906040519063e2517d3f60e01b82523360048301526024820152fd5b335f9081527f45e747ec8b3ef9fbf0dbc91852a1b6406d924c58bbaa8d947cde92d189a8448560205260409020547f2a3dab589bcc9747970dd85ac3f222668741ae51f2a1bbb8f8355be28dd8a8689060ff1615610e9a5750565b805f52600560205260405f20335f5260205260ff60405f20541615610e9a5750565b90815f52600560205260405f209060018060a01b031690815f5260205260ff60405f205416155f14610fad57815f52600560205260405f20815f5260205260405f20600160ff1982541617905533917f2f8788117e7eff1d82e926ec794901d17c78024a50270940304540a733656f0d5f80a4600190565b50505f90565b90815f52600560205260405f209060018060a01b031690815f5260205260ff60405f2054165f14610fad57815f52600560205260405f20815f5260205260405f2060ff19815416905533917ff6391f5c32d9c69d2a47ea670b442974b53935d1edc7fd64eb21e047a839171b5f80a460019056fea2646970667358221220b3c7d2a3b34f0d1a609963938ced275cfe6c8985ebd9edd21fd6cb2239b9d4b464736f6c634300081900332f8788117e7eff1d82e926ec794901d17c78024a50270940304540a733656f0d05b8ccbb9d4d8fb16ea74ce3c29a41f1b461fbdaff4714a0d9a8eb05499746bc9b779b17422d0df92223018b32b4d1fa46e071723d6817e2486d003becc55f00a264697066735822122093f80902432cbac95e3fa9ef908a5d6b24b9bc77018e0e07f4be838bedd3815964736f6c634300081900332f8788117e7eff1d82e926ec794901d17c78024a50270940304540a733656f0db10e2d527612073b26eecdfd717e6a320cf44b4afac2b0732d9fcbe2b7fa0cf6ad3228b676f7d3cd4284a5443f17f1962b36e491b30a40b2405849e597ba5fb5a2646970667358221220d91c47c29485b622eb332043642944af528f44df7601ae3fa35a4436c66f355664736f6c63430008190033",
  "linkReferences": {},
  "deployedLinkReferences": {}
}