{
  "_format": "hh-sol-artifact-1",
  "contractName": "WADE",
  "sourceName": "contracts/WADE.sol",
  "abi": [
    {
      "inputs": [
        {
          "internalType": "address",
          "name": "_usdc",
          "type": "address"
        },
        {
          "internalType": "address",
          "name": "",
          "type": "address"
        },
        {
          "internalType": "address",
          "name": "",
          "type": "address"
        },
        {
          "internalType": "address",
          "name": "",
          "type": "address"
        },
        {
          "internalType": "address",
          "name": "",
          "type": "address"
        }
      ],
      "stateMutability": "nonpayable",
      "type": "constructor"
    },
    {
      "inputs": [
        {
          "internalType": "uint256",
          "name": "principal",
          "type": "uint256"
        },
        {
          "internalType": "uint256",
          "name": "interest",
          "type": "uint256"
        },
        {
          "internalType": "uint256",
          "name": "protocolFee",
          "type": "uint256"
        },
        {
          "internalType": "uint256",
          "name": "totalSupply",
          "type": "uint256"
        }
      ],
      "name": "distributeRepayment",
      "outputs": [],
      "stateMutability": "nonpayable",
      "type": "function"
    },
    {
      "inputs": [
        {
          "internalType": "address",
          "name": "",
          "type": "address"
        },
        {
          "internalType": "address",
          "name": "",
          "type": "address"
        }
      ],
      "name": "settleOnTransfer",
      "outputs": [],
      "stateMutability": "nonpayable",
      "type": "function"
    },
    {
      "inputs": [],
      "name": "usdc",
      "outputs": [
        {
          "internalType": "contract IERC20",
          "name": "",
          "type": "address"
        }
      ],
      "stateMutability": "view",
      "type": "function"
    }
  ],
  "bytecode": "0x608034609b57601f61019838819003918201601f19168301916001600160401b03831184841017609f5780849260a094604052833981010312609b57606d608060468360b3565b9260516020820160b3565b50605c6040820160b3565b5060676060820160b3565b500160b3565b505f80546001600160a01b0319166001600160a01b039290921691909117905560405160d190816100c78239f35b5f80fd5b634e487b7160e01b5f52604160045260245ffd5b51906001600160a01b0382168203609b5756fe60808060405260043610156011575f80fd5b5f3560e01c9081633e413bee14607b575080634a36069114606a5763bffdd9f1146039575f80fd5b3460665760403660031901126066576001600160a01b036004358181160360665760243590811603606657005b5f80fd5b346066576080366003190112606657005b346066575f3660031901126066575f546001600160a01b03168152602090f3fea264697066735822122034784effd63553844f935fa4e77593ab881c8ac2ea5b80adf81012f9bfa44be164736f6c63430008190033",
  "linkReferences": {},
  "deployedLinkReferences": {}
}